:020000040001F9
:109000007862002041FB0200E7E00100EFE0010090
:1090100027EC01006BEE01001FF8010000000000CA
:10902000000000000000000000000000530F0200DC
:109030006F11020000000000BF3C02009F460200CA
:1090400047C502002B6B0200819A0200336F0200B9
:1090500017740200EB840200D91A0200558E020038
:10906000CF890200F3890200079B020099EF0200FA
:109070001FF202002BF20200FBFE0200FDFE0200C6
:10908000FFFE0200C123020001FF020003FF0200F5
:10909000ED23020069EC02004150020005FF0200CE
:1090A00007FF020009FF02000BFF02000DFF020094
:1090B0000FFF020011FF020000000000000000008E
:1090C00013FF020015FF020017FF020019FF020044
:1090D0001BFF02001DFF02001FFF02000000000036
:1090E0000000000000000000000000000000000080
:1090F0000000000000000000000000000000000070
:10910000000000000000000000000000000000005F
:10911000000000000000000000000000000000004F
:10912000000000000000000000000000000000003F
:10913000000000000000000000000000000000002F
:10914000000000000000000000000000000000001F
:10915000000000000000000000000000000000000F
:1091600000000000000000000000000000000000FF
:1091700000000000000000000000000000000000EF
:1091800000000000000000000000000000000000DF
:1091900000000000000000000000000000000000CF
:1091A00000000000000000000000000000000000BF
:1091B00000000000000000000000000000000000AF
:1091C000000000000000000000000000000000009F
:1091D000000000000000000000000000000000008F
:1091E000000000000000000000000000000000007F
:1091F000000000000000000000000000000000006F
:10920000F00604C4410020010004000130012500E3
:109210002019600180C24921F001302C0100013089
:10922000055CF402007F550249F3FF010001F1FFE4
:1092300001F1FA013C012000402F036108110152A5
:10924000FF096108100358FD02006004126804124F
:109250007004127804128004128804129004129888
:109260000412A00412A80412B00422B8201007FAB5
:1092700002007CFC020028FE281108123008123877
:109280000422901812F130110812B0041003B4F83F
:109290000200C00812942412D00812E0041003281F
:1092A000F30200402C124804D2FF0110030090D0BA
:1092B00003F818ADE4034F4BBFF8031245085261A1
:1092C0000C524908F10301613C5004FFFF140001F6
:1092D0001801520001600A156C02000050040000E1
:1092E00020070001E0021BD40100011385B22812FF
:0792F000E0240001F007007B
:10B00000DEC091A90100000000C002009000000015
:10B0100068915B00B0000000536570203230203230
:10B020003031390031343A35313A343700F5E07097
:10B030000268914203D343681A44914202D3806864
:10B040000028F5D17047DFF86C17086890B94FF405
:10B05000805048604FF480324FF0FF30C860086184
:10B060000420DFF854378A604861C3F8BC01DFF878
:10B070004C0708600120704701F1080313F0070F27
:10B080000EBF0023C3F1080303F007031944D21ACB
:10B090008161C26042F001034B60091D4FF0280C32
:10B0A00041F802C0DFF80C271369C36170472DE92E
:10B0B000FC4B074601F1080010F0070F0FBF89464F
:10B0C000C0F1080000F0070001EB000902F10801DF
:10B0D00011F0070F06D002F10800C0F1080000F0DF
:10B0E000070002441546A5EB090009EB0306A0EB97
:10B0F000030B43F00303C9F80430AE4228BF01F04C
:10B1000005FA2879C10758BF01F000FABBF1100F0A
:10B1100038BF01F0FBF9B869854208D1F9688B4462
:10B12000C7F80CB0BE614BF00100706051E1786966
:10B1300085420AD1B9688B44C7F808B07E614BF0EC
:10B140000100706046F80BB043E1686800F003014D
:10B15000012940F0AC80C008C0000190C0081F2841
:10B1600039D8AC68D5F80C800090454508BF01F08F
:10B17000CDF9A54208BF01F0C9F968680099C00877
:10B18000C000B0EBC10F18BF01F0C0F9009907F182
:10B19000280000EBC100844206D039698C42C0F01F
:10B1A0008180E268AA427DD1A04506D10098396825
:10B1B000012383409943396076E0804506D03969A0
:10B1C00088456FD3D8F80800A8426BD1C4F80C802A
:10B1D000C8F8084068E0EC68D5F81880AC420CD09C
:10B1E000A8683969884223D3C268AA4204BFA1680B
:10B1F000A9421DD1C460A0601CE005F114010C68D7
:10B2000034B905F110010C68A4B101E011460C68D5
:10B2100004F114021068002802BF04F11002106843
:10B220000028F3D13869814202D300220A6001E08C
:10B2300001F06CF9B8F1000F36D0E96907F59870A4
:10B2400000EB81000268954208D10460A4B9E86966
:10B250007968012282409143796025E03869804510
:10B2600008D3D8F81010A94214BFC8F81440C8F881
:10B27000104001E001F04AF9B4B139698C4211D3B0
:10B28000C4F81880286928B1884226BF20618461EB
:10B2900001F03CF9686938B13969884202D36061CC
:10B2A000846101E001F032F901996D188B446968FD
:10B2B0004908490069604BF0010070604FEADB0407
:10B2C00046F80BB01F2C23D807F1280000EBC40868
:10B2D0004546BBF1100F38BF01F018F9386820FA65
:10B2E00004F1CA0705D4012101FA04F404433C60C7
:10B2F00007E0D8F80800396988422CBF054601F0FC
:10B3000005F9C8F80860EE60B560C6F80C8060E02A
:10B310005FEA1B2008BF002123D0B0F5803F28BF83
:10B320001F211ED2A0F58072120C02F0080290407C
:10B33000A0F58051090C01F004018840A0F580437C
:10B340001B0CC2F10E0203F00203521AD21A9840EB
:10B3500002EBD032D01D2BFA00F101F0010101EB1C
:10B360004201F161002307F59872736102EB8100DD
:10B3700033617A6822FA01F3DC0707D4012303FA68
:10B3800001F1114379600660B0611DE002681F2978
:10B390001DBF4908C1F119010BFA01F1594600E03E
:10B3A00002465068C008C000584516D002F110038C
:10B3B000C80F03EB8003490018680028F0D13869F2
:10B3C000834204D31E60B261F660B66001E001F012
:10B3D0009DF809F10800BDE8F68B396990688A424A
:10B3E00028BF8842F3D3C6609660B060F260002048
:10B3F000B061EEE72DE9FE4F04468B46A5692E4667
:10B40000904699463146FFF711FE0268416802EB0B
:10B41000010AAAF1270111F007000EBF0021C1F1B6
:10B42000080101F007010AEB0100A0F12F0706F166
:10B4300010018F4238BF374607F1180200210192F0
:10B440000091A8F1280259462046FFF715FE07F1A2
:10B45000080010F0070F18BF01F058F81B207860A3
:10B4600007F1080104F5E07090E80C5081E80C50F9
:10B47000C0F800B0C0F80480C0F80C9081600722CA
:10B480000198009900E0001D491C00F10803534594
:10B490004260F8D30129D8BF01F038F8B74200F074
:10B4A0009580BF1B301D321DC15949084900D1513B
:10B4B00047F0010070604FEAD70BF751BBF11F0F47
:10B4C00021D804EBCB0000F12805A846102F38BF87
:10B4D00001F01CF8206820FA0BF1CA0705D40121FD
:10B4E00001FA0BF10843206006E0A8682169884250
:10B4F0002CBF804601F00AF8AE60C8F80C60C6F8B0
:10B500000880F5606FE0380A08BF002123D0B0F54D
:10B51000803F28BF1F211ED2A0F58072120C02F0BE
:10B5200008029040A0F58051090C01F00401884008
:10B53000A0F580431B0CC2F10E0203F00203521A65
:10B54000D21A984002EBD032D01D27FA00F101F058
:10B55000010101EB420104EB8102002302F5987026
:10B56000F16173613361626822FA01F3DB0707D48A
:10B57000012303FA01F1114361600660B0611DE02F
:10B5800002681F291DBF4908C1F1190107FA01F11D
:10B59000394600E002465068C008C000B84216D0E4
:10B5A00002F11003C80F03EB80034900186800285C
:10B5B000F0D12069834204D31E60B261F660B560A9
:10B5C00011E003B0BDE8F04F00F0A0BF0BE021692F
:10B5D00090688A4228BF8842F3D3C6609560B06005
:10B5E000F2600020B06103B0BDE8F08F2DE9F041BA
:10B5F000704F05463868884608B9FFF724FDB968DA
:10B6000001EB08002F30491E20EA010188457DD258
:10B6100005F5D876B06828B1326889188A4275D2A3
:10B62000884273D300F0B2FF01001CBF0C6811F117
:10B63000010F6BD03068201805F5D8723060536860
:10B64000984238BF18467060A86960BB286908B185
:10B65000814200D22961316174610020F0614FF0B4
:10B66000FF303A686A62286205F128020020D26041
:10B67000926002F1080757611761801C1032202880
:10B68000F5D34D48854208BFA4F1280228D055F8CB
:10B69000040CC00805EBC002A2F108000A19121A36
:10B6A000283A01461CE005F5E070024600E0926889
:10B6B0007AB3136857681F44B942F8D1137B1F0748
:10B6C00027D4AB691768BB4223D3D2F804C06744C0
:10B6D000BB421ED2A444C2F804C0E868A96922187B
:10B6E0002846FFF7C9FC1FE08068C0B10368934299
:10B6F000FAD1027B130712D4026801604368E41890
:10B70000446043462846BDE8F041D0E40020BDE84F
:10B71000F0812A69914238BF29610A19E5E70023BF
:10B7200022462846FFF766FEE8688045EED2A0EB89
:10B730000800A969E86001EB0802AA6140F0010075
:10B74000506048F00300486001F10800BDE8F08156
:10B7500030B4184B1A6882B94FF480525A604FF4D3
:10B7600080344FF0FF32DA601A610422124D9C607F
:10B770005A61C5F8BC21114A1A6011F1400F17D265
:10B780008269AAB1C368283199420BD200F5E071F1
:10B790000C68A24203D34D682C44A24202D38968AC
:10B7A0000029F5D1C16999423CBF4FF0FF32C26117
:10B7B00000F0A8BEF03F0020703200206859883C9D
:10B7C0002DE9F84F00258946090AC9F1000B08BF89
:10B7D000002323D0B1F5803F28BF1F231ED2A1F53F
:10B7E0008072120C02F008029140A1F580531B0CEC
:10B7F00003F004039940A1F58044240CC2F10E0229
:10B8000004F00204D21A121BA14002EBD132D11D66
:10B8100029FA01F303F0010303EB4203074607F59E
:10B82000987858F8230030B31F2B0FBF4C465C08A4
:10B83000C4F1190409FA04F4AC46594600E0640066
:10B840004268D208D200A2EB09028A4203D2110058
:10B85000054600F06981426910304FEAD47B50F808
:10B860002B00002A1CBF824294460028E7D18B4659
:10B870006046B0BBBDBB012202FA03F35B00584235
:10B88000796803430B4000F04E81584203405B1E31
:10B89000180B00F01000C340590901F00801CB401B
:10B8A0009A0802F00402D3405C0804F0020408186D
:10B8B000E3401018C3F3400620183044F3401B182F
:10B8C00058F823000DE008464168C908C900A1EBFB
:10B8D000090159453CBF8B46054601690029F2D153
:10B8E00040690028F0D1002D00F01D81B868A0EB60
:10B8F0000900834580F0178139698D42C0F01181BC
:10B900006868C008C00009EB0B01884218BF00F04E
:10B91000FDFD05EB0906B54280F00381EC68D5F822
:10B9200018A0AC420CD0A8683969884223D3C268F9
:10B93000AA4204BFA168A9421DD1C460A0601CE056
:10B9400005F114010C6834B905F110010C68A4B1BB
:10B9500001E011460C6804F114021068002802BFCF
:10B9600004F1100210680028F3D13869814202D333
:10B9700000220A6001E000F0C9FDBAF1000F36D0E4
:10B98000E86908EB800001688D4209D1046020005D
:10B9900014D1E8697968012282409143796026E0F8
:10B9A0003869824508D3DAF81010A94214BFCAF8E2
:10B9B0001440CAF8104001E000F0A8FDBCB138699D
:10B9C000844212D3C4F818A0286930B1396988427A
:10B9D00026BF2061846100F099FD686938B139693A
:10B9E000884202D36061846101E000F08FFDBBF109
:10B9F000100F0CD2D94449F00300291D6860281D9E
:10BA000051F8092042F0010240F8092088E049F08D
:10BA1000030068604BF0010070604FEADB0046F8FD
:10BA20000BB01F281DD807EBC00101F128043968AD
:10BA300021FA00F2D307A34605D4012202FA00F04E
:10BA40000843386006E0A068396988422CBF834605
:10BA500000F05CFDA660CBF80C60C6F808B0F4609E
:10BA60005EE05FEA1B2008BF002123D0B0F5803FD5
:10BA700028BF1F211ED2A0F58072120C02F008020E
:10BA80009040A0F58051090C01F004018840A0F518
:10BA900080431B0CC2F10E0203F00203521AD21AA9
:10BAA000984002EBD032D01D2BFA00F101F00101D9
:10BAB00001EB4201F16100227261326108EB810009
:10BAC0007A6822FA01F4E30707D4012404FA01F1A9
:10BAD000114379600660B0611DE002681F291DBF37
:10BAE0004908C1F119010BFA01F1594600E002467B
:10BAF0005068C008C000584518D002F11003C80FA4
:10BB000003EB8003490018680028F0D138698342AC
:10BB100004D31E60B261F660B66001E000F0F6FC8E
:10BB200014E100F0F3FC0EE18B46A2E6396990685F
:10BB30008A4228BF8842F1D3C6609660B060F26046
:10BB40000020B061ECE72DE9F84F064688467168A1
:10BB500048420140491E080B00F01000C1404A094C
:10BB600002F00802D1408B0803F00403D9404D08CD
:10BB700005F002051018E9401818C1F34004281810
:10BB800006F5987A2044E14009185AF821104868CF
:10BB9000C008C0000D46A0EB080909E0014648684E
:10BBA000C008C000A0EB080048453CBF81460D46D8
:10BBB00008690028F2D149690029F0D1306985422D
:10BBC000C0F0BF806968C90808EB090BC900594576
:10BBD00018BF00F09BFC05EB08008542009080F048
:10BBE000B080EF68AC69AF420CD0A8683169884278
:10BBF00023D3C268AA4204BFB968A9421DD1C76055
:10BC0000B8601CE005F114010F6837B905F11001A7
:10BC10000F68A7B101E011460F6807F11402106820
:10BC2000002802BF07F1100210680028F3D1306924
:10BC3000814202D300220A6001E000F067FC002C80
:10BC400031D0E8690AEB800001688D4208D10760B5
:10BC50008FB9E8697168012282409143716022E0E6
:10BC60003069844205D32169A94214BF6761276105
:10BC700001E000F04BFCB7B13069874211D3BC61E1
:10BC8000286930B13169884226BF3861876100F088
:10BC90003DFC686938B13169884202D378618761B7
:10BCA00001E000F033FCB9F1100F0BD24BF00300B0
:10BCB000291D6860281D51F80B2042F0010240F850
:10BCC0000B203DE048F003012A1D696049F00100A6
:10BCD00042F80800009941F80990D6F808804FEA28
:10BCE000D80BBBF1200F28BF00F010FCB8F1000FFB
:10BCF00022D006EBCB00776900F12804A246B8F108
:10BD0000100F38BF00F002FC306820FA0BF1CA07B0
:10BD100005D4012101FA0BF10843306006E0A06868
:10BD2000316988422CBF824600F0F0FBA760CAF858
:10BD30000C70C7F808A0FC60C6F808900098706105
:10BD400004E000F0E3FB0020BDE8F28F05F10800FD
:10BD5000BDE8F28F2DE9FE4F0546AFF30080F52DCB
:10BD6000DFF89C6780F004810B2D31BF10250B3567
:10BD7000ED08ED003068EC08E04010F0030F46D00D
:10BD8000C04300F00100041906F1280000EBC408CC
:10BD9000E700D8F808506868C008C000B84218BF6B
:10BDA00000F0B4FBD5F80890454508BF00F0AEFBA5
:10BDB0004D4508BF00F0AAFB6868C008C000B84243
:10BDC00018BF00F0A3FBC84507D13068012101FA74
:10BDD00004F420EA040434600DE03069814508D39E
:10BDE000D9F80C10A94204D1C8F80890C9F80C8001
:10BDF00001E000F08BFB47F00300291D6860281D5F
:10BE0000CA5942F00102C25105F10804F8E0B168D4
:10BE1000A94280F0BE80002800F0A1804FF0010808
:10BE200008FA04F1490000FA04F4484201430C40C6
:10BE300060420440641E200B00F01000C440610901
:10BE400001F00801CC40A20802F00402D4406308CB
:10BE500003F002030818DC401018C4F34007181858
:10BE60003818FC40241806F1280000EBC40AE7004B
:10BE7000DAF80890D9F80400C008C000B84218BF2A
:10BE800000F044FBD9F808B0D14508BF00F03EFBF4
:10BE9000D94508BF00F03AFBD9F80400C008C0003B
:10BEA000B84218BF00F032FBDA4506D1306808FA14
:10BEB00004F420EA040434600DE031698B4508D3B2
:10BEC000DBF80C00484504D1CAF808B0CBF80CA048
:10BED00001E000F01BFB7F1B45F0030009F10402A9
:10BEE000C9F8040047F00101515109EB0502019224
:10BEF000D751B4684FEAD40ABAF1200F28BF00F036
:10BF000005FB34B3CDF800A006F12800756900EBFD
:10BF1000CA0AD346102C38BF00F0F8FA31680098EE
:10BF200021FA00F2D30704D408FA00F00843306085
:10BF300007E0DAF80800316988422CBF834600F038
:10BF4000E5FACAF80850CBF80C50C5F808B0C5F8A7
:10BF50000CA0B76009F108040198706150E07068A6
:10BF6000C0B329463046FFF7EEFD040011D047E08C
:10BF700015F1400F28BF4FF0FF350AD20B35ED0801
:10BF80007068ED0028B129463046FFF719FC04001F
:10BF900036D1B068A8421DD3411B726910290AD35B
:10BFA00050197061B16041F001034360415045F0A8
:10BFB000030555600BE00021B1607161131D40F075
:10BFC00003015160111D1C5844F001040C5002F192
:10BFD000080415E0F06885420DD2401BB169F0609D
:10BFE0004A19B26140F00100506045F003054D6010
:10BFF00001F1080404E029463046FFF7F7FA044649
:10C00000AFF300802046FFF7EEBA002800D170475A
:10C010002DE9F047A0F10805AFF30080DFF8E064F8
:10C0200031698D42C0F05982686800F00302012A2C
:10C0300000F05382C2084FEAC209C20705EB0908A3
:10C0400039D42C6810F0030F00F049826042054497
:10C050008D42A144C0F041827069854200F0C680E3
:10C06000E408202C5ED2D5F80CA0AF68554508BF77
:10C0700000F04CFABD4208BF00F048FA6868C008FA
:10C08000C000B0EBC40F18BF00F040FA06F1280062
:10C0900000EBC400874205D031698F423FD3FA6874
:10C0A000AA423CD1BA452CD13068012101FA04F4EE
:10C0B00020EA04043460454580F00F82D8F804403B
:10C0C000E00740F10A82A10700F16881B06980456C
:10C0D00040F09F80F168B5618944C6F80C9049F042
:10C0E0000100686071698D4202D100207061B0600A
:10C0F000F069484580F0F38100213046FFF728FBC6
:10C10000EDE1824506D03069824508D3DAF808109F
:10C11000A94204D1C7F80CA0CAF80870CBE700F018
:10C12000F5F9C8E7EC68AF69AC420BD0A868884263
:10C1300022D3C168A94204BFA268AA421CD1C4602C
:10C14000A0601BE005F11402146834B905F1100277
:10C1500014689CB101E01A46146804F114031868CD
:10C16000002802BF04F1100318680028F3D18A42A6
:10C1700002D30021116001E000F0C8F9002F9AD02D
:10C18000E96906F5987000EB81000268954209D1D3
:10C190000460200011D1E869716801228240914356
:10C1A000716088E73069874205D33969A94214BFB5
:10C1B0007C613C6101E000F0A9F9002C3FF47BAF09
:10C1C00031698C42ABD3A761286928B1884226BF68
:10C1D0002061846100F09AF9686900283FF46BAF30
:10C1E000316988429BD36061846164E798F80400F8
:10C1F00000F0030003287FF45EAFC6F8089049F012
:10C200000101D8F8040040084000C8F80400696043
:10C210000AE0706980450AD1B16875618944C6F841
:10C22000089049F00100686045F8099057E1E4087A
:10C23000E400A144E408202C3AD2D8F80CA0D8F8A5
:10C240000870D04508BF00F061F9B84508BF00F09C
:10C250005DF9D8F80400C008C000B0EBC40F18BFE7
:10C2600000F054F906F1280000EBC400874207D023
:10C2700031698F42C0F08580FA68424540F0818084
:10C28000BA4507D13068012101FA04F420EA040418
:10C29000346078E0824506D03069824571D3DAF89F
:10C2A000081041456DD1C7F80CA0CAF808706AE0C3
:10C2B000D8F80C40D8F8187044450DD0D8F80800CC
:10C2C0003169884223D3C268424504BFA168414511
:10C2D0001DD1C460A0601CE008F114010C6834B9E1
:10C2E00008F110010C68A4B101E011460C6804F1DA
:10C2F00014021068002802BF04F110021068002820
:10C30000F3D13069814202D300220A6001E000F0DB
:10C31000FDF8002F37D0D8F81C1006F5987000EB08
:10C320008100026890450AD10460200012D1D8F83B
:10C330001C007168012282409143716023E03069E2
:10C34000874205D33969414514BF7C613C6101E0F6
:10C3500000F0DCF8BCB131698C4212D3A761D8F887
:10C36000100028B1884226BF2061846100F0CEF819
:10C37000D8F8140038B13169884202D36061846111
:10C3800001E000F0C3F849F00100686045F8099049
:10C3900071698D420BD1C6F80890A0E06408640072
:10C3A000C8F8044049F00100686045F809904FEA78
:10C3B000D907202F22D206F1280000EBC704A0469F
:10C3C000B9F1100F38BF00F0A1F8306820FA07F17A
:10C3D000CA0705D4012101FA07F70743376006E0D1
:10C3E000A068316988422CBF804600F08FF8A560B4
:10C3F000C8F80C50C5F80880EC6070E05FEA1920BE
:10C4000008BF002123D0B0F5803F28BF1F211ED2D6
:10C41000A0F58072120C02F008029040A0F5805145
:10C42000090C01F004018840A0F580431B0CC2F107
:10C430000E0203F00203521AD21A984002EBD032D5
:10C44000D01D29FA00F101F0010101EB420106F5CE
:10C450009872002302EB8100E9616B612B617268C5
:10C4600022FA01F3DC0707D4012303FA01F1114397
:10C4700071600560A8611DE002681F291DBF4908A1
:10C48000C1F1190109FA01F1494600E0024650687C
:10C49000C008C000484526D002F11003C80F03EBC6
:10C4A0008003490018680028F0D13069834204D322
:10C4B0001D60AA61ED60AD6001E000F027F8306A10
:10C4C000401E30620BD1D6F8C80100E08068002819
:10C4D000FCD14FF0FF30306201E000F017F8AFF30D
:10C4E0000080BDE8F087316990688A4228BF8842A1
:10C4F000E3D3C5609560A860EA600020A861DEE72C
:10C500007032002030BC002070470000012000F095
:10C5100053B8F0B40246106895681318506803EBDE
:10C520005004C0071DD54D441BE013F8017B05F8EE
:10C53000017B491EF9D1A0B1B60813F8011B06F022
:10C540000306032E08BF13F8016B01EB06214942D5
:10C55000801C294405D011F8016B05F8016B401EC1
:10C56000F9D1A3420ED013F8016B16F0030104BFFA
:10C5700013F8011BC91C30090F28DAD113F8010B7D
:10C580000F30D6E7F0BC02F10C007047074908688D
:10C5900008B1002070470648C008C000086005497F
:10C5A000C908C900091A0160704700BF3C42002059
:10C5B0007F62002078A20020202109032631182064
:10C5C000ABBEF9E710F0030F01D1012000E000201D
:10C5D000C0B2704738B504000025042D0BD2DFF837
:10C5E000B41A51F82500002803D0200051F8251076
:10C5F00088476D1CF1E731BD0278012A09D03BD391
:10C60000032A14D008D3052A2AD020D3062A30D0F2
:10C6100032E000220A702FE001220A7002898A812A
:10C620008288CA81C2688A6000220A7424E00222D9
:10C630000A7002898A818288CA81C2688A60827D82
:10C64000062A01D1012200E000220A7414E003222C
:10C650000A70C2888A810289CA81C2688A600BE036
:10C6600004220A70C2888A810022CA8100228A605C
:10C6700002E005220A70FFE7704702008A4205D2F5
:10C68000106810F1010F01D0012000E00020C0B2BD
:10C690007047418800EB81000C30704738B50400CA
:10C6A0000D002000FFF7F5FF854201D202200AE0CD
:10C6B000A0884FF6FF71884202D02088002801D15F
:10C6C000012000E0002032BD10B50400002C0ED087
:10C6D000DFF8BC0BC1688C4209D30069A04206D3C5
:10C6E0002000FFF76FFF002801D0012000E00020AC
:10C6F000C0B210BD0100002904D00868DFF8C82AC4
:10C70000904201D003200BE04868DFF8882B801AA4
:10C7100003D0401E03D1012002E0002000E00320EE
:10C72000704701000022B2F5806F08D251F8220054
:10C7300010F1010F01D0002002E0521CF3E70120AC
:10C74000704710B41423DFF8504B020092B25A43E2
:10C75000224412895118020092B203FB02F304EB47
:10C7600003025289511889B2B1F5806F01DA0120B4
:10C7700000E00020C0B210BC704770B402000A2074
:10C7800000231C00A4B2022C19DA1424DFF8085B81
:10C790001E00B6B266432E4476688E420DD21E004D
:10C7A000B6B204FB06F42C44646814F58054A1422C
:10C7B00003D200242000138001E05B1CE1E770BC81
:10C7C00070472DE9F8430D00140010F5805610F164
:10C7D000080702202880B84631004046FFF74DFF89
:10C7E00000282AD031004046FFF758FF81464846CE
:10C7F000C0B200280AD1DFF84C0B0168D8F8082035
:10C8000091420FD2D8F8081001600BE0002C01D043
:10C81000012020704846C0B2022803D14FF4806046
:10C8200028800AE02888B8F80210C91C0818288057
:10C830004046FFF72EFF8046CEE7BDE8F1838A7DB4
:10C84000032A04DB0289CB88DB1C9A180281438906
:10C85000CA889B1ADB1E4381704780B50020009078
:10C860000823DFF8E42ADFF8E40A0168DFF8200A89
:10C8700001F0E2F802BD1CB504000020009008237E
:10C88000DFF8CC2A2100DFF8080A01F0D5F816BD40
:10C890002DE9F04705000E000024EF1C380080B29F
:10C8A00040F2FE31884201DB092035E05FF00008EC
:10C8B000404680B2022829DA5FF01409DFF8D8A9CF
:10C8C000404680B209FB00F01AF8000000281AD197
:10C8D000390089B2404680B2FFF733FF002812D0FA
:10C8E00001200400A6F80080404680B209FB00F059
:10C8F0005044414689B209FB01F90AEB0901498913
:10C900007918418102E018F10108D1E7E4B2002C66
:10C9100001D0002000E00720BDE8F08730B41422E9
:10C92000DFF874390C00A4B254431C440D00ADB2BE
:10C9300002FB05F21A445289121AD21E628130BCDF
:10C94000704780B50121DFF8FC0901F08BFA02BDC8
:10C950002DE9F04105000E001420DFF83C192A00F3
:10C9600092B242430A44526812F580573468002C50
:10C9700004D02000FFF78DFE804607E02A0092B227
:10C9800000FB02F00844406810F1080839004046F6
:10C99000FFF773FE002814D039004046FFF77EFEF3
:10C9A000002803D002280AD004D3EFE7C6F800809D
:10C9B000012007E04046FFF76CFE8046E6E70020D6
:10C9C00000E00020BDE8F08138B504000D0060688B
:10C9D000FFF77AFE002815D02089DFF8A81B098907
:10C9E00088420FD120686168896888420AD16168ED
:10C9F0002800FFF7C2FE002801D1012000E000203E
:10CA0000C0B21EE0002028802888022818DA002002
:10CA1000009069462888FFF79BFF00280CD00099FA
:10CA2000886822689042F4D100986060DFF8540B67
:10CA300000892081012004E02888401C2880E3E749
:10CA4000002032BDF8B504000D0016001F00DFF80D
:10CA5000500B0078002801D1022034E0002E01D0D4
:10CA6000002F01D105202EE0B88802282ADADFF84D
:10CA70002818BA8814204243885C00281ED1390047
:10CA8000B888FFF765FF002816D03968002C03D05E
:10CA9000888822889042F2D1002D03D008882A8805
:10CAA0009042ECD18868306038687060DFF8D40A52
:10CAB00000893081002006E000203860B888401CE2
:10CAC000B880D1E70A20F2BD2DE9F0410400210031
:10CAD000DFF8000C006801F098FA05001C2600271A
:10CAE000A8463A003100404601F0CAFA2800BDE8E5
:10CAF000F08110B504002100DFF8D80B006801F0C8
:10CB000093FA10BD10B504002100DFF8C80B0068CF
:10CB100001F098FA10BD10B504002100DFF8B40B45
:10CB2000006801F09EFA10BD80B50121DFF8040C09
:10CB300001F0A6F9002801D0012000E00020C0B2D9
:10CB400002BD2DE9F84F00240025032600275FF0E1
:10CB50000008404680B2032880F2A980DFF8300741
:10CB6000C168424692B24FF48050424301EB020941
:10CB70004846FFF7BFFD82465046C0B2002843D06A
:10CB8000012862D0032840F08F804846FFF7C9FD96
:10CB9000002827D0DFF8B4170868002819D014201F
:10CBA000DFF8141A02222B009BB24343CA542A0016
:10CBB00092B242430A44C2F804902A0092B200FBA7
:10CBC00002F0084402210181DFF8B80945806D1C9C
:10CBD00005E0C1F80090022088800120070054F091
:10CBE000010410E0761E1420DFF8CC192A0092B25E
:10CBF00042430A44C2F8049003222B009BB200FB7C
:10CC000003F00A546D1C4FE01420DFF8AC19002229
:10CC10002B009BB24343CA542A0092B242430A44B7
:10CC2000C2F804902A0092B242430A4410322B0008
:10CC30009BB200FB03F0084410F108014846FFF7DF
:10CC4000C0FD54F002046D1C2EE03800C0B2002874
:10CC500017D01420DFF8601902222B009BB2434347
:10CC6000CA542A0092B242430A44DFF8E0361B68F5
:10CC700053602A0092B200FB02F0084402210181B5
:10CC80006D1CDFF8C8B6CBF8009000221BF1040140
:10CC90004846FFF796FDBBF80400022801D10420A6
:10CCA00000E008200443FFE718F1010851E73000D5
:10CCB00080B2022801DA002004002000C0B2BDE8E2
:10CCC000F28F38B504000D000220A07500200090FE
:10CCD0000423221D2900DFF8140B00F0ADFE00280C
:10CCE00001D1002000E00E2032BD38B504000D0057
:10CCF0002069002801D0032000E00120A075002059
:10CD00000090042314F10C0215F10801DFF8DC0A8D
:10CD100000F092FE002801D1002000E00E2032BD7C
:10CD200038B504000D002078032801D1052000E06B
:10CD30000620A07500200090042314F10802291D8C
:10CD4000DFF8A80A00F078FE002801D1002000E0FA
:10CD50000E2032BD7CB504000D000020009004239D
:10CD6000DFF88C2A2100DFF8280500F065FE0100BD
:10CD7000002901D00E200AE00122DFF83C382E0005
:10CD8000B6B21420464303EB06000274002076BDC1
:10CD900038B584B0040001A800210022002380E8F7
:10CDA0000E00E0680190694601A8FFF70DFE00281B
:10CDB0000AD0029DA888E08028882081BDF8001054
:10CDC0000298FFF7C7FF00E00A2005B030BD2DE94B
:10CDD000FF410500DFF81C6A33006A460021A81DE8
:10CDE000FFF730FE0400002C05D1B1880198FFF751
:10CDF000B1FF040007E008275FF000084246390051
:10CE0000300001F03DF9200004B0BDE8F08138B5F4
:10CE100004000D000120A07500200090E088830030
:10CE2000226915F10C01DFF8C40900F005FE0028A5
:10CE300001D1002000E00E2032BD10B4DFF844170D
:10CE40000889401C088100204880002008730022C7
:10CE5000100080B2022811DADFF85C371400A4B2A7
:10CE600014204443185D002801D1012000E0002077
:10CE700013009BB20B449872521CE9E710BC704738
:10CE800030B4020000210023180080B2022825DA05
:10CE9000DFF8F046180080B22044807A00281BD0CA
:10CEA00000201D00ADB22C44A0721424DFF80857F6
:10CEB000180080B260432844C06800280CD11800D4
:10CEC00080B204FB00F405EB0400007C012803D1D0
:10CED00013800120010001E05B1CD5E70800C0B20F
:10CEE00030BC704780B50520DFF898160870DFF871
:10CEF0005C0402218180002301220168DFF8EC0834
:10CF000000F052FE02BD70B5DFF878164C8814258B
:10CF1000DFF88463200080B268433044C068002892
:10CF20000FD10420087000230122200080B205FBED
:10CF300000F506EB05004168DFF8B00800F034FEAC
:10CF400001E0FFF7CFFF70BD7CB5DFF8380644681D
:10CF5000DFF8F8130A68898802EB81056688F61CF9
:10CF60000321017000210091310089B28B004268D9
:10CF70002900DFF8780800F05FFD76BD80B5DFF8A6
:10CF8000CC08011D4088FFF7E3FC002802D0FFF722
:10CF9000DBFF01E0FFF7B7FF02BD80B5DFF8E40576
:10CFA00006210170DFF8101642881420424301EB7D
:10CFB00002004068FFF75FFC02BD80B5DFF8C405E2
:10CFC0000721017000214160FFF747FC02BD10B549
:10CFD000DFF8B045A01CFFF753FF002808D1002060
:10CFE0002070002060800020606041F61D5001E04C
:10CFF000FFF7C4FF10BDDFF88C0540684188C91CED
:10D00000DFF848239388CB189380704730B4DFF85B
:10D010003C1308681422DFF86C35DFF89C455D8806
:10D02000554325446D680D605D885543254468600F
:10D030005B8802FB03F222448B88138102228A80E0
:10D0400030BC704710B5DFF83C45207800280AD086
:10D0500003280DD0042810D0052813D0062811D09D
:10D06000072812D014E0FFF7E8FE012020700FE03F
:10D07000FFF7C1FF022020700AE0FFF7C7FF06207C
:10D08000207005E00720207002E001202070FFE7FB
:10D0900010BD0000544000202DE9F04104000E00B6
:10D0A0000F25002C05D00020DFF8A41748600120D0
:10D0B00088E03079002805D002283AD008D3032828
:10D0C00044D076E001203071FFF7C7FB050070E027
:10D0D00000275FF00008404680B202281BDA1420C7
:10D0E0006D49424692B242438A5C022A10D1002224
:10D0F00043469BB24343CA5401221700424692B2B0
:10D1000000FB02F008444068FFF7B5FB050002E0B1
:10D1100018F10108DFE73800C0B2002808D1DFF8B5
:10D120003007012101700021416041F61D5049E0A6
:10D130003FE00020307185480221818000230122D8
:10D140000168534800F030FD050032E000203071E6
:10D150007E4F3868FFF78FFB0500DFF82804408812
:10D16000396814224C4B84461FFA8CFC02FB0CFCE1
:10D170009C44DCF804C0C7F800C084461FFA8CFC4D
:10D1800002FB0CFC9C44CCF8041084461FFA8CFC77
:10D1900002FB0CFC9C44B7F804E0ACF808E05FF03C
:10D1A000020CA7F804C0002780B202FB00F29F54D3
:10D1B000FFE7002D05D00020DFF8941648600E2010
:10D1C00000E00020BDE8F081DEC0ADDE2DE9F041D9
:10D1D00004000E003049B28A1420424301EB0207DA
:10D1E000002C05D031003800FFF729FB01204DE06D
:10D1F0007868398900EB8108B07D002817D00228B3
:10D200001BD026D3042804D01DD3062833D026D320
:10D2100034E0DFF8400600214160B1690160DFF8C9
:10D220003816FFF7D1FB002801D10A202EE0414635
:10D230003000FFF746FD050021E041463000FFF7D2
:10D2400054FD05001BE041463000FFF7E0FD0500FE
:10D2500015E041463000FFF763FD05000FE00620B2
:10D26000B075DFF8F4050188DFF8E8054068FFF7DE
:10D2700071FD050003E041F61D5500E00F25002D6E
:10D2800003D031003800FFF7DAFA2800BDE8F0815A
:10D29000CC290020FE011EF1903E002038B504008C
:10D2A0000D00002C01D0012019E02879002803D0BE
:10D2B000022810D006D311E0022028712800FFF7C1
:10D2C00067FD0CE02800FFF782FD0A2802D141F635
:10D2D0001D51080003E041F61D5000E00F2032BD53
:10D2E00038B50400002C01D0012029E0A54D287B91
:10D2F000002802D00020287301E0FFF7A3FE287861
:10D3000001280AD002280BD003280CD004280DD005
:10D3100006280ED007280FD011E0FFF758FE0FE0C7
:10D32000FFF72CFE0CE0FFF70FFE09E0FFF7EBFD27
:10D3300006E0FFF732FE03E0FFF73FFE00E00F20BC
:10D3400032BD0000FC410020E8FC020068410020E2
:10D35000F0FC020030B585B00400DFF80055286805
:10D36000002804D1DFF8F804FFF7CCFB2860286818
:10D370000078012809D01FD303280CD00BD305282F
:10D380000FD00ED3062812D016E029682000FFF730
:10D3900083FE040012E029682000FFF717FF040055
:10D3A0000CE029682000FFF779FF040006E0200068
:10D3B000FFF796FF040001E00F200400002C1ED0B0
:10D3C0006846142100F090FE41F61D50844201D1C0
:10D3D000002000E02000019069462868FFF70CF962
:10D3E0006846FFF7F7F80020286000200400DFF807
:10D3F0007004FFF790FBFFF797FB0028ADD105B055
:10D4000030BD80B50121DFF82C0300F01DFD0028A0
:10D4100002D10020FFF79EFF01BD10B50400606837
:10D42000FFF798FF10BD2DE9FE4F04000D00160018
:10D4300099465FF0000A5FF000085948007800281C
:10D4400001D102206DE0002D01D1052069E028887E
:10D450004FF6FF71884202D06888002801D104206D
:10D460005FE06868FFF7AEF8002801D1032058E0BC
:10D47000002E0BD1D5F808B06946584680B2FFF7A8
:10D4800007FA0700002F06D038004AE03088ADF8D0
:10D490000000B6F802B001A8FFF716FB8046B8F10D
:10D4A000000F07D1BDF80010584680B2FFF736FADA
:10D4B000082036E088F80090002088F81600BDF8B3
:10D4C0000000A8F814006868C8F81000FFF739FADF
:10D4D000C8F80C002888A8F808006888A8F8040094
:10D4E000A8F806B04846C0B2032805D1042088F841
:10D4F00016002068C8F81800A8F80AA001A8FFF7CD
:10D50000F8FA002C0AD000206060D8F80C002060E7
:10D510000020A072DFF8340300892081FFF771FF3B
:10D520000020BDE8FE8F10B50400DFF83803016865
:10D53000042901D10C2008E0DFF82C13026841F81F
:10D540002240012100F08EFC002010BDDFF81C03FA
:10D550000068DFF81C130968DFF81823126810F15F
:10D56000010F01D110004843704738B54FF44054C3
:10D57000DFF87852FFF7EAFF28612869001BE860AE
:10D5800031BD00007440002080B5FFF7EEFF00229F
:10D59000DFF8E412DFF8540200F074F902BD000075
:10D5A0006041002080B51C238C22DFF8D01249484E
:10D5B000006800F002FD01BD903E002070B586B00D
:10D5C00001A8142100F090FDDFF88452287800288B
:10D5D00004D001A8FEF7FEFF002053E0281D00F054
:10D5E0005CFC002801D000204CE0FFF7CDFF0400D8
:10D5F000002C01D0200045E0FFF7D4FFFFF7A1FA8F
:10D6000006003000C0B2002804D0022802D006284C
:10D6100002D00AE00B2035E001202870002068606D
:10D6200001A8FEF7D7FF00202CE06846FFF74CFA70
:10D630000500002D01D1082024E0012028703000D1
:10D64000C0B201280CD003280AD0052811D0072821
:10D650000FD0092807D00A2808D00B2803D00BE0E8
:10D660000020287108E00320287105E002202871BD
:10D6700002E001202871FFE76846FFF73AFAFFF75A
:10D68000C0FE002006B070BD7CB504000D00002C6B
:10D6900001D0002D01D105201BE069462000FFF7D5
:10D6A00093F9002814D066680121DFF8D421BDF871
:10D6B00000301420434302EB03000C3000F0D2FB97
:10D6C0002E6060680C3068600120A072002000E0CD
:10D6D0000A2076BDA4FE02001CB50400002C01D176
:10D6E000052025E069462000FFF76EF900281ED0CE
:10D6F0001421DFF88C21BDF8000048431044C068B5
:10D70000002812D0A07A00280FD0BDF800004843AE
:10D710001044BDF8003001FB03F11144C968491EF3
:10D72000C1600020A072002002E0062000E00A2074
:10D7300016BD0000F441002038B504000D0002239E
:10D74000002229002000FFF76EFE32BD38B504002C
:10D750000D00002C01D1052005E003230022290043
:10D760002000FFF760FE32BD38B50500384800786C
:10D77000002801D102201AE028004FF6FF7180B284
:10D78000884201D1042012E06846FFF79DF90400A9
:10D79000002C01D108200AE0052020700120207112
:10D7A000E5806846FFF7A5F9FFF72BFE002032BDA4
:10D7B0001CB527480078002801D1022015E06846F2
:10D7C000FFF782F90400002C01D108200DE00620AB
:10D7D00020706846FFF78DF91C490878002801D0B1
:10D7E00001200873FFF70DFE002016BDCC29002094
:10D7F000A8FE02007041002033B581B014001D0066
:10D800002B00220002A901A8FFF71CF93EBD31B58B
:10D810000C0015002B00220069460020FFF712F9CA
:10D8200032BD31B50C0015002B00220000216846E6
:10D83000FFF708F932BD0200002A01D0002901D10A
:10D84000052002E010680860002070477440002046
:10D8500060410020EC4000204242002000420020B5
:10D8600004420020F8410020544000201410001011
:10D8700010000010140000103CF00200B03900202D
:10D88000903E0020F8B504000D001700002C14D1C4
:10D890000E200090DFF85434DFF85424DFF85414DD
:10D8A000DFF85404DFF85464801BC008000450F013
:10D8B000010000F043FE0E201CE0002D14D10E20CC
:10D8C0000090DFF82834DFF83824DFF82814DFF878
:10D8D0002804DFF82864801BC008000450F0010011
:10D8E00000F02CFE0E2005E02560390020002268A3
:10D8F00012689047F2BD2DE9FC41040088461500EE
:10D900001E00002C14D10E200090DFF8FC33DFF84D
:10D91000E023DFF8E013DFF8E003DFF8E073C01B7B
:10D92000C008000450F0010000F008FE0E2081E065
:10D93000002D14D10E200090DFF8CC33DFF8CC237B
:10D94000DFF8B013DFF8B003DFF8B073C01BC00816
:10D95000000450F0010000F0F1FD0E206AE02068A4
:10D96000002814D108200090DFF89C33DFF89423BE
:10D97000DFF88013DFF88003DFF88073C01BC00876
:10D98000000450F0010000F0D9FD082052E0002E04
:10D9900013D109200090DFF8703382A2DFF854130E
:10D9A000DFF85403DFF85473C01BC008000450F0C4
:10D9B000010000F0C3FD09203CE0404600F0D1F931
:10D9C000002814D110200090DFF83C33DFF840230A
:10D9D000DFF82013DFF82003DFF82073C01BC00836
:10D9E000000450F0010000F0A9FD102022E03200F8
:10D9F0004146200000F0A8F9002814D11020009022
:10DA0000DFF80433DFF80C23DFF8E812DFF8E80270
:10DA1000DFF8E872C01BC008000450F0010000F0FD
:10DA20008DFD102006E033002A00414620002768C3
:10DA3000BF68B847BDE8F6812DE9F8430400884681
:10DA400015001E00DDF82090002C10D10E20009053
:10DA5000DFF8C432A64AA749A748A84FC01BC00890
:10DA6000000450F0010000F069FD0E2098E0002D48
:10DA70000FD10E200090A84BA84A9E499E489F4F68
:10DA8000C01BC008000450F0010000F057FD0E203C
:10DA900086E0206800280FD1082000909E4B994A0C
:10DAA00094499548954FC01BC008000450F00100F0
:10DAB00000F044FD082073E0002E0FD109200090F3
:10DAC000954B38A28B498C488C4FC01BC008000472
:10DAD00050F0010000F032FD092061E0606840680C
:10DAE000B6FBF0F100FB116000280FD00920009078
:10DAF000894B8B4A7F498048804FC01BC008000477
:10DB000050F0010000F01AFD092049E0404600F005
:10DB100028F900280FD1102000907F4B814A7549C9
:10DB20007548764FC01BC008000450F0010000F09B
:10DB300005FD102034E0280000F013F900280FD173
:10DB400010200090744B784A6A496B486B4FC01B99
:10DB5000C008000450F0010000F0F0FC10201FE0AD
:10DB600032004146200000F0EFF800280FD11020CD
:10DB70000090694B6D4A5F495F48604FC01BC00809
:10DB8000000450F0010000F0D9FC102008E0CDF8AE
:10DB9000009033002A00414620002768FF68B847FC
:10DBA000BDE8F2836C656E002DE9FC4104000F00B6
:10DBB00015009846002C0FD10E2000905C4B4C4A6B
:10DBC0004C494D484D4E801BC008000450F00100E8
:10DBD00000F0B4FC0E205BE0206800280FD1082084
:10DBE0000090534B474A43494348444E801BC0086A
:10DBF000000450F0010000F0A1FC082048E0002DD6
:10DC00000FD1092000904A4B37A23A493A483B4E7F
:10DC1000801BC008000450F0010000F08FFC0920B8
:10DC200036E03900200000F0A4F800280FD11020C1
:10DC300000903F4B3F4A2F492F48304E801BC00871
:10DC4000000450F0010000F079FC102020E0606832
:10DC5000026802FB05F23900200000F075F8002888
:10DC60000FD110200090324B334A22492248234ED4
:10DC7000801BC008000450F0010000F05FFC102081
:10DC800006E043462A003900200026683669B0477E
:10DC9000BDE8F68138B50400002C02D020680028C9
:10DCA0001DD1002525492648091A1420B1FBF0F0A2
:10DCB000854212D22348142101FB05F108440400D7
:10DCC0002068002807D020002168C96988470028FB
:10DCD00001D0012007E06D1CE4E7002003E02000F4
:10DCE0002168C969884732BD6C656E0074F702000F
:10DCF00030FD02002CEA020094CE020064CE020045
:10DD000038FD0200BCFB020088F7020040FD020063
:10DD1000ECF40200BCEC02009CF7020048FD02009B
:10DD200058EA020004F5020048EE0200E4EC0200AA
:10DD3000B0F702000CED02002CDE0200F4290020F6
:10DD4000B8290020B8290020C368994206D3006989
:10DD50005118491E884201D3012000E00020C0B2C2
:10DD6000704710F0030F01D1012000E00020C0B285
:10DD7000704740680068401E014201D1012000E068
:10DD80000020C0B2704730B4002513E050F8042BD7
:10DD9000D30744BFA9F101039A18091F042942F8C7
:10DDA000045BFAD213468C0744BF15809B1CC9073D
:10DDB00048BF1D7050F8041B0029E7D130BC7047E4
:10DDC00010B4020052E8000F0B4642E8003494F011
:10DDD000000FF7D110BC704710B4020052E8000FDA
:10DDE00040EA010342E8003494F0000FF6D110BC81
:10DDF0007047000010B4020052E8003F43EA0100FF
:10DE000042E8000494F0000FF6D110BC7047000007
:10DE100010B4020052E8000F00EA010342E80034A7
:10DE200094F0000FF6D110BC7047000010B402004F
:10DE300052E8003F03EA010042E8000494F0000FBA
:10DE4000F6D110BC7047000010B4020052E8000F79
:10DE500000EB010342E8003494F0000FF6D110BC4F
:10DE60007047000010B4020052E8003F03EB0100CD
:10DE700042E8000494F0000FF6D110BC7047000097
:10DE800010B4020052E8003FA3EB010042E8000496
:10DE900094F0000FF6D110BC704710B504000121BA
:10DEA0002000FFF799FF10BD10B5040001212000EC
:10DEB000FFF7A0FF10BD10B5040000212000FFF700
:10DEC000A7FF10BD3CB4020052E8015FABB2D48999
:10DED00023449489A34228BF1B1B1489A34202BF79
:10DEE000BFF32F8F002007E0C3EA050342E80134A7
:10DEF000002CE9D14FF0010001958DF80000019848
:10DF000008609DF8000036BC7047000050E8012F03
:10DF1000C2EA024240E801210029F7D1704700001F
:10DF20003CB4020052E8025F1FFAA5F3D488A34272
:10DF300002BFBFF32F8F00200DE0D48923449489C2
:10DF4000A34228BF1B1BC5EA034342E80234002C4E
:10DF5000E8D14FF0010001958DF8000001980860AC
:10DF60009DF8000036BC704750E8022FC2EA2242FA
:10DF700040E802210029F7D17047000081B001007C
:10DF800051E8022FCB88B2EB324F4FF0000017BFA1
:10DF900092B243EA034342EA034304E04A68B2EB25
:10DFA000324F08BF012041E80232002AE8D18DF843
:10DFB00000009DF8000001B0704770B40400002913
:10DFC00001D10E2013E0100080B21D00ADB290FB15
:10DFD000F5F605FB1600002801D0092007E02160B6
:10DFE000002060600020A060A281E381002070BC5E
:10DFF000704710B504002000FFF7C0FFC0B2002832
:10E0000001D0002000E0112010BD38B504000D0043
:10E0100029002000FFF756FF002803D02068298838
:10E02000084400E0002032BD38B504000D00288807
:10E030006988884204D12000FFF768FF012000E0D2
:10E04000002032BD38B504000D0029002000FFF784
:10E0500067FF002803D020686988084400E000209A
:10E0600032BD38B504000D0028886988884204D183
:10E070002000FFF779FF012000E0002032BD000002
:10E0800062F30F2262F31F42401810F0030308D01E
:10E09000C91A1FD3DB0748BF00F8012D28BF20F89D
:10E0A000022D130030B414461546103928BF20E95C
:10E0B0003C00FAD8490728BF20E90C0048BF40F8C7
:10E0C000042D890028BF20F8022D48BF00F8012D3B
:10E0D00030BC7047C91818BF00F8012DCB0728BF06
:10E0E00000F8012D7047FEE7002200F05DBCFEE75E
:10E0F00038B504000D0029002000226812689047FE
:10E1000031BD10B50400200021684968884710BD62
:10E1100010B50400200021688968884710BDC268D6
:10E1200011717047C068007970470121C268517150
:10E130007047C0684079704770B505000E00DFF881
:10E140004008FF2181600021016000214160002121
:10E15000C0F818140021C0F81414002180F820140D
:10E16000DFF8200800F039FC0400002C01D020006A
:10E170000AE0DFF8140800F043FDDFF81008DFF8CC
:10E180001018411AC908002070BDDFF80008DFF838
:10E190000018401AC008704770B504000D00280030
:10E1A000C0B2002814D0FFF7F0FF010000228A421D
:10E1B0000CD2DFF8E00700EB820318882668B04233
:10E1C00002D12260002004E0521CF0E7052000E0AC
:10E1D000002070BD11B581B00C002100C9B201A8AA
:10E1E000FFF7DAFF002806D1DFF8AC07019900EB52
:10E1F000C100006800E0002016BD0200DFF89807AB
:10E2000000EBC2030800C0B2012806D00DD30328DA
:10E2100007D004D3042806D007E0022006E004203B
:10E2200004E0187902E0587900E00020C0B270479D
:10E2300010B4030000201A68C2F38002002A18D02C
:10E240001A7812F00302012A02D0022A08D00EE046
:10E250000A681C68C4F38314A41CA2180A6006E0B0
:10E260000A681C68A40DA41CA2180A60FFE701221A
:10E270001000C0B210BC70472DE9F84384B00024F0
:10E28000DFF8FC5615F58360FFF70EFE05F2144922
:10E290004846FFF709FE68680090AE680098304075
:10E2A00005EB800010F10C0769463800FFF7C0FF4E
:10E2B000002806D00098304005EB80000C300700A5
:10E2C000F2E75FF00008B8F1020F0DD2009830407D
:10E2D00005EB8000C06801A941F828000098401CA7
:10E2E000009018F10108EEE7019810F003000128F2
:10E2F0000CD0022814D1BDF80A000400009801993E
:10E30000890DC91C10EB9100009009E0BDF80A00CE
:10E31000040000990198C0F3831041180091FFE7B1
:10E320004846FFF7C8FD0100002901D00098686049
:10E33000A4B2200005B0BDE8F08380B50021DFF86D
:10E340005C06FFF73DFD010081F3100002BD2DE9E1
:10E35000F84304000D0016001F00DDF82080A146E0
:10E360005FEA1949FFF7E9FFDFF814167A1C18EA8B
:10E37000020201EB820259EA0043D36018EA070265
:10E3800001EB82010C310A6864F3C5020A600A6875
:10E3900066F389120A600A6865F39F220A60012207
:10E3A0000B6862F301030B600A6832F004020A6032
:10E3B000BDE8F1832DE9FE4F04000D001600A01CFE
:10E3C0000190012700208DF80000684600F07CFCD9
:10E3D000DFF8AC85D8F800002860D8F80800401CA9
:10E3E000D8F80090B0EB0909D8F8040010EB09093F
:10E3F0000198814517D208F21C4B01215846FFF7BE
:10E4000031FDFFF739FF824651465846FFF72AFD96
:10E41000D8F80810491CD8F80000091AD8F80400E8
:10E4200041188946E4E73800C0B2002823D0002113
:10E430003000C0B2002807D0012060F3010151F084
:10E44000040164F3891106E0022060F3010151F038
:10E45000040164F39F51D8F80020D8F80800024066
:10E4600008EB820010F10C021160D8F8003001981E
:10E47000C318C8F800309DF8000000F02BFC3800ED
:10E48000C0B2BDE8FE8F2DE9FE4F04000D0016005E
:10E490001F00DFF8EC94D9F80880012201A93800A8
:10E4A000FFF788FF00281BD0DDF804A01AF1020A4C
:10E4B0005FF0000BBB450BD218EA0A0009EB8000A5
:10E4C00056F82B10C1601AF1010A1BF1010BF1E79C
:10E4D000CDF80080019B3A0029002000FFF737FFAC
:10E4E00099F82004002803D000F07FF80028FBD121
:10E4F000BDE8F78F38B504000D0000230022290085
:10E500002000FFF7C0FF31BD7CB504000D001600F0
:10E51000009601236A4629002000FFF7B4FF73BD6F
:10E52000FEB504000D0016001F000096019702239F
:10E530006A4629002000FFF7A6FFF7BD2DE9FF413D
:10E5400004000D0016001F00DDF8288000960197DA
:10E55000CDF8088003236A4629002000FFF793FFC7
:10E56000BDE8FF812DE9F84384B004000D001600DA
:10E570001F00DDF83080DDF8349000960197CDF86B
:10E580000880CDF80C9004236A4629002000FFF78C
:10E590007AFF05B0BDE8F0832DE9F84785B00400A7
:10E5A0000D0016001F00DDF83880DDF83C90DDF826
:10E5B00040A000960197CDF80880CDF80C90CDF8DA
:10E5C00010A005236A4629002000FFF75CFF06B073
:10E5D000BDE8F087DFF8A80341680068814201D1F7
:10E5E000012000E00020C0B270472DE9F04F8BB051
:10E5F000FFF7F0FF002801D000205FE1DFF8807313
:10E600000020C7F81804BFF34F8F78680090B868EF
:10E61000029000990298014007EB81000C300990AC
:10E62000002500260020089069460998FFF700FEA3
:10E63000002813D0D7F8180400280FD100983968A3
:10E64000884203D338687860002037E10099029847
:10E65000014007EB81000C300990E5E75FF000080E
:10E66000B8F1020F0ED200990298014007EB810029
:10E67000C06803A941F828000098401C009018F1D8
:10E680000108EDE7039810F00300022840F07F80B6
:10E69000DDF80C905FEA99590398800D502804DA50
:10E6A000DDF80CA05FEA9A5A01E05FF0500A039887
:10E6B0006AF39F5003901AF108000A900398C0F380
:10E6C000C20008900A99AF4800F08DF90500002DAE
:10E6D00000F0A280280000F0ECF93300082203A922
:10E6E000280000F06FFA08360299491C009A029837
:10E6F0000240891A8C00544535D2002C07D000996D
:10E700000298014007EB81000C30079002E017F1FE
:10E710000C000790002C01D0A34600E0D346002C4B
:10E7200003D017F10C00069001E000200690002CA9
:10E7300002D0BAEB040000E000208DF804003300A2
:10E740005A46D2B20799280000F03CFA56FA8BF6E6
:10E750000698002814D033009DF80420069928005C
:10E7600000F030FA0CE000990298014007EB8100BC
:10E7700010F10C0B330052465946280000F022FAE3
:10E78000009819F1030910EB9900009044E00398F8
:10E7900010F0030001283FD10398C0F3831006282E
:10E7A00003DA0398C0F3831000E00620039960F3B6
:10E7B000891103910398C0F38314A41C0398C0F338
:10E7C000C2000890A1006F4800F00DF90500002D6F
:10E7D00022D0280000F06DF93300082203A9280098
:10E7E00000F0F0F90836002080460398C0F383104B
:10E7F000804511D20099481C0090330004220298F1
:10E80000014007EB810010F10C01280000F0DAF95B
:10E81000361D18F10108E8E7002D33D0D7F8104471
:10E82000D7F81804002803D0280000F04AF93DE08A
:10E83000002C13D05FF000092000FFF77AFC0128BC
:10E8400001D1012081464846C0B2002803D02900EA
:10E850002000FFF74DFCE0680468E9E7280000F0BD
:10E8600030F900208DF8040001A800F02DFAD7F847
:10E870001804002801D1009878609DF8040000F089
:10E8800029FA13E0D7F81044002C05D02000FFF738
:10E890003FFCE0680468F7E7414942483C4A801A77
:10E8A000C008000450F00200FFF724FEFFF792FEBC
:10E8B000002801D1012000E00020C0B20BB0BDE86B
:10E8C000F08F70B500260A2E1ADA2D48D0F8100401
:10E8D000040001200500002C0AD02000FFF722FCD4
:10E8E000B04202D10020050002E0E0680468F2E7CF
:10E8F0002800C0B2002801D0300003E0761CE2E717
:10E900005FF0FF3070BD70B504000D00FFF7D9FF58
:10E91000060016F1010F01D130001BE030000100AC
:10E92000C9B22000FFF7FBFB1549D1F810040028FD
:10E9300005D1C1F810440020E168086009E0D1F871
:10E940001004C0680068E2681060D1F81004C06864
:10E950000460300070BD10B50948D0F810440121A2
:10E9600080F82014002C08D02000FFF7DEFB2000E8
:10E97000FFF7C7FBE0680468F4E710BD0000000083
:10E98000F42900202CF90200ECFB020024CF020045
:10E9900064CE02000000000064CE0200102E0020B1
:10E9A000D8F702009CCE020000B500BF13009646C7
:10E9B0009446103928BFA0E80C50FAD85FEA417C91
:10E9C00028BF0CC048BF40F8042BC90728BF20F857
:10E9D000022B48BF00F8012B00BD10B50400200039
:10E9E00000F08DF910BD2DE9F84F06000F00B6F8C4
:10E9F0001080B8F1040818EB0700C01CB0FBF8F950
:10EA0000300000F09AF90500002D01D1002027E028
:10EA10000020287101206871A5F806800095CA467B
:10EA20005FFA8AFABAF1010A009806605FF0000BFB
:10EA3000D34514D2300000F080F90400002C09D036
:10EA40006879401C687100980460266000941BF18E
:10EA5000010BEDE7280000F005F8002000E0280099
:10EA6000BDE8F28F2DE9F84F05002E0077792900D7
:10EA7000B8465FFA88F8B8F101080020404502D294
:10EA80000968401CFAE7D1F80090AA465FF0000B35
:10EA90003800C0B283450AD2DAF8000004005146BB
:10EAA000484600F076F9A2461BF1010BF0E7BDE8FD
:10EAB000F18F38B5040025000121281DFFF7D2F998
:10EAC00031BD7CB5040025000121281DFFF7D8F9D0
:10EAD00000906E463078002802D12000FFF7C2FF78
:10EAE00073BD2DE9FF4F87B007980190DDF81C80BA
:10EAF0000198C688019840794643361F0198C0881E
:10EB000000900A98001D0099B0FBF1F50A99091DC3
:10EB10000098B1FBF0F7009800FB171709980168FF
:10EB20000A9841188E4202D20A9C341B01E00998CF
:10EB3000046809980460002D03D0D8F800806D1E89
:10EB4000F9E75FF00009DDF800A0BAEB070A5445C9
:10EB500001D2A246FFE7002C31D008984844039028
:10EB600008EB0700001D02909DF8500000280BD014
:10EB7000CDF814A002980490DDF80CB0059A049921
:10EB8000584600F01FF90AE0CDF814A0039804904D
:10EB9000DDF808B0059A0499584600F013F90020F2
:10EBA0000700D8F80080B4EB0A041AEB09090098B2
:10EBB000844201D2A246CEE7DDF800A0CBE70BB03D
:10EBC000BDE8F08FFEB504000D0016001F00019691
:10EBD000002000903B0001AA29002000FFF781FFE0
:10EBE000F7BDFEB504000D0016001F0001960120C0
:10EBF00000903B0001AA29002000FFF772FFF7BD3B
:10EC00000021826891600021826811610021826880
:10EC1000516100218268D160002182685160002129
:10EC2000826811607047FEE7EFF3108072B670479C
:10EC300062B6704738B50500FFF7F6FF04001C49BF
:10EC40008868002810D1012088601A481A4A136881
:10EC500003400B601060194802684A605FF0FF31A2
:10EC600001600020287001E001202870002C01D1F3
:10EC7000FFF7DEFF002032BD70B505000C4EB06816
:10EC8000002812D02800C0B200280ED1FFF7CCFF18
:10EC9000040030680A49086070680A49086000206A
:10ECA000B060002C01D1FFF7C3FF002070BD000051
:10ECB000E0400020FC06FFBD80E100E084E100E0D0
:10ECC00000E100E004E100E010B504002000FFF7DF
:10ECD000B1FF10BD10B504002000C0B2FFF7CCFF9B
:10ECE00010BDC268C9B2008A414302EB01007047FF
:10ECF000C268891A008AB1FBF0F0C0B2704710B444
:10ED00000100002901D10E2015E088684A68821AA6
:10ED100048680B6818601000421EC0B2002806D078
:10ED200008680068431C0C6823600270F3E7002049
:10ED30000B681871002010BC704738B5040000251E
:10ED400000208DF800006846FFF7BEFF606821686C
:10ED50000968884217D220680068401E2168086050
:10ED60002068006801782000FFF7BBFF0500A1685C
:10ED700020680068081A216809790200D2B291421D
:10ED800001D2216808719DF80000FFF7A3FF280059
:10ED900032BDF8B504000D002E0000208DF80000F3
:10EDA0006846FFF791FF20680768781C21680860B3
:10EDB00031002000FFF79CFF38709DF80000FFF73E
:10EDC00089FFF1BD62B38B0708D0521E11F8013BD9
:10EDD00000F8013B00F024808B07F6D1830740F058
:10EDE000208000BF103A07D330B4B1E83810103A91
:10EDF000A0E83810F9D230BC530724BFB1E808109E
:10EE0000A0E8081044BF51F8043B40F8043BD20787
:10EE100024BF31F8022B20F8022B44BF0B7803707B
:10EE20007047121F17D35B0009D151F8043B20F83B
:10EE3000023B1B0C121F20F8023BF6D20BE051F8EC
:10EE4000043B00F8013B1B0A20F8023B1B0C121F7D
:10EE500000F8013BF3D238BF121D521E24BF11F837
:10EE6000013B00F8013BF8D87047FEE710B50400FD
:10EE7000DFF8AC080178200080B200F022FE10BD5F
:10EE800010B50400DFF89C080178200080B200F083
:10EE900018FE10BD10B50400DFF88C0801782000C2
:10EEA00080B200F00EFE10BD10B50400DFF87C0843
:10EEB0000178200080B200F004FE10BD38B50500D6
:10EEC000688800F0AEFFA8800024002C07D128003D
:10EED000DFF85C1851F824108847641CF5E731BD51
:10EEE00038B586B004000D006846DFF848181822CF
:10EEF000FFF778FFADF802408DF808506846FFF73D
:10EF0000DDFF07B030BD38B586B004000D0068469F
:10EF1000DFF824181822FFF765FFADF802400295CC
:10EF20006846FFF7CBFF07B030BD10B586B00400D0
:10EF30006846DFF808181822FFF754FFADF80240C2
:10EF40006846FFF7BBFF06B010BDF8B586B00400F9
:10EF50000D0016001F006846DFF8E4171822FFF7BF
:10EF600041FFADF802408DF80850ADF80A608DF809
:10EF70000C700022DFF8A8070178200080B200F0B2
:10EF8000BCFD6846FFF79AFF07B0F0BD2DE9F843D6
:10EF900006000F0090460025300080B2FFF77AFF90
:10EFA000002802D05FF0010901E05FF002090721AB
:10EFB00016F5807080B201F0B7FB0400002C19D068
:10EFC000052C17D0200001F0E9FB33009BB20200B2
:10EFD000DFF87017DFF87007DFF87057401BC008C4
:10EFE000000450F00100FFF79BFA2100300080B2CE
:10EFF000FFF789FF4346DBB23A0092B24946C9B2F5
:10F00000300080B2FFF7A1FFBDE8F18370B50400C6
:10F010000D0016003300DBB22A0092B2002120005E
:10F0200080B2FFF792FF70BD70B504000D001600AE
:10F03000200080B2FFF71AFF002816D0200080B20F
:10F04000FFF71EFF002808D03200D2B2290089B293
:10F05000200080B2FFF79AFF07E03200D2B2290009
:10F0600089B2200080B2FFF7D1FF70BD70B50400F7
:10F070000D0016002A00D2B2DFF8A40601782000A5
:10F0800080B200F03AFD2800C0B2002823D0300042
:10F09000C0B2002801D0012200E00022D2B2DFF885
:10F0A00084060178200080B200F027FD3000C0B255
:10F0B000012801D1012200E00022D2B2DFF8680667
:10F0C0000178200080B200F018FD3100C9B22000A4
:10F0D00080B2FFF705FF70BD2DE9FF410700002456
:10F0E00017F10C0000F000FF80464FF6FF76404617
:10F0F000310080B2884204D1388800F092FE804608
:10F1000004E0414689B2388800F052FF0022012114
:10F110003888FFF7ABFF404680B2B04219D001AA51
:10F120000721404680B201F04CFA0500002D10D1B5
:10F13000029810F13406307C10F00100002807D14D
:10F1400017F10C0116F1120000F0A6FE002800D005
:10F150003400002300222100388886DF0600002EBC
:10F1600019D0300001F01AFB0200404680B2009036
:10F170003B88DFF8DC15DFF8D005DFF8D055401B01
:10F18000C008000450F00100FFF7D8F931003888BA
:10F19000FFF7B9FE07E0002C05D1002241F206017D
:10F1A0003888FFF733FFBDE8FF81F8B586B004006B
:10F1B000182500266F46320029003800FEF760FF50
:10F1C00004208DF80000ADF802406846FFF776FE97
:10F1D00007B0F0BD38B5040020793D2802D141F2D6
:10F1E0003D0501E04FF488550022290089B22088AE
:10F1F000FFF71AFF31BD38B586B004000D00684630
:10F20000DFF850151822FFF7EDFDADF8024002952A
:10F210006846FFF753FE07B030BD10B504002088E4
:10F2200000F0F0FB01280CD1207910F0010000283B
:10F2300001D0012200E00222D2B201212088FFF792
:10F2400015FF211D2088FFF7D6FF10BD38B586B009
:10F2500004000D0002208DF800002088ADF80200A7
:10F260006079C0F38000C0B2002801D0012000E026
:10F2700002208DF808008DF809506846FFF71EFE41
:10F2800007B030BD2DE9FE43060037885FF0000867
:10F290000022DFF88C040178380080B200F02DFCE9
:10F2A0007079C0F38000C0B2002804D10021300082
:10F2B000FFF7CCFFC3E001AB0122072117F58070F7
:10F2C00080B201F091F90500002D1CD0280001F05A
:10F2D00065FA02003B009BB2DFF87C14DFF868049B
:10F2E000DFF86844001BC008000450F00100FFF77D
:10F2F00017F92900380080B2FFF705FE0021300021
:10F30000FFF7A4FF9BE0380080B200F08AFD814641
:10F310004FF6FF744846210080B2884224D1200075
:10F320000100029800F059FD8146484680B2A04293
:10F330001AD0494689B2380080B200F039FE380050
:10F3400080B2FFF7B1FD00280ED1380080B2FFF780
:10F350002CFF380080B2FFF7A7FD002804D1002160
:10F360003000FFF773FF6AE04846210080B2884210
:10F3700025D101F059FD8146484680B2A04216D100
:10F38000DFF8D813DFF8C003DFF8C023801AC00805
:10F39000000450F00100FFF7ADF80421380080B2FE
:10F3A000FFF7B1FD00213000FFF750FF47E049466D
:10F3B00089B2380080B200F0FBFD012080464A4649
:10F3C00092B2072117F5807080B201F0C0F90400F5
:10F3D000002C04D101213000FFF738FF2FE0862CEC
:10F3E00008D1380080B2FFF7A0FD01213000FFF7FF
:10F3F0002DFF24E0200001F0D1F9494689B20091A7
:10F400003B009BB20200DFF85813CF48CF4D401BA2
:10F41000C008000450F00100FFF790F82100380008
:10F4200080B2FFF770FD00213000FFF70FFF40466C
:10F43000C0B2002803D0484680B200F0C7FDBDE846
:10F44000F78310B50400627912F00302217989B2C2
:10F450002088FFF7E9FD10BD10B5040020790028D1
:10F4600003D12000FFF70EFF02E02000FFF7E9FFC5
:10F4700010BD10B586B004002088FFF701FD0028FC
:10F4800020D1208800F0E3FA002806D1012241F2C1
:10F4900006012088FFF7BAFD14E00022A048017899
:10F4A000208800F02AFB02208DF800002088ADF8AB
:10F4B000020000208DF8080000208DF80900684641
:10F4C000FFF7FCFC06B010BD10B50400207818282A
:10F4D00002D100F0E9FA207010BD2DE9F041A14CF5
:10F4E000207890F00100C0B2DFF834824046FFF788
:10F4F000EBFF8C4D2800FFF7E7FF8B4E3000FFF746
:10F50000E3FF8A4F3800FFF7DFFF98F80000182864
:10F5100008D02878182805D03078182802D03878F4
:10F5200018280BD190498848884A801AC0080004DE
:10F5300050F00100FEF7DEFF032002E00120207002
:10F540000020BDE8F0812DE9FE4F07008846914676
:10F550001D00002D0CD1854A85497B487B4BC01A84
:10F56000C008000450F00100FEF7CEFF032056E073
:10F570006B460122072117F5807080B201F034F844
:10F580000400112C4AD0002C12D0200001F006F902
:10F590003B009BB2020077496B486C4E801BC00851
:10F5A000000450F00100FEF7BBFF0320040035E02B
:10F5B00050265FF0000ADDF804B05246310058468C
:10F5C000FEF75EFD019880F80080019834302860D5
:10F5D000C5F80C900198183028610198401C6861AA
:10F5E0006548E861019810F11101380080B200F01F
:10F5F0002EFC0400002C11D0200001F0CFF83B00BD
:10F600009BB202005D495048504E801BC008000468
:10F6100050F00200FEF784FF082000E02000BDE863
:10F62000FE8F2DE9F04F89B006000C001700300066
:10F6300080B200F0E7F9804600255FF00009202045
:10F6400000905FF0000A0DF1040B524600995846F5
:10F65000FEF716FD4046C0B2012806D1002233480D
:10F660000178300080B200F048FA4046C0B200286D
:10F6700002D143F2020050E0002C02D185208146E5
:10F6800033E0300080B200F0CCFB4FF6FF718842CF
:10F6900015D04046C0B2012811D1300080B2FFF72A
:10F6A00003FC00280BD1300080B2FFF77EFD300054
:10F6B00080B2FFF7F9FB002801D185208146207830
:10F6C00010F00100002803D104972B4808900CE0AB
:10F6D0004846C0B2852808D001AB3A004146C9B2BD
:10F6E000300080B2FFF72FFF0500002D14D14046F7
:10F6F000C0B2012808D101AB22004946C9B230008E
:10F7000080B27FDF050007E001AB00224946C9B2A5
:10F71000300080B27FDF0500280009B0BDE8F08F1F
:10F72000AD290020AE290020AF290020B0290020FB
:10F73000F0FE020084F602009CF60200B4F602001D
:10F74000CCF602005CD6020014CF020064CE0200A8
:10F750000CD50200E4F6020018D90200D4E8020039
:10F7600088DB0200744200207CD5020020FB0200EE
:10F7700008E9020034D70200C43D00201CDF02006B
:10F780000200100080B27EDF042801D1112318008E
:10F79000704770B505000C000026002C05D0210034
:10F7A000280080B2FFF7ECFF0600300070BDF8B50E
:10F7B00004000D001600200080B200F023F90700BD
:10F7C0003800C0B2012805D12900200080B2FFF71F
:10F7D000E0FF01E043F20200F2BD10B50400208812
:10F7E000112808D013280AD014280CD019280ED0BC
:10F7F0001A2810D012E0201DFFF7ECFC0EE0201DAF
:10F80000FFF70BFD0AE0201DFFF766FC06E0201D58
:10F81000FFF722FE02E0201DFFF72BFE10BDFEE7E2
:10F8200033B58BB00400002000900C98002812D053
:10F830000025142D0FD229000CA801F051FB00283F
:10F8400007D06846009900EB410085800098401C75
:10F8500000906D1CEDE7200069462C22FFF7C2FAEC
:10F860000DB030BD38B50400200080B2142801DB93
:10F8700000200DE0DFF84453210089B215F10800A3
:10F8800001F0FEFA210089B2281D01F0F9FA0120E9
:10F8900032BD38B5040000251D2D0AD2210089B2E1
:10F8A000DFF8180300EB8500001D01F00AFB6D1C5A
:10F8B000F2E731BD10B50400210089B2DFF8000382
:10F8C00001F0FFFA10BD10B58CB0DFF8F0028168CE
:10F8D000C943009141686846FEF7A8FA009901A85B
:10F8E000FFF79EFF00240198844207D201A800EB95
:10F8F00044008088FFF7CDFF641CF4E70CB010BD16
:10F9000010B504002100C9B2DFF8B00201F0E8FA36
:10F9100010BD2DE9F84304000D00A68820881028AA
:10F9200004D0112819D01A281CD05BE0FFF7CBFFB8
:10F93000300080B2FFF796FF002805D1A14AE321ED
:10F94000042001F007FB07E0E07B012804D0310030
:10F9500089B29D4801F094FA44E0300080B2FFF78C
:10F96000A9FF3FE0207AC0B20009C0B2022801DB43
:10F97000012700E00027207AC0B20009C0B20328A6
:10F9800002DB5FF0010801E05FF000083800C0B260
:10F99000002819D0DFF82492310089B219F1100043
:10F9A00001F06EFA4046C0B2002806D0310089B29C
:10F9B00019F1140001F064FA14E0310089B219F170
:10F9C000140001F07EFA0DE0DFF8F091310089B209
:10F9D00019F1100001F075FA310089B219F1140023
:10F9E00001F06FFABDE8F18310B50400200080B289
:10F9F000142801DB002004E0210089B2734801F0E3
:10FA00006FFA10BD38B504000025200080B2FFF762
:10FA1000EBFF002801D0012005002800C0B232BD54
:10FA200038B504000025200080B2FFF7DDFF002874
:10FA30000AD0210089B2624801F052FAC0B200280F
:10FA400001D0022500E001252800C0B232BD10B56A
:10FA50000400200080B2FFF7C7FF002805D0210076
:10FA600089B25B4801F03CFA00E0002010BD10B5FF
:10FA70000400200080B2FFF7B7FF002805D0210066
:10FA800089B2544801F02CFA00E0002010BD10B5F6
:10FA90000400200080B2FFF7A7FF002802D020005A
:10FAA00080B200E0142010BD80B51821434801F059
:10FAB00021FA0100182901D1182001E00800C0B284
:10FAC00002BD38B504000D002800C0B2FFF718FFD2
:10FAD000002810D0200080B2FFF786FF00280AD04F
:10FAE000210089B235482A00D2B200EB82001830DA
:10FAF00001F0F6F900E0002032BD70B504000E0000
:10FB000015003000C0B2FFF7FBFE00281ED0200019
:10FB100080B2FFF769FF002818D02800C0B2002883
:10FB20000AD0210089B225483200D2B200EB82000F
:10FB3000183001F0A5F909E0210089B21F48320010
:10FB4000D2B200EB8200183001F0BBF970BDF1B504
:10FB50000C0015002000002801D1002014E0002630
:10FB6000009800280FD00027142F0CD239006846C7
:10FB700001F0B6F9002804D02900380080B2A0476F
:10FB8000761C7F1CF0E73000F2BD70B504000D005C
:10FB900016002000C0B2FFF7B3FE002801D10020FC
:10FBA00009E03200290005482300DBB200EB8300A6
:10FBB0008069FFF7CCFF70BD00000000483B0020CB
:10FBC000503B002028E30200543B00204C3B002027
:10FBD000583B00205C3B002038B504000025022D76
:10FBE00007D22000DFF81C1451F8251088476D1C3F
:10FBF000F5E731BD0100002901D0012000E000201F
:10FC0000C0B20022102A06D2885C002801D0012050
:10FC100002E0521CF6E70020704738B505000C00E2
:10FC2000002D01D0002C01D1002014E02878C0B2B2
:10FC300040082178C9B2B0EB510F01D000200AE092
:10FC40000622611C681C01F099F9002801D10120ED
:10FC500000E00020C0B232BD70B594B0040020882E
:10FC600010285FD109A8211D2C22FFF7BBF84FF601
:10FC7000FF7635009DF82800C0B24008C0B20328C6
:10FC80002FD001F006F89DF82800C0B240080028E7
:10FC900002D0022813D024D201AA6946072001F01D
:10FCA00002F800280AD0029810F111010AA8FFF703
:10FCB000B4FF0028F0D0BDF80000050011E001AA53
:10FCC0006946072000F0EFFF002809D00298411C88
:10FCD0000AA800F0CFF90028F1D0BDF80000050017
:10FCE000FFE70A20DFF82013BDF8242042438D529D
:10FCF000BDF8242000FB02F00844801C0AA907225A
:10FD0000FFF760F8280080B2B0420BD0BDF82400A5
:10FD1000ADF80E00ADF8105000208DF80C0003A8CF
:10FD2000FFF75AFF14B070BD2DE9F04104000D003B
:10FD3000002C01D0012000E00020C0B2002D01D035
:10FD4000012000E00020C0B214F1110715F11108E4
:10FD50001022691C601C01F011F900280BD1601CF5
:10FD6000FFF748FF002806D0681CFFF743FF002874
:10FD700001D0012600E0002641463800FFF74DFF84
:10FD80003978C9B24908C9B2022915D03978C9B23F
:10FD90004908C9B203290FD098F80010C9B2490820
:10FDA000C9B2022908D098F80010C9B24908C9B2EE
:10FDB000032901D0012100E00021C0B2002803D0B6
:10FDC0000800C0B2002803D191F001010E4000E00C
:10FDD00001263000C0B2BDE8F0813EB504000D0040
:10FDE000002C01D0012000E00020C0B200F051FF43
:10FDF00001AA6946072000F056FF00280ED0BDF882
:10FE00000000290089B28842F2D002992000FFF751
:10FE10008BFF0028ECD0BDF8000001E04FF6FF702A
:10FE20003EBD10B50400200080B2142805DA200081
:10FE300080B2FFF7D9FD002802D14FF6FF7005E030
:10FE4000DFF8C411A4B20A204443085B10BD38B5E2
:10FE500005000C00002C01D0012000E00020C0B201
:10FE6000280080B2142805DA280080B2FFF7BCFD14
:10FE7000002802D143F202000DE02000DFF88821C3
:10FE80002B009BB20A214B4302EB0301891C072282
:10FE9000FEF798FF002032BD38B505000C00002D9C
:10FEA00001D0012000E00020C0B2002C01D00120D0
:10FEB00000E00020C0B2280000F066F8002801D160
:10FEC000002010E028882188884201D000200AE024
:10FED0000822A11CA81C01F051F8002801D1012022
:10FEE00000E00020C0B232BD1FB50400002C01D0DC
:10FEF000012000E00020C0B200F0CBFE01AA69465C
:10FF0000072000F0D0FE002812D0029810F1460120
:10FF10002000FFF7C1FF002807D1029810F12A0145
:10FF20002000FFF7B9FF0028E8D0BDF8000001E08D
:10FF30004FF6FF7004B010BD70B504004FF6FF75AA
:10FF40002000290080B2884201D128001BE0002651
:10FF5000300080B2142815DADFF8AC10320092B20B
:10FF60000A204243885A210089B2884208D13000D1
:10FF700080B2FFF739FD002802D0300080B202E0E5
:10FF8000761CE5E7280070BD01000888002801D034
:10FF900001200CE00022082A08D201EB0200807840
:10FFA000002801D0012002E0521CF4E70020704735
:10FFB00010B4020092B2142A06DADFF84C300400C2
:10FFC000A4B20A225443195310BC704770B5040000
:10FFD000200080B2FFF7B0FF0500200080B200F0E3
:10FFE0009FFA00280CD1290089B2142908DA4FF6AB
:10FFF000FF72DFF814302E00B6B20A214E439A5336
:020000040002F8
:1000000070BD000010FD0200283800202DE9F843E3
:100010008CB004000D0016000020102806D24142CA
:100020002144C97B6A461154401CF6E70D275FF056
:1000300000080DF11009424639004846FEF720F845
:100040000020032806D2295C6A4643421A44D1772D
:10005000401CF6E7684646DF0020032807D26946C1
:100060004242114491F82F103154401CF5E70DB075
:10007000BDE8F0832DE9FF4704000D002078C0B2F1
:100080004008C0B2022801D0002022E00326671CED
:100090000DF10808320039004046FEF793FE5FF08C
:1000A000030814F10409EA46424649465046FEF761
:1000B00089FE01AA69462800FFF7A8FF032201A9CB
:1000C00002A800F05BFF002801D1012000E0002021
:1000D000C0B204B0BDE8F0874FF6FF710180FF2188
:1000E00081704172817A11F0FD018172817A11F083
:1000F000FE0181720021017200214160704770B4DD
:100100000200086804280FD20C23DFF8D84503FB4F
:1001100000F5655B1600B6B2B54203D108605843DE
:10012000204402E0401CEDE7002070BC70477CB525
:1001300005000E00002000906946280080B2FFF7FD
:10014000DEFF0400002C15D0A0783100C9B288422F
:1001500006D1A07A10F0030F02D16068002809D000
:100160000098401C00906946280080B2FFF7C7FF46
:100170000400E7E7200076BD10B401000020042849
:100180000DDA0C22DFF85C3502FB00F41C446468D5
:100190008C4202D15043184402E0401CEFE700209B
:1001A00010BC704780B5FF214FF6FF70FFF7BFFF0F
:1001B00002BD38B504000025207A854208D2617A54
:1001C0006918C9B2DFF8200500F0B5FF6D1CF3E730
:1001D0002000FFF781FF31BD70B504000D0016004F
:1001E000002C09D0FFF7DEFF20602068002803D034
:1001F000206805802068867070BD38B50400002531
:10020000042D07D22000DFF8E41451F825108847A8
:100210006D1CF5E731BD10B50024042C09D2DFF8C0
:10022000C4040C2101FB04F10844FFF755FF641CD2
:10023000F3E710BD30B4502413FB04F48170426026
:100240002500ADB2ED1CAD10058030BC7047F8B58F
:1002500004000D0016001F003B009BB23200290075
:10026000C9B22000FFF7E6FFF1BD8178012909D06E
:1002700006290AD0072902D0082909D00EE0142146
:1002800001800BE00121018008E00121018005E0EF
:1002900041688988093189080180FFE77047FEB508
:1002A00006000025DFF84804D0E90023CDE900234B
:1002B000B0788DF80200717ADFF82C0400F01AFF94
:1002C0000400002C0FD1727ADFF82814DFF828041C
:1002D000DFF82834C01AC008000450F00100FEF70F
:1002E00013F9032053E0337A2200B1786846FFF710
:1002F000AEFF6846FFF7B9FF321D6946308800F04F
:1003000016FD07003800002806D0072829D011283C
:100310000BD0862818D025E0B07A10F0FD00B0721E
:10032000B07A10F0FE00B07230E0B07A50F0020007
:10033000B072B07A10F0FE00B0720120DFF8C01386
:1003400008700020070021E0B07A10F0FD00B072C4
:10035000B07A50F00100B0720120DFF8A4130870E9
:1003600014E013E0380000F019FA02003388DFF8D7
:100370009413DFF88403DFF88453401BC0080004A3
:1003800050F00100FEF7CCF8032007003800FEBD56
:1003900070B586B005002800FFF781FF0400002C2F
:1003A0002AD04FF6FF70ADF802002888ADF804009F
:1003B000862C03D106208DF8000018E007208DF868
:1003C0000000029400208DF80C00200000F0E6F9F7
:1003D00002002B88DFF83013DFF81C03DFF81C6302
:1003E000801BC008000450F00100FEF799F8684631
:1003F000FFF703FF002000E0012006B070BD70B5DC
:100400000400BF4D2878002826D000202870002640
:10041000042E21D20C21B34A01FB06F01044807A4D
:1004200010F0030F16D00120287001FB06F01044D5
:10043000807AC0F34000C0B2002803D12000C0B2CF
:10044000002807D001FB06F102EB0100FFF7A0FF37
:10045000002801D0761CDBE770BDF8B50500012649
:100460000027E868FFF788FE04002878082804D0F1
:1004700009280BD013281AD01CE0687A002804D170
:10048000002C02D02000FFF794FE13E0687A0028C9
:100490000CD1002C0AD000206060A07A50F002003D
:1004A000A0720120964908700020060002E0012099
:1004B0000700FFE73000C0B2002802D02800FFF795
:1004C0009CFE3800C0B2FFF79AFFF1BD3EB58F4DDC
:1004D000287890F00100C0B2FFF79DFE50200190F7
:1004E000042000908A4B4FF4A0728A497E4800F0A5
:1004F0009DFD0400002C0FD0200000F04FF90200F9
:1005000085497D487D4BC01AC008000450F00100A9
:10051000FDF7FAFF032002E00120287000203EBD15
:10052000FEB507000020019001A9380080B2FFF756
:10053000E6FD0500002D27D0A978380080B200F034
:10054000F3F80400002C15D0052C13D0200000F087
:1005500025F90200A87800903B009BB26F496648DD
:10056000664E801BC008000450F00100FDF7E6FF56
:10057000032025E00198401C019001A9380080B2B9
:10058000FFF7BDFD0500D5E7380080B200F052FC52
:100590000600002E01D0072E01D1300010E03000FF
:1005A00000F0FCF803003A0092B25D495248534C07
:1005B000001BC008000450F00100FDF7B1FF03204C
:1005C000FEBD70B505000E001400002C01D0012006
:1005D00000E00020C0B2002322003100C9B2280090
:1005E00080B200F0F9FA70BD2DE9F84307008846A3
:1005F00014001D00002D01D10E2070E04046C0B255
:10060000072805D04046C0B2082801D0072066E080
:10061000002C01D0052C01D3072060E05FF0000919
:100620004146C9B2380080B2FFF781FD00900098C2
:1006300000280BD14246D2B2390089B26846FFF792
:10064000CBFD0098002807D1112048E00098007ADF
:10065000A04201D00F2042E00098407AFF2810D13C
:100660002100214800F0FDFC009948720098407A72
:10067000FF2804D10098FFF72FFD11202FE0012063
:100680008146009804720098417A174800F032FDC4
:100690000600002E0DD10098427A22491648174BC9
:1006A000C01AC008000450F00100FDF72DFF032020
:1006B00015E023009BB232004146C9B22800FFF783
:1006C000B9FD4846C0B2002808D04046C0B208284C
:1006D00004D128888000801F696888800020BDE8D8
:1006E000F2830000343E00209440002060FA0200B3
:1006F00008FE0200F8E40200FCCE020064CE020014
:100700006C4200209CE9020058D802006B42002095
:1007100024420020DC3500205CF1020030DB0200C6
:1007200034DD020040D3020070B505000E00310038
:10073000C9B2280080B2FFF7FAFC0400002C01D1F6
:10074000052003E02000FFF734FD002070BDF8B560
:1007500005000E0017003000C0B2072805D0300099
:10076000C0B2082801D0072017E0380080B200F09E
:1007700072FB002801D107200FE03100C9B2280028
:1007800080B2FFF7D4FC0400002C01D1052004E066
:100790002780A6702000FFF782FDF2BD10B504008F
:1007A000200000F005F8002801D11048FFE710BD37
:1007B00010B401000E48020010F594739A4212D250
:1007C000981AC010022490FBF4F002EBC0000468F9
:1007D000A14201D20300F1E78C4202D208300200AC
