:020000040000FA
:1000000000040020E90800007D050000C908000088
:1000100087050000910500009B050000000000001E
:100020000000000000000000000000000D090000BA
:10003000A505000000000000AF050000B9050000A4
:10004000C3050000CD050000D7050000E105000054
:10005000EB050000F5050000FF05000009060000A3
:10006000130600001D0600002706000031060000F0
:100070003B060000450600004F0600005906000040
:10008000630600006D060000770600008106000090
:100090008B060000950600009F060000A9060000E0
:1000A000B3060000BD060000C7060000D106000030
:1000B000DB060000E5060000EF060000F906000080
:1000C000030700000D0700001707000021070000CC
:1000D0002B070000350700003F070000490700001C
:1000E000530700005D07000067070000710700006C
:1000F0007B070000850700008F07000099070000BC
:10010000A30700001FB500F003F88DE80F001FBD26
:1001100000F0E0BB1FB56FF00100009040100390AD
:10012000029001904FF010208069000B420900F00E
:100130001F045DF822300120A04083434DF8223097
:10014000684600F045F91FBDF0B54FF6FF734FF458
:10015000B4751A466E1E11E0A94201D3344600E080
:100160000C46091B30F8027B641E3B441A44F9D14B
:100170009CB204EB134394B204EB12420029EBD17E
:1001800098B200EB134002EB124140EA0140F0BD8F
:10019000DE4992B00446D1E90001CDE91001FF2209
:1001A0004021684600F03CFB94E80F008DE80F000A
:1001B000684610A902E004C841F8042D8842FAD12B
:1001C00010216846FFF7C0FF1090AA208DF8440068
:1001D000FFF7A0FF00F0F3F84FF01024A069102201
:1001E0006946803000F002F9A069082210A900F0E9
:1001F000FDF800F0D8F84FF080510A6949690068AD
:100200004A43824201D8102070470020704710B541
:10021000D0E900214FF0805002EB8103026944696C
:100220006243934209D84FF01022536903EB8103D4
:100230000169406941438B4201D9092010BD5069D1
:10024000401C01D0002010BD0F2010BD70B501680A
:100250000446AF4D4FF01020072952D2DFE801F0DD
:10026000330419293C1E2500D4E902656468294637
:10027000304600F0CDF82A462146304600F0B6F868
:10028000AA002146304600F09FFA002800D0032043
:1002900070BD00F051FB4FF4805007E0201DFFF7C8
:1002A000AAFF0028F4D100F047FB60682860002016
:1002B00070BD241D94E80700920000F085FA002824
:1002C000F6D00E2070BD8069401C12D0201DFFF7B3
:1002D0009EFF0028F6D109E08069401C09D0201D4E
:1002E000FFF789FF0028EDD1606820B12046FFF7B5
:1002F0004FFF042070BDFFF70DFF00F060F800F025
:1003000052F8072070BD10B50C46182802D0012005
:10031000086010BD2068FFF799FF206010BD4FF006
:100320001024A069401C05D0A569A66980353079E4
:10033000AA2808D06069401C2DD060690068401C64
:1003400029D060692CE010212846FFF7FDFE3168B6
:1003500081421CD1A16901F18002C03105E030B1B8
:1003600008CA51F8040D984201D1012000E0002094
:100370008A42F4D158B1286810B1042803D0FEE7AE
:10038000284600F057F862496868086008E000F005
:1003900016F800F008F84FF480500168491C01D0AD
:1003A00000F0A4FAFEE7BFF34F8F5A4801685A4A9B
:1003B00001F4E06111430160BFF34F8FFEE74FF09E
:1003C00010208169491C02D0806900F0AEB87047E6
:1003D000524A01681160121D416811604F4A8168DC
:1003E00010321160111DC068086070472DE9F0419E
:1003F00017460D460646002406E03046296800F000
:10040000A7F8641C2D1D361DBC42F6D3BDE8F08153
:1004100070B50C4605464FF4806608E0284600F0AB
:1004200084F8B44205D3A4F5806405F58055002C0A
:10043000F4D170BD4168044609B1012500E00025F2
:100440004FF010267069A268920000F0BDF9C8B1A3
:10045000204600F01AF89DB17669A56864684FF4EB
:10046000002084420AD2854208D229463046FFF74E
:10047000CFFF2A4621463046FFF7B8FFFFF79FFF20
:10048000FFF791FFFFF746FEF8E72DE9FF414FF038
:100490001024616980680D0B01EB800000F6FF708D
:1004A000010B0020009001900290024603906846E4
:1004B00001230BE0560902F01F0C50F8267003FAD6
:1004C0000CFC47EA0C0740F82670521CAA42F1D3F4
:1004D0000AE04A0901F01F0650F8225003FA06F616
:1004E000354340F82250491C8029F2D3A169090BF9
:1004F0004A0901F01F0150F822408B409C4340F80C
:100500002240FFF765FFBDE8FF8100005C090000A5
:10051000000000200CED00E00400FA050006004099
:10052000144801680029FCD07047134A0221116069
:1005300010490B68002BFCD00F4B1B1D186008687E
:100540000028FCD00020106008680028FCD070470C
:10055000094B10B501221A60064A1468002CFCD021
:10056000016010680028FCD0002018601068002886
:10057000FCD010BD00E4014004E5014008208F4993
:1005800009680958084710208C4909680958084724
:1005900014208A49096809580847182087490968BA
:1005A0000958084730208549096809580847382004
:1005B00082490968095808473C2080490968095858
:1005C000084740207D4909680958084744207B496D
:1005D00009680958084748207849096809580847B0
:1005E0004C20764909680958084750207349096822
:1005F0000958084754207149096809580847582084
:100600006E490968095808475C206C49096809580F
:100610000847602069490968095808476420674904
:100620000968095808476820644909680958084753
:100630006C20624909680958084770205F490968B9
:100640000958084774205D49096809580847782007
:100650005A490968095808477C20584909680958C7
:10066000084780205549096809580847842053499C
:1006700009680958084788205049096809580847F7
:100680008C204E4909680958084790204B49096851
:10069000095808479420494909680958084798208B
:1006A00046490968095808479C204449096809587F
:1006B0000847A0204149096809580847A4203F4934
:1006C000096809580847A8203C490968095808479B
:1006D000AC203A49096809580847B02037490968E9
:1006E00009580847B4203549096809580847B8200F
:1006F0003249096809580847BC2030490968095837
:100700000847C0202D49096809580847C4202B49CB
:10071000096809580847C82028490968095808473E
:10072000CC202649096809580847D0202349096880
:1007300009580847D4202149096809580847D82092
:100740001E49096809580847DC201C4909680958EE
:100750000847E0201949096809580847E420174963
:10076000096809580847E8201449096809580847E2
:10077000EC201249096809580847F0200F49096818
:1007800009580847F4200D49096809580847F82016
:100790000A49096809580847FC20084909680958A6
:1007A00008475FF480700549096809580847000048
:1007B00003480449024A034B704700000000002030
:1007C000680900006809000040EA010310B59B07B2
:1007D0000FD1042A0DD310C808C9121F9C42F8D0AB
:1007E00020BA19BA884201D9012010BD4FF0FF305C
:1007F00010BD1AB1D30703D0521C07E0002010BD72
:1008000010F8013B11F8014B1B1B07D110F8013BFD
:1008100011F8014B1B1B01D1921EF1D1184610BDDE
:1008200002F0FF0343EA032242EA024200F005B865
:100830007047704770474FF000020429C0F01280E3
:1008400010F0030C00F01B80CCF1040CBCF1020F83
:1008500018BF00F8012BA8BF20F8022BA1EB0C0158
:1008600000F00DB85FEAC17C24BF00F8012B00F84E
:10087000012B48BF00F8012B70474FF0000200B574
:10088000134694469646203922BFA0E80C50A0E8B3
:100890000C50B1F12001BFF4F7AF090728BFA0E861
:1008A0000C5048BF0CC05DF804EB890028BF40F82D
:1008B000042B08BF704748BF20F8022B11F0804F6F
:1008C00018BF00F8012B7047014B1B68DB68184705
:1008D0000000002009480A497047FFF7FBFFFFF7B7
:1008E00011FC00BD20BFFDE7064B1847064A10600B
:1008F000016881F30888406800470000680900002B
:10090000680900001F030000000000201EF0040F13
:100910000CBFEFF30881EFF3098188690238007892
:10092000182803D100E00000074A1047074A126860
:100930002C3212681047000000B5054B1B68054AB1
:100940009B58984700BD00000703000000000020EE
:100950005809000004000000001000000000000022
:0809600000FFFFFF0090D0032F
:10100000D80C0020ED8501004D90000053850100B3
:101010004D9000004D9000004D9000000000000039
:1010200000000000000000000000000049860100F0
:101030004D900000000000004D9000004D90000019
:10104000B1860100B78601004D9000004D90000070
:101050004D9000004D9000004D9000004D9000001C
:10106000BD8601004D9000004D900000C386010038
:101070004D900000C9860100CF860100D586010091
:101080004D9000004D9000004D9000004D900000EC
:101090004D9000004D9000004D9000004D900000DC
:1010A0004D900000DB8601004D9000004D90000047
:1010B0004D9000004D9000004D9000004D900000BC
:1010C000E18601004D9000004D9000004D90000021
:1010D0004D9000004D9000004D9000004D9000009C
:1010E0004D9000004D9000004D9000004D9000008C
:1010F0004D9000004D9000004D9000004D9000007C
:101100004D9000004D90000000F002F817F05DFADD
:101110000AA090E8000C82448344AAF10107DA4552
:1011200001D117F052FAAFF2090EBAE80F0013F02E
:10113000010F18BFFB1A43F001031847047A01009E
:10114000247A01000A4410F8014B14F00F0508BF7F
:1011500010F8015B240908BF10F8014B6D1E05D083
:1011600010F8013B6D1E01F8013BF9D1641E03D05C
:10117000641E01F8015BFBD19142E4D3704700008B
:101180000023002400250026103A28BF78C1FBD890
:10119000520728BF30C148BF0B6070471FB500F031
:1011A00031F88DE80F001FBDF0B440464946524665
:1011B0005B460FB402A0013001B50648004700BFEE
:1011C00001BC86460FBC8046894692469B46F0BCD1
:1011D00070470000091100008269034981614FF0E6
:1011E0000100104470470000ED11000001B41EB46E
:1011F00000B510F023FA01B40198864601BC01B095
:101200001EBD000017F0DEB970B51B4C0546092065
:101210002070A01C00F0D3F85920A0802946204659
:10122000BDE8704006F0C4BD06F0CDBD70B50C46FB
:101230001249097829B1A0F160015E2908D3012083
:1012400013E0602804D0692802D043F201000CE0CA
:1012500020CC0B4E94E80E0006EB8000A0F58050E9
:10126000241FD0F8806E2846B047206070BD012052
:10127000704706207047000008000020180000207A
:10128000108701003249884201D2012070470020B6
:10129000704770B50446A0F500002E4EB0F1786F8F
:1012A00002D23444A4F500042948844201D2012525
:1012B00000E0002500F043F848B125B9B44204D35A
:1012C0002548006808E0012070BD002070BD002D99
:1012D000F9D1B442F9D321488442F6D2F3E710B5EC
:1012E0000446A0F50000B0F1786F03D21948044419
:1012F000A4F5000400F023F84FF0804130B1164807
:10130000006804E08C4204D2012003E013488442C8
:10131000F8D2002080F0010010BD10B520B1FFF719
:10132000DEFF08B1012010BD002010BD10B520B1B6
:10133000FFF7AFFF08B1012010BD002010BD084825
:1013400008490068884201D1012070470020704799
:1013500000900100000000201C0000200800002078
:101360004C000020BEBAFECA10B504460021012080
:1013700000F032F800210B2000F02EF80421192093
:1013800000F02AF804210D2000F026F804210E2098
:1013900000F022F804210F2000F01EF80421C843B9
:1013A00000F01AF80621162000F016F80621152084
:1013B00000F012F82046FFF727FF002010BDB021F3
:1013C00001807047FFF730BF002070470A48704720
:1013D000FFF72CBF704770474907090E002804DB50
:1013E00000F1E02080F80014704700F00F0000F1D9
:1013F000E02080F8141D704703F9004230B5FF4D1E
:101400000446062CA9780ED2DFE804F0030E0E0E77
:101410000509FFDF08E0022906D0FFDF04E0032909
:1014200002D0FFDF00E0FFDFAC7030BDF34810B545
:10143000407E4108F14800F11A0005D00BF0C9FBCD
:10144000BDE8104006F04ABB0BF0AAFBF8E730B548
:101450000446A1F120000D460A2847D2DFE800F03B
:1014600005070C19202532373C41FFDF3FE020788B
:1014700020283CD1FFDF3AE0E0488078052836D0CC
:101480002078242833D0252831D023282FD0FFDFFF
:101490002DE0207822282AD0232828D8FFDF26E034
:1014A0002078222823D0FFDF21E0207822281ED0B8
:1014B00024281CD026281AD0272818D0292816D04E
:1014C000FFDF14E02078252811D0FFDF0FE020781F
:1014D00025280CD0FFDF0AE02078252807D0FFDF81
:1014E00005E02078282802D0FFDF00E0FFDF25702C
:1014F00030BD1FB50022ADF800200C88ADF80240C9
:101500004B88ADF80430CA88ADF808208988ADF85A
:1015100006100021ADF80A10ADF80C1080B14FF69E
:10152000FF700621844201D1ADF80210834201D13F
:10153000ADF80410824203D14FF44860ADF80800C2
:1015400068460BF063FC06F0C9FA04B010BD70B534
:1015500014460D460646FFF79CFE60B90DB1A54244
:1015600001D90C2070BD002409E000BF56F824000A
:10157000FFF78FFE08B1102070BD641CE4B2AC42CE
:10158000F4D3002070BD2DE9F04105461F4690467A
:101590000E4600240068FFF7C9FE30B9A988286804
:1015A0000844401EFFF7C2FE10B11020BDE8F081D4
:1015B00028680028A88802D0B84202D850E0002845
:1015C000F4D00920F2E72968085DB8B1671CCA5D4C
:1015D000152A2ED03CDC152A3AD2DFE802F0391267
:1015E000222228282A2A31313939393939393939E9
:1015F00039392200085D30BB641CA4B2A242F9D87C
:1016000033E00228DDD1A01C085C88F80000072820
:1016100001D2400701D40A20C8E7307840F0010029
:1016200015E0C143C90707E0012807D010E00620F4
:10163000BCE70107A1F180510029F5D01846B5E7B4
:101640003078810701D50B20B0E740F00200307000
:101650002868005D384484B2A888A04202D2B0E76E
:101660004FF4485382B2A242ADD800209EE710B595
:101670000278540809D0012243F20223012C07D03A
:10168000022C0DD0032C13D10FE00020087005E0D0
:1016900080790324B4EB901F0AD10A70002010BD9A
:1016A0008079B2EB901F03D1F7E780798009F4D0FD
:1016B000184610BD08B500208DF800004F4890F87E
:1016C000221051B190F8230002280FD003280FD028
:1016D000FFDF00BF9DF8000008BD4848694619308B
:1016E00001F095F80028F5D0FFDFF3E7032000E0D4
:1016F00001208DF80000EDE738B50C460546694637
:1017000001F085F800280DD19DF80010207861F3D4
:101710004700207055F8010FC4F80100A888A4F80C
:101720000500002038BD38B51378C0B1022816D0A6
:1017300033A46D46246800944C7905EB9414247806
:1017400064F34703137003280ED003F0FE001070FB
:101750000868C2F801008888A2F8050038BD23F0A7
:10176000FE0313700228EED1D8B240F00100EEE77C
:1017700002210CF083BC38B50C460978222901D22D
:10178000082038BDADF800008DF8022068460BF047
:101790005FFA06F0A3F9050003D121212046FFF7E7
:1017A00056FE284638BD1CB500208DF80000CDF847
:1017B0000100ADF80500114890F82200022801D080
:1017C000012000E000208DF8070068460BF0AEFA1B
:1017D000002800D0FFDF1CBD2DE9FF478CB000259D
:1017E000BDF8346082461C4690468DF81C50700748
:1017F00003D56068FFF74DFD90B903E0A00100201C
:101800000302FF01FD4F4FF0010997F8220058B184
:1018100097F82300022807D16068FFF787FD18B109
:10182000102010B0BDE8F087300702D5A0898028CD
:1018300015D8700704D4B8F1000F01D0387E70B10C
:10184000E07DC0F300108DF81B00617D072041B1E1
:10185000012906D00229E4D00429E2D117E00720AB
:10186000DFE78DF817908DF819908DF81580606876
:1018700078B107A9FFF7FBFE0028D2D1606850F8C5
:10188000011FCDF80F108088ADF8130005E0062089
:10189000C7E7CDF80F50ADF81350E07B0028F6D124
:1018A000207C0028F3D1607C0028F0D1A07C0028A7
:1018B000EDD1E07CC006EAD18DF800A0BDF834007F
:1018C000ADF80200A0680190A0680290CCA0D0E919
:1018D0000010CDE90A10E07C0AA901EB5010007855
:1018E0008DF80C00FFF7E6FE8DF80D009DF81C004A
:1018F0008DF80E008DF818508DF816508DF81A508E
:1019000009A968460BF0D1FA06F0E8F889E7F0B5C6
:101910008FB000248DF830408DF814408DF834409D
:1019200006468DF82840019402940394049419B15A
:101930000FC901AD85E80F00B04DA878052801D08A
:1019400004280CD101986968884200D120B9039815
:10195000E968884203D110B108200FB0F0BD1F27FD
:101960003B460DAA05A903A8FFF70DFE0028F4D1F8
:101970003B460AAA0CA901A8FFF705FE0028ECD1F6
:101980009DF81400C00701D00A20E6E7A88A4107A5
:1019900008D4A97D31B19DF82810890702D043F2FF
:1019A0000120DAE79DF82810C90709D0400707D4BD
:1019B000288818B144F25061884201D90720CCE749
:1019C0008DF818408DF81960BDF80800ADF81A00C0
:1019D0000198079006A80BF082FA06F07FF800281D
:1019E000BBD18DF820408DF82160BDF81000ADF816
:1019F00022000398099008A80BF090FA06F06EF800
:101A00000028AAD101AC2D1D94E80F0085E80F0035
:101A10000020A2E72DE9FE43040000D1FFDF20787B
:101A2000764E20F00F00801C20F0F0007030207007
:101A300060680178C91F122929D2DFE801F04BE85C
:101A40002809E8E838E7282864E7E62828E7E7E5F2
:101A500086883046FFF78CFE0546304609F092FD39
:101A6000B8B16068807985F83E0021212846FFF7EB
:101A7000EEFC304603F0FBF9304604F0A9FB31469A
:101A8000012010F015F8A87F20F01000A877BDE81D
:101A9000FE83207820F0F000203020700320207298
:101AA000668060688079607206F003FADDE78588F9
:101AB0002846FFF75DFE00B9FFDF606880780128E7
:101AC00000D0FFDF6068817903B02846BDE8F043AD
:101AD00009F08ABE86883046FFF74AFE050000D12D
:101AE000FFDF06F0E6F960683146C088288160684B
:101AF0000089688160684089A88101200FF0D8FFC3
:101B00000020A875C3E780780228C0D000B1FFDFAD
:101B100006F0CFF96568A879AD1C00B9FFDFF7784A
:101B2000B5F80290B046384605F078FF060000D1BF
:101B3000FFDF0022022148460CF097FA040000D192
:101B4000FFDF22212046FFF782FCA17F012060F306
:101B50000101A177298B2181698B6181A98BA181E9
:101B600084F822708DF8080002AA032148460CF080
:101B70007CFA00B9FFDFB088ADF80400B0788DF8CA
:101B8000060001AA052148460CF06FFA00B9FFDFF4
:101B9000B088ADF80000F0788DF802006A460421A4
:101BA00048460CF062FA00B9FFDF062105F1120089
:101BB00000F04AFE08B36879800700D5FFDF697935
:101BC000E07D61F34700E075D5F80600A061688903
:101BD000A083062105F10C0000F036FE10B398F842
:101BE00019104A08617862F347016170D8F81A1039
:101BF000C4F80210B8F81E001DE009E0A0010020A2
:101C000007060504030201001FE02AE025E017E0B3
:101C1000E07D20F0FE00801CE075D5F81200A06188
:101C2000E88AD5E7607820F0FE00801C6070E868E4
:101C3000C4F80200288AE0800320FFF7DFFB26E7D4
:101C40002046BDE8FE4301F0A0BC06F032F916F8CC
:101C5000240F40F00400307019E7BDE8FE4306F0A1
:101C600028B9B178052908D00429E8D106F021F96E
:101C70000220BDE8FE43FFF7C1BB80780028DED01C
:101C8000F07800F0ABFD06F014F90320F1E72DE940
:101C9000F047054600780027000991460C463E466D
:101CA000012874D0022873D007280AD00A2825D02A
:101CB000FFDF00BFA9F800600CB12780668000201C
:101CC000B0E5D5F804C0DFF8B4874FF0010A9CF8FE
:101CD00000004FF6FF7113287AD008DC07280ED0D9
:101CE0000E281FD0112826D0122806D186E01628EB
:101CF0000BD0172859D018286CD02146FBE01227AA
:101D00001026BCF804002146B8E01C270A26ECB3D4
:101D1000BCF80200A0806868007920726868407989
:101D20006072C7E71B27092684B303202072686806
:101D30004088A080BEE79CF802003C28BAD010275B
:101D40002C260CF1020C0CB3BCF80200A080BCF8ED
:101D500018006082BCF818002082BCF81A00A0822B
:101D6000BCF81C00E0829CF8050004F108020CF1AC
:101D70000601FFF7D8FC9CF8040001289AD184F8EA
:101D80000FA00020207608F1040002E00AE06DE0D8
:101D900077E090E80E00D8F81000C4E90930C4E9F3
:101DA000071287E7A9F8006089E720271126002C91
:101DB000F8D0A180686804F10A028078207268680F
:101DC000807A60726968C878091DFFF7ACFC71E71A
:101DD00029E0FFE721270A26002CE3D0BCF8020007
:101DE000A08068680079207268684079607298F80D
:101DF000241021F0040188F824105BE722270B2629
:101E0000002CCFD0BCF80400A080686880782072D5
:101E10006868807900F027FD60726868C07900F01A
:101E200022FDA07246E726271C26002CBAD0A180EE
:101E30006868C078607268688079A07208F10400F0
:101E400090E80E00D8F81000C4E90530C4E9031288
:101E5000686880783C2803D0432804D0FFDF29E756
:101E600084F808A026E70220207223E7287A0228B7
:101E700001D0FFDF1EE712271026688800F0D1FC92
:101E800018E7287AB0B3012835D0022833D00328C8
:101E900001D0FFDF0EE711270926002C82D0B5F80C
:101EA00002804046FFF764FC90F822A0A4F804806A
:101EB000687A2072042140460CF0F2F80521404671
:101EC0000CF0EEF8002140460CF0EAF80121404603
:101ED0000CF0E6F8032140460CF0E2F802214046FF
:101EE0000CF0DEF8062140460CF0DAF8504600F01F
:101EF00075FCDFE6FFE72846BDE8F04701F07CBC53
:101F000070B5012801D0FFDF70BD8DB22846FFF704
:101F10002FFC040000D1FFDF20782128F4D005F049
:101F2000C5FF80B1017821F00F01891C21F0F0017B
:101F3000103101700221017245800020A075BDE8BA
:101F4000704005F0B6BF21462846BDE87040132218
:101F500011E42DE9F04116460C00804600D1FFDF68
:101F6000307820F00F00801C20F0F000103030702E
:101F70002078022802D0FFDFBDE8F0814046FFF75D
:101F8000F7FB050000D1FFDF61884FF6FF700027E7
:101F9000814202D1A288824203D0814201D1A0882D
:101FA00048B105F086FF2068B0606068F060208965
:101FB0003082AF75E0E7A87D0128DDD178230022CB
:101FC00041460FF0CBFC0220A875D5E738B5054691
:101FD0000C460846FFF75DF968B9203D062D30D262
:101FE000DFE805F00305222F271B062038BD6068B7
:101FF000FFF793F908B1102038BD618820886A4640
:102000000BF0E2F805F06AFD0028F5D161680029BF
:10201000F2D0BDF800200A8038BDA07800F00101A0
:1020200020880BF002F908E02068BDE8384001F094
:1020300018BE618820880BF060F8BDE8384005F0D4
:102040004DBD072038BD70B505460C460846FFF764
:1020500046F908B1102070BD202D07D0212D0DD0DC
:10206000222D0BD0252D09D0072070BD2088A11C62
:102070000AF042FEBDE8704005F030BD062070BD9C
:10208000FE481930704708B52821FC4816F039FA87
:102090000120FFF7B3F9F94968461A3105F09CFEB3
:1020A000F6489DF80020417E62F3470121F00101CE
:1020B0004176002180F822104FF4617101840221E1
:1020C00080F82310FFF7B2F900B1FFDF00F0FCFB4E
:1020D00001F02EFA08BD10B50C464021204616F03E
:1020E000EEF9A07F20F00300A077202020700020D0
:1020F000A07584F8230010BD70472DE9FC41074608
:10210000FFF7C7F810B11020BDE8FC81DB4E06F1E7
:102110001901D6F819000090B6F81D50ADF804501A
:10212000F47F8DF806403846FFF7E6FA0028EBD139
:10213000FFF77CF90028E7D0009946F8191FB58011
:10214000B471E1E710B50446FFF7C9F808B11020F3
:1021500010BDCA48C9492246407E1A314008FFF7DF
:10216000E2FA002010BD3EB504460D460846FFF7D2
:10217000B6F808B110203EBD14B143F204003EBDD4
:10218000BE488078052803D0042801D008203EBD31
:10219000694602A809F0A5FD2A4669469DF808008F
:1021A000FFF7C1FA00203EBDFEB50D4604004FF01A
:1021B000000712D00822FFF7CAF9002812D1002622
:1021C00009E000BF54F826006946FFF750FA0028DE
:1021D00008D1761CF6B2AE42F4D30AF039FC10B145
:1021E00043F20320FEBDA54E3776FCB100271AE06E
:1021F00054F8270002A9FFF73AFA00B1FFDF9DF873
:1022000008008DF8000054F8270050F8011FCDF8A1
:1022100001108088ADF8050068460AF03EFC00B168
:10222000FFDF7F1CFFB2AF42E2D335760020FEBD58
:102230002DE9F0478AB01546894604001DD00F46A7
:1022400008222946FFF783F9002810D1002612E062
:1022500054F826006946103000F0D9FA002806D15B
:102260003FB157F82600FFF714F810B110200AB05C
:1022700026E5761CF6B2AE42EAD30026A5F10108A7
:102280001CE000BF06F1010A0AF0FF0712E000BFE0
:1022900054F82600017C4A0854F827100B7CB2EB56
:1022A000530F05D106221130113116F05DF858B1E7
:1022B0007F1CFFB2AF42EBD30AF0FF064645E1DBDD
:1022C0004E4624B1012003E043F20520CFE7002071
:1022D0000AF002FC10B90AF00BFC10B143F2042022
:1022E000C5E75CB300270DF1170825E054F8270077
:1022F0006946103000F08BFA00B1FFDF54F8270078
:10230000102250F8111FCDF801108088ADF805009B
:1023100054F827100DF1070016F052F896B156F850
:1023200027101022404616F04BF868460AF09AFB38
:1023300000B1FFDF7F1CFFB2AF42D7D3FFF733FA04
:10234000002094E7404601F080FCEEE730B585B010
:102350000446FEF79EFF18B96068FEF7E7FF10B16C
:10236000102005B030BD60884AF2B811884206D806
:102370002078424D28B1012806D0022804D0072039
:10238000EFE7FFF753F818E06078022804D003283D
:1023900002D043F20220E4E785F82300C1B2002016
:1023A0000090ADF8040002292CD0032927D0FFDFCC
:1023B00068460AF00EFC05F091FB0028D1D1606858
:1023C00001F036FC207858B101208DF800000DF1A5
:1023D000010001F03AFC68460AF080FF00B1FFDF1F
:1023E000207885F82200FFF7DEF9608860B1288444
:1023F00080B20AF069FB00B1FFDF0020B1E78DF881
:102400000500D5E74020FAE74FF46170EFE710B51B
:102410000446FEF764FF20B9606838B1FEF77DFF1F
:1024200008B1102010BD606801F00FFC134830F8AF
:10243000201F6180C178617080782070002010BDFD
:102440002DE9F843144689460646FEF748FFB8B919
:102450004846FEF76BFF98B92046FEF767FF78B94C
:10246000064DA878012800D154B13178FF2909D050
:1024700061B143F20400BDE8F8830000A001002030
:102480001020F8E7012801D00420F4E7CCB3052898
:1024900011D004280FD06946204600F0EFF900283B
:1024A000E9D1217D49B1012909D0022909D00329A7
:1024B00009D00720DFE70820DDE7024604E001221B
:1024C00002E0022200E00322804623461746002055
:1024D0000099FFF781F90028CDD1A0892880A07B41
:1024E000E875BDF80000A882AF75BDF800100907B7
:1024F00001D5A18931B1A1892980C00704D0032069
:1025000003E006E08021F7E70220FEF777FF86F878
:1025100000804946BDE8F8430020FFF7F8B92DE9EF
:10252000FC41E84C06460D46A078022803D003285B
:1025300001D00820E8E516B143F20400E4E50620E6
:102540000BF050FD10B9A078032849D00DF0ACFC79
:1025500007460EF07DFE381A00F0FF0806200BF04B
:1025600039FD074606200BF03DFD391AA0780428F6
:1025700009D000221144A8EB010111F0FF0F04D093
:10258000032804D00DE00122F4E71320BCE528461F
:1025900005F044FA10B3407810B3284605F02DFD3D
:1025A000E570FFF787F809F0E7FA01208DF80000E1
:1025B0008DF801008DF802602088ADF80400E07D00
:1025C0008DF8060068460AF05BFD05F087FA0028E2
:1025D000B0D1A078032805D0042010E0052093E5B1
:1025E000122091E5E07805F019FA040000D1FFDF30
:1025F000607800B9FFDF6078401E60700520FEF74C
:10260000FDFE002080E51CB510B143F204001CBDA6
:10261000AC4CA078042803D0052801D008201CBDAC
:1026200000208DF8000001218DF801108DF80200C6
:1026300068460AF025FD05F051FA0028EFD1A07890
:10264000052805D05FF00200FEF7D8FE00201CBD73
:10265000E07800F0C3F80320F6E72DE9FC4180465E
:102660000D4603260846FEF761FE08B110204BE533
:102670004046FFF77DF8040004D02078222804D2D9
:10268000082041E543F202003EE5A07F00F0030789
:102690003DB1012F0AD000202946FEF72AFF06008F
:1026A000E5D1012F04D0FFDF30462DE50120F3E70F
:1026B000A07D2946022801D011B107E0112023E5B1
:1026C000684600F00EFA0028D1D16946404609F06C
:1026D0006BF80600E8D10120A075E5E770B50C465F
:1026E0000546FFF745F8010005D022462846BDE81B
:1026F0007040FFF740B843F2020070BD10B50128EA
:1027000007D1704B9B78012B00D011B143F204002C
:1027100010BD0AF00BFABDE8104005F0DFB9012347
:1027200000F066B800231A46194600F061B870B58B
:10273000064615460C460846FEF7D1FD18B9284650
:10274000FEF7CDFD08B1102070BD2A462146304667
:102750000AF022FD05F0C2F90028F5D121787F2981
:10276000F2D1052070BD7CB505460C460846FEF743
:1027700090FD08B110207CBD2846FEF7F9FF20B17E
:102780000078222804D208207CBD43F202007CBDE0
:102790004C4890F82400400701D511207CBD2178D9
:1027A000C80802D16078C20801D007207CBD890822
:1027B00001D1800801D006207CBDADF80050207802
:1027C0008DF8020060788DF803000220ADF8040057
:1027D00068460AF008FB05F081F97CBD10B505F0EC
:1027E0001DF9040000D1FFDF6078401C607010BD4F
:1027F0001CB5ADF800008DF802308DF803108DF88F
:10280000042068460AF097FC05F068F91CBD0278C0
:10281000520804D0012A02D043F202207047FEF78A
:1028200026BF70B50C0006460DD0FEF7A1FF0500CF
:1028300000D1FFDFA68028892081288960816889EE
:10284000A081A889E08170BD10B500231A4603E07D
:10285000845C2343521CD2B28A42F9D30BB10020CC
:1028600010BD012010BD00B530B1012803D00228F1
:1028700001D0FFDF002000BDFF2000BD00220A8044
:1028800092B222F060020A800078062817D2DFE8B0
:1028900000F0160306090C1142F0110007E042F0A7
:1028A0001D0009E042F0150006E042F0100040F083
:1028B000020001E042F0100008800020704707206D
:1028C00070470000A0010020FE4800210160416027
:1028D000018170472DE9F743044692B09146406864
:1028E000FEF71BFD40B16068FEF720FD20B960785F
:1028F00000F00300022801D0012000E00020F14E8A
:1029000030724846FEF7C5FC18B1102015B0BDE87E
:10291000F08349460120FEF7ECFD0028F6D10125A1
:102920008DF842504FF4C050ADF84000002210A97D
:10293000284603F015FF0028E8D18DF842504FF4E7
:1029400028504FF00008ADF8400047461C2168466B
:10295000CDF81C8015F0D5FD9DF81C0008AA20F0CC
:102960000F00401C20F0F00010308DF81C00207883
:102970008DF81D0061789DF81E0061F3420040F063
:1029800001008DF81E009DF800000AA940F0020029
:102990008DF800002089ADF83000ADF83270608904
:1029A00007AFADF834000B97606810AC0E900A9436
:1029B000684603F0C8FC0028A8D1BDF8200030808C
:1029C0008DF8425042F60120ADF840009DF81E00FF
:1029D00008AA20F00600801C20F001008DF81E00DF
:1029E0000220ADF83000ADF8340013A80E900AA90B
:1029F000684603F0A8FC002888D1BDF8200070804C
:102A0000311D484600F033F9002887D18DF8425037
:102A100042F6A620ADF840001C216846CDF81C8087
:102A200015F06FFD9DF81C00ADF8345020F00F003C
:102A3000401C20F0F00010308DF81C009DF81D00A7
:102A400008AA20F0FF008DF81D009DF81E000AA9BD
:102A500020F0060040F00100801C8DF81E009DF85B
:102A600000008DF8445040F002008DF80000CDE9E0
:102A70000A4711A80E90ADF83050684603F063FC89
:102A8000002899D1BDF82000F08000203EE73EB537
:102A900004460820ADF800002046FEF7FAFB08B116
:102AA00010203EBD21460120FEF723FD0028F8D16D
:102AB0002088ADF804006088ADF80600A088ADF865
:102AC0000800E088ADF80A007E4801AB6A468088BD
:102AD000002104F041F8BDF800100829E1D00320DE
:102AE0003EBD1FB50446002002900820ADF8080046
:102AF000CDF80CD02046FEF7CCFB10B1102004B06E
:102B000010BD704802AA81884FF6FF7004F066FA83
:102B10000028F4D1BDF80810082901D00320EEE701
:102B2000BDF800102180BDF802106180BDF80410CE
:102B3000A180BDF80610E180E1E701B582B0022076
:102B4000ADF800005F4802AB6A464088002104F0FF
:102B500003F8BDF80010022900D003200EBD1CB5FB
:102B6000002100910221ADF800100190FEF7B7FBA3
:102B700008B110201CBD53486A4641884FF6FF70CB
:102B800004F02CFABDF800100229F3D003201CBD7C
:102B9000FEB54C4C06461546207A0F46C00705D0B8
:102BA0000846FEF776FB18B11020FEBD0F20FEBDD3
:102BB000F82D01D90C20FEBD3046FEF76AFB18BB8C
:102BC000208801A903F0C4F80028F4D130788DF8EA
:102BD0000500208801A903F09DFF0028EBD100909B
:102BE0009DF800009DF8051040F002008DF80000EF
:102BF000090703D040F008008DF8000020886946DE
:102C000003F025FF0028D6D1ADF8085020883B46B8
:102C100002AA002103F0A0FFBDF80810A942CAD003
:102C20000320FEBD7CB50546002000900190088879
:102C3000ADF800000C4628460195FEF76EFB18B96A
:102C40002046FEF74CFB08B110207CBD15B1BDF845
:102C5000000050B11B486A4601884FF6FF7004F02F
:102C6000BDF9BDF8001021807CBD0C207CBD30B5C5
:102C700093B0044600200D460090142101A815F0E1
:102C800040FC1C2108A815F03CFC9DF80000CDF884
:102C900008D020F00F00401C20F0F00010308DF81C
:102CA00000009DF8010020F0FF008DF801009DF864
:102CB000200040F002008DF8200001208DF8460031
:102CC00002E00000C801002042F60420ADF84400F4
:102CD00011A801902088ADF83C006088ADF83E0056
:102CE000A088ADF84000E088ADF842009DF80200F1
:102CF00006AA20F00600801C20F001008DF80200DA
:102D00000820ADF80C00ADF810000FA8059001A93F
:102D100008A803F018FB002803D1BDF8180028808C
:102D2000002013B030BD00004FF0E0214FF4004010
:102D3000C1F88001BFF34F8FBFF36F8F00F021B850
:102D400010B5044600F01DF8002C09D0124A1248B4
:102D500012491432124B012C03D0022C07D0FFDF92
:102D600010BD0224046011604FF0407004E00324A1
:102D7000046011604FF40000186010BD00B5FFDF63
:102D800000BD054800210160016005494FF06070F9
:102D9000091D08607047000000F50040480200204F
:102DA00004F501400DF077BF0449002008604FF0A2
:102DB000E0210220C1F8800270470000FC1F0040A3
:102DC00010B50D2000F06FF8C4B26FF0040000F0F1
:102DD0006AF8C0B2844200D0FFDF3A49012008609F
:102DE00010BD70B50D2000F040F8374C0020C4F83D
:102DF00000010125C4F804530D2000F047F82560B8
:102E00004FF0E0216014C1F8000170BD10B50D2035
:102E100000F02BF82C48012141600021C0F800117E
:102E2000BDE810400D2000F031B8274910B5D1F8A9
:102E30000001012801D0FFDF10BD2248001D0068FD
:102E40000022C0B2C1F80021BDE810400EF070BBF6
:102E500010B51D48D0F800110029FBD0FFF7E5FFA1
:102E6000BDE810400D2000F011B800280DDB00F087
:102E70001F02012191404009800000F1E020C0F8CC
:102E80008011BFF34F8FBFF36F8F7047002809DBAE
:102E900000F01F02012191404009800000F1E02074
:102EA000C0F880127047002804DB00F1E02090F8A1
:102EB000000405E000F00F0000F1E02090F8140D90
:102EC0004009704704D5004000D00040704770476B
:102ED0007047704770477047704700004FF0E0211F
:102EE0004FF00070C1F8800101F5C071BFF34F8F42
:102EF000BFF36F8FC1F80001334B802283F80024A9
:102F000041F8800C704700B5024604202F4903E0C9
:102F100001EBC0031B792BB1401EC0B2F8D2FFDF1A
:102F2000FF2000BD41F8302001EBC00100224A71B2
:102F30008A7101220A7100BD244A002102EBC000FF
:102F40000171704710B50446042800D3FFDF1F4805
:102F500000EBC4042079012800D0FFDF6079A1795B
:102F6000401CC0B2814200D060714FF0E0214FF0B0
:102F70000070C1F8000210BD70B51348042590F828
:102F80000004124E4009124C042818D0FFDF16E04E
:102F9000217806EBC1000279012A08D142798379B0
:102FA0009A4204D04279827156F8310080472078E5
:102FB000401CC0B22070042801D3002020706D1E78
:102FC000EDB2E5D270BD000019E000E094040020ED
:102FD000480000200348044A0168914201D10021C1
:102FE000016070474C000020BEBAFECA70477047AF
:102FF00070477047704770477047704770470000D0
:103000002CFFFFFFDBE5B15100900100B000FFFF96
:103010007000000068915B008308DF2FACFED6399A
:1030200029D64B9DC15EF1868A16B47C10B5044644
:10303000FEF72FF908B1102010BD2078C0F3021060
:10304000042807D86078072804D3A178102901D86C
:10305000814201D2072010BDE078410706D42179D2
:103060004A0703D4000701D4080701D5062010BD84
:10307000002010BD70B514460D46064604F016FF3C
:1030800080B10178182221F00F01891C21F0F00194
:10309000A03100F8081B214615F0D7F9BDE87040B3
:1030A00004F007BF29463046BDE870401322FEF702
:1030B00062BB2DE9F047064608A8894690E830042F
:1030C0001F4690461421284615F01BFA0021CAF825
:1030D0000010B8F1000F03D0B9F1000F03D114E0D4
:1030E0003878C00711D02068FEF7F9F8C0BBB8F1F6
:1030F000000F07D120681230286020681430686003
:103100002068A8602168CAF800103878800724D5A4
:103110006068FEF702F918BBB9F1000F21D0FEF785
:10312000AFFF0168C6F868118188A6F86C11807934
:1031300086F86E0101F033FAF84FEF60626862B111
:1031400096F8680106F2691140081032FEF7EBFAB2
:1031500010223946606815F033F90020BDE8F08789
:1031600006E0606820B1E8606068C6F86401F4E7D2
:103170001020F3E730B5054608780C4620F00F0024
:10318000401C20F0F001103121700020607095F893
:10319000230030B104280FD0052811D0062814D000
:1031A000FFDF20780121B1EB101F04D295F8200039
:1031B00000F01F00607030BD21F0F000203002E010
:1031C00021F0F00030302070EBE721F0F0004030CB
:1031D000F9E7F0B591B0022715460C4606463A4687
:1031E000ADF80870082103AB08F0D0F8049000286F
:1031F00010D004208DF804008DF80170E034099699
:1032000005948DF818500AA968460CF027FC00B107
:10321000FFDF012011B0F0BD2DE9F84F0646808A8E
:103220000C4680B28246FEF7A3FA0546BB4F3078C3
:10323000203F4FF002094FF000080F287CD2DFE852
:1032400000F07BA39D082C5B6A7CBADAFD97489757
:103250009700012150460AF011FF040000D1FFDF62
:1032600097F85C00C00701D0386E0BE0032104F131
:103270001D000EF03EF9D4F81D00A949B0FBF1F293
:1032800001FB1200C4F81D0070686067B068A06799
:103290002878252872D0FFDF70E0012150460AF01F
:1032A000EDFE060000D1FFDF3078810702D52978D6
:1032B000252904D040F001003070BDE8F88F84F873
:1032C0000090307F207106F11D002D36C4E9020602
:1032D000F3E7012150460AF0D1FE050000D1FFDFDF
:1032E0002878C10604D5072020703D356560E4E7E5
:1032F00040F008002870E0E7E87F000700D5FFDF16
:10330000307CB28800F0010301B05046BDE8F04FB8
:10331000082108F071B905B9FFDF716821B11022E9
:1033200005F1240015F04CF828212846FEF78FF807
:10333000307A85F82000C0E7F8E0012150460AF015
:103340009DFE050000D1FFDF022105F185000EF092
:10335000D0F80420207005F5B4706060B5F88500E1
:1033600020826E4810387C356561C4E90270A4E79C
:10337000012150460AF082FE00B9FFDF324629469D
:103380005046BDE8F84F75E605B9FFDF28782128DB
:1033900093D93079012803D1E87F40F00800E8771D
:1033A000324629465046FFF765FE2846BDE8F84FED
:1033B0002321FEF74CB83279A28004F108030821DA
:1033C000504607F0E3FFE06010B10520207074E77D
:1033D0004546012150460AF051FE040000D1FFDFAE
:1033E00004F1620102231022081F0AF0ECFC0570B0
:1033F0003179417061E7012150460AF03FFE040037
:1034000000D1FFDF94F8840000F00300012859D1B7
:10341000E87F10F0010103D194F8A000C0072AD082
:10342000D4F8602132B394F88330107C63F38700C2
:103430001074AA7FD30963F3410000E072E0D4F86E
:1034400060211074D4F8602161F30000107491B110
:10345000D4F86001102205F12401883414F0B0FF83
:10346000207E40F001002076207820F0010004F852
:10347000880919E0C1B994F88800C00714D0D4F8BD
:103480005C0188B194F88330027C63F38702027494
:10349000A87FC309D4F85C0163F341020274D4F835
:1034A0005C0161F30002027494F88800800709D57A
:1034B00094F87C00D4F86421400804F17D011032B6
:1034C000FEF731F98DF8009094F884006A4600F018
:1034D00003008DF8010094F888108DF8021094F81C
:1034E000A0008DF803002946504601F041F82878E5
:1034F000252805D0212807D0FFDF2878222803D9E6
:1035000022212846FDF7A3FF012150460AF0C8FDFD
:1035100000283FF4DDAEFFDFCFE60000F40100201D
:1035200040420F00716881F80180C6E6FFDFC4E603
:1035300070B5FE4C002584F85C5025660CF05BFAF3
:1035400004F11001204604F06DFC84F8305070BD89
:1035500070B50D46FEF70CF9040000D1FFDF4FF403
:10356000B871284614F0CDFF2434012105F1E000A4
:103570002C610CF041FA002800D0FFDF70BD0A4634
:10358000014602F1E0000CF057BA70B505464068FC
:1035900086B00178082906D00B2933D00C292FD00A
:1035A000FFDF06B070BD46883046FEF7E1F8040044
:1035B00000D1FFDF20782128F3D028281BD16868AC
:1035C00002210C3000F09FFFA8B168680821001D9F
:1035D00000F099FF78B104F12401304609F052FD62
:1035E00004F07CFA00B1FFDF06B02046BDE8704071
:1035F0002921FDF72CBF06B0BDE8704004F059BC8E
:1036000001218171686886883046FEF7B1F80400B0
:1036100000D1FFDF20782128C3D06868817909B103
:10362000807808B1FFDFBCE704F043FCA07F000610
:1036300023D5E07FC00705D094F8200000F01F00DC
:10364000102818D05FF0050084F82300207829287E
:1036500015D02428A5D1314604200EF029FA2221C4
:103660002046FDF7F4FE012130460AF019FD00283E
:1036700097D0FFDF95E70620E6E70420E4E7012185
:1036800030460AF0FBFC050000D1FFDF2521204673
:10369000FDF7DDFE03208DF80000694605F1E0002E
:1036A0000CF0C1F90228BED00028BCD0FFDF78E7BB
:1036B0002DE9F04788B09A46164688468146FEF7BF
:1036C00057F805003AD02878222837D3232835D058
:1036D000E87F000732D40027012148460AF0CEFCDB
:1036E000040005D10121002248460AF0BEFC044630
:1036F000694600F064FF009800B9FFDF00983CB114
:10370000E03404612878222804D0242802D005E07F
:10371000076103E025212846FDF799FE0098012165
:103720004170C0F824908680C0E9028A01A90CF09B
:1037300095F9022802D0002800D0FFDF08B00DE57F
:1037400070B586B00546FEF713F80078222814D924
:10375000012128460AF092FC04002CD1FFDF2AE068
:10376000B4F85E0004F1620630440178427829B171
:1037700021462846FFF72DFDB0B912E7ADF8042029
:103780000821284602AB07F001FE03900028F4D080
:1037900005208DF80000694604F1E0000CF043F9C3
:1037A000022801D000B1FFDF02231022314604F1CC
:1037B0005E000AF03EFBB4F860000028D0D1F0E6CD
:1037C00010B586B00446FDF7D3FF0078222811D942
:1037D000012120460AF052FC040000D1FFDF062040
:1037E0008DF80000694604F1E0000CF01CF9002897
:1037F00000D0FFDF06B010BD2DE9F84F0546007878
:103800000C460027010904F1080090463E46BA46DE
:10381000009002297ED0072902D00A2909D142E06E
:1038200068680178082905D00B292CD00C292AD0EA
:10383000FFDF72E114271C26002C6CD04088A0808A
:10384000FDF796FF5FEA000900D1FFDF99F8170046
:1038500009F118014008009AFDF765FF6868808942
:10386000208268684168C4F812108068C4F81600A5
:10387000A07E20F0060040F00100A07699F81E001E
:1038800040F020014FE01A270A26002CD5D080886E
:10389000A080FDF76DFF050000D1FFDF28460099ED
:1038A000FFF768FC39E10CB1A88BA080287A4FF0B3
:1038B000010B0B287ED006DC01287CD0022808D022
:1038C000032804D137E00D2876D00E2875D0FFDF0D
:1038D00023E11E270926002CAFD0A088FDF748FF62
:1038E0005FEA000900D1FFDF287B00F00300012818
:1038F000207A1DD020F001002072297B890861F315
:1039000041002072297BC90861F382002072297B63
:10391000090901E0F7E0AEE061F3C300207299F815
:103920001E0040F0400189F81E10F6E0D40100208E
:1039300040F00100E0E713270D26002CA6D0A08858
:10394000FDF716FF81460121A0880AF097FB0500CC
:1039500000D1FFDF686F817801F003010129217A2E
:1039600050D021F00101217283789B0863F341015B
:1039700021728378DB0863F38201217283781B094B
:1039800063F3C3012172037863F306112172437854
:1039900063F3C711217284F809A0C178A17202797A
:1039A000E17A62F30001E1720279520862F34101A7
:1039B000E17203E029E067E04EE05FE002799208FF
:1039C00062F38201E1720279D20862F3C301E1720B
:1039D0004279217B62F3000121734279520862F33C
:1039E000410121734279920862F382012173407987
:1039F000C00860F3C301217399F8000023282AD975
:103A0000262139E041F00101ADE71827102694B3D3
:103A1000A088FDF7ADFE00900121A0880AF02EFBE2
:103A20005FEA000900D1FFDFE868A06099F80000B4
:103A300040F0040189F8001099F80100800708D5CA
:103A400084F80CB000980078232866D927210098C4
:103A500052E084F80CA060E015270F265CB1A08826
:103A6000FDF786FE81460622E868009907F012FC01
:103A700084F80EB085E042E048463DE0162709266E
:103A8000ECB3287B207248E0287B19270E26B4B3BC
:103A9000C4F808A0A4F80CA0012807D0022808D078
:103AA00003280CD004280AD0FFDF15E084F808B002
:103AB00001E002202072607A20F003000BE0697BB5
:103AC000042801F00F0141F080012172F3D1607AE6
:103AD00020F00300401C6072A088FDF749FE0546F7
:103AE0000078212819D0232800D0FFDF0121A088E9
:103AF0000AF0D6FA22212846FDF7A9FC0DE0FFE7DF
:103B0000A8F800600EE00CB16888A080287A10B395
:103B1000012809D002283AD0FFDFA8F800600CB1D4
:103B200027806680002006E415270F26002CE7D0AA
:103B3000A088FDF71DFE0121A0880AF09FFA05006C
:103B400000D1FFDFD5F81D000622009907F0A2FB87
:103B500084F80EA0E1E717270926002CD0D0A08812
:103B6000FDF706FE81460121A0880AF087FA0500CC
:103B700000D1FFDF6878800701D5022000E0012036
:103B8000207299F800002328C7D9272174E7192744
:103B90000E26002CB4D0A088FDF7EAFD5FEA0009EC
:103BA00000D1FFDFC4F808A0A4F80CA084F808A096
:103BB000A07A40F00300A07299F81E10C90961F3C1
:103BC0008200A07299F81F2099F81E1012EAD11FE6
:103BD00005D099F8201001F01F01102925D020F000
:103BE0000800A07299F81F10607A61F3C300607238
:103BF000697A01F0030101298FD140F0040060725D
:103C0000E87A217B60F300012173AA7A607B62F37A
:103C100000006073EA7A520862F341012173A97AC5
:103C2000490861F34100607377E740F00800D8E786
:103C300010B5F84C30B10146102204F1200014F008
:103C4000BFFB012084F8300010BD10B5044600F021
:103C5000A6FCF04920461022BDE81040203114F0A7
:103C6000AFBB70B5EB4D06004FF0000412D0FDF76E
:103C700010FB08B110240BE00621304607F0F1FAE2
:103C8000411C04D02866012085F85C0000E0072470
:103C9000204670BD0020F7E7007810F00F0204D036
:103CA000012A05D0022A0CD110E0000909D10AE04E
:103CB0000009012807D0022805D0032803D00428D2
:103CC00001D0072070470870002070470620704719
:103CD00005282AD2DFE800F003070F171F00087835
:103CE00020F0FF001EE0087820F00F00401C20F0BC
:103CF000F000103016E0087820F00F00401C20F093
:103D0000F00020300EE0087820F00F00401C20F07A
:103D1000F000303006E0087820F00F00401C20F062
:103D2000F0004030087000207047072070472DE9F0
:103D3000F043804687B00D464FF000090846FDF776
:103D4000F5FAA8B94046FDF713FD060003D0307818
:103D500022280BD104E043F2020007B0BDE8F08353
:103D600035B1B07FC10601D4000703D50820F4E7C0
:103D70001020F2E7F07F000701D50D20EDE70027C6
:103D8000012140460AF07AF9040006D101210022FF
:103D900040460AF06AF9040005D0694600F00FFCBD
:103DA000009818B901E00420D7E7FFDF009802214E
:103DB000E0344170C0F82480446107810121017121
:103DC000297801F00102017E62F3010101762A786F
:103DD000520862F3820101762A78920862F3C301E5
:103DE00001762A78D20862F3041101762421304644
:103DF000FDF72DFB01A900980BF030FE022801D041
:103E000000B1FFDF4846A8E72DE9FF4F0E46824983
:103E1000904697B09A4607C914AB4FF0000983E863
:103E200007001798FDF7A4FC050006D0287826287F
:103E300006D008201BB0BDE8F08F43F20200F9E77E
:103E400026B94046FFF7F2F80028F3D10121179870
:103E50000AF014F9040000D1FFDF852E27D007DC1B
:103E6000EEB1812E1DD0822E1DD0832E08D11CE0F4
:103E7000862E1ED0882E1ED0892E1ED08A2E1ED0B1
:103E80000F2020710F281CD004F010F8D8B10120A9
:103E90008DF83400201D0E902079B0B126E100206D
:103EA000EFE70120EDE70220EBE70320E9E705203B
:103EB000E7E70620E5E70820E3E70920E1E70A2035
:103EC000DFE70720B6E71120B4E798F80000D4E94F
:103ED0001D764208A87F002162F3C710A87798F8E2
:103EE00000008208E87F62F30000E87798F800009D
:103EF000C209607862F34100607098F8000002091E
:103F0000207862F34710207098F80000C2086078AB
:103F100062F30000607098F80100607198F800008A
:103F200000F00102B07862F30100B070AA7FD209FC
:103F300062F38200B070EA7F62F3C300B07062780F
:103F400062F30410B0702278C0F3C00052093270DE
:103F50006278C2F34002727098F80220F2707171B8
:103F60003171B978C1F3C00108405FEA000B2ED06F
:103F70005046FDF78EF978BBDAF80C00FDF789F9A9
:103F800050BBDAF81C00FDF784F928BBDAF80C0006
:103F9000A060DAF81C00E06060787A7842EA5001AC
:103FA00061F341006070B978C0B200EA111161F3A9
:103FB000000060700020207705F117006061681C28
:103FC000A061B07800F00300012806D046E06078D8
:103FD0007A7802EA5001E3E719E0B87800F00300CC
:103FE00001283BD1321D711D404600F097FA31790E
:103FF000387901408DF8281070797A7910408DF861
:10400000300001432AD05046FDF743F930B110206B
:1040100010E70000D4010020848801000AF110009C
:1040200004F5AE7304F18C028DE80D0000210AAB9B
:104030005A462046FFF73DF80028E9D104F5B07252
:1040400004F1A403CDF800A0CDE9013201210CABAD
:104050005A462046FFF72DF80028D9D1607880070E
:1040600022D4B078B978C0F38000C1F3800108434E
:104070001AD0307814AA397832F810204B00DA4080
:1040800002F00309B9F1030F01D14FF00209BBF1AE
:10409000000F09D0012801D0042805D1012901D041
:1040A000042901D14FF00409A87F40F08000A877CF
:1040B000E97F6BF30001E9776078800706D503207C
:1040C000A071BBF1000F11D100202BE00220B9F14B
:1040D000020F1AD0B9F1010F19D0B9F1040F29D08C
:1040E0000020A071A87F20F08000A8772521284615
:1040F000FDF7ADF90DA904F1E0000BF094FC10B14F
:10410000022800D0FFDF002094E6A071DCE7A07158
:104110000D2104F1200014F0F4F9207840F00200A1
:10412000207001208DF84C0013AA2946179800F042
:104130001FFADBE70120A071D8E72DE9F04387B033
:104140009046894604460025FDF712FB070004D07F
:104150003878272804D00820FFE543F20200FCE568
:104160000121204609F08AFF040000D1FFDFA67973
:104170005FEA090005D0012821D0B9F1020F26D14C
:1041800010E0B8F1000F22D1012E05D0022E05D08B
:10419000032E05D0FFDF2DE00C252BE0012529E0C3
:1041A000022527E04046FDF774F8B0B9032E0ED182
:1041B0001022414604F11D0014F002F91AE0012E0C
:1041C00002D0022E03D104E0B8F1000F12D0072074
:1041D000C3E54046FDF75DF808B11020BDE51021AC
:1041E00004F11D0014F06BF90621404607F039F880
:1041F000C4F81D002078252140F0020020703846C8
:10420000FDF725F92078C10713D020F001002070B8
:1042100002208DF8000004F11D0002908DF804507A
:104220006946C3300BF0FFFB022803D010B1FFDF5B
:1042300000E02577002090E530B587B00D460446B4
:10424000FDF796FA60B10121204609F017FF04003E
:104250000CD02846FDF71DF828B1102007B030BD5E
:1042600043F20200FAE72078400701D40820F5E77E
:10427000294604F13D002022054614F0A1F82078DB
:1042800040F01000207001070FD520F008002070CA
:1042900007208DF80000694604F1E00001950BF05D
:1042A000C2FB022801D000B1FFDF0020D6E770B5C5
:1042B0000D460646FDF75CFA18B10078272817D19D
:1042C00002E043F2020070BD0121304609F0D6FE43
:1042D000040000D1FFDFA079022809D16078C0076F
:1042E00006D02A4621463046FEF773FF10B10FE094
:1042F000082070BDB4F860000E280BD204F16201F2
:1043000002231022081F09F05EFD01210170457093
:10431000002070BD112070BD70B5064614460D46D4
:104320000846FCF7B6FF18B92046FCF7D8FF08B1DD
:10433000102070BDA6F57F40FF380ED03046FDF747
:1043400017FA38B1417822464B08811C1846FDF710
:10435000EAF907E043F2020070BD2046FDF7F2FEE5
:104360000028F9D11021E01D0DF0C3F8E21D294607
:1043700004F1170000F033F9002070BD2DE9F04181
:1043800004468AB015460E4600270846FCF7CEFFC5
:1043900018B92846FCF7CAFF18B110200AB0BDE8CA
:1043A000F0812046FDF7E4F95FEA000804D098F8B0
:1043B0000000272810D102E043F20200EEE70121BD
:1043C000204609F05BFE040000D1FFDF20784007A3
:1043D00002D56078800701D40820DFE7D4E91D0109
:1043E000497801B18DB1407800B176B1ADB1EA1D27
:1043F00006A8E16800F0F3F8102206A905F11700FD
:1044000013F0B2FF18B1042707E00720C6E7102217
:10441000E91D04F12D0013F0D3FF2EB11022F11D80
:1044200004F11D0013F0CCFF2078252140F002009C
:1044300020704046FDF70BF82078C10715D020F01A
:104440000100207002208DF8000004F11D00029090
:10445000103003908DF804706946B3300BF0E3FA26
:10446000022803D010B1FFDF00E02777002095E796
:1044700070B50D4606460BB1072070BDFDF778F903
:10448000040007D02078222802D3A07F800604D41D
:10449000082070BD43F2020070BDADB12946304620
:1044A00008F0F0FD03F01AFB297C4A08A17F62F3B3
:1044B000C711A177297CE27F61F30002E277297CB2
:1044C000890884F8201004E0304608F0FEFD03F06F
:1044D00005FBA17F21F02001A17770BD70B50D46CD
:1044E000FDF746F9040005D02846FCF7F8FE20B198
:1044F000102070BD43F2020070BD29462046FEF731
:1045000039FE002070BD04E010F8012B0AB1002034
:104510007047491E89B2F7D20120704710B5C478A0
:104520000B7864F300030B70C478640864F34103F0
:104530000B70C478A40864F382030B70C478E40899
:1045400064F3C3030B700379117863F300011170F6
:1045500003795B0863F34101117003799B0863F3EE
:10456000820111700079C00860F3C301117010BDA1
:1045700070B51546064603F099FC040000D1FFDF34
:10458000207820F00F00801C20F0F00020302070F8
:1045900066802868A060BDE8704003F08ABC10B552
:1045A000134C94F83000002808D104F12001A1F147
:1045B00010000BF07AFA012084F8300010BD10B121
:1045C00090F8B9202AB10A4890F8350018B10020B7
:1045D00003E0B83001E0064834300860704708B5A1
:1045E0000023009313460A4609F043FF08BD00006C
:1045F000D4010020F0B5007B059F1E4614460D46F1
:10460000012800D0FFDF0C2030803A203880002CB9
:1046100008D0287A032806D0287B012800D0FFDFA5
:1046200017206081F0BDA889FBE72DE9F04786B02F
:10463000144691F80C900E9A0D46B9F1010F0BD06B
:104640001021007B2E8A8846052807D0062833D003
:10465000FFDF06B0BDE8F0870221F2E7E8890C2110
:1046600000EB400001EB4000188033201080002C4C
:10467000EFD0E889608100271AE00096688808F189
:10468000020301AA696900F084FF06EB0800801CA0
:1046900007EB470186B204EB4102BDF804009081AC
:1046A0000DF1060140460E320BF075FA7F1CBFB2C9
:1046B0006089B842E1D8CCE734201080E889B9F1AC
:1046C000010F11D0122148430E301880002CC0D0A9
:1046D000E88960814846B9F1010F00D002202073BB
:1046E00000270DF1040A1FE00621ECE70096688818
:1046F00008F1020301AA696900F04BFF06EB08000C
:10470000801C86B2B9F1010F12D007EBC70004EB91
:104710004000BDF80410C18110220AF102011030DE
:1047200013F04EFE7F1CBFB26089B842DED890E71E
:1047300007EB470104EB4102BDF80400D0810AF108
:104740000201404610320BF026FAEBE72DE9F04764
:104750000E4688B090F80CC096F80C80378AF58920
:104760000C20109902F10C044FF0000ABCF1030F69
:1047700008D0BCF1040F3ED0BCF1070F7DD0FFDFA5
:1047800008B067E705EB850C00EB4C001880312082
:104790000880002AF4D0A8F1060000F0FF09558136
:1047A00025E0182101A813F0ACFE0097708843465D
:1047B00001AA716900F0EDFEBDF804002080BDF88B
:1047C0000600E080BDF808002081A21C0DF10A015E
:1047D00048460BF0E0F9B9F1000F00D018B184F8A9
:1047E00004A0A4F802A007EB080087B20A346D1EEB
:1047F000ADB2D6D2C4E705EB850C00EB4C001880B7
:1048000032200880002ABBD0A8F1050000F0FF0983
:10481000558137E000977088434601AA716900F01E
:10482000B8FE9DF80600BDF80410E1802179420829
:1048300060F3000162F34101820862F38201C20861
:1048400062F3C301020962F30411420962F34511E4
:10485000820962F386112171C0096071BDF80700F9
:10486000208122460DF1090148460BF094F918B158
:1048700084F802A0A4F800A000E007E007EB08001D
:1048800087B20A346D1EADB2C4D279E7A8F1020036
:1048900084B205FB08F000F10E0CA3F800C035232C
:1048A0000B80002AA6D055819481009783B270882E
:1048B0000E32716900F06DFE62E72DE9F84F1E4679
:1048C0000A9D0C4681462AB1607A00F58070D0803E
:1048D000E089108199F80C000C274FF000084FF088
:1048E0000E0A0D2873D2DFE800F09E070E1C283058
:1048F0003846556A73737300214648460095FFF7A2
:1049000079FEBDE8F88F207B9146082802D0032865
:1049100000D0FFDF378030200AE000BFA9F80A800E
:10492000EFE7207B9146042800D0FFDF378031205D
:104930002880B9F1000FF1D1E3E7207B91460428EC
:1049400000D0FFDF37803220F2E7207B914602283B
:1049500000D0FFDF37803320EAE7207B17460228AC
:1049600000D0FFDF3420A6F800A02880002FC8D098
:10497000A7F80A80C5E7207B1746042800D0FFDF90
:104980003520A6F800A02880002FBAD04046A7F80E
:104990000A8012E0207B1746052802D0062800D0A6
:1049A000FFDF1020308036202880002FA9D0E0893A
:1049B0007881A7F80E80B9F80E00B881A1E7207BB6
:1049C0009146072800D0FFDF37803720B0E72AE084
:1049D0004FF0120018804FF038001700288090D058
:1049E000E0897881A7F80E80A7F8108099F80C006C
:1049F0000A2805D00B2809D00C280DD0FFDF80E74E
:104A0000207B0A2800D0FFDF01200AE0207B0B2852
:104A100000D0FFDF042004E0207B0C2800D0FFDF63
:104A2000052038736DE7FFDF6BE770B50C46054670
:104A3000FCF79EFE20B10078222804D2082070BD29
:104A400043F2020070BD0521284609F017FB2060E3
:104A500008B1002070BD032070BD30B448800878D4
:104A600020F00F00C01C20F0F000903001F8080B7F
:104A70001DCA81E81D0030BC03F01BBA2DE9FF47B9
:104A800084B00027824602970798904689461230E4
:104A900004F038FB401D20F00306079828B907A949
:104AA0005046FFF7C2FF002854D1B9F1000F05D0DE
:104AB0000798017B19BB052504681BE098F80000E6
:104AC000092803D00D2812D0FFDF46E007990325FF
:104AD0004868B0B3497B42887143914239D98AB260
:104AE000B3B2011D09F05BF90446078002E0079CA0
:104AF000042508340CB1208810B1032D29D02CE0F6
:104B000007980121123004F02FFBADF80C0002468B
:104B100002AB2946504606F039FC070001D1A01C23
:104B2000029007983A461230C8F80400A8F802A08C
:104B300003A94046029B04F024FBD8B10A2817D2EF
:104B400000E006E0DFE800F007091414100B0D1474
:104B50001412132014E6002012E6112010E608209B
:104B60000EE643F203000BE6072009E60D2007E6F8
:104B7000032005E6BDF80C002346CDE900702A4667
:104B80005046079900F015FD57B9032D08D1079835
:104B9000B3B2417B406871438AB2011D09F013F939
:104BA000B9F1000FD7D0079981F80C90D3E72DE920
:104BB000FE4F91461A881C468A468046FAB102ABDF
:104BC000494606F0E3FB050019D04046A61C27889D
:104BD00009F098FB3246072629463B46009608F026
:104BE000C4FF20882346CDE900504A46514640463E
:104BF00000F0DFFC002020800120BDE8FE8F0020B7
:104C0000FBE710B586B01C46AAB104238DF800302E
:104C10001388ADF808305288ADF80A208A788DF8EC
:104C20000E200988ADF80C1000236A462146FFF7D4
:104C300025FF06B010BD1020FBE770B50D4605211D
:104C400009F01CFA040000D1FFDF294604F112002C
:104C5000BDE8704004F071BA2DE9F8430D46804676
:104C6000002603F023F904462878102878D2DFE8DC
:104C700000F0773B34533131123131310831313169
:104C800031312879001FC0B2022801D0102810D17C
:104C900014BBFFDF35E004B9FFDF0521404609F012
:104CA000EDF9007B032806D004280BD0072828D074
:104CB000FFDF072655E02879801FC0B2022820D0E8
:104CC00050B1F6E72879401FC0B2022819D0102849
:104CD00017D0EEE704B9FFDF13E004B9FFDF28794E
:104CE00001280ED1172137E00521404609F0C6F909
:104CF000070000D1FFDF07F11201404604F0FAF986
:104D00002CB12A4621464046FFF7A7FE29E0132191
:104D10004046FDF7E3FC24E004B9FFDF05214046EF
:104D200009F0ACF9060000D1FFDF694606F1120078
:104D300004F0EAF9060000D0FFDFA988172901D2A4
:104D4000172200E00A46BDF80000824202D901465F
:104D500002E005E01729C5D3404600F03AFCD0E751
:104D6000FFDF3046BDE8F883401D20F0030219B193
:104D700002FB01F0001D00E000201044704713B555
:104D8000009848B10024684608F0B3FF002C02D117
:104D9000F74A009911601CBD01240020F4E72DE9B9
:104DA000F0470C4615462421204613F0AAFB05B90E
:104DB000FFDFA87860732888DFF8B4A3401D20F0D7
:104DC0000301AF788946DAF8000008F0B0FF06006A
:104DD00000D1FFDF4FF000082660A6F8008077B111
:104DE00009FB07F1091D0AD0DAF8000008F09FFF5F
:104DF000060000D1FFDF6660C6F8008001E0C4F85D
:104E00000480298804F11200BDE8F04704F064B979
:104E10002DE9F047804601F112000D46814604F06D
:104E200071F9401DD24F20F003026E7B14462968B1
:104E3000386808F0A7FF3EB104FB06F2121D03D04C
:104E40006968386808F09EFF052009F0C3F8044639
:104E5000052009F0C7F8201A012802D1386808F0A7
:104E60005BFF49464046BDE8F04704F04AB970B5DB
:104E70000546052109F002F9040000D1FFDF04F125
:104E800012012846BDE8704004F034B92DE9F04F16
:104E900091B04FF0000BADF834B0ADF804B04788D6
:104EA0000C46054692460521384609F0E7F806000B
:104EB00000D1FFDF24B1A780A4F806B0A4F808B0A1
:104EC000297809220B20B2EB111F7DD12A7A04F137
:104ED000100138274FF00C084FF001090391102AF8
:104EE00073D2DFE802F072F2F1F07F08D2888D9F72
:104EF0003DDBF3EEB6B6307B022800D0FFDFA88999
:104F000008EBC001ADF804103021ADF83410002CCE
:104F100025D06081B5F80E9000271DE004EBC7088E
:104F2000317C88F80E10F189A8F80C10CDF80090AB
:104F30006888042304AA296900F02BFBBDF810102F
:104F4000A8F8101009F10400BDF812107F1C1FFA18
:104F500080F9A8F81210BFB26089B842DED80DE11E
:104F6000307B022800D0FFDFE98908EBC100ADF8F3
:104F700004003020ADF83400287B0A90001FC0B236
:104F80000F90002CEBD06181B5F81090002725E040
:104F9000CDF800906888696903AA0A9B00F0F9FAC5
:104FA0000A9804EBC70848441FFA80F908F10C027C
:104FB00004A90F980AF0EFFD18B188F80EB0A8F810
:104FC0000CB0BDF80C1001E0D4E0CFE0A8F8101050
:104FD000BDF80E107F1CA8F81210BFB26089B8424D
:104FE000D6D8CBE00DA8009001AB2246294630462A
:104FF000FFF71BFBC2E0307B082805D0FFDF03E092
:10500000307B082800D0FFDFE8891030ADF80400BD
:105010003620ADF83400002C3FD0A9896181F18998
:10502000A18127E0307B092800D0FFDFA88900F1AB
:105030000C01ADF804103721ADF83410002C2CD041
:105040006081E8890090AB89688804F10C022969C5
:1050500056E0E8893921103080B2ADF80400ADF88F
:105060003410002C74D0A9896181287A0E280AD0C6
:1050700002212173E989E181288A0090EB896888FF
:105080006969039A3CE00121F3E70DA8009001ABA8
:10509000224629463046FFF759FB6FE0307B0A284D
:1050A00000D0FFDF1220ADF80400ADF834704CB32F
:1050B000A9896181A4F810B0A4F80EB084F80C900E
:1050C0005CE020E002E031E039E042E0307B0B2898
:1050D00000D0FFDF288AADF834701230ADF804003C
:1050E00084B104212173A9896181E989E181298A37
:1050F0002182688A00902B8A688804F1120269690B
:1051000000F047FA3AE0307B0C2800D0FFDF122095
:10511000ADF80400ADF834703CB305212173A4F858
:105120000AB0A4F80EB0A4F810B027E00DA80090C3
:1051300001AB224629463046FFF75CFA1EE00DA877
:10514000009001AB224629463046FFF7B6FB15E03A
:1051500034E03B21ADF80400ADF8341074B3A4F88A
:105160000690A4F808B084F80AB007E0FFDF05E075
:1051700010000020297A012917D0FFDFBDF80400B4
:10518000AAF800006CB1BDF834002080BDF804001E
:105190006080BDF83400392803D03C2801D086F85F
:1051A0000CB011B00020BDE8F08F3C21ADF8040038
:1051B000ADF8341014B1697AA172DFE7AAF80000E3
:1051C000EFE72DE9F84356880F468046154605213E
:1051D000304608F053FF040000D1FFDF1234009482
:1051E0003B46414630466A6804F0FFF8BAE570B5C0
:1051F0000D46052108F042FF040000D1FFDF2946DB
:1052000004F11200BDE8704003F089BF70B50D468F
:10521000052108F033FF040000D1FFDF294604F127
:105220001200BDE8704003F0A7BF70B50546052128
:1052300008F024FF040000D1FFDF04F10803214639
:105240002846BDE870400422B1E470B5054605214A
:1052500008F014FF040000D1FFDF21462846236830
:10526000BDE870400522A2E470B50646052108F0AD
:1052700005FF040000D1FFDF04F1120003F042FF3C
:10528000401D20F0030511E0011D00880322431892
:1052900021463046FFF78BFC00280BD0607BABB279
:1052A000684382B26068011D08F0C3FD60684188F0
:1052B0000029E9D170BD70B50E46054602F0F6FD35
:1052C000040000D1FFDF0120207266726580207823
:1052D00020F00F00C01C20F0F00030302070BDE83E
:1052E000704002F0E6BD2DE9F0438BB00D46144648
:1052F000814606A9FFF799FB002814D14FF6FF76E7
:1053000001274FF420588CB103208DF800001020A5
:10531000ADF8100007A8059007AA204604A90AF0D6
:1053200059FC78B107200BB0BDE8F0830820ADF838
:1053300008508DF80E708DF80000ADF80A60ADF8D9
:105340000C800CE00698A17801742188C1818DF849
:105350000E70ADF80850ADF80C80ADF80A606A46E2
:1053600002214846069BFFF789FBDCE708B50122CE
:105370008DF8022042F60202ADF800200A4603230F
:105380006946FFF73EFC08BD08B501228DF80220F2
:1053900042F60302ADF800200A4604236946FFF7EF
:1053A00030FC08BD00B587B079B102228DF800202D
:1053B0000A88ADF808204988ADF80A1000236A462B
:1053C0000521FFF75BFB07B000BD1020FBE709B12B
:1053D000072316E40720704770B588B00D461446C1
:1053E000064606A9FFF721FB00280ED17CB1062056
:1053F000ADF808508DF80000ADF80A40069B6A46EB
:105400000821DC813046FFF739FB08B070BD05206C
:105410008DF80000ADF80850F0E700B587B059B13D
:1054200007238DF80030ADF80820039100236A4669
:105430000921FFF723FBC6E71020C4E770B588B049
:105440000C460646002506A9FFF7EFFA0028DCD136
:1054500006980121123003F087FE9CB121780629BD
:1054600021D2DFE801F0200505160318801E80B266
:10547000C01EE28880B20AB1A3681BB1824203D980
:105480000C20C2E71020C0E7042904D0A08850B93E
:1054900001E00620B9E7012913D0022905D004292B
:1054A0001CD005292AD00720AFE709208DF800007D
:1054B0006088ADF80800E088ADF80A00A0680390A5
:1054C00023E00A208DF800006088ADF80800E0882D
:1054D000ADF80A00A0680A25039016E00B208DF8AD
:1054E00000006088ADF80800A088ADF80A00E088E8
:1054F000ADF80C00A0680B25049006E00C208DF898
:10550000000060788DF808000C256A462946304670
:10551000069BFFF7B3FA78E700B587B00D228DF848
:105520000020ADF8081000236A461946FFF7A6FAD6
:1055300049E700B587B071B102228DF800200A88D2
:10554000ADF808204988ADF80A1000236A46062104
:10555000FFF794FA37E7102035E770B586B00646B6
:1055600001200D46ADF808108DF80000014600231B
:105570006A463046FFF782FA040008D129463046D1
:1055800001F004FB0021304601F01EFB204606B06E
:1055900070BDF8B51C4615460E46069F08F0A0FEE5
:1055A0002346FF1DBCB231462A46009408F0A9FAF2
:1055B000F8BD30B41146DDE902423CB1032903D005
:1055C000002330BC06F018B80123FAE71A8030BC7B
:1055D000704770B50C460546FFF72FFB214628465D
:1055E00001F0E3FA2846BDE87040012101F0ECBA71
:1055F00018B18178012938D101E010207047018865
:1056000042F60112881A914231D018DC42F60102AA
:10561000A1EB020091422AD00CDC41B3B1F5C05F8E
:1056200025D06FF4C050081821D0A0F57060FF3865
:105630001BD11CE001281AD002280AD117E0B0F5CE
:10564000807F14D008DC012811D002280FD0032855
:105650000DD0FF2809D10AE0B0F5817F07D0A0F571
:105660008070033803D0012801D0002070470F203C
:1056700070470A281FD008DC0A2818D2DFE800F09B
:10568000191B1F1F171F231D1F21102815D008DCF1
:105690000B2812D00C2810D00D2816D00F2806D1B8
:1056A0000DE011280BD084280BD087280FD00320C1
:1056B00070470020704705207047072070470F2073
:1056C000704704207047062070470C20704743F253
:1056D0000200704738B50C46050041D06946FEF718
:1056E000DBFA002819D19DF80010607861F3020000
:1056F00060706946681CFEF7CFFA00280DD19DF84E
:105700000010607861F3C5006070A978C1F34101B1
:10571000012903D0022905D0072038BD217821F0C6
:10572000200102E0217841F020012170410704D0DE
:10573000A978C90861F386106070607810F0380F9E
:1057400007D0A978090961F3C710607010F0380F0D
:1057500002D16078400603D5207840F040002070E8
:10576000002038BD70B504460020088015466068EA
:10577000FFF7B0FF002816D12089A189884211D8EF
:1057800060688078C0070AD0B1F5007F0AD840F27F
:105790000120B1FBF0F200FB1210288007E0B1F508
:1057A000FF7F01D90C2070BD01F20121298000206A
:1057B00070BD10B50478137864F300031370047897
:1057C000640864F3410313700478A40864F382034B
:1057D00013700478E40864F3C30313700478240995
:1057E00064F3041313700478640964F345131370AD
:1057F0000078800960F38613137031B10878C1070F
:1058000001D1800701D5012000E0002060F3C7131B
:10581000137010BD4278530702D002F0070306E070
:1058200012F0380F02D0C2F3C20300E001234A781D
:1058300063F302024A70407810F0380F02D0C0F3D0
:10584000C20005E0430702D000F0070000E001209D
:1058500060F3C5024A7070472DE9F04F95B00D0016
:10586000824612D01221284612F029FE4FF6FF7B05
:1058700005AA0121584605F01CFB002426463746A0
:105880004FF420586FF4205973E0102015B0BDE894
:10589000F08F00BF9DF81E0001280AD1BDF81C1032
:1058A00041450BD011EB09000AD001280CD0022889
:1058B0000CD0042C0ED0052C0FD10DE0012400E0FB
:1058C0000224BDF81A6008E0032406E00424BDF8B1
:1058D0001A7002E0052400E00624BDF81A105145B4
:1058E00047D12C74BEB34FF0000810AA4FF0070A3E
:1058F000CDE90282CDE900A80DF13C091023CDF8D5
:10590000109042463146584605F086FB08BBBDF86C
:105910003C002A46C0B210A90AF03DF9C8B9AE81D0
:10592000CFB1CDE900A80DF1080C0AAE40468CE8D5
:105930004102132300223946584605F06DFB40B959
:10594000BDF83C00F11CC01EC0B22A1D0AF023F9AC
:1059500010B103209AE70AE0BDF82900E881062C7F
:1059600005D19DF81E00A872BDF81C0028810020FA
:105970008CE705A805F0A9FA00288BD0FFF779FE7F
:1059800084E72DE9F0471C46DDE90978DDF8209031
:1059900015460E00824600D1FFDF0CB1208818B1F9
:1059A000D5B11120BDE8F087022D01D0012100E022
:1059B000002106F1140004F06BF9A8F8000002467B
:1059C0003B462946504605F0E1FCC9F8000008B9FD
:1059D000A41C3C600020E5E71320E3E7F0B4144684
:1059E000DDE904528DB1002314B1022C09D101E08C
:1059F000012306E00D7CEE0703D025F0010501230D
:105A00000D742146F0BC05F0F7BD1A80F0BC70475C
:105A10002DE9FE4F91461A881C468A468046FAB107
:105A200002AB494605F0B2FC050019D04046A61C61
:105A3000278808F067FC3246072629463B46009631
:105A400008F093F820882346CDE900504A46514695
:105A50004046FFF7C3FF002020800120BDE8FE8FF5
:105A60000020FBE72DE9F04786B082460EA890465D
:105A700090E8B000894604AA05A903A88DE80700AC
:105A80001E462A4621465046FFF77BFF039901B187
:105A900001213970002818D1F94904F1140204AB2E
:105AA0000860039805998DE807004246494650462C
:105AB00004F0A5FCA8B1092811D2DFE800F0050820
:105AC0000510100A0C0C0E00002006B06AE7112029
:105AD000FBE70720F9E70820F7E70D20F5E70320AB
:105AE000F3E7BDF810100398CDE9000133462A46CC
:105AF00021465046FFF772FFE6E72DE9F04389B0F3
:105B00000D46DDE9108781461C461646142103A880
:105B100012F0F7FC012002218DF810108DF80C0016
:105B20008DF81170ADF8146064B1A278D20709D075
:105B30008DF81600E088ADF81A00A088ADF81800BE
:105B4000A068079008A80095CDE90110424603A976
:105B500048466B68FFF786FF09B0BDE8F083F0B5F3
:105B60008BB000240646069407940727089405A8DE
:105B70000994019400970294CDE903400D46102347
:105B80002246304605F048FA78B90AA806A90194D9
:105B900000970294CDE90310BDF814300022294685
:105BA000304605F00FF8002801D0FFF762FD0BB07A
:105BB000F0BD04F0AFBE2DE9FC410C468046002646
:105BC00002F074F9054620780D287DD2DFE800F058
:105BD000BC0713B325BD49496383AF959B00A84813
:105BE000006820B1417841F010014170ADE04046BD
:105BF00002F08CF9A9E00421404608F03FFA0700C2
:105C000000D1FFDF07F11401404603F0D5FFA5BB2B
:105C100013214046FCF762FD97E00421404608F05E
:105C20002DFA070000D1FFDFE088ADF8000000206A
:105C3000B8819DF80000010704D5C00602D5A088F0
:105C4000B88105E09DF8010040067ED5A088F88166
:105C500005B9FFDF22462946404601F0BDFC022679
:105C600073E0E188ADF800109DF8011009060FD52A
:105C7000072803D006280AD00AE024E00421404681
:105C800008F0FCF9060000D1FFDFA088F0810226B1
:105C9000CDB9FFDF17E00421404608F0EFF9070017
:105CA00000D1FFDF07F1140004F06BFE90F0010F4C
:105CB00002D1E079000648D5387C022640F0020087
:105CC000387405B9FFDF00E03EE022462946404631
:105CD00001F082FC39E00421404608F0CFF9017C54
:105CE000002D01F00206C1F340016171017C21F039
:105CF00002010174E7D1FFDFE5E7022601214046FA
:105D000002F036F921E00421404608F0B7F90546D3
:105D1000606800902089ADF8040001226946404681
:105D200002F047F9287C20F0020028740DE0002DD5
:105D3000C9D1FFDFC7E7022600214046FFF766FA18
:105D4000002DC0D1FFDFBEE7FFDF3046BDE8FC819C
:105D50003EB50C0009D001466B4601AA002005F0B3
:105D6000DDF920B1FFF785FC3EBD10203EBD0020CF
:105D70002080A0709DF8050002A900F00700FDF743
:105D8000A7FF50B99DF8080020709DF8050002A9F2
:105D9000C0F3C200FDF79CFF08B103203EBD9DF893
:105DA000080060709DF80500C109A07861F3041037
:105DB000A0709DF80510890961F3C300A0709DF8DB
:105DC0000410890601D5022100E0012161F342009F
:105DD0009DF8001061F30000A07000203EBD70B57A
:105DE000144606460D4651EA040005D075B1084632
:105DF000FBF793FA78B901E0072070BD29463046D9
:105E000005F0EDF910B1BDE8704032E454B1204620
:105E1000FBF783FA08B1102070BD21463046BDE87B
:105E2000704095E7002070BD2DE9FC5F0C46904660
:105E30000546002701780822007A3E46B2EB111F82
:105E40007ED104F10A0100910A31821E4FF0020A4C
:105E500004F1080B0191092A73D2DFE802F0ECDFAC
:105E600005F427277AA9CD006888042108F006F9EF
:105E7000060000D1FFDFB08920B152270726C2E01B
:105E80003802002051271026002C7DD06888A08081
:105E90000120A071A88900220099FFF7A0FF002827
:105EA00073D1A8892081288AE081D1E0B5F81290C9
:105EB000072824D1E87B000621D5512709F11400D9
:105EC00086B2002CE1D0A88900220099FFF787FF55
:105ED00000285AD16888A08084F806A0A88920816B
:105EE0000120A073288A2082A4F81290A88A00902A
:105EF00068884B46A969019A01F04BFBA8E050273E
:105F000009F1120086B2002C3ED0A8890022594621
:105F1000FFF765FF002838D16888A080A889E08055
:105F2000287A072813D002202073288AE081E87B92
:105F3000C0096073A4F81090A88A0090688801E0F6
:105F400083E080E04B4604F11202A969D4E7012006
:105F5000EAE7B5F81290512709F1140086B2002C37
:105F600066D06888042108F089F883466888A08094
:105F7000A88900220099FFF732FF00286ED184F82B
:105F800006A0A889208101E052E067E00420A07308
:105F9000288A2082A4F81290A88A009068884B462C
:105FA000A969019A01F0F5FAA989ABF80E104FE042
:105FB0006888FBF7DDFB07466888042108F05EF877
:105FC000064607B9FFDF06B9FFDF687BC00702D0CE
:105FD0005127142601E0502712264CB36888A08070
:105FE000502F06D084F806A0287B594601F0E1FA2C
:105FF0002EE0287BA11DF9E7FE49A8894989814245
:1060000005D1542706269CB16888A08020E053273C
:106010000BE06888A080A889E08019E068880421E6
:1060200008F02CF800B9FFDF55270826002CF0D126
:10603000A8F8006011E056270726002CF8D06888E1
:10604000A080002013E0FFDF02E0012808D0FFDF7E
:10605000A8F800600CB1278066800020BDE8FC9F96
:1060600057270726002CE3D06888A080687AA071A3
:10607000EEE7401D20F0030009B14143091D01EB8B
:106080004000704713B5DB4A00201071009848B1FA
:106090000024684607F02DFE002C02D1D64A009954
:1060A00011601CBD01240020F4E770B50D460646C2
:1060B00086B014465C21284612F023FA04B9FFDFAB
:1060C000A0786874A2782188284601F09CFA002004
:1060D000A881E881228805F11401304603F051FDC2
:1060E0006A460121304604F0E4FE19E09DF8030001
:1060F000000715D5BDF806103046FFF730FD9DF8B6
:106100000300BDF8061040F010008DF80300BDF844
:106110000300ADF81400FF233046059A05F02AF875
:10612000684604F0D2FE0028E0D006B070BD10B57D
:106130000C4601F1140003F05BFD0146627C204631
:10614000BDE8104001F094BA30B50446A94891B0BA
:106150004FF6FF75C18905AA284604F0AAFE30E073
:106160009DF81E00A0422AD001282AD1BDF81C00AB
