:020000040007F3
:10200000108F002019A50700FF620700CF630700AB
:10201000EF7207006B750700EB750700000000000A
:102020000000000000000000000000009B7A070094
:102030001B7B070000000000BF820700A38A070087
:102040005F9207002B9607003DA10700E3A1070060
:10205000EFA10700F7A60700F9A60700FBA60700F7
:10206000FDA60700FFA6070001A7070003A70700BA
:1020700005A7070007A7070009A707000BA7070088
:10208000C79F07000DA707000FA7070011A70700AC
:1020900013A7070015A70700B595070017A70700A6
:1020A00019A707001BA707001DA707001FA7070008
:1020B00021A7070023A70700000000000000000080
:1020C00025A7070027A7070029A707002BA70700B8
:1020D000057207002DA707002FA7070000000000CA
:1020E00000000000000000000000000000000000F0
:1020F00000000000000000000000000000000000E0
:1021000000000000000000000000000000000000CF
:1021100000000000000000000000000000000000BF
:1021200000000000000000000000000000000000AF
:10213000000000000000000000000000000000009F
:10214000000000000000000000000000000000008F
:10215000000000000000000000000000000000007F
:10216000000000000000000000000000000000006F
:10217000000000000000000000000000000000005F
:10218000000000000000000000000000000000004F
:10219000000000000000000000000000000000003F
:1021A000000000000000000000000000000000002F
:1021B000000000000000000000000000000000001F
:1021C000000000000000000000000000000000000F
:1021D00000000000000000000000000000000000FF
:1021E00000000000000000000000000000000000EF
:1021F00000000000000000000000000000000000DF
:102200000021202903D200224254491CF9E77047DB
:1022100001000022202A06D2885C002801D000207C
:1022200002E0521CF6E7012070470A00D208805CE9
:10223000012211F0070112FA01F101400800C0B2B9
:10224000704702001F20002804D4115C002901D12E
:10225000401EF8E7401C704710B504002000FFF74F
:10226000F0FF0200002A01D100200FE004EB020081
:1022700010F8013C00201900C9B2002903D0DBB2DC
:102280005B08401CF7E7521E10EBC20010BD002295
:10229000202A03D28B5C8354521CF9E7704710B498
:1022A00002001F23002B0ED4C85CD45CA04201D2D4
:1022B000012009E0D05CCC5CA04202D25FF0FF308C
:1022C00002E05B1EEEE7002010BC704770B4030014
:1022D00000200024202C0CD20D5D2E00F6B296407A
:1022E00006431E55EDB2D2F1080635412800641CA4
:1022F000F0E7C0B270BC704710B40100002220307B
:102300000300581E994208D203781C00E4B252EA36
:1023100054040470DB011A00F2E710BC7047F0B4FB
:10232000040000200025202D13D24E5D535D9E1920
:10233000861933004F5DDBB2BB4207D033004F5DDF
:10234000DBB2BB4201D2012000E0002066556D1CCB
:10235000E9E7C0B2F0BC7047F0B4030000200024ED
:10236000202C13D20E5D155D751B2D1A2E000F5DEE
:10237000F6B2BE4207D00E5D2F00FFB2BE4201D2C0
:10238000012000E000201D55641CE9E7C0B2F0BC4C
:102390007047F0B50027002600243F2C2CD2202CBB
:1023A00001D2002501E0B4F11F052B009C4216D399
:1023B000202B14D211F803C0B4EB030E12F80EE078
:1023C0001CFB0EFC1CEB0707BE461FFA8EFE1FFA15
:1023D0008CFCE64501D2761CFFE75B1CE6E707555F
:1023E000BFB2BC463700FFB23F0257EA1C275FF07E
:1023F000000C6646641CD0E780F83F70F0BD2DE904
:10240000F04104000D0016001F00320029002000DA
:10241000FFF785FF80464046C0B2002805D139004D
:102420002000FFF73CFF002804D43A0021002000E0
:10243000FFF792FFBDE8F0812DE9F04104000D00A7
:1024400016001F00320029002000FFF785FF80469C
:102450004046C0B2002804D03A0021002000FFF717
:102460005EFFBDE8F0812DE9F04F89B005000E0058
:1024700031002800FFF70BFF002001ACE070A070D6
:1024800060708DF804000020E071A071607120710F
:102490000020E072A0726072207296F82C00207307
:1024A00096F82D00607396F82E00A07396F82F0012
:1024B000E07396F83000207496F83100607496F856
:1024C0003200A07496F83300E07496F8340020755A
:1024D00096F83500607596F83600A07596F83700C6
:1024E000E07596F83800207696F83900607696F810
:1024F0003A00A07696F83B00E07696F83C0020770C
:1025000096F83D00607796F83E00A07796F83F0079
:10251000E077012201A901A8FFF7D8FE0090009FF3
:1025200001AA29002800FFF7FAFE57FA80F0009070
:1025300096F83000207396F83100607396F83200F8
:10254000A07396F83300E07396F83400207496F880
:102550003500607496F83600A07496F83700E07481
:1025600096F83800207596F83900607596F83A00AC
:10257000A07596F83B00E07596F83C00207696F83A
:102580003D00607696F83E00A07696F83F00E07633
:1025900000202077002060770020A0770020E077DF
:1025A000009F012201A901A8FFF790FE57FA80F0D1
:1025B0000090009F01AA29002800FFF7B0FE57FAFB
:1025C00080F0009096F820008DF8040096F8210025
:1025D000607096F82200A07096F82300E07096F8DC
:1025E0002400207196F82500607196F82600A071ED
:1025F00096F82700E07196F82800207296F82900D6
:10260000607296F82A00A07296F82B00E072002003
:10261000E073A073607320730020E074A074607492
:1026200020740020E075A0756075207596F838005C
:10263000207696F83900607696F83A00A07696F8FB
:102640003B00E07696F83C00207796F83D006077F6
:1026500096F83E00A07796F83F00E077009F01AA29
:1026600029002800FFF75BFE57FA80F796F8240050
:102670008DF8040096F82500607096F82600A0708A
:1026800096F82700E07096F82800207196F8290047
:10269000607196F82A00A07196F82B00E07196F808
:1026A0002C00207296F82D00607296F82E00A07211
:1026B00096F82F00E07296F83400207396F83500F3
:1026C000607396F83600A07396F83700E07396F8BA
:1026D0003800207496F83900607496F83A00A074B7
:1026E00096F83B00E07496F83C00207596F83D00A3
:1026F000607596F83E00A07596F83F00E07596F874
:102700003400207696F83500607696F83600A0768C
:1027100096F83700E07696F82000207796F82100AA
:10272000607796F82200A07796F82300E07701AA58
:1027300029002800FFF7F3FD57FA80F896F82C00DF
:102740008DF8040096F82D00607096F82E00A070A9
:1027500096F82F00E07096F83000207196F831005E
:10276000607196F83200A07196F83300E07196F827
:102770003400207296F83500607296F83600A07228
:1027800096F83700E0720020E073A0736073207346
:102790000020E074A074607420740020E075A075BF
:1027A0006075207596F82000207696F821006076F6
:1027B00096F82200A07696F82300E07696F8280096
:1027C000207796F82900607796F82A00A07796F887
:1027D0002B00E07701AA29002800FFF7BDFD814604
:1027E000B8EB090996F830008DF8040096F831002E
:1027F000607096F83200A07096F83300E07096F89A
:102800003400207196F83500607196F83600A0719A
:1028100096F83700E07196F83800207296F8390083
:10282000607296F83A00A07296F83B00E07296F853
:102830003C00207396F83D00607396F83E00A0734C
:1028400096F83F00E0730020E074A0746074207478
:102850000020E075A0756075207596F8240020763C
:1028600096F82500607696F82600A07696F8270060
:10287000E07696F82C00207796F82D00607796F891
:102880002E00A07796F82F00E07701AA29002800F3
:10289000FFF762FD8246B9EB0A0A96F834008DF81C
:1028A000040096F83500607096F83600A07096F82F
:1028B0003700E07096F83800207196F839006071A2
:1028C00096F83A00A07196F83B00E07196F83C004B
:1028D000207296F83D00607296F83E00A07296F85D
:1028E0003F00E07296F82000207396F82100607394
:1028F00096F82200A07396F82300E07396F824005F
:10290000207496F82500607496F82600A07496F856
:102910002700E07496F82800207596F82900607565
:1029200096F82A00A07596F82B00E0750020E07656
:10293000A0766076207696F83000207796F8310001
:10294000607796F83200A07796F83300E07701AA16
:1029500029002800FFF700FD8346BAEB0B0B96F821
:1029600038008DF8040096F83900607096F83A0047
:10297000A07096F83B00E07096F83C00207196F845
:102980003D00607196F83E00A07196F83F00E0713E
:102990000020E072A0726072207296F8240020730A
:1029A00096F82500607396F82600A07396F8270025
:1029B000E07396F82800207496F82900607496F861
:1029C0002A00A07496F82B00E07496F82C0020756D
:1029D00096F82D00607596F82E00A07596F82F00D9
:1029E000E0750020E076A0766076207696F83400D8
:1029F000207796F83500607796F83600A07796F83D
:102A00003700E07701AA29002800FFF7A5FC0400A1
:102A1000BBEB0404002C0BD5DFF8B82729002800F5
:102A2000FFF77DFC54FA80F00400002CF4D411E090
:102A3000002C06D12900DFF89C07FFF730FC0128A5
:102A400008D0DFF8902729002800FFF785FC201A1E
:102A50000400EDE709B0BDE8F08F70B590B0040058
:102A60000D001600320029006846FFF792FC694607
:102A70002000FFF7F8FC10B070BDF0B4002700266E
:102A800000243F2C35D2202C01D2002501E0B4F1E6
:102A90001F052B009C4220D3E21A9A421DD3CA5C28
:102AA000B4EB030C11F80CC012FB0CFCE21A9342BD
:102AB00007D2624692B2D20B96191FFA8CFC5FEADB
:102AC0004C0C1CEB07073A0092B21FFA8CFC6245D3
:102AD00001D2761CFFE75B1CDCE70755BFB23A006A
:102AE0003700FFB23F0257EA122700221600641C8B
:102AF000C7E780F83F70F0BC704738B590B004006D
:102B00000D0029006846FFF7B8FF69462000FFF76F
:102B1000AAFC11B030BD2DE9F041A0B005000E00B7
:102B20001700310018A8FFF7B2FB390010A8FFF713
:102B3000AEFB6846FFF764FB01208DF8000008A893
:102B4000FFF75EFB10A918A8FFF7A9FB04000028F7
:102B500000F09F80002080469DF86000C00719D4D7
:102B600018A8FFF7C9FB9DF80000C00705D53A007B
:102B700069466846FFF7D3FB80466846FFF7BCFB13
:102B80004046C0B20028DDD06846C17F51F08001C8
:102B9000C177D7E79DF84000C00719D410A8FFF708
:102BA000ABFB9DF82000C00705D53A0008A908A88E
:102BB000FFF7B5FB804608A8FFF79EFB4046C0B272
:102BC0000028BFD008A8C17F51F08001C177B9E7C4
:102BD000012C2EDB10AA18A918A8FFF7BDFB18A816
:102BE000FFF78AFB08A96846FFF759FB002804D5C0
:102BF0003A0069466846FFF792FB08AA69466846AC
:102C0000FFF7AAFB9DF80000C00705D53A0069460A
:102C10006846FFF784FB80466846FFF76DFB404639
:102C2000C0B200288ED06846C17F51F08001C177C4
:102C300088E718AA10A910A8FFF78EFB10A8FFF7C5
:102C40005BFB694608A8FFF72AFB002804D53A0079
:102C500008A908A8FFF763FB6A4608A908A8FFF7B8
:102C60007BFB9DF82000C00705D53A0008A908A8FD
:102C7000FFF755FB804608A8FFF73EFB4046C0B271
:102C800000283FF45FAF08A8C17F51F08001C177F1
:102C900058E769462800FFF7FAFA20B0BDE8F0814E
:102CA0002DE9F04190B004000D0016003000FFF750
:102CB000AFFA002840F07F8029006846FFF71DFF2B
:102CC0006A46210008A8FFF7C8FE69466846FFF774
:102CD00014FF320029002800FFF7BFFE310030004A
:102CE000FFF70BFFDFF8EC743B00320021002000FF
:102CF000FFF785FB3B00320031003000FFF77FFB20
:102D00003B00320021003000FFF796FB320021002B
:102D10002000FFF7A2FE3B00220021003000FFF759
:102D20006EFB3B00320021002000FFF768FB002112
:102D30002000FFF77AFA00280DD03A002100200089
:102D4000FFF7EDFA80462000FFF7D6FAE07F50EA61
:102D5000C810E07702E02000FFF7CEFA2100300033
:102D6000FFF7CBFE3B0008AA31003000FFF764FB01
:102D70003B0008AA31003000FFF75EFB3B00320049
:102D800008A908A8FFF758FB08AA21002000FFF7B0
:102D900064FE3B006A4621006846FFF74DFB3100A8
:102DA0002000FFF774FA29003000FFF770FA694637
:102DB0002800FFF76CFA10B0BDE8F08170B588B05C
:102DC00004000D00160031006846FFF796FE6A46C3
:102DD00021002000FFF741FE320069466846FFF7F8
:102DE0003CFE6A4629002800FFF737FE08B070BD98
:102DF0002DE9F04188B004000D0016001F00DFF837
:102E0000D4834346220031006846FFF715FB69462C
:102E10006846FFF772FE6A4621002000FFF71DFE9C
:102E20006A4631003000FFF718FE43462A00390099
:102E30003800FFF701FB39006846FFF75EFE4346A6
:102E4000220069466846FFF7F7FA434632006946B2
:102E50006846FFF7F1FA4346220031003000FFF7E1
:102E6000EBFA320029002800FFF7F7FD43466A46D7
:102E700021003000FFF7E0FA320039003800FFF798
:102E8000ECFD43462A0039003800FFF7D5FA6946C1
:102E90003000FFF7FCF908B0BDE8F0812DE9F64FEE
:102EA000A1B005001E003000FFF7D6F90700229AF6
:102EB000219911A8FFF76DFA19A8FFF7CDF90400C1
:102EC000002C03D014F58074A04603E011A8FFF78E
:102ED000C3F98046B84504D211A92800FFF7D7F9F5
:102EE00069E001A8FFF78CF909A8FFF789F9B8EBA9
:102EF00007095FEAD909B8EB070010F00700009056
:102F0000009800280AD0009A310001A84844FFF731
:102F1000DDF901A9494481F8200004E0310001A84D
:102F20004844FFF7B4F92800FFF76AF90120287038
:102F300040F20110804505D2310001A8FFF7AFF93A
:102F4000002834D419A909A8FFF7A9F90400002C16
:102F500007D4002C16D111A901A8FFF7A0F9012868
:102F600010DA01AA11A911A8FFF7F6F9002804D078
:102F70002A0019A919A8FFF7EFF909AA19A919A890
:102F8000FFF7EAF90DF1040A9AF820B05FEACB1BCB
:102F900009A8FFF7B1F901A8FFF7AEF99AF81F00E9
:102FA0005BEA00008AF81F00B8F10108C0E711A928
:102FB0002800FFF76CF923B0BDE8F08F814200D301
:102FC000080070472DE9FB4FD6B015002800FFF729
:102FD0001FF9002804D15898FFF71AF9002801D0EA
:102FE0000020F3E07C4E29003000FFF758F901285B
:102FF00005D158993000FFF752F9012801D000207F
:10300000E4E03200589901A8FFF785FD330001AADA
:10301000579945A8FFF742FF330001AA29003DA8B0
:10302000FFF73CFF56992DA8FFF731F9569810F19C
:10303000200135A8FFF72BF9684C21000DA8FFF7F8
:1030400026F914F120011DA8FFF721F9614F3B007B
:103050000DAA2DA901A8FFF7EFF935AB2DAA1DA9DF
:103060000DA8FFF7C5FE3A0001A901A8FFF753FD1F
:1030700001AA35A92DA8FFF7A1FE09A858491022D9
:1030800000F0E4FF56980B902DA80C903DA8FFF798
:10309000E3F8040045A8FFF7DFF82100FFF78EFFF3
:1030A0008046B8F1010145A8FFF7BFF8002801D01C
:1030B000012400E00024B8F101013DA8FFF7B5F8B4
:1030C000002801D0012000E000200DF12409E4B225
:1030D000C0B254EA400459F824000090009915A8A1
:1030E000FFF7D5F8009810F1200125A8FFF7CFF8D9
:1030F00001A8FFF785F801208DF80400B8F1020A55
:10310000BAF1000F43D401AA25A915A8FFF7C8FDFD
:10311000514645A8FFF789F8002802D05FF0010B5F
:1031200001E05FF0000B51463DA8FFF77EF8002854
:1031300001D0012000E000205FFA8BFBC0B25BEA07
:10314000400B59F82B40002C1ED021000DA8FFF792
:103150009EF814F120011DA8FFF799F801AA1DA9F6
:103160000DA8FFF72BFE3B000DAA15A94DA8FFF7F0
:1031700063F925AB15AA1DA90DA8FFF739FE4DAAC5
:1031800001A901A8FFF769FCBAF1010AB8E73A0002
:1031900001A901A8FFF7BFFC01AA25A915A8FFF7FF
:1031A0000DFE15A93000FFF77AF8012804D032008F
:1031B00015A915A8FFF7D0F8290015A8FFF76FF893
:1031C000002801D1012000E00020C0B259B0BDE8C4
:1031D000F08F0000DC5700203C580020FC570020F6
:1031E00078A4070038B586B004000D002068806818
:1031F000002826D06846182103F0EAF80195A06857
:1032000005902079002802D001280AD015E001207D
:103210008DF8000020690290E068039060690490D6
:103220000BE002208DF80000E168DFF8C8030068B9
:103230004143029160690490FFE76846216889680C
:10324000884707B030BD18B4030059699869091A56
:10325000142903D259699869081A00E01420DFF88C
:1032600094134A68B0FBF2F2022A03D34968B0FB18
:10327000F1F200E001221C6998690419D968986983
:103280004118200029DF12BC70470200D068116984
:10329000081828DF704780B5DFF85C13DFF85C039F
:1032A000006805F0CEFF01BD10B5DFF85443DFF82C
:1032B0004813DFF84803006805F0B4FF2060206879
:1032C000002801D0012000E00020C0B210BD70B580
:1032D000DFF83043207A002806D1FFF7E5FF002809
:1032E00002D10020606030E002202072DFF810631D
:1032F00030680079002802D0012805D009E0306844
:10330000FFF7A1FF050005E03068FFF7BEFF0500ED
:1033100000E003252800002802D0112808D00AE088
:10332000207C002803D10021022000F000F90CE0ED
:103330000120207209E003213068FFF753FF0020CD
:10334000207200206060FFF7A6FF70BD10B5AD4C85
:10335000201D02F0B8FF002804D1607C002801D1B4
:10336000FFF7B5FF10BD01000020A64AD060087924
:10337000002802D0012814D01DE04A698869121A79
:10338000142A03D248698A69821A00E014228869E3
:103390001018886188694B69984201D101200BE0BF
:1033A00009E00869401C086108694A69904201D136
:1033B000012001E0FFE70020704701009148C2684A
:1033C000521CC260C268092A03D30022C2600120D5
:1033D00000E00020704770B504000D008548606073
:1033E000884E300002F06FFF00280AD106F0ADF8D9
:1033F00030741C234FF4EE7283498048006805F056
:10340000CCFE002070BD2DE9F04104000D00142613
:103410000027DFF8F0813A003100404602F0FCFA64
:103420007648006805F0D5FE0020BDE8F0812DE962
:10343000F34F81B015001E000C9FDFF8C0A1694654
:10344000DAF8000005F0D1FE0400002C01D10420C0
:103450001AE05FF01C085FF00009A3464A464146A7
:10346000584602F0D9FA0020207101982060A76028
:1034700002982061E56066616946DAF8000005F0AF
:10348000C3FEFFF763FF0020BDE8FE8F2DE9F04784
:1034900004000D0016001F00B846A946B246424679
:1034A0004946504600F0C2FD0020BDE8F0872DE9F6
:1034B000F14F82B00D0016001F00DFF840A16946F1
:1034C000DAF8000005F091FE0400002C01D1042080
:1034D0001CE05FF01C085FF00009A3464A46414625
:1034E000584602F099FA0120207102982060A760E6
:1034F00040480068B5FBF0F0E06066616946DAF8C4
:10350000000005F081FEFFF721FF0020BDE8FE8FDF
:103510000200080070470200002070473949097A0C
:10352000002901D0012000E00020C0B27047F8B5AA
:1035300004000D00022C01D0032C35D1314E307A1D
:10354000002803D0022803D001D325E02CE023E09B
:1035500000272000022802D0032806D00BE02848CC
:103560000068FFF700FF070005E025480068FFF747
:1035700024FF0700FFE73800C0B200280CD000206D
:103580003072022C01D1002100E00D211C4800689E
:10359000FFF728FEFFF77FFE707C002802D1FFF7BF
:1035A00096FE01E005F0C0FFF1BD164A01235374F9
:1035B000127A002A01D1012000E00020C0B2704739
:1035C00038B504000D002000C0B2012803D020004F
:1035D000C0B203280CD10B48002141742100C9B2AC
:1035E000012901D1012100E000210174FFF76FFEE4
:1035F00031BD000078A50700E8860020E4A607009A
:0C360000E486002078860020BC810020B9
:10400000DEC01FB10000010100C00000340000004C
:1040100068915B00AF0000004A756E20323020329C
:104020003031390031383A35313A313162B38B07AA
:1040300008D0521E11F8013B00F8013B00F024802B
:104040008B07F6D1830740F0208000BF103A07D3DA
:1040500030B4B1E83810103AA0E83810F9D230BCCA
:10406000530724BFB1E80810A0E8081044BF51F876
:10407000043B40F8043BD20724BF31F8022B20F860
:10408000022B44BF0B7803707047121F17D35B00DD
:1040900009D151F8043B20F8023B1B0C121F20F8F9
:1040A000023BF6D20BE051F8043B00F8013B1B0A3F
:1040B00020F8023B1B0C121F00F8013BF3D238BF63
:1040C000121D521E24BF11F8013B00F8013BF8D825
:1040D0007047F0B40246106895681318506803EBF7
:1040E0005004C0071DD54D441BE013F8017B05F8B3
:1040F000017B491EF9D1A0B1B60813F8011B06F0E7
:104100000306032E08BF13F8016B01EB0621494299
:10411000801C294405D011F8016B05F8016B401E85
:10412000F9D1A3420ED013F8016B16F0030104BFBE
:1041300013F8011BC91C30090F28DAD113F8010B41
:104140000F30D6E7F0BC02F10C007047002809D40C
:10415000DFF8841B022242F20803CA5411F5005111
:10416000086003E00121DFF8902C117070472DE901
:10417000F04104000D0016001F00DFF8F83B18683E
:10418000D0F82802C069002805D13900200000F0CD
:10419000C3FE012018E06A682968E868000CC0B214
:1041A0001B68D3F82832DB6998478046A8688045A9
:1041B00005D03900200000F0AFFE012004E03100FE
:1041C000200000F0A9FE0120BDE8F0812DE9F843B0
:1041D00004000D0016001F00DDF8208042F20400EC
:1041E000DFF8F41A0A586B689A4205D339002000A8
:1041F00000F092FE012024E0002242F20803CA549B
:10420000DFF8702B1268D2F82822D2F814904A46B0
:10421000002A05D14146200000F07EFE012010E07A
:10422000DFF8D82B00924FF480530A582868821880
:10423000E868000CC0B2C8473100200000F06CFEF6
:104240000120BDE8F283F8B504000D0016001F0040
:1042500042F20801DFF8A82B505C002801D10120B0
:104260000DE0505C012805D13900200000F054FE1B
:10427000012004E03100200000F04EFE0120F2BDDC
:104280002DE9FC4104000D0016001F00DFF8481A5C
:10429000002042F208028854DFF8D80A0068D0F8FB
:1042A0002802D0F818804046002805D139002000A7
:1042B00000F032FE012016E0DFF8400B009011F50F
:1042C000005003689BB242F204000A582868821822
:1042D00011F58051E868000CC0B2C04731002000E1
:1042E00000F01AFE0120BDE8F681F8B504000D00CB
:1042F00016001F0042F20801DFF8042B505C002872
:1043000001D1012015E0505C012805D139002000C1
:1043100000F002FE01200CE042F20401535812F5B5
:1043200000500068C31853503100200000F0F4FD25
:104330000120F2BD80B5DFF83C1A0868002805D0DE
:104340000868D0F828020068002802D15FF0FF302A
:104350000BE00868D0F828020068002804D008683C
:10436000D0F8280200688047002002BD10B4030086
:10437000DFF8004A2068002801D1002902D15FF04F
:10438000FF3006E02360206802602068C0F8281231
:10439000002010BC70472DE9F04704000D00DFF845
:1043A000641ADFF8640ADFF8642A801AC00800047F
:1043B00050F0030001F030F90020DFF8541A0860D3
:1043C000DFF8B0693068002805D12C21200000F00A
:1043D000A3FD012027E03068D0F8280240680028BB
:1043E00006D0002100203268D2F828225268904777
:1043F000B4275FF00008306810F5BA7942463900FA
:10440000484601F009FB4FF4B8795FF0000A3068C4
:10441000061D52464946300001F0FEFA13212000E5
:1044200000F07AFD0120BDE8F08738B504000D00EA
:10443000DFF840090068002805D12C21200000F099
:104440006BFD012000E0012032BD2DE9F84304009E
:104450000D00DFF8B879DFF8B089DFF8B819B8EBEC
:104460000700C008000450F0030001F0D5F8DFF8A1
:104470000499D9F80000002805D12C21200000F073
:104480004BFD01207AE00026DFF884090168491C11
:10449000016000680B2805D32B21200000F03CFDB3
:1044A00001206BE0D9F80000D0F82802406800280D
:1044B00007D000210120D9F80020D2F82822526824
:1044C0009047D9F80000D0F82802806800280BD067
:1044D0004FF4B871D9F80000001DD9F80020D2F8C7
:1044E00028229268904706003000020092B2D9F864
:1044F0000000011DD9F8000001F043FC002805D59B
:104500002C21200000F008FD012037E0D9F8000040
:10451000806E00282DD0DFF80019B8EB0700C00826
:10452000000450F0030001F077F8D9F8000010F50E
:10453000BA71D9F80000001D01F071FC002809D102
:104540000020D9F8001088661521200000F0E4FC56
:10455000012013E0D9F80000D0F8C021DFF8BC1822
:10456000B8EB0707FF083F0457F00307380001F0D6
:104570005DF81421200000F0CFFC0120BDE8F2839B
:104580000100080080B2022807D0080080B203288A
:1045900003D0080080B2042801D1012000E00020EF
:1045A00070472DE9F04704000D00DFF86078DFF870
:1045B0005888DFF86C18B8EB0700C008000450F00A
:1045C000030001F029F8DFF8AC673068002805D156
:1045D0002C21200000F0A0FC012027E13068D0F859
:1045E0002802C069002805D12C21200000F094FC8D
:1045F00001201BE13068D0F828020069002811D0A2
:10460000306810F5BA713068001D3268D2F828227F
:1046100012699047002805D12C21200000F07CFC75
:10462000012003E1306810F1140ADAF80C0080B2BE
:10463000012822D1DAF80420DAF80010DAF80C00A8
:10464000000CC0B23368D3F82832DB699847814642
:10465000DAF80800814510D1DFF8C817B8EB070772
:10466000FF083F0457F00307380000F0D5FF2A2168
:10467000200000F051FC0120D8E0306810F124093E
:10468000D9F80C0080B2FFF77BFF012822D1D9F8BE
:104690000420D9F80010D9F80C00000CC0B233681F
:1046A000D3F82832DB6998478246D9F8080082455A
:1046B00010D1DFF87417B8EB0707FF083F0457F075
:1046C0000307380000F0A8FF1721200000F024FCA9
:1046D0000120ABE0306810F1340ADAF80C0080B247
:1046E000FFF74EFF012822D1DAF80420DAF8001093
:1046F000DAF80C00000CC0B23368D3F82832DB695A
:1047000098478146DAF80800814510D1DFF81C1778
:10471000B8EB0707FF083F0457F00307380000F025
:104720007BFF1D21200000F0F7FB01207EE03068B8
:1047300010F14409D9F80C0080B2012839D1D9F818
:104740000420D9F80010D9F80C00000CC0B233686E
:10475000D3F82832DB6998478246D9F808008245A9
:1047600027D1DFF8CC16B8EB0707FF083F0457F056
:104770000307380000F050FF3068143031684431CE
:104780001022FFF763FC0020316848663068D0F8DB
:1047900028024068002806D0002105203268D2F89F
:1047A0002822526890471521200000F0B5FB012017
:1047B0003CE0306810F1540ADAF80C0080B2FFF7E0
:1047C000DFFE012822D1DAF80420DAF80010DAF846
:1047D0000C00000CC0B23368D3F82832DB6998476C
:1047E0000600DAF80800864210D1DFF84816B8EB68
:1047F0000707FF083F0457F00307380000F00CFFDD
:104800002921200000F088FB01200FE0DFF82816A6
:10481000B8EB0707FF083F0457F00307380000F024
:10482000FBFE2B21200000F077FB0120BDE8F08784
:104830002DE9F84304000D00DFF838653068006B9F
:1048400080B2FFF79DFE012834D13068D0F82802ED
:104850004068002806D0002103203268D2F82822C0
:1048600052689047DFF87094002042F2040149F842
:10487000010042F20C075FF000084246390048464A
:1048800001F0CAF814231822306810F12401200026
:10489000FFF76DFC0600DFF8A415DFF86C05DFF804
:1048A0006C25801AC008000450F0030000F0B4FE2C
:1048B00030000AE03068006B000C000431680863C7
:1048C0001421200000F028FB0120BDE8F2837CB514
:1048D00004000D00DFF89C04006810F124062C2071
:1048E00000901C23192231002000FFF76FFC76BDD9
:1048F00070B504000D00DFF87C04006810F1240698
:104900002C231A2231002000FFF79DFC70BD2DE9F9
:10491000F84304000D00DFF85C04006810F1140691
:10492000DFF8DC0410F500510F68804610F580595F
:104930003A0041464846FFF779FB2C231B22310001
:104940002000FFF79DFCBDE8F28370B504000D0068
:10495000DFF82004006810F114062C23182231001F
:104960002000FFF7C2FC70BDF8B504000D00DFF8B1
:10497000D014DFF89404DFF89424801AC0080004EF
:1049800050F0030000F048FEDFF8E8633068826A08
:10499000306841693068006A000CC0B23368D3F8EF
:1049A0002832DB69984707003068C06A87421FD108
:1049B0003068806A316888613068C7610120316879
:1049C000096A60F30F013068016230685430316861
:1049D00014311022FFF73AFB3068006B000C000422
:1049E000316808631521200000F096FA012000E0EC
:1049F0000120F2BD2DE9F84F04000D00DFF87463CB
:104A00003068006C80B2FFF7BBFD012842D13068EE
:104A1000D0F828024068002806D00021042032681F
:104A2000D2F8282252689047DFF8E073DFF8D88385
:104A3000DFF81014B8EB0700C008000450F00300C2
:104A400000F0EAFDDFF890B2002042F204014BF8DA
:104A5000010042F20C095FF0000A524649465846EE
:104A600000F0DAFF14231E22306810F13401200018
:104A7000FFF77DFB060001F003FADFF8CC13B8EB7B
:104A80000707FF083F0457F00307380000F0C4FD94
:104A900030000AE03068006C000C000431680864E3
:104AA0001421200000F038FA0120BDE8F28F7CB517
:104AB00004000D00DFF89413D348D44A801AC008CC
:104AC000000450F0030000F0A7FDAA48006810F1B0
:104AD00034062C20009022231F2231002000FFF7F3
:104AE00075FB76BD70B504000D00A248006810F19A
:104AF00034062C23202231002000FFF7A4FB70BDD8
:104B0000F8B504000D00744E42F204003258D0494A
:104B1000BD48BE4BC01AC008000450F0030000F0AE
:104B200085FD9448006810F1240716F5805216F5AB
:104B300000500168300001F0B0F92C232122390027
:104B40002000FFF79DFBF2BD70B504000D00894801
:104B5000006810F124062C231E2231002000FFF7EC
:104B6000C4FB70BD2DE9F84304000D00DFF89C8202
:104B7000DFF89492B749B9EB0800C008000450F080
:104B8000030000F049FD7B4F3868826B3868416A4A
:104B90003868006B000CC0B23B68D3F82832DB6980
:104BA000984706003868D0F81C02864233D1AA49DB
:104BB000B9EB08085FEAD8085FEA084858F003082C
:104BC000404600F029FD3868806B39688862386893
:104BD000C66202203968096B60F30F01386801630F
:104BE0003868006C000C00043968086400203968DB
:104BF00048665FF0B4085FF00009386810F5BA77CE
:104C00004A464146380000F007FF1521200000F019
:104C100083F9012010E09149B9EB08085FEAD80850
:104C20005FEA084858F00308404600F0F5FC1421FC
:104C3000200000F071F90120BDE8F283F8B504000E
:104C40000D004C4E3068D0F828024068002806D08D
:104C5000002102203268D2F8282252689047804909
:104C600069486A4A801AC008000450F0030000F046
:104C7000D3FC002060490870306800280AD03068F2
:104C8000D0F82802002805D03068D0F82802C06883
:104C9000002805D12C21200000F03EF901201AE067
:104CA000306800F0F8FE0700306847603068D0F8E0
:104CB0002802C068002809D0504A4FF4B871306803
:104CC000001D3368D3F82832DB689847162120008E
:104CD00000F022F90120F2BD6059002038B504002F
:104CE0000D0042F20801464A505C002801D1012023
:104CF00016E0505C022804D11321200000F00CF9CA
:104D00000DE058494048414A801AC008000450F05C
:104D1000030000F081FC2921200000F0FDF80120B3
:104D200032BD38B504000D0012490868D0F82802D9
:104D3000006A002804D00868D0F82802006A80477A
:104D4000200000F0F1F8012032BD38B504000D005C
:104D500008490868D0F82802006A002804D00868CA
:104D6000D0F82802006A8047200000F0DDF801201A
:104D700032BD0000F086002038B504000D00200090
:104D800000F0D2F8012032BD38B504000D0000F06B
:104D90002DF8022032BD38B504000D00200000F0CF
:104DA000C3F8052032BD38B504000D0013212000E2
:104DB00000F0B2F8052032BD10B52B4C2000407A2F
:104DC000C046002801D1FFF7B5FA11231722274961
:104DD000200000F082F810BD80B5234800F0CDF926
:104DE00002BD80B52048407AC04602BD80B51E484D
:104DF00000F085F801BD0000687900204D410700F2
:104E000060590020FCA50700FC9F0700E49F0700F5
:104E1000EC860020D0A2070034A2070078A007008B
:104E200080A3070094A30700A8A30700BCA3070062
:104E3000D0A30700E4A307001CA00700E8A2070016
:104E400050A20700F8A307000CA40700F8A407006D
:104E500000A3070018A307006CA20700A4A0070086
:104E600008A5070020A407000C5900202C96070075
:104E700030B4020000200023147AA3420BDA5468F5
:104E80001D01645D8C4204D154681D012C44200036
:104E900001E05B1CF0E730BC7047F8B504000D0082
:104EA00016001F006560002084F82000002084F8B0
:104EB00028000020A063267200206061A7613900ED
:104EC0002000FFF7D5FF0100002902D15FF0FF307D
:104ED00002E0012060720020F2BDF8B504000D0070
:104EE00016001F00607A012801D1002006E03B0077
:104EF0003200D2B229002000FFF7CFFFF2BD00211F
:104F000080F82010002180F82810002181631121F1
:104F1000416100214172704702009161FF2090635E
:104F20000020D06300207047010002208863022027
:104F30008861002070470200916302209061002088
:104F4000704738B50400E06810F1010F01D100206E
:104F500015E000F0D5FFE16801F01CF8050000F055
:104F6000CFFF401BE06194F82800012803D100F036
:104F7000C7FF401B20635FF0FF30E060002032BDC0
:104F80000200130000205872022070470200130034
:104F9000012058720020704738B504000D00FF2131
:104FA0002000FFF7C8FF002032BDC06810F1010FDC
:104FB00001D0012000E00020C0B27047F8B5050024
:104FC0000026A9692800FFF753FF0400002C07D131
:104FD00015F138012800FFF7DFFF5FF0FF3033E005
:104FE00000F08EFFE86195F82000002801D1A0684C
:104FF0006862002085F82000A86968616869112846
:1050000004D115F138012800FFF7C0FF60680028BF
:1050100006D015F13801280062689047070001E0CA
:105020005FF0FF376869022809D115F138012800BF
:10503000FFF7A6FF6068002801D102200700002FBB
:1050400001D5380000E03800F2BD70B50600706987
:1050500011281CD371693000FFF70AFF0400002CEF
:1050600002D06068002806D116F138013000FFF741
:1050700093FFFF2016E016F1380130006268904778
:105080000500002D0DD100F03BFFF06109E07069D3
:10509000022806D016F138013000FFF77DFFFF200F
:1050A00000E0280070BD70B5040000F029FF050085
:1050B000E168280000F06EFF06002069B04202D2CD
:1050C0002000FFF73EFFFF2070BD2DE9F0410600F4
:1050D00000F016FF0700F169380000F05BFF804622
:1050E000706A404521D271693000FFF7C1FE0400AB
:1050F000F761002086F82800002C02D0E068002824
:1051000006D116F138013000FFF746FFFF200DE011
:1051100016F138013000E26890470500002D02D1F9
:1051200000F0EEFEF061280000E0FF20BDE8F08115
:1051300070B5040094F82800002801D1FF201BE07E
:1051400000F0DEFE0500216B280000F023FF0600C2
:10515000E06AB0420FD2002084F8280000F0D0FEB0
:10516000E061606B002804D014F138012000626B0C
:105170009047FF2000E0062070BD70B504002000BD
:10518000FFF713FF012804D12000FFF78CFF082050
:1051900022E0607A002801D102201DE02000FFF704
:1051A000C7FF0500062D03D12000FFF78EFF13E097
:1051B0006069A169884203D02000FFF7FFFE0BE081
:1051C0002000FFF742FF06002000FFF77EFF0100EE
:1051D000FF2900D00E00300070BD30B4002513E070
:1051E00050F8042BD30744BFA9F101039A18091FF3
:1051F000042942F8045BFAD213468C0744BF158099
:105200009B1CC90748BF1D7050F8041B0029E7D13B
:1052100030BC704738B504000D002900200022681A
:105220001268904731BD10B504002000216849681C
:10523000884710BD10B504002000216889688847A0
:1052400010BDC26811717047C068007970470121B4
:10525000C26851717047C0684079704770B50500E9
:105260000E00DFF88C07FF21816000210160002122
:1052700041600021C0F818140021C0F81414002166
:1052800080F82014DFF86C0700F098FE0400002C72
:1052900001D020000AE0DFF8600700F0A2FFDFF88D
:1052A0005C07DFF85C17411AC908002070BDDFF801
:1052B0004C07DFF84C17401AC008704770B504005F
:1052C0000D002800C0B2002814D0FFF7F0FF010045
:1052D00000228A420CD2DFF82C0700EB82031888E8
:1052E0002668B04202D12260002004E0521CF0E7A0
:1052F000052000E0002070BD11B581B00C00210038
:10530000C9B201A8FFF7DAFF002806D1DFF8F806D6
:10531000019900EBC100006800E0002016BD02000A
:10532000DFF8E40600EBC2030800C0B2012806D093
:105330000DD3032807D004D3042806D007E00220A9
:1053400006E0042004E0187902E0587900E000202B
:10535000C0B2704710B4030000201A68C2F3800284
:10536000002A18D01A7812F00302012A02D0022A69
:1053700008D00EE00A681C68C4F38314A41CA218A9
:105380000A6006E00A681C68A40DA41CA2180A6042
:10539000FFE701221000C0B210BC70472DE9F843AE
:1053A00084B00024DFF8485615F5836000F092FFC2
:1053B00005F21449484600F08DFF68680090AE6819
:1053C0000098304005EB800010F10C07694638006A
:1053D000FFF7C0FF002806D00098304005EB8000A2
:1053E0000C300700F2E75FF00008B8F1020F0DD2B1
:1053F0000098304005EB8000C06801A941F8280002
:105400000098401C009018F10108EEE7019810F098
:10541000030001280CD0022814D1BDF80A000400B2
:1054200000980199890DC91C10EB9100009009E0CA
:10543000BDF80A00040000990198C0F383104118D8
:105440000091FFE7484600F04CFF0100002901D021
:1054500000986860A4B2200005B0BDE8F08380B574
:105460000021DFF8A80500F0CFFE010081F3100055
:1054700002BD2DE9F84304000D0016001F00DDF801
:105480002080A1465FEA1949FFF7E9FFDFF86015C0
:105490007A1C18EA020201EB820259EA0043D36047
:1054A00018EA070201EB82010C310A6864F3C502B5
:1054B0000A600A6866F389120A600A6865F39F2227
:1054C0000A6001220B6862F301030B600A6832F084
:1054D00004020A60BDE8F1832DE9FE4F04000D00CF
:1054E0001600A01C0190012700208DF800006846DE
:1054F00000F056FFDFF8F884D8F800002860D8F8EC
:105500000800401CD8F80090B0EB0909D8F8040056
:1055100010EB09090198814517D208F21C4B0121B3
:10552000584600F0B5FEFFF739FF8246514658460F
:1055300000F0AEFED8F80810491CD8F80000091A8F
:10554000D8F8040041188946E4E73800C0B20028C2
:1055500023D000213000C0B2002807D0012060F322
:10556000010151F0040164F3891106E0022060F3A7
:10557000010151F0040164F39F51D8F80020D8F8DC
:105580000800024008EB820010F10C021160D8F80C
:1055900000300198C318C8F800309DF8000000F0F2
:1055A00005FF3800C0B2BDE8FE8F2DE9FE4F0400B4
:1055B0000D0016001F00DFF83894D9F8088001228A
:1055C00001A93800FFF788FF00281BD0DDF804A0F0
:1055D0001AF1020A5FF0000BBB450BD218EA0A0071
:1055E00009EB800056F82B10C1601AF1010A1BF17B
:1055F000010BF1E7CDF80080019B3A002900200063
:10560000FFF737FF99F82004002803D000F025F8B1
:105610000028FBD1BDE8F78F38B504000D0000234A
:10562000002229002000FFF7C0FF31BD7CB5040037
:105630000D001600009601236A4629002000FFF79E
:10564000B4FF73BDDFF8A80341680068814201D14F
:10565000012000E00020C0B270472DE9F04F8BB070
:10566000FFF7F0FF002801D000205FE1DFF8807332
:105670000020C7F81804BFF34F8F78680090B8680F
:10568000029000990298014007EB81000C300990CC
:10569000002500260020089069460998FFF75AFE69
:1056A000002813D0D7F8180400280FD100983968C3
:1056B000884203D338687860002037E10099029867
:1056C000014007EB81000C300990E5E75FF000082E
:1056D000B8F1020F0ED200990298014007EB810049
:1056E000C06803A941F828000098401C009018F1F8
:1056F0000108EDE7039810F00300022840F07F80D6
:10570000DDF80C905FEA99590398800D502804DA6F
:10571000DDF80CA05FEA9A5A01E05FF0500A0398A6
:105720006AF39F5003901AF108000A900398C0F39F
:10573000C20008900A99AF4800F046FC0500002D11
:1057400000F0A280280000F0A5FC3300082203A985
:10575000280000F028FD08360299491C009A02989A
:105760000240891A8C00544535D2002C07D000998C
:105770000298014007EB81000C30079002E017F11E
:105780000C000790002C01D0A34600E0D346002C6B
:1057900003D017F10C00069001E000200690002CC9
:1057A00002D0BAEB040000E000208DF804003300C2
:1057B0005A46D2B20799280000F0F5FC56FA8BF64B
:1057C0000698002814D033009DF80420069928007C
:1057D00000F0E9FC0CE000990298014007EB810021
:1057E00010F10C0B330052465946280000F0DBFC48
:1057F000009819F1030910EB9900009044E0039818
:1058000010F0030001283FD10398C0F3831006284D
:1058100003DA0398C0F3831000E00620039960F3D5
:10582000891103910398C0F38314A41C0398C0F357
:10583000C2000890A1006F4800F0C6FB0500002DD3
:1058400022D0280000F026FC3300082203A92800FB
:1058500000F0A9FC0836002080460398C0F38310AE
:10586000804511D20099481C009033000422029810
:10587000014007EB810010F10C01280000F093FCBF
:10588000361D18F10108E8E7002D33D0D7F8104491
:10589000D7F81804002803D0280000F003FC3DE0EE
:1058A000002C13D05FF000092000FFF7D4FC012882
:1058B00001D1012081464846C0B2002803D029000A
:1058C0002000FFF7A7FCE0680468E9E7280000F083
:1058D000E9FB00208DF8040001A800F061FDD7F875
:1058E0001804002801D1009878609DF8040000F0A9
:1058F0005DFD13E0D7F81044002C05D02000FFF721
:1059000099FCE0680468F7E7414942483C4A801A3C
:10591000C008000450F00200FFF77EFEFFF792FE81
:10592000002801D1012000E00020C0B20BB0BDE88A
:10593000F08F70B500260A2E1ADA2D48D0F8100420
:10594000040001200500002C0AD02000FFF77CFC99
:10595000B04202D10020050002E0E0680468F2E7EE
:105960002800C0B2002801D0300003E0761CE2E736
:105970005FF0FF3070BD70B504000D00FFF7D9FF78
:10598000060016F1010F01D130001BE030000100CC
:10599000C9B22000FFF755FC1549D1F810040028C2
:1059A00005D1C1F810440020E168086009E0D1F891
:1059B0001004C0680068E2681060D1F81004C06884
:1059C0000460300070BD10B50948D0F810440121C2
:1059D00080F82014002C08D02000FFF738FC2000AD
:1059E000FFF721FCE0680468F4E710BD0000000048
:1059F0006C79002034A4070090A507001CA00700C4
:105A0000E49F070000000000E49F0700887D00205D
:105A10006CA30700FC9F070062F30F2262F31F4292
:105A2000401810F0030308D0C91A1FD3DB0748BF82
:105A300000F8012D28BF20F8022D130030B41446C1
:105A40001546103928BF20E93C00FAD8490728BF7D
:105A500020E90C0048BF40F8042D890028BF20F839
:105A6000022D48BF00F8012D30BC7047C91818BF7F
:105A700000F8012DCB0728BF00F8012D7047010069
:105A800008784A7850EA02208A7850EA0240C978B9
:105A900050EA0160704710B5040000226C2114F137
:105AA000080000F08AFC10BD10B504000022616EF1
:105AB00014F1740000F081FC10BD2DE9F84F0400D2
:105AC0000D0016005FF0B4085FF0000927004A4699
:105AD00041463800FFF7A0FF00273800310080B2B0
:105AE00089B2884280F04A81380080B215F800807F
:105AF000380080B2284440788DF80000300080B231
:105B0000390089B251FA88F18842C0F237819DF894
:105B10000000012819D0C0F02A81032875D048D38D
:105B2000052800F09880C0F08380072800F0B88036
:105B3000C0F0A480092800F0D780C0F0C3800B28F3
:105B400000F0E480C0F0F58011E14046C0B2442886
:105B50002CDA01202070380080B2284480786070F0
:105B6000380080B22844C078A070C1465FFA89F935
:105B7000B9F10309380080B2284410F1040A14F185
:105B8000030B4A4651465846FEF750FA380080B299
:105B900028444146C9B20844401C6064F11B404699
:105BA000C0B2091A491EA4F84810E0E05FF0FF30C7
:105BB000E5E04046C0B2062824DB4046C0B22428B7
:105BC00020DA012084F88400380080B228448078EC
:105BD00084F88500380080B22844C07884F88600B4
:105BE000C1465FFA89F9B9F10309380080B2284447
:105BF00010F1040A14F1870B4A4651465846FEF745
:105C000015FAB4E05FF0FF30B9E04046C0B20528B5
:105C10000BD1012084F8A700380080B22844801CF2
:105C2000FFF72DFFC4F8A800A1E05FF0FF30A6E069
:105C30004046C0B205280BD1012084F86C00380022
:105C400080B22844801CFFF71AFF84F86D008EE0B4
:105C50005FF0FF3093E04046C0B205280BD1012031
:105C600084F87C00380080B22844801CFFF707FFCE
:105C7000C4F880007BE05FF0FF3080E04046C0B2B7
:105C800005280AD1012084F86E00380080B228442B
:105C9000801CFFF7F4FE206769E05FF0FF306EE0E4
:105CA0004046C0B205280AD1012084F874003800AB
:105CB00080B22844801CFFF7E2FEA06757E05FF047
:105CC000FF305CE04046C0B205280AD1012084F8CC
:105CD0004A00380080B22844801CFFF7D0FEE06400
:105CE00045E05FF0FF304AE04046C0B205280AD1E7
:105CF000012084F85000380080B22844801CFFF74F
:105D0000BEFE606533E05FF0FF3038E04046C0B271
:105D100005280BD1012084F8AC00380080B228445B
:105D2000801CFFF7ACFEC4F8B00020E05FF0FF304D
:105D300025E04046C0B2052816D194F85800032843
:105D400002DB5FF0FF301AE0380080B22844801C8C
:105D5000FFF795FE94F858104A1C84F85820C9B2F1
:105D600004EB8101C86502E05FF0FF3007E05FFAF5
:105D700088F818F1010818EB0707AEE60020BDE827
:105D8000F28F2DE9F84304000D001600300080B2B8
:105D9000702802D25FF0FF303FE0300080B240F266
:105DA0007111884202D34FF4B8700600B0461FFA52
:105DB00088F8A946271D424649463800FEF736F9BD
:105DC0002000FFF768FE07006068874202D05FF09E
:105DD000FF3022E0606E00281ED02000FFF764FE36
:105DE0000700E06E874202D05FF0FF3015E0626E80
:105DF00092B214F1740114F5BA70FFF75EFE002838
:105E000002D55FF0FF3008E02068D4F8C81188425E
:105E100002D05FF0FF3000E00020BDE8F28338B52B
:105E200088B004000D006846202100F0D1FA95F8F2
:105E30008400002805D095F88500012801D00120B4
:105E40001CE02878002818D06878002813D16A460A
:105E5000B5F84810686C00F0BEFA002801D10120A6
:105E60000CE0EA1C2021684600F0D0FA002801D19D
:105E7000002003E001E0002000E0012009B030BD77
:105E800070B51024134D144E220029003000FEF787
:105E9000CDF801201149087070BD7CB504000D00DB
:105EA00016000E49087800280AD0002008700A4819
:105EB00000900B4B2A002100300000F0F7FF07E0B4
:105EC0000548009000232A002100300000F0EEFF7A
:105ED00073BD000068A407004086002008870020EA
:105EE00058A4070010B50400220022492248234B81
:105EF000C01AC008000450F00100FFF797FB10BD66
:105F00001F480068704780B51E480178491C017021
:105F100001780A2905DB0021017019480168491C34
:105F2000016019480168491C016018491248134A68
:105F3000801AC008000450F00100FFF76DFB1449FF
:105F400040F6CC4001F091F901BD80B501F0C6F9F1
:105F50000F495FF4701001F088F901F039FA01F08F
:105F600045FAFEF73EFF002801D101F043FA01F0A7
:105F7000BAF9F4E7FCA10700FC9F0700E49F0700C3
:105F8000D886002009870020D486002020A607009C
:105F9000075F0700064A1060064A1160421A22F0A5
:105FA0007042054B1A60401A20F07040704700BFE5
:105FB000FC860020008700200487002010B5040024
:105FC000200001F06FFA10BD2DE9F84F06000F0018
:105FD000B6F81080B8F1040818EB0700C01CB0FB3D
:105FE000F8F9300001F07CFA0500002D01D1002005
:105FF00027E00020287101206871A5F8068000952F
:10600000CA465FFA8AFABAF1010A009806605FF0A0
:10601000000BD34514D2300001F062FA0400002CCA
:1060200009D06879401C687100980460266000946B
:106030001BF1010BEDE7280000F005F8002000E05F
:106040002800BDE8F28F2DE9F84F05002E00777982
:106050002900B8465FFA88F8B8F1010800204045E9
:1060600002D20968401CFAE7D1F80090AA465FF016
:10607000000B3800C0B283450AD2DAF800000400F1
:106080005146484601F058FAA2461BF1010BF0E7D1
:10609000BDE8F18F38B5040025000121281D00F06E
:1060A000F7F831BD7CB5040025000121281D00F062
:1060B000FDF800906E463078002802D12000FFF7EE
:1060C000C2FF73BD2DE9FF4F87B007980190DDF83F
:1060D0001C800198C688019840794643361F019874
:1060E000C08800900A98001D0099B0FBF1F50A994C
:1060F000091D0098B1FBF0F7009800FB17170998ED
:1061000001680A9841188E4202D20A9C341B01E0B1
:106110000998046809980460002D03D0D8F800801D
:106120006D1EF9E75FF00009DDF800A0BAEB070A81
:10613000544501D2A246FFE7002C31D008984844CC
:10614000039008EB0700001D02909DF85000002806
:106150000BD0CDF814A002980490DDF80CB0059A8D
:1061600004995846FDF762FF0AE0CDF814A00398A1
:106170000490DDF808B0059A04995846FDF756FFDB
:1061800000200700D8F80080B4EB0A041AEB0909D4
:106190000098844201D2A246CEE7DDF800A0CBE70A
:1061A0000BB0BDE8F08FFEB504000D0016001F0017
:1061B0000196002000903B0001AA29002000FFF773
:1061C00081FFF7BDFEB504000D0016001F0001960B
:1061D000012000903B0001AA29002000FFF772FF78
:1061E000F7BD002182689160002182681161002161
:1061F0008268516100218268D1600021826851600B
:10620000002182681160704710B4020052E8000F4C
:106210000B4642E8003494F0000FF7D110BC7047F1
:1062200010B4020052E8000F40EA010342E80034D3
:1062300094F0000FF6D110BC7047000010B40200BB
:1062400052E8003F43EA010042E8000494F0000FE6
:10625000F6D110BC7047000010B4020052E8000FE5
:1062600000EA010342E8003494F0000FF6D110BCBC
:106270007047000010B4020052E8003F03EA01003A
:1062800042E8000494F0000FF6D110BC7047000003
:1062900010B4020052E8003F03EB010042E80004A2
:1062A00094F0000FF6D110BC7047000010B402004B
:1062B00052E8003FA3EB010042E8000494F0000F15
:1062C000F6D110BC704710B5040001212000FFF783
:1062D000A7FF10BD10B5040001212000FFF7AEFF9D
:1062E00010BD10B5040000212000FFF7B5FF10BD60
:1062F00010B5040000212000FFF7BCFF10BDFEE731
:10630000EFF3108072B6704762B6704738B505007B
:10631000FFF7F6FF04001C498868002810D101200F
:1063200088601A481A4A136803400B6010601948C5
:1063300002684A605FF0FF3101600020287001E0D0
:1063400001202870002C01D1FFF7DEFF002032BDB4
:1063500070B505000C4EB068002812D02800C0B2FD
:1063600000280ED1FFF7CCFF040030680A4908600E
:1063700070680A4908600020B060002C01D1FFF766
:10638000C3FF002070BD0000AC860020FC06FFBDEE
:1063900080E100E084E100E000E100E004E100E0F1
:1063A00010B504002000FFF7B1FF10BD10B50400C8
:1063B0002000C0B2FFF7CCFF10BD70B504000D0087
:1063C000160032002900200001F0D0F870BDFEE771
:1063D000002201F0F1B870B59CB005000E00140069
:1063E000002D01D0002C01D100200DE0684601F005
:1063F00003FA32002900684601F02EFA002221003B
:10640000684601F055FA01201CB070BD70B504005B
:106410000D00160016F12003320021000448FCF79D
:10642000D1FD012801DB012000E00020C0B270BDD9
:10643000C49E0700DFF8301BC0B2085C7047DFF86D
:106440002C1BC0B2085C7047F8B50025042D1FD284
:10645000DFF81C0BDFF81C1B0A6812F8252000F877
:1064600025200A6802EB8502527800EB85035A70FA
:106470000A6802EB8502927800EB85039A7009683E
:1064800001EB8501C97800EB8500C1706D1CDDE76B
:106490002C2D63D200200600042E0AD2DFF8D00A89
:1064A00016EB8501084410F8040C69468855761CE3
:1064B000F2E715F0030F28D19DF8000004006F46A5
:1064C00078788DF80000B8787870F878B870FC703B
:1064D0009DF80000FFF7AEFF8DF800007878FFF719
:1064E000A9FF7870B878FFF7A5FFB870F878FFF7C4
:1064F000A1FFF8709DF80010DFF87C0A2A009208CE
:10650000805C41408DF80010FFE7DFF8641A01EB72
:10651000850010F8102C9DF80000424001F825205D
:106520006A4601EB850010F80F3C5078434001EBC0
:106530008500437001EB850010F80E3C90784340D5
:1065400001EB8500837001EB850010F80D3CD078DD
:10655000434001EB8500C3706D1C99E7F1BDF0B4B9
:1065600000231900C9B204292ADA00210A00110007
:10657000C9B2042922DADFF8041A0C681D00EDB252
:1065800004EB85041500EDB209681E00F6B201EBBC
:1065900086011600F6B28E5DDFF8D4190700FFB24F
:1065A0009C465FFA8CFC5FEA8C0C1CEB071C5CFAC7
:1065B00082F7C95D4E406655521CD8E75B1CD0E798
:1065C000F0BC704701000800C0B2C0091B2210FBDC
:1065D00002F090EA4100C0B270472DE9F84F84B054
:1065E000002001900198042880F2C183DFF88C0913
:1065F0000068019910F821008DF80300DFF87C098C
:106600000068019900EB810040788DF80200DFF806
:106610006C090068019900EB810080788DF8010019
:10662000DFF858090068019900EB8100C0788DF807
:1066300000009DF80300FFF7C5FF8DF80F009DF8DF
:106640000300FFF7BFFFC0B2FFF7BCFF8DF80E00DD
:106650009DF80300FFF7B6FFC0B2FFF7B3FFC0B26B
:10666000FFF7B0FF8DF80D009DF80300FFF7AAFFBC
:10667000C0B2FFF7A7FFC0B2FFF7A4FFC0B2FFF799
:10668000A1FF8DF80C009DF80200FFF79BFF8DF82D
:106690000B009DF80200FFF795FFC0B2FFF792FFD5
:1066A00004009DF80200FFF78DFFC0B2FFF78AFFDC
:1066B000C0B2FFF787FF8DF80A009DF80200FFF7D0
:1066C00081FFC0B2FFF77EFFC0B2FFF77BFFC0B211
:1066D000FFF778FF05009DF80100FFF773FF060044
:1066E0009DF80100FFF76EFFC0B2FFF76BFF8DF85A
:1066F00009009DF80100FFF765FFC0B2FFF762FFD8
:10670000C0B2FFF75FFF07009DF80100FFF75AFFD7
:10671000C0B2FFF757FFC0B2FFF754FFC0B2FFF798
:1067200051FF80469DF80000FFF74CFF81469DF821
:106730000000FFF747FFC0B2FFF744FF82469DF815
:106740000000FFF73FFFC0B2FFF73CFFC0B2FFF70A
:1067500039FF8DF808009DF80000FFF733FFC0B245
:10676000FFF730FFC0B2FFF72DFF5FF0000B9DF881
:1067700003200BFB02F29DF80F104A409DF80E100B
:106780004A409DF80D104A409DF80C100BFB01F19A
:106790004A409DF802104A409DF80B104A400BFBFE
:1067A00004F454409DF80A104C400BFB05F56C4076
:1067B0009DF801104C400BFB06F674409DF8091043
:1067C0004C407C400BFB08F898EA04049DF800104C
:1067D0004C400BFB09F999EA04040BFB0AFA9AEA0C
:1067E00004049DF808104C40C0B2FFF7EBFE0BFB11
:1067F00000F04440DFF884070068019900F8214068
:106800009DF80300FFF7DEFE04009DF80300FFF78C
:10681000D9FEC0B2FFF7D6FE8DF80F009DF8030039
:10682000FFF7D0FEC0B2FFF7CDFEC0B2FFF7CAFE41
:106830008DF80E009DF80300FFF7C4FEC0B2FFF70D
:10684000C1FEC0B2FFF7BEFEC0B2FFF7BBFE05003F
:106850009DF80200FFF7B6FE8DF80D009DF80200CE
:10686000FFF7B0FEC0B2FFF7ADFE8DF80C009DF84B
:106870000200FFF7A7FEC0B2FFF7A4FEC0B2FFF709
:10688000A1FE8DF80B009DF80200FFF79BFEC0B241
:10689000FFF798FEC0B2FFF795FEC0B2FFF792FE79
:1068A00006009DF80100FFF78DFE8DF80A009DF8A7
:1068B0000100FFF787FEC0B2FFF784FE07009DF8D6
:1068C0000100FFF77FFEC0B2FFF77CFEC0B2FFF70A
:1068D00079FE80469DF80100FFF774FEC0B2FFF715
:1068E00071FEC0B2FFF76EFEC0B2FFF76BFE8146CD
:1068F0009DF80000FFF766FE82469DF80000FFF756
:1069000061FEC0B2FFF75EFE8DF809009DF8000041
:10691000FFF758FEC0B2FFF755FEC0B2FFF752FEB8
:106920008DF808009DF80000FFF74CFEC0B2FFF79D
:1069300049FEC0B2FFF746FE9DF803100BFB04F4BE
:106940004C409DF80F100BFB01F14C409DF80E10D0
:106950004C400BFB05F56C409DF802100BFB01F160
:106960004C409DF80D104C409DF80C104C409DF88B
:106970000B104C400BFB06F674409DF801104C4088
:106980009DF80A104C400BFB07F77C4098EA040482
:106990000BFB09F999EA04049DF800104C400BFB2D
:1069A0000AFA9AEA04049DF809104C409DF8081070
:1069B0004C40C0B2FFF706FE0BFB00F04440DFF88E
:1069C000BC050068019900EB810044709DF803004C
:1069D000FFF7F8FD04009DF80300FFF7F3FDC0B2D8
:1069E000FFF7F0FD8DF80F009DF80300FFF7EAFDBB
:1069F000C0B2FFF7E7FDC0B2FFF7E4FD8DF80E006F
:106A00009DF80300FFF7DEFDC0B2FFF7DBFDC0B26B
:106A1000FFF7D8FDC0B2FFF7D5FD8DF80D009DF84A
:106A20000200FFF7CFFD05009DF80200FFF7CAFD49
:106A3000C0B2FFF7C7FD06009DF80200FFF7C2FDD8
:106A4000C0B2FFF7BFFDC0B2FFF7BCFD8DF80C0070
:106A50009DF80200FFF7B6FDC0B2FFF7B3FDC0B26C
:106A6000FFF7B0FDC0B2FFF7ADFD07009DF80100D4
:106A7000FFF7A8FD8DF80B009DF80100FFF7A2FDC0
:106A8000C0B2FFF79FFD8DF80A009DF80100FFF7E7
:106A900099FDC0B2FFF796FDC0B2FFF793FD8046A7
:106AA0009DF80100FFF78EFDC0B2FFF78BFDC0B26D
:106AB000FFF788FDC0B2FFF785FD81469DF8000015
:106AC000FFF780FD8DF809009DF80000FFF77AFDC3
:106AD000C0B2FFF777FD82469DF80000FFF772FD18
:106AE000C0B2FFF76FFDC0B2FFF76CFD8DF8080074
:106AF0009DF80000FFF766FDC0B2FFF763FDC0B26E
:106B0000FFF760FD9DF803100BFB04F44C409DF86B
:106B10000F104C409DF80E104C409DF80D100BFBD3
:106B200001F14C409DF802104C400BFB05F56C4008
:106B30000BFB06F674409DF80C104C400BFB07F75E
:106B40007C409DF801100BFB01F14C409DF80B10AF
:106B50004C409DF80A104C4098EA04040BFB09F9DC
:106B600099EA04049DF800104C409DF809104C402F
:106B70000BFB0AFA9AEA04049DF808104C40C0B2D4
:106B8000FFF720FD0BFB00F04440DFF8F003006846
:106B9000019900EB810084709DF80300FFF712FD5E
:106BA0008DF80F009DF80300FFF70CFDC0B2FFF752
:106BB00009FD8DF80E009DF80300FFF703FDC0B23C
:106BC000FFF700FDC0B2FFF7FDFC8DF80D009DF84A
:106BD0000300FFF7F7FCC0B2FFF7F4FCC0B2FFF709
:106BE000F1FCC0B2FFF7EEFC04009DF80200FFF7D5
:106BF000E9FC05009DF80200FFF7E4FCC0B2FFF7D6
:106C0000E1FC8DF80C009DF80200FFF7DBFCC0B240
:106C1000FFF7D8FCC0B2FFF7D5FC8DF80B009DF84C
:106C20000200FFF7CFFCC0B2FFF7CCFCC0B2FFF709
:106C3000C9FCC0B2FFF7C6FC06009DF80100FFF7D3
:106C4000C1FC07009DF80100FFF7BCFCC0B2FFF7D4
:106C5000B9FC80469DF80100FFF7B4FCC0B2FFF715
:106C6000B1FCC0B2FFF7AEFC81469DF80100FFF712
:106C7000A9FCC0B2FFF7A6FCC0B2FFF7A3FCC0B2EC
:106C8000FFF7A0FC82469DF80000FFF79BFC8DF803
:106C90000A009DF80000FFF795FCC0B2FFF792FCD8
:106CA0008DF809009DF80000FFF78CFCC0B2FFF7DB
:106CB00089FCC0B2FFF786FC8DF808009DF8000043
:106CC000FFF780FCC0B2FFF77DFCC0B2FFF77AFC93
:106CD0009DF803209DF80F104A409DF80E100BFB05
:106CE00001F14A409DF80D104A400BFB04F454405A
:106CF0009DF802104C400BFB05F56C409DF80C1004
:106D00004C409DF80B104C400BFB06F674409DF870
:106D100001104C400BFB07F77C400BFB08F898EA8E
:106D2000040499EA04040BFB0AFA9AEA04049DF8A5
:106D300000100BFB01F14C409DF80A104C409DF8EF
:106D400009104C409DF808104C40C0B2FFF73AFCC7
:106D50000BFB00FB9BEA040B88480068019900EBE1
:106D6000810080F803B00198401C01903AE405B01E
:106D7000BDE8F08FF8B500252800C0B204281CDA61
:106D8000002004002000C0B2042814DA7B48016807
:106D90002200D2B201EB82062F00FFB20068210070
:106DA000C9B200EB81002900C9B2405CFFF747FB84
:106DB000F055641CE6E76D1CDEE7F1BD70B46F486A
:106DC0000168497B0268527A03685A7302685279F3
:106DD00003685A720268527803685A7102685170E7
:106DE0000268927803689B7A0468A37003689A72B9
:106DF00003689B790468A47B0568AC710468A3737D
:106E00000468E4780568ED790668F5700568ED7A40
:106E10000668F5710568ED7B0668F5720068C47355
:106E200070BC704738B500240A20FFF798FB09258D
:106E30002800C0B200280BD0FFF7C0FFFFF79AFF71
:106E40002800C0B2FFF78BFBFFF7C7FB6D1EEFE713
:106E5000FFF7B4FFFFF78EFF0020FFF780FB31BD87
:106E600010B400221300DBB2102B07DA1300DBB2E0
:106E7000CB5C1400E4B20355521CF3E710BC70471E
:106E800010B400221100C9B210290DDA1100C9B2E4
:106E9000435C3B4909681400E4B2095D4B401100B2
:106EA000C9B24354521CEDE710BC70472DE9FE4FA8
:106EB0008146884616001C000C9D16F00F008DF8C8
:106EC000000041464846FFF7CBFF2C4FC7F8009023
:106ED000002C03D027480460FFF7B6FA002D01D03C
:106EE000274805605FF0000AB24514D24146484683
:106EF000FFF7B6FFC7F80090FFF794FF4846FFF78B
:106F0000BFFF1F48C0F8008018F1100819F11009E0
:106F10001AF1100AE8E79DF80000002817D0414652
:106F20004846FFF79DFF9DF80000D0F11000029049
:106F3000002001909DF8000009EB000B019A0299D6
:106F40005846FEF769FDC7F80090FFF76BFF002079
:106F5000102805D20A490968095C2954401CF7E742
:106F6000BDE8F78F0000000068990700689A0700E5
:106F700058840020CC860020689B0700C88600202B
:106F8000D0860020012210F01F018A40C34903006F
:106F90005BB25B0941F823207047012210F01F010A
:106FA0008A40BF4903005BB25B0941F82320704768
:106FB00010B4020052B2002A09D54A01B94B0400AC
:106FC00064B214F00F04234403F8042C04E04A01D3
:106FD000B54B040064B21A5510BC704738B50400B4
:106FE0000D002900C9B2200040B2FFF7E1FF31BD1A
:106FF00010B50400200040B2FFF7CFFF200040B2E0
:10700000FFF7C0FF10BD70B50400002C07D0A74DDE
:1070100055F00105402606FB04F63000A84770BD78
:1070200001215FF080420300DBB2D1507047A048DD
:107030000068000C10F00100704700EB8103C3F8FA
:1070400040257047C0F804137047C0F80813704714
:1070500009B24058704781B000220B001BB2C250E9
:107060000A0012B282580092009A01B07047D0F81C
:1070700004057047C0F808157047012250FA81F3E3
:107080001A60704738B58B4C207800282FD1FFF755
:10709000CEFF002802D10820FFF7C2FF864D4FF433
:1070A00080712800FFF7D7FF4FF4A0712800FFF789
:1070B000D2FF4FF4A2712800FFF7CDFF0521242055
:1070C000FFF78CFF2420FFF793FF00212800FFF734
:1070D000D1FF08212800FFF7D0FF00212800FFF78B
:1070E000CCFF02212800FFF7ADFF0120207031BD49
:1070F00070B504000D00704E2A0021003000FFF72B
:107100009CFF1F20FFF77FFFA00010F5A07001007B
:1071100009B23000FFF79FFF5FF48031A1403000DB
:10712000FFF790FF70BDF8B504000D002200634921
:107130006348644BC01AC008000450F00400FEF716
:1071400075FA7FF07F46B54201D22E00FFE75A481C
:10715000FFF78DFF0700BF1927F07F47A81B60606E
:107160006068002806D06068962803D26068963070
:107170006060963F3900207BFFF7BAFFF1BD10B584
:107180000400220050494E484E4BC01AC00800046B
:1071900050F00400FEF74AFA5FF48031207B814012
:1071A0004548FFF752FF10BD10B5040022004749C3
:1071B0004348444BC01AC008000450F00400FEF7D6
:1071C00035FA6068002804D061682000FFF7ABFF43
:1071D0000BE0A068002803D0A1682000FFF7A3FF00
:1071E0002068002801D02068804710BD70B50400D9
:1071F0000D001600FFF746FF266029002000FFF76C
:1072000092FF70BD70B52C4C4FF482712000FFF7D7
:107210001FFF002808D02E480168491C01604FF468
:1072200082712000FFF717FF0025022D1CD2A80055
:1072300010F5A070010009B22000FFF709FF002837
:1072400010D0A80010F5A070010009B22000FFF7CF
:1072500002FF204E28013044FFF791FF28013044FF
:10726000FFF7A2FF6D1CE0E770BD70B504000D00D4
:10727000194E3068FFF783FF002C04D02A0021004C
:107280003068FFF7B3FF70BD80B50B48FFF7EFFE26
:107290000F49096810EB016002BD000000E100E049
:1072A00080E200E018ED00E000E400E030A6070016
:1072B000180400400A8700200040024088A207000E
:1072C000FC9F0700E49F070030A3070044A30700CA
:1072D000DC8600205C5800207C58002080B500F03F
:1072E000DDFB002002BD80B500F010FC02BDFEE712
:1072F0002DE9F04104000D002E00B6B25FF4FC272A
:10730000A046320039004046FCF790FEADB228009E
:10731000BDE8F08170B504000D00160033002A00AE
:1073200092B221005FF4FC2000F022FC70BD02004C
:10733000012070472DE9F04104000D0016001F00E8
:10734000DDF818802000C0B2012807D143463A007A
:1073500092B22900300000F049FC01E05FF0FF30FC
:10736000BDE8F0812DE9F04104000D0016001F007A
:10737000DDF818802000C0B2012807D143463A004A
:1073800092B22900300000F0F3FB01E05FF0FF3023
:10739000BDE8F08170B504000D0016002000C0B2F9
:1073A000012805D100223100280000F039FC00E05E
:1073B000002070BD80B500F01DF8002002BD80B532
:1073C00000208DF80000684600F0A8FB002002BDF8
:1073D00080B54FF4806203490348FCF7C7FFFDF70F
:1073E000EBFC01BDB8570020907D002080B5FDF773
:1073F000F3FC01BDF8B54FF480551A4E1A4F2A0020
:107400001A49B81BC008000450F00400FEF70EF93A
:10741000174C22681749B81BC008000450F004003C
:10742000FEF704F95FF0FF3020601349086013494C
:1074300008601349086000F0FDFB0400002C08D030
:107440001049BE1BF608360456F001063000FEF760
:10745000E3F8FEF702F90028FBD1280000F08EFCCB
:10746000F1BD00BFE49F0700FC9F0700049F0700D9
:1074700080E100E04CA0070080E200E084E100E051
:1074800084E200E03C9F0700C268C9B2008A414321
:1074900002EB01007047C268891A008AB1FBF0F064
:1074A000C0B2704710B40100002901D10E2015E0D0
:1074B00088684A68821A48680B6818601000421E83
:1074C000C0B2002806D008680068431C0C6823601E
:1074D0000270F3E700200B681871002010BC7047A1
:1074E00038B50400002500208DF800006846FEF73E
:1074F00057FF606821680968884217D220680068D1
:10750000401E216808602068006801782000FFF7AD
:10751000BBFF0500A16820680068081A2168097986
:107520000200D2B2914201D2216808719DF8000098
:10753000FEF73CFF280032BDF8B504000D002E0018
:1075400000208DF800006846FEF72AFF20680768D3
:10755000781C2168086031002000FFF79CFF38701C
:107560009DF80000FEF722FFF1BDFEE7F0B4050034
:10757000002A02D15FF0FF3001E01068C04300260E
:107580008E4214D2AB5D58400823002B0DD0C407A7
:1075900002D55FF0FF3400E0002407002000054C16
:1075A000204090EA57005B1EEFE7761CE8E7C043F7
:1075B000F0BC70472083B8ED00B500BF13009646BD
:1075C0009446103928BFA0E80C50FAD85FEA417CF5
:1075D00028BF0CC048BF40F8042BC90728BF20F8BB
:1075E000022B48BF00F8012B00BDFEE72DE9F04F4C
:1075F000C3B05FF0000A0022BAF1100F16D28B5C04
:1076000001EB02046478240454EA036401EB0203EE
:107610009B7854EA032401EB0203DB781C4303ABA1
:1076200043F82A401AF1010A121DE5E7BAF1400FAA
:1076300050D203AB03EB8A0353F8083C03AC04EBD2
:107640008A0454F8084C03AC04EB8A0454F8084C40
:1076500003AD05EB8A0555F8085C5FEAF44494EA4B
:10766000734403AB03EB8A0353F8083C94EA932476
:1076700003AB03EB8A0353F81C3C1C1903AB03EB6D
:107680008A0353F83C3C03AD05EB8A0555F83C5C96
:1076900003AD05EB8A0555F83C5C03AE06EB8A06A4
:1076A00056F83C6C5FEAB54595EAF31503AB03EB7E
:1076B0008A0353F83C3C95EAD3052C1903AB03EB42
:1076C0008A0353F8403C1C1903AB43F82A401AF1D3
:1076D000010AABE7036D446D856DC66D076ED0F88A
:1076E00064C0D0F868E0D0F86C805FF00009B9F1B0
:1076F000400F4ED25FEAF72A9AEAB71A9AEA776AF7
:107700001AEB080ACDF800A01CEA070B3EEA070AAC
:107710009AEA0B0ADDF800B01AEB0B0ADFF814B195
:107720005BF829B01BEB0A0A0DF10C0B5BF829B0D2
:107730001BEB0A0ACDF804A05FEA733A9AEAB30A8F
:107740009AEAB35ACDF800A014EA030B15EA030A2B
:107750009AEA0B0A15EA040B9BEA0A0BDDF800A073
:107760001BEB0A0BCDF808B0F046E646BC46DDF848
:1077700004A01AEB060A57462E0025001C00DDF86F
:1077800004B0DDF808A01AEB0B0B5B4619F10109F8
:10779000ADE7D0F850A013EB0A0AC0F850A0D0F81B
:1077A00054A014EB0A0AC0F854A0D0F858A015EB66
:1077B0000A0AC0F858A0D0F85CA016EB0A0AC0F874
:1077C0005CA0D0F860A017EB0A0AC0F860A0D0F85F
:1077D00064A01CEB0A0AC0F864A0D0F868A01EEBF5
:1077E0000A0AC0F868A0D0F86CA018EB0A0AC0F822
:1077F0006CA043B0BDE8F08F0100002901D10E203C
:1078000016E00020086400220023C1E912230A4880
:1078100008650A4848650A4888650A48C8650A48EC
:1078200008660A4848660A4888660A48C86600200A
:1078300070470000689C070067E6096A85AE67BB71
:1078400072F36E3C3AF54FA57F520E518C68059B42
:10785000ABD9831F19CDE05BF8B504000D0016000D
:10786000002C01D10E2022E0002E03D0002D01D1EA
:107870000E201CE00027B74218D2E85D216C60544E
:10788000206C401C2064206C40280DD12100200079
:10789000FFF7ACFED4E9120110F5007051F10001C0
:1078A000C4E91201002020647F1CE4E70020F2BD3F
:1078B0002DE9F04704000D001700002C01D10E2027
:1078C000E9E0002D01D10E20E5E0266C206C38287F
:1078D00008D28020A055761C382E1AD20020A05540
:1078E000761CF9E78020A055761C402E03D200209C
:1078F000A055761CF9E721002000FFF777FE5FF026
:1079000038085FF00009A2464A4641465046FEF755
:1079100083F8D4E91201226C0823E3FB0201C4E9D5
:107920001201D4E9120184F83F00D4E9120180B2B7
:10793000000A84F83E00D4E91201000C84F83D00EE
:10794000D4E91201000E84F83C00D4E9120184F855
:107950003B10D4E91201080A002184F83A00D4E966
:107960001201080C002184F83900D4E91201080E34
:10797000002184F8380021002000FFF737FE38008E
:10798000C0B2002843D00021042980F08380E06E3B
:107990000A00D2B2D200D0406854A06E0A00D2B21F
:1079A000D200D04005EB01021071606E0A00D2B225
:1079B000D200D04005EB01021072206E0A00D2B254
:1079C000D200D04005EB01021073E06D0A00D2B284
:1079D000D200D04005EB01021074A06D0A00D2B2B3
:1079E000D200D04005EB01021075606D0A00D2B2E2
:1079F000D200D04005EB01021076206D0A00D2B211
:107A0000D200D04005EB01021077491CBCE70021F1
:107A100004293FD2206DCA00D2F11802D040685428
:107A2000606DCA00D2F11802D04005EB010210715E
:107A3000A06DCA00D2F11802D04005EB010210720D
:107A4000E06DCA00D2F11802D04005EB01021073BC
:107A5000206ECA00D2F11802D04005EB010210746A
:107A6000606ECA00D2F11802D04005EB0102107519
:107A7000A06ECA00D2F11802D04005EB01021076C8
:107A8000E06ECA00D2F11802D04005EB0102107777
:107A9000491CBDE70020BDE8F087FEE770B5002275
:107AA0004FF48051002000F030F905002C00002C2C
:107AB00002D02000FEF716FA0F480022D0F5FC2174
:107AC00000F023F906003400002C02D02000FEF75D
:107AD00009FA00210948FDF7C1FB00F083F90849C4
:107AE0000848094A801AC008000450F00300FDF756
:107AF00093FD002070BD0000002007008972070080
:107B000054A50700FC9F0700E49F070080B5FDF720
:107B1000A4FD0028FBD1002002BDFEE770B50400E3
:107B200026783000C0B2002801D02B4D00E02B4D4C
:107B3000002229002A4800F067F970BD10B5040042
:107B40002078012813D16068002808D025490868EA
:107B5000002803D05FF0FF300968884707E021491B
:107B60000868002803D0204800680968884710BDCD
:107B70002DE9FC4105000E00170098461A4839000F
:107B800089B20160006841F20101884205D35FF0CB
:107B9000FF30C0475FF0FF301BE01248C0F80080A4
:107BA00028050BD10023012229000D4800F068F9B7
:107BB0000400002C02D05FF0FF300AE000200090AB
:107BC0003B009BB232002900054800F02AF9010071
:107BD0000020BDE8F681000080A1070060A1070039
:107BE0004C590020F4860020F88600202DE9F0474B
:107BF00004000D0016001F00B0461FFA88F8A146C9
:107C0000AA46424649465046FCF710FA380000287A
:107C100002D0300080B2B847B6B23000BDE8F0877D
:107C200070B504000D001600320029002000FEF798
:107C3000C4FB70BDF8B507244FF480550E4E0F4FAE
:107C40000F49B81BC008000450F00400FDF7E4FC25
:107C5000072C04D15FF000500560002004000949A2
:107C6000BE1BF608360456F004063000FDF7D4FCBF
:107C70002000F2BD00000000E49F0700FC9F070009
:107C8000A0A2070018A2070000B580F308888E465E
:107C9000104700BD2DE9F04F89B00500EFF30584D2
:107CA000E405E40D2E68281D006800905FF0FF37A2
:107CB000002080F3148880F3108880F3118880F30B
:107CC0001388002C05D1009A39003000FFF7DCFF43
:107CD00018E001A837492022FCF7B8F9009807906E
:107CE000B6F120085FF020090DF1040AC3464A46A8
:107CF00051465846FCF79AF97FF006023900404693
:107D0000FFF7C2FF09B0BDE8F08FF0B4030008052B
:107D100002D12948834201D307202DE01C00240B07
:107D2000481E14EB10352000854224D307007F093C
:107D30005FF0010CB0EB47161CFA06F6002F05D0D9
:107D4000022F0DD007D3032F0FD012E0DFF86CC045
:107D5000CCF800600DE0DFF868C0CCF8006008E007
:107D6000DFF860C0CCF8006003E0DFF85CC0CCF85E
:107D70000060401CD8E70020F0BC704770B50500DB
:107D80001248D0F5FE2600223100FFF7BEFF0400A6
:107D9000002C0AD022000E490E480F4BC01AC00812
:107DA000000450F00100FDF741FC2800FFF772FFCE
:107DB00070BD000040A1070001F007000006004070
:107DC0000406004010060040140600400020070092
:107DD000749F0700FC9F0700E49F07000121C26811
:107DE0005171704770B55FF0FF3400F0A2F8054E96
:107DF00004213000FDF7BFFD05003000FFF7EEFF66
:107E000070BD000028A5070070B505000C00160025
:107E1000002D002C2C60310028002A681268904741
:107E200070BD2DE9FC4104000F0015001E00DDF8B7
:107E30002080002C002D20680028002E60684068FB
:107E4000B6FBF0F100FB11600028380000F046F8A6
:107E50000028280000F042F80028320039002000F5
:107E600000F02FF80028CDF8008033002A003900F8
:107E70002000D4F800C0DCF80CC0E047BDE8F68173
:107E8000F8B505000E0014001F00002D286800281A
:107E9000002C3100280000F029F8002868680268EA
:107EA00002FB04F23100280000F00BF800283B0030
:107EB000220031002800D5F800C0DCF810C0E047EF
:107EC000F2BDC368994206D300695118491E884221
:107ED00001D3012000E00020C0B2704710F0030F72
:107EE00001D1012000E00020C0B270474068006866
:107EF000401E014201D1012000E00020C0B27047C5
:107F000070B50400002C07D0284D55F0010540261F
:107F100006FB04F63000A84770BD10B50400002C25
:107F200006D04FF47A70FFF7EBFF641E002CF8D1F7
:107F300010BD80B500F03DF901BD2DE9F047070007
:107F400088461400002C23D05FF00009032622008D
:107F500008EB0901002000F0EBF8050015EB09091A
:107F6000641B002D0FD1DFF848A09AF8000000280C
:107F70000ED00120FFF7D1FF761E002E03D1002086
:107F80008AF8000004E0012009490870002CDED1C5
:107F9000BDE8F08738B504000D0006480090402386
:107FA000054A2900200000F013F931BD40A6070062
:107FB0000B8700203B7F070000860020704770473A
:107FC00010B5DFF8F8410220206102206061DFF87F
:107FD000F001A061DFF8EC11E1614FF40071216262
:107FE0000021A162002161620021E162A064DFF84A
:107FF000D801E064102020650020A06500206065A5
:108000000020E06549A1E01D00F05AF9DFF8BC113D
:10801000200000F055F92020A07110BD2DE9FE4F81
:1080200005000E0014005FF00008D5F80C902869D8
:108030000700B94503D2B7EB0900401E04E0A86869
:10804000B0EB09003818401EA968B1EB090188425D
:1080500001D2824603E0D5F808A0BAEB090AA2458E
:1080600000D3A246CDF804A00096686800EB090B87
:10807000019A00995846FBF7D9FF1AEB08085644B5
:10808000B4EB0A041AEB0909A868814501D1002064
:108090008146C5F80C90002CC9D14046BDE8FE8F42
:1080A0002DE9FE4F04000D001600D4F80C80D4F822
:1080B0000890B9EB08094E450DD20096AA466068B3
:1080C00000EB080B009A51465846FBF7AFFF16EB42
:1080D0000800E0601AE0CDF8009000980290019549
:1080E000606800EB080A029A01995046FBF79EFF70
:1080F000B6EB09000700009705EB090AD4F804B0B5
:10810000009A51465846FBF791FFE760BDE8F78FAC
:1081100001000A69CB68934204D38868401EC01AE4
:10812000101801E0D01A401E70470000525454004D
:108130002DE9F04704000D001600A846DFF87C008A
:10814000182101FB04F1084410F1180ADAF81400B0
:10815000002803D0022820D010D325E05046FFF796
:10816000D7FF0700B74202D25FF0000905E0B14631
:10817000320041465046FFF793FF17E05046FFF7A5
:10818000C7FF0700B74201D2B94600E0B1464A46F0
:1081900041465046FFF784FF08E032004146504612
:1081A000FFF73CFF814601E05FF000094846BDE86B
:1081B000F08780B5FFF704FF01BD0000888500202F
:1081C00008A60700BC7F00209C860020C0A60700F0
:1081D0002DE9F04F95B005000E0017009846DDF828
:1081E00078903000FDF756FF09A81821FEF7F0F847
:1081F0000997CDF82880CDF8389000242300082274
:1082000001A93000FDF7DEFF5FF0080A0398049033
:10821000BDF80800ADF81400BDF80A00ADF816006E
:1082200000208DF81900019810F0030001281CD1DE
:10823000DDF804B05FEA9B2B0198C0F3C2008DF813
:1082400018000198C0F383145346A2000FA9300010
:10825000FDF7B8FF1AEB840A09A8009004AB2200CE
:108260000FA9584600F0A6F823E0019810F003008B
:1082700002281ED1019CA40D0198C0F3C2008DF804
:108280001800082C01D2A34601E05FF0080B53460A
:108290005A4607A93000FDF795FF1BEB0A0AB4EB1D
:1082A0000B0409AB04AA594607A800F0EDF8002C0E
:1082B000E7D13000FDF7F6FE15B0BDE8F08FFEE720
:1082C0005FEA000C80EA01039B0715D1830706D003
:1082D00011F8013B00F8013BB3B18307F8D10A68FC
:1082E000B2F1013323EA020313F0803F02BF40F8EA
:1082F000042B51F8042FF3E711F8013B00F8013B80
:1083000013B111F8013BF9E760467047704738B583
:1083100004000D00E088002807D08A480090E38818
:10832000894A8A49280000F028F9207A05281FD0B8
:10833000607A00280BD0217AA088FCF7F0FF8449EE
:10834000C0B251F8202079A1280000F016F9216868
:108350002800FFF7DBFF0021A088FCF7CDFF03001A
:108360007C48217A50F821207B49280000F005F94B
:1083700031BD70B504000D001600207A05280DD01F
:10838000607A002805D07248026868A1280000F0D1
:10839000F4F867A1280000F0F0F807E03000C0B260
:1083A000002803D062A1280000F0E7F8280000F0C0
:1083B000D7F870BD2DE9F84384B004000D00160015
:1083C0001F00DDF8308098F80C90002088F80C0031
:1083D00041463800FFF79BFF002E09D0022E12D035
:1083E0000BD3042E1FD015D3062E34D026D341E054
:1083F0002100404600F0C1F83CE02A6821004046D8
:1084000000F0BBF836E06B682A682100404600F0B7
:10841000B4F82FE0A86800906B682A6821004046F5
:1084200000F0ABF826E0E8680190A86800906B685F
:108430002A682100404600F0A0F81BE0286902905D
:10844000E8680190A86800906B682A68210040469F
:1084500000F093F80EE06869039028690290E868DC
:108460000190A86800906B682A682100404600F0DF
:1084700084F8FFE7002241463800FFF77AFF88F8CA
:108480000C9005B0BDE8F0832DE9F04704000D0025
:1084900016001F00092D46D297F80C800020387373
:1084A00039003000FFF733FF5FF0000ABAF1080F20
:1084B0000FD2AA4506D214F80A202849380000F045
:1084C0005CF803E01BA1380000F057F81AF1010A2C
