:020000040001F9
:10F0000000990020BDE40300274E0200B514030060
:10F010003B5502008B650200A36502000000000062
:10F02000000000000000000000000000DF6502009A
:10F03000E765020000000000BB840200E7A70200B1
:10F04000038203005BB702008BC7020047E00200A7
:10F0500033E702007BE9020039A6020011A2020098
:10F060001FEB0200A1290300E7F00200CFFC020021
:10F070008323030023240300532403008F2503006C
:10F08000732603002BC20200B7260300FB330300E4
:10F0900097C202006FFF02006FFC02004B5F03008B
:10F0A0002B790300DB9C0300E3B60300A7D2030027
:10F0B000A3DD03008FDF030000000000000000005C
:10F0C000D7E00300A3E10300E7E103009BE20300B4
:10F0D000F7E20300BFE30300CBE3030000000000FE
:10F0E0000000000000000000000000000000000020
:10F0F0000000000000000000000000000000000010
:10F1000000000000000000000000000000000000FF
:10F1100000000000000000000000000000000000EF
:10F1200000000000000000000000000000000000DF
:10F1300000000000000000000000000000000000CF
:10F1400000000000000000000000000000000000BF
:10F1500000000000000000000000000000000000AF
:10F16000000000000000000000000000000000009F
:10F17000000000000000000000000000000000008F
:10F18000000000000000000000000000000000007F
:10F19000000000000000000000000000000000006F
:10F1A000000000000000000000000000000000005F
:10F1B000000000000000000000000000000000004F
:10F1C000000000000000000000000000000000003F
:10F1D000000000000000000000000000000000002F
:10F1E000000000000000000000000000000000001F
:10F1F000000000000000000000000000000000000F
:10F20000D20001300101800313F33D01000110031E
:10F21000BB960200C70412D90412E504F13801F0CC
:10F22000012A80C2494DF2370389F33136104A1062
:10F2300003CCE30300044712FF01F2FF0001F1FFDA
:10F2400001F1FF01F1CE01FF2DCCE4AB04FD0F5421
:10F2500004211EFD477604F22AD8BCF3FF01000109
:10F26000F1FF01F1FF01C101FE06C84003FE36C8EF
:10F270005803FF25FCE3DC03FC014408E403DA0344
:10F28000F3FF110001F1FF01F1FF01F1FF01F1FFB7
:10F2900001F1FF01F1FF01F1FF01F1FF01F1FF01B8
:10F2A000F1FF01F1FF01F1FF01F1FF01F1B901FEF1
:10F2B00026200410FE2E143C10F002FFE4E40300AC
:10F2C00001F1FF01F12301DBA8E2583DE71CFA1C24
:10F2D000086CFA26F09CFF090A182A17BC011ADAF2
:10F2E000E0DA172002E45100201052FF01611CF205
:10F2F0001A207AFE56FC4403F32544E568F23E6C7E
:10F30000A0F32D2CE550F2267C90F74534E568F209
:10F31000264490F2265038FE26202816F2262C3855
:10F32000F73538E338F6463C80F6265848F2266032
:10F3300038F22608C8F2262C70FE3A388003F232E2
:10F340008C4CF2269C44FA264448FA2A5480F22A2D
:10F35000ACF0FA2714B01390D0390002FFFF01017E
:10F360005200011004E965020002F00EA009E00756
:10F370000000F00700E1D20300010006DFC5030032
:04F3800005FF000085
:020000040002F8
:10100000DEC091A90D03000100900500340000002E
:1010100002093D00980000004A756C2032302032F1
:101020003031380031383A34393A323018B100684A
:10103000DFF8341C0860D421DFF8300C02F028BD42
:10104000DFF8241C0968002900D17047E0B58DF84D
:1010500000006846884707BDDFF80C1C09680029B6
:1010600018BF08477047DFF8081C087818B100223D
:101070000A7003F00CB9704738B5DFF8F04B6568BB
:10108000284603F08DF938B1DD2805D21A212954FC
:101090000021626810444170606832BD7CB505462D
:1010A00003F05CFB20B16946284603F09BFAB8B117
:1010B000DFF8B84B002020600420206003F0B7F96F
:1010C0002168890840EA81002060606818B103F057
:1010D000ABFC00206060284603F062F9152801D3BC
:1010E000002076BDDFF8886B2946301D03F0E6FC52
:1010F000DE238F220FF21801092003F07AFC6060D2
:1011000008B1002101700020A060301D76BD0000F4
:10111000736D73705F7374617274000010B563292E
:10112000044604D203F0E6FD0FF2340116E041F26A
:101130003470814205D23C2000F049FA0FF22C01B4
:101140000CE0DFF8300B814206D24FF4616000F012
:101150003EFA0FF2240101E00FF2240125E0000025
:101160007365636F6E64732C000000006D696E75AB
:101170007465732C00000000686F7572732C00009A
:101180002B3939686F7572732C00000010B5B1F5FA
:101190007A7F044603D203F0ADFDB4A105E04FF41D
:1011A0007A7000F014FA0FF20C012046BDE81040EE
:1011B00003F0ECBD6B6D2F680000000070B50D46AC
:1011C00004462868C0F344400A2802DAA8A100F0C7
:1011D00085F92868C0F3444100F0FBF92868C0F3A2
:1011E0008350A4A60A28B4BFA3A1314600F076F923
:1011F0002868C0F3835100F0ECF9314600F06EF935
:1012000020462968BDE87040890E01F5FA6103F0B7
:1012100071BDF8B50D4604462868C0F304300A28AD
:1012200002DA93A100F05AF92868C0F3043100F003
:10123000D0F92868C0F38510CDA6CEA70A28B4BF80
:101240003946314600F04AF92868C0F3851100F0AC
:10125000C0F9287800F03F000A28B4BF394631466B
:1012600000F03CF920462978BDE8F44001F03F0148
:1012700003F040BD18B5044608460021002885B09B
:1012800005D52D218DF80010C043401C01210722F7
:10129000694403F0E9FC6946204603F077FD06B097
:1012A00010BDF8B505460E46174603F07FFD040055
:1012B00001D0AC4201D0FF20F2BD01F0D7F8694661
:1012C000204403F0B5FC08B90120F2BD0098386055
:1012D0000020F2BD38B504460D4603F061F8002148
:1012E0000022814206D2635C491C202B1CBFA35400
:1012F000521CF6E72946204603F070FD401E80414F
:10130000C00F32BD1CB502F001FAD0B110F8010CCB
:10131000532818BF732802D1009820600FE04D2891
:1013200018BF6D2802D100993C2006E0482818BF5C
:10133000682806D100994FF4616041432160012083
:1013400016BD002016BD1CB502F0E0F970B110F812
:10135000010C4B2818BF6B2805D100994FF47A7007
:101360004143216001E000982060012016BD18B5BE
:1013700089B0044603A803F087FD68B90FF2FC01A9
:1013800000F0ACF803F07EFD18B9D1A100F0A6F88A
:1013900063E00FF2141101E00FF21C1100F09EF84F
:1013A00002A901A803F072FD0DF1020003F070FD27
:1013B000684603F06FFD00F08FF803A92046FFF7A1
:1013C000FDFE0FF2C01100F089F803A92046FFF7D7
:1013D00020FF0FF2B81100F081F8029900F0F5F843
:1013E0000FF2B01100F07AF800F0EEF80FF2D00131
:1013F00000F074F8BDF802102046FFF7C7FE0FF2A8
:10140000CC0100F06BF8BDF900000021020005D509
:101410002D218DF81010C043401C012104AB012286
:10142000194400B203F020FC04A9204603F0AEFCEE
:101430000FF2681100F052F803F0CCFD014600F005
:10144000C8F80FF2641100F049F8029900F0BDF8F5
:10145000BDA100F043F800F0B7F800F05DFF1A21DD
:101460002154621C002111540AB010BD6D2F680078
:10147000300000002F0000002F3000005570207455
:101480006F2064617465206C6F636174696F6E2096
:101490006973206E6F7420617661696C61626C653E
:1014A000206E6F77000000002C204C617374204B7D
:1014B0006E6F776E3A0D0A004E6F773A0D0A000094
:1014C0000D0A53706565643A000000000D0A416C16
:1014D0007469747564653A000FF20801204603F0E0
:1014E00055BC0000446174653A0000001FB5044615
:1014F0000FF2840103F04AFC01A9684603F0ABFF38
:10150000FFF7EAFF02A92046FFF758FE0FF2740129
:10151000FFF7E4FF02A92046FFF77BFE0FF26C0104
:10152000FFF7DCFF00F050F80FF26801FFF7D6FF7D
:10153000009900F04AF80FF26401FFF7CFFF03F0C3
:1015400049FD014600F045F80FF25C01FFF7C6FFC8
:1015500000F03AF87CA1FFF7C1FF009900F035F8E0
:1015600000F0DAFE1A2121542044002141701FBDF1
:101570003A0000003A300000424C452D4C6F633A6F
:101580000D0A00000D0A54696D653A000D0A4C61A0
:10159000743A00000D0A4C6F6E3A00000D0A426169
:1015A00074746572793A0000250D0A6D6170732EAE
:1015B000676F6F676C652E636F6D2F6D6170733F22
:1015C000713D6C6F633A00000199204652E6B1FB11
:1015D000F0F1204603F08EBB10B503F073F8DFF88E
:1015E0008C4668B103F06CF800F0AAF803F066FAD4
:1015F00003F070F820440D2101730A21417301E0CA
:1016000030202073012010BD10B5FFF7E5FFDFF893
:101610005C4628B10FF20C0100F09BF800F096F840
:1016200007E1000054696C7420416C61726D0D0A11
:1016300047505320496E666F210D0A0010B5FFF721
:10164000CBFFDFF8284678B10FF2200100F081F8D7
:1016500003F044F900F074F8FFF798FD0FF24C1115
:1016600000F077F800F072F8E3E000004F76657262
:101670002D737065656420616C61726D20000000DF
:1016800010B5FFF7A9FFDFF8E44520B102A100F093
:1016900060F800F05BF8CCE04E6F204D6F74696F1E
:1016A0006E20416C61726D210D0A47505320496EC6
:1016B000666F210D0A00000010B5FFF78DFFDFF8FF
:1016C000AC4520B103A100F044F800F03FF8B0E0D1
:1016D0002E0000004D6F76656D656E7420616C6143
:1016E000726D0D0A47505320496E666F210D0A0036
:1016F00010B5FFF771FFDFF8744578B10FF22001E4
:1017000000F027F803F0CBF800F01AF8FFF706FD19
:101710000FF21C0100F01DF800F018F889E000003D
:101720004D6F74696F6E20416C657274200000000B
:10173000210D0A47505320496E666F210D0A0000A3
:10174000014604F10C0070472C00000004F10C006D
:101750000DE604F10C0003F019BB38B50446FFF7A1
:101760003BFFDFF80855A0B10FF22C0105F10C008A
:1017700003F00CFB214605F10C0003F0BBFA0FF25D
:101780002C0105F10C0003F001FB05F10C00FFF743
:10179000EEFD05F10C0032BD47656F2046656E63B6
:1017A0006520616C61726D20000000000D0A4750D9
:1017B0005320496E666F210D0A00000010B5FFF737
:1017C0000BFFDFF8A84420B102A1FFF7C2FFFFF72B
:1017D000BDFF2EE048656C70204D65210D0A0000AC
:1017E00010B5FFF7F9FEDFF8844408B1FFF7AEFF4C
:1017F0001FE0000010B5FFF7EFFEDFF8704430B1D6
:1018000003A1FFF7A6FF04F10C00FFF76FFE10E045
:10181000424C452D4C6F63210D0A0000FFF7DCFEA2
:10182000DFF8484428B100BF03A1FFF792FFFFF79C
:101830008DFF04F10C0010BD4C6F63210D0A0000F8
:101840007047F8B5DFF82464044670680D46A8B305
:101850003168C1F30010D0B941F01001316002F0DD
:1018600031FFA0B102F02CFF0146706803F026F9A9
:1018700002F030FFB0607168B2680D2088540A220F
:101880007068B16808444270B068801CB060B0688D
:10189000C0F1DC07012F11DB7168BD42084406D29C
:1018A000214603F00BF9B0682D18B560F1BD3A463A
:1018B000214603F0EFFDB0683F18B760F1BD7CB57D
:1018C000EA4C0346A068C0F1DC06012E0D4611DB90
:1018D0006168B542084406D2194603F0EFF8A068E3
:1018E0002D18A56073BD3246194603F0D3FDA068DC
:1018F0003618A66073BDB0B5C4B012A8C82102F0F6
:10190000C7F80025D6A40FF20017E8B202F09AFE3D
:1019100000B368463946482203F0CCFD05F131009A
:101920008DF80100E8B202F096FE10B131208DF87A
:101930000300E8B202F097FE10B131208DF80500E7
:10194000E8B202F0A2FE014600F0BDFB00F085F90E
:1019500000F098F86D1C052DD7D30FF2F40100F0BC
:1019600092F80021022002F0C8FD010001D00B28EE
:1019700001DBBCA107E00FF2E002136869463030DA
:101980000B608DF8000000F07EF80FF2D00191E8B6
:101990002C0007A880E82C0002F08EFD014607A865
:1019A00003F0A8F9214607A803F0F0F907A900F011
:1019B0006AF80FF2B40191E82C0004A880E82C002A
:1019C00002F07FFD014604A803F094F9214604A823
:1019D00003F0DCF904A900F056F868460FF2940110
:1019E000102203F067FD02F071FD00F04FF800F0E7
:1019F00069FB00F047F812A802F0D2FC014612A8D9
:101A0000FFF71FFF44B0B0BD41303A302C302C00FE
:101A100000000000000000000000000000000000C6
:101A200000000000000000000000000000000000B6
:101A300000000000000000000000000000000000A6
:101A40000000000000000000000000000000000096
:101A5000534944453A000000310D0A0052543A00FF
:101A600000000000000000004D49433A0000000063
:101A700000000000566F6C756D653A0000000000B4
:101A800000000000694612A803F080B901466846CC
:101A900003F030B918B58DB004466846342101F022
:101AA000F7FF224606A1684603F048FD684602F0AB
:101AB00077FC01466846FFF7C4FE0EB010BD00007B
:101AC00043616C6C2025730D0A00000010B5BAB09C
:101AD00006220FF20C1100F0F2FA0FF20C1100F0D6
:101AE000F2FA694608A802F0E9FF05220FF2001198
:101AF00000F0E5FA02F033FD014600F0E4FA00F0F0
:101B0000ABF800F0D4FA0A220FF2EC0100F0D7FA99
:101B100002F028FD014600F0D6FA00F09EF800F031
:101B2000C6FA0A220FF2DC0100F0C9FA02F01DFD2C
:101B3000014600F0C8FA00F090F800F0B8FA4EA0A4
:101B40000268009202F01BFD014600F0BCFA00F0B2
:101B500084F800F0ACFA06220FF2B40100F0AFFAFC
:101B600002F010FDFFF792FF00F0ACFA00F09FFAD0
:101B700042A00268009202F021FD00F09CFA00F001
:101B800096FA05220FF2900100F099FA02F01BFD7F
:101B900000F091FA00F08BFA39A00268009202F08E
:101BA00006FD00F088FA00F082FA02F0E2FD00285B
:101BB00014BF0FF26C010FF2740100F075FA02F01D
:101BC000E3FD002814BF0FF270010FF27C0100F05A
:101BD0006BFA08A802F0E4FB00F062FA3AB010BD1C
:101BE000475052533A0000004F4E0D0A00000000CB
:101BF00041504E3A00000000557365726E616D658C
:101C00003A00000050617373776F72643A0000000D
:101C1000506F72743A0000004C54493A00000000C2
:101C2000706F7765726F6E3A310D0A00706F77656D
:101C3000726F6E3A300D0A00706F7765726F66666C
:101C40003A310D0A00000000706F7765726F6666AA
:101C50003A300D0A0000000001A4214603F096B8B6
:101C60000D0A0000310D0A00D87800201869002004
:101C7000687600203070050049503A0054493A0017
:101C800048423A00002819BF11210FF20C0014211C
:101C90000FF21800D5E5000053657420706173736E
:101CA000776F7264204F4B0D0A00000052656D6F14
:101CB00076652070617373776F7264204F4B0D0AE5
:101CC00000000000F0B5D3B006220FF2E02100F0D2
:101CD000F6F902F08EFB04462146FFF7D8FE042CED
:101CE00018BF052C06D1AAA100F0EDF902F086FB81
:101CF000FFF7CCFEA7A400F0E5F9694608A802F0BA
:101D0000DDFE0121012002F0F8FB0F280CBF0FF2CD
:101D1000A4210FF2A82100F0C7F909220FF2A42193
:101D200000F0CDF902F0DAFC00F0C5F902F0DFFCBA
:101D3000FFF7ACFE00F0C6F900F0B9F902F085FB40
:101D4000002814BF0FF288210FF28C2100F0ACF9AB
:101D500002F087FB002814BF0FF284210FF28C21C0
:101D600000F0A2F902F088FB002814BF0FF28821CE
:101D70000FF2902100F098F902F0CFFC002814BF78
:101D80000FF28C210FF2942100F08EF90FF29820BF
:101D900081A5D0E90023CDE9002380A602F0ACFCA8
:101DA00038B1314600F08FF902F0B1FCFFF76EFE5A
:101DB00002E0294600F087F900F084F900F077F995
:101DC00002F0B6FC002814BF0FF264210FF26C2160
:101DD00000F06AF902F0B7FC002814BF0FF2682186
:101DE0000FF26C2100F060F902F0B8FC002814BF7B
:101DF0000FF264210FF2682100F056F968A0026822
:101E0000009202F00FFB0746012F04DB65A100F0F2
:101E10005AF9394605E064A100F055F9FF437F1CEB
:101E200079B202F067FF00F04DF900F040F90522A9
:101E30000FF2342100F043F902F0B1FC38B1314621
:101E400000F041F902F0B6FCFFF720FE02E029465F
:101E500000F039F900F036F900F029F90FF21020FE
:101E600090E88C006946002081E88C0002F0A8FC14
:101E700010B131208DF80400012002F0A1FC10B156
:101E800031208DF80600022002F09AFC10B13120BA
:101E90008DF8080000F00BF90FF2E010D0E90023F4
:101EA000CDE9002302F0ECFC38B1314600F00BF92B
:101EB00002F0F5FC00F0FFF802E0294600F003F91B
:101EC00000F000F900F0F3F80A220FF2B81100F068
:101ED000F6F802F0EAFC38B1314600F0F4F802F00E
:101EE000EEFC00F0E8F802E0294600F0ECF800F023
:101EF000E9F800F0DCF807220FF2941100F0DFF8A7
:101F000002F0E1FC48B1314600F0DDF802F0E6FCF9
:101F100001466846FFF73AF902E0294600F0D3F897
:101F200000F0D0F800F0C3F806220FF26C1100F0B8
:101F3000C6F802F0D9FC38B1314600F0C4F802F01E
:101F4000E3FCFFF7A3FD02E0294600F0BCF800F037
:101F5000B9F800F0ACF8C1A00268009202F0D9FC18
:101F600038B1314600F0AFF802F0DFFCFFF78EFD2C
:101F700002E0294600F0A7F800F0A4F800F097F876
:101F800008A802F00DFA00F08BF853B0F0BD000085
:101F90002C0000000D0A000030000000312C000071
:101FA000747A3A002B0000002D0000004D6F64652C
:101FB0003A000000534F533A320D0A00534F533A40
:101FC000310D0A00736F7363616C6C3A000000009E
:101FD0006C65643A310D0A006C65643A300D0A0094
:101FE000626565703A310D0A000000006265657037
:101FF0003A300D0A000000006D6F746F723A310DB7
:102000000A0000006D6F746F723A300D0A00000014
:1020100063616C6C3A310D0A0000000063616C6C06
:102020003A300D0A00000000616E737765723A0065
:1020300068616E6775703A310D0A000068616E67FD
:1020400075703A300D0A00004C493A310D0A000013
:102050004C493A300D0A0000736D733A310D0A0095
:10206000736D733A300D0A006C6F773A0000000010
:1020700047454F3A302C302C300D0A006D6F746993
:102080006F6E3A006E6F6D6F74696F6E3A0000008C
:1020900073706565643A000074696C743A000000FE
:1020A000014608A8FFF7CDBB08A802F06FBE69463D
:1020B00008A802F06BBE01466846FFF72FB86846D5
:1020C00003F0F8B92146684602F060BE38B592B018
:1020D00004460020039003AA0FF28411DFF8C05BCE
:1020E0002046FFF7DEF880B9039800F0EEFE03F01B
:1020F00040FB00282FD00398002807BF11210FF2C2
:10210000681010210FF2741021E00FF284112046A4
:1021100002F04CFE00B301A9A01D02F089FD0028C9
:1021200019D001F0F4FA08B905200090009901983F
:10213000C9B2C0B203F07FFE012841D10198002846
:1021400007BF29210FF250101F210FF27810FFF75F
:1021500078FB012028707FE00FF288112046FFF7FE
:10216000B9F818B10220FEF76BFF74E060783138DF
:10217000092868D26946601C02F05AFD00286BD01D
:102180000099E9B1491E009101222A7002A902F0CA
:102190004FFD20B90098C0B203F01BFD5CE001A91F
:1021A00002F046FD04000BD00020049004A9204654
:1021B00002F03EFDF8B100F0AFF80546332D01DB2B
:1021C000002049E005A8342101F062FC214605A861
:1021D00002F074FC05A900204855691C05A802F00E
:1021E00012FD00F091F805ABD2B2C9B2C0B203F053
:1021F0000BFD48B930E000F087F82B1DD2B2C9B210
:10220000C0B203F001FD38B3009C00BF37A105A8A0
:10221000142203F04FF9641CE0B20A2805A904D186
:10222000312048713020887108E0E2B222B10A28DA
:1022300002DA30344C7101E031204871132105A8D5
:10224000FFF7FFFA07E000BF2DA12046FFF742F895
:1022500010B1FFF750FB012013B030BD464C3A00DF
:10226000414750530000000044697361626C65206F
:1022700041504753204F4B0D0A000000456E6162EC
:102280006C652041475053204F4B0D0A0000000061
:10229000414E535745520000536574207072657368
:1022A0007320627574746F6E20746F20616E737723
:1022B0006572207468652070686F6E65206F6B0DA5
:1022C0000A000000536574206175746F6D61746954
:1022D0006320616E737765722070686F6E65206F22
:1022E0006B0D0A004144440D0A0000005365742040
:1022F000413120206E756D626572204F4B0D0A00D2
:10230000413F0D0A00000000019A02B1012202992A
:1023100001B1012100987047204602F041B8000049
:1023200078B591B0064600200090304630A1DFF825
:10233000705902F03BFD04003DD0B44254D100F08E
:1023400095F8064603208DF8040001A8FEF784FEE8
:1023500004208DF80400291DA6F10A000391C0B2E3
:10236000002819BF04F108010291281D0290029C67
:10237000FFF7D2FF0146204602F045FC039CFFF721
:10238000CBFF0146204602F03EFC01A8FEF764FEAA
:1023900004A8342101F07CFBDDF8082017A104A873
:1023A00003F0CCF804A801F0FBFF014604A8FFF7F6
:1023B00048FA012019E06A4615A13046FEF771FF80
:1023C00090B90098C0B203F048FD68B100980028A9
:1023D00007BF2A210FF2400024210FF26800FFF707
:1023E00030FA0120287000E0002012B070BD00001B
:1023F00043414C4C4241434B000000005365742064
:1024000043616C6C202573204F4B2E0D0A00000099
:1024100043414C4C00000000456E61626C652069D0
:102420006E636F6D696E672063616C6C2066726F9E
:102430006D20616C6C206E756D62657273204F4B00
:102440000D0A0000456E61626C65207768697465ED
:10245000206C69737420696E636F6D696E672063A9
:10246000616C6C204F4B0D0A00000000304601F0FB
:1024700097BF000078B5BFB00546B2A102F096FC48
:102480000028DFF81C4872D002A9C01C02F0D0FB63
:1024900000281AD005A902F0CBFB002815D0012195
:1024A0002170059991B906A80FF2A0211C2203F012
:1024B00001F8029830308DF82A00182106A8FFF79D
:1024C000C0F90298C0B203F027FD39E104A902F077
:1024D000AFFB0028F9D003A9FEF735FF0028F4D0A0
:1024E00007A906A802F0D2FC0028EED007980699AA
:1024F00001900091039B049A059902989BB2D2B275
:10250000C9B2C0B203F018FD0028DED0039C049DC0
:102510000FF254210F2208A802F0CCFF02A8EDB25E
:10252000017808A802F0E6FB002D14BF0FF2482145
:102530000FF24C21FFF7B8FDB4F57A7F06D22146A1
:1025400008A802F0D7FB0FF2402108E04FF47A70A0
:10255000B4FBF0F108A802F0CDFB0FF23421FFF735
:10256000A3FD08A801F01CFFFFF79AFDE7E00FF2BA
:102570002C2100F0ADFD10B1FFF7A8FADFE00FF25B
:10258000242100F0F7FB88B1A8424ED16946801D96
:10259000FEF7B8FE00285BD00099012003F0CFFAC7
:1025A000002855D013210FF204204DE00FF2102126
:1025B00000F0E0FBE8B1A84237D1851D2C21284668
:1025C00002F0A6FB002843D000F05EF900283FD0BF
:1025D00001F09DF800283BD0009B9BB22A460021C9
:1025E000012003F058FA002832D011210FF2D81040
:1025F0002AE00FF2E81100F0BDFB80B1A84214D12F
:102600006946801DFEF77EFE002821D0009803F069
:10261000A9FA00281CD018210FF2C81014E00FF2FC
:10262000E01100F0A7FBA0B1A8426FD16946C01D20
:10263000FEF768FE00280BD0009803F0A4FA0028EB
:1026400006D01D210FF2C010FFF7FBF8012020700B
:1026500076E00FF2D41100F08DFB00284FD0A84295
:1026600054D12C21401D02F053FB06004ED000F047
:102670000BF905004AD000F007F9030046D02A46BE
:102680003146012003F09FF9050036D009220FF2F0
:10269000A011FFF714FD01F062FF0146FFF713FDE3
:1026A00029A6314602F072FB00F0F2F80E220FF27A
:1026B0008C11FFF704FD01F055FF0146FFF703FD04
:1026C000314602F063FB00F0E3F80E220FF27C11BA
:1026D000FFF7F5FC01F049FF0146FFF7F4FC314636
:1026E00002F054FB00F0D4F80DA801F059FE0146A9
:1026F0000DA8FFF7A6F801202070284620E000BFB3
:1027000056A100F037FBD8B1A84201D0002017E055
:1027100000210091001D00F0FAFF88B1009803F03D
:1027200048F968B1009818B95FF010014DA004E0B5
:10273000012804D15FF00F014FA0FFF782F80120BC
:1027400040B070BD47454F000D0A000044697361F9
:10275000626C652047454F2046454E434520312059
:102760004F4B0D0A000000005365742047454F2071
:1027700046656E636520000020696E200000000041
:10278000206F757420000000204D204F4B0D0A0073
:10279000204B4D204F4B0D0A000000004750525374
:1027A0003F0D0A00475052534842000053657420C1
:1027B00068656172742062656174204F4B0D0A0078
:1027C00047505253495000005365742049502C2003
:1027D000706F7274204F4B0D0A0000004750525327
:1027E000544900005365742075706C6F61642069F2
:1027F0006E74657276616C204F4B0D0A000000000C
:10280000475052534C5449005365742075706C6F97
:102810006164206C617A7920696E74657276616C8E
:10282000204F4B0D0A00000047505253410000005A
:102830005365742041504E3A0000000053657420E7
:10284000557365726E616D653A00000053657420C2
:1028500050617373776F72643A00000047505253AF
:102860000000000044697361626C652061706E2035
:102870004F4B0D0A00000000456E61626C652061DF
:10288000706E204F4B0D0A002C21002002F040BA40
:1028900069460DA802F07ABA38B59AB000F08EFBFE
:1028A00056A100F067FA0028DFF8F44344D06946E7
:1028B000E81C02F0BDF9002869D000F076FD00990F
:1028C00009B1002863D001990098C9B2C0B203F0E1
:1028D000EFFA01284FD12070019C009810B91C21FB
:1028E00048A026E0012846D1E0B200B30DF108006F
:1028F0004CA1202202F0DEFDE4B2642194FBF1F150
:10290000642000FB11410A2291FBF2F20A2194FBA0
:10291000F1F10A20303200FB11448DF81C203034D4
:102920008DF81D401C2102A8FEF78BFF23E0182123
:1029300044A0FEF786FF1EE06A4631A100F044FB8A
:1029400088B90098002807BF10210FF214100F213A
:102950000FF22010FEF775FF0120207000F0B4FA8E
:1029600002F0D8FE07E000BF46A100F0B1FB20B1A5
:102970000120FEF765FB01203DE06A46C7A100F09B
:1029800023FB78B90098C0B203F076FA002831D062
:102990000098002807BF16210FF2F00015210FF252
:1029A000041022E04FEA0D0244A100F00DFB08BB29
:1029B0000098C0B203F013FAE0B1009DE8B288B10C
:1029C00001A85FF0640101F063F8EAB23DA101A83B
:1029D00002F0B4FD01A801F0E3FC014601A8FEF7F6
:1029E00030FF04E05FF019013CA0FEF72AFF012050
:1029F000207000E000201BB030BD00004C4F57009D
:102A00004C454400536574206C6F7720706F776578
:102A10007220616C61726D206F6666204F4B0D0AEB
:102A200000000000536574206C6F7720706F77652D
:102A30007220616C61726D20333025204F4B0D0A7E
:102A400000000000536574206C6F7720706F77650D
:102A50007220616C61726D204F4B0D0A0000000006
:102A6000536574204C4544206F6666204F4B0D0A19
:102A700000000000536574204C4544206F6E204FC9
:102A80004B0D0A004C4F430D0A000000446973616E
:102A9000626C65206C697374656E20696E204F4BA3
:102AA0000D0A0000456E61626C65206C6973746587
:102AB0006E20696E204F4B0D0A0000004C4F4F50A6
:102AC00000000000536574206C6F6F702025642037
:102AD00074696D6573204F4B0D0A000053657420B7
:102AE000756E6C696D696E746564206C6F6F7020B3
:102AF0004F4B2E0D0A00000030B58BB000F05EFA8F
:102B00006A4668A100F060FA654C48B90098C0B206
:102B100002F059FE002853D012210FF28C10B4E0BD
:102B20000FF2981100F026F940B3A84242D101A952
:102B300000F0C7F9002843D002A9FEF7E3FB01200B
:102B4000207001980299C0B202F060FD002837D0D1
:102B500003A80FF27011102202F0ACFC01A90A22A6
:102B6000097891FBF2F20A2000FB121130318DF846
:102B7000141003A80E21FEF764FE78E04FEA0D0260
:102B800054A100F021FA78B900F09EF902F0D1FDCD
:102B9000002815D00098002807BF12210FF23C1022
:102BA00011210FF24C1070E0A5A100F0E3F800280D
:102BB00032D0A8426ED102A9801C02F039F8002858
:102BC00069D0029921B91B214EA0FEF73AFE4EE0D2
:102BD00001A9FEF7B8FB00285DD0019D50A1142289
:102BE00003A802F067FCB5F57A7F05D2294603A851
:102BF00002F080F84FA108E04FF47A70B5FBF0F1D5
:102C000003A802F077F800BF4CA100F050FB00F0E1
:102C100049FB00F043FB3AE08AA100F0ABF8002842
:102C200027D0A84236D102A9801D02F001F8002861
:102C300031D001A9FEF766FB0546012020700298FD
:102C400000F0B8FB03F00DFA28B316223DA103A84B
:102C500002F030FC019903A8FEF760FA00F026FBB1
:102C600000F020FB00F01AFB029800B195B10120A2
:102C700011E06A46BDA100F0A7F958B900990120FA
:102C800002F031FD38B1142134A0FEF7DAFD012045
:102C9000207000E000200BB030BD00004C000000B0
:102CA000687600204D494300536574204D696320C8
:102CB0006C6576656C204F4B0D0A00004D4F444506
:102CC00000000000536574206D6F646531204F4B28
:102CD0000D0A00004D4F544F5200000044697361CB
:102CE000626C65206D6F746F72204F4B0D0A00008F
:102CF000456E61626C65206D6F746F72204F4B0D75
:102D00000A00000044697361626C65204D6F76654E
:102D10006D656E7420616C61726D204F4B0D0A0001
:102D2000536574204D6F76656D656E7420616C61BE
:102D3000726D20004D204F4B0D0A00004B4D204F6F
:102D40004B0D0A00536574206D6F74696F6E2064BB
:102D50006574656374696F6E200000004D6F64696F
:102D600066792070617373776F7264204F4B0D0A20
:102D700000000000284602F019B8000038B58AB0FB
:102D8000054600BF30A1DFF8784902F00FF8C8B15E
:102D9000A84252D100F094F801004ED000F094F80F
:102DA00002F0B0FF002848D00098002807BF10218B
:102DB0000FF29C000D210FF2AC00FEF742FD012046
:102DC00020703BE02BA1FFF7D5FF002835D0A842AB
:102DD00033D16946083001F02BFF70B30021019117
:102DE0000122227001A9FEF78DFA0446009800B175
:102DF00001200199C0B203F07CF9F0B10098B0B1A4
:102E0000DCB119221DA102A802F054FB019902A80D
:102E1000FEF784F90FF29C4102A801F0B7FF02A867
:102E200001F0BEFA014602A8FEF70BFD03E02521E2
:102E300019A0FEF706FD012000E000200BB030BD18
:102E40004D5600004D4F00004E414D450000000022
:102E500052656D6F7665206E616D65204F4B0D0A72
:102E600000000000536574206E616D65204F4B0DAE
:102E70000A0000004E4F4D4F0000000053657420C3
:102E80006E6F206D6F74696F6E2064657465637416
:102E9000696F6E200000000044697361626C6520F8
:102EA0006D6F74696F6E2F6E6F206D6F74696F6ECA
:102EB00020646574656374696F6E204F4B00000079
:102EC0006946001D01F0B4BE009800B10120C0B2F7
:102ED0007047000038B500F071F86A4624A100F090
:102EE00071F878B90098C0B202F0F9FF00283BD021
:102EF0000098002807BF1B210FF27C001A210FF257
:102F0000940014E04FEA0D0229A100F05DF888B9A1
:102F10000098C0B202F0E9FF002825D000980028F0
:102F200007BF1C210FF6B8001B210FF69800FEF713
:102F300088FC16E06A465CA100F046F8FF2818BF3E
:102F4000012006D16A4659A100F03EF8FF280BD0B7
:102F50000020009002F0D6FB30B1FFF7B5FFFEF77E
:102F600091FE0120207032BD002032BD4D50000086
:102F7000504F5745524F4E0044697361626C652053
:102F8000706F776572206F6E20616C657274204F70
:102F90004B0D0A00456E61626C6520706F7765723B
:102FA000206F6E20616C657274204F4B0D0A00001B
:102FB000504F5745524F464600000000054600203E
:102FC00000907047DFF838472846FEF76AB90000DE
:102FD00030B587B0FFF7F2FF4FEA050034A1FEF7E6
:102FE00079F930B10820FEF72BF80E210FF62000FA
:102FF0000AE000BF31A100F06BF848B10620FEF7EF
:103000001FF80E210FF2F870FEF71BFC012048E0BC
:103010004FEA0D022CA1FFF7D5FF48BB009800280E
:103020003ED0411E0091C8B202F0D3FD002837D037
:10303000009D0FF2EC716D1C01A8182202F03AFA03
:10304000EDB20A2D01A905D13120087230208DF88A
:103050000D0008E021DA0A2295FBF2F20A2000FBBB
:10306000125530350D72152101A8FEF7EAFB14E068
:103070006A4680A1FFF7A8FF90B90098C0B202F09D
:103080008EFB68B10098002807BF15210FF2C070B1
:1030900014210FF2A470FEF7D4FB0120207000E091
:1030A000002007B030BD000050000000503000008C
:1030B0005245534554210D0A000000005245424F2D
:1030C0004F540D0A0000000052454D4F5645410037
:1030D0002846FEF7FFB8000038B59CB0FFF76EFF3A
:1030E0004FEA050064A1DFF8184601F05FFE0028F2
:1030F0003AD0A84237D1C51D00200290019001A905
:103100002846FEF7FFF8002839D06946284601F026
:103110008FFD01F06EFD054602A9FEF7F3F80028C9
:103120002DD06946284601F083FD01F062FD02982A
:1031300080B202F03DFEA0B10198C0B202F03FFEA5
:1031400078B103A8642100F0A3FC029B019A0FF25E
:10315000F47103A802F0F2F900F0A4F800F09EF870
:103160007AE00120207062E04FEA0D0244A1FFF7EF
:103170002BFF48B90098C0B202F0C1FB002876D0FE
:1031800019210FF2E46065E06A46C6A1FFF71CFF53
:1031900078B90098C0B202F075FE002867D0009898
:1031A000002807BF29210FF2107032210FF2D460DE
:1031B00050E000BF34A1FFF7DDFD002831D0A84268
:1031C00035D102A9401D01F033FD00284FD001A9DF
:1031D000FEF7B9F800284AD0029800B10120019901
:1031E000C0B202F0BDFF002841D00120207002983B
:1031F00028B91D210FF29C70FEF723FB36E00FF279
:10320000847090E83C0003A903A881E83C00019980
:10321000FDF7BCFF00F04AF800F044F800F03EF87B
:1032200024E0A1A1FFF7A6FDC8B1A84201D000206B
:103230001DE001A9C01C01F0FBFCC0B1019802F027
:1032400046FB0198022819BF2C210FF2C8602C21DF
:103250000FF29060FEF7F5FA0120207007E000BF42
:103260000BA1FFF735FF10B1FEF72CFD01201DB0BB
:1032700030BD000052540000534F5343414C4C00AA
:1032800053494445000000005350454544000000A8
:103290005354415455530D0A00000000014603A841
:1032A000FEF7CFBA03A801F07BB8000001A103A884
:1032B00001F06CBD204F4B0D0A00000070B588B0C6
:1032C00006460020009079A1304601F06FFD0028ED
:1032D000DFF82C5445D0B04264D1B178801C002472
:1032E0002D290CBF01242B2900D1401C01A901F07C
:1032F0009FFC002856D0019E0CB1F643761C70B29C
:1033000002F0D7F900284DD002A80FF2D861182298
:1033100002F0D0F8F1B276B2002E02A802DD2B2224
:10332000827304E0C9432D22491C8273C9B264220E
:1033300091FBF2F2642000FB12120A200A2392FB96
:10334000F3F30A2291FBF2F200FB12113031303319
:103350008DF818108DF81730142102A8FEF771FAB5
:103360001DE00FF21471304601F020FDD0B1B042E3
:1033700018D1FFF7A5FDA8B100F017F8009800F0EC
:1033800019F802F029FF68B10098002807BF17213B
:103390000FF2386016210FF21C60FEF752FA01207E
:1033A000287000E0002008B070BD0021019101A943
:1033B00001F03EBC00B10120019A92B20021C0B2DE
:1033C000704718B5C9B00446002000906A460FF255
:1033D000B0612046FDF765FF70B90098C0B202F0F9
:1033E000DEF900285BD00F210FF21060FEF729FAFA
:1033F000C3490120087052E00FF28C612046FDF7AE
:1034000069FF00284BD017A8C82100F041FB10A885
:103410000FF2F8511C2202F04DF80CA8102100F018
:1034200037FB00F0E0FF01460F220CA802F032F853
:103430000CA910A801F0AAFCFEF70EFC10A917A811
:1034400001F03CFB07A80FF2E051142202F032F821
:10345000AC48417907A801F04DFC214607A801F0CE
:1034600095FC07A917A801F091FC01A80FF2CC5117
:10347000182202F01FF800F0B9FF014601A801F080
:1034800085FCFEF7EAFB01A917A801F07FFC17A84D
:1034900000F086FF014617A8FEF7D3F901204AB0D5
:1034A00010BD0000534D5300534F5300545A0000B9
:1034B0002DE9FE43944D2F680646C7F3C00001284E
:1034C00080F2ED80FEF7D2FF804607F00100002475
:1034D0000128A14627DBC7F3400020BB30783038F5
:1034E0000A2880F0D8800027F05D01F0FEFB00285C
:1034F00073D07F1C062FF7D3B07901F0F6FB0028BC
:103500006DD16946304601F093FBB8F1060FC0F06B
:10351000C28000F096FF0099814260D1286840F097
:103520000200B61D28602C21304603F02FF8002839
:1035300013D0305D2C2800F0BA80A0F161011A2967
:103540003CBF20383055641CF3E7305DA0F16101C9
:103550001A293CBF20383055641CA3E0CDF80090F8
:103560006A460FF2F0413046FDF79BFE002836D147
:103570000098002807BF11210FF2AC1010210FF2A4
:103580009410FEF75EF9FFF79FFC02F0DCF85AE0BA
:103590003046FEF7C5FE78E00FF2C0413046FDF739
:1035A00099FE30B10520FDF74BFD16210FF28C106E
:1035B0000BE00FF2B4413046FDF78CFE40B107201E
:1035C000FDF73EFD17210FF2A410FEF73AF960E077
:1035D0004AA1304601F0EAFB00285CD0B0425AD143
:1035E00001A9801C01F024FB002854D000F08FF8C2
:1035F00000990198C9B2C0B202F036FE00284AD044
:1036000017210FF250101CE03046FEF733FF3CE06C
:10361000CDF800906A460FF258413046FDF741FE62
:10362000002838D10098C0B202F01DFC002832D02A
:103630000098002807BF1F210FF268101E210FF20B
:103640004410FEF7FEF80120207022E03046FFF71C
:1036500023F91AE03046FFF74FFA16E03046FFF73D
:103660008DFB12E03046FFF735FC0EE03046FFF7E9
:10367000AFFC0AE03046FFF72FFD06E03046FFF7CB
:103680001DFE02E03046FFF79CFE8146B9F1000FB7
:1036900001D0012004E0286840F0080028600020E4
:1036A000BDE8FE83FEF7E2FE8442FFF44EAF3078C1
:1036B000134C41281DD042283FF450AF43283FF41B
:1036C00067AF46283FF468AF47289DD048289FD071
:1036D0004C28BBD04D28BDD04E28BFD05028C1D0DB
:1036E0005228C3D05328C5D05428C7D05628C9D093
:1036F000CCE73046FEF7EAFCC7E70000464C000086
:1037000068760020A0700020186900200C466946E9
:1037100001F08EBA456E61626C652062656570204D
:103720004F4B0D0A0000000044697361626C652014
:1037300062656570204F4B0D0A000000456E6162A6
:103740006C65206D616B65206E6F697365204F4BF2
:103750000D0A00005365742066616C6C646F776EAF
:1037600020616C657274204F4B0D0A0052656D6FBD
:103770007665206275666665722064617461204FAB
:103780004B0D0A00456E61626C6520627574746F42
:103790006E2068616E6775702063616C6C204F4BA2
:1037A0000D0A000044697361626C6520627574746F
:1037B0006F6E2068616E6775702063616C6C204F5E
:1037C0004B0D0A00456E61626C6520706F77657203
:1037D000206F666620616C657274204F4B0D0A0085
:1037E00044697361626C6520706F776572206F66E3
:1037F0006620616C657274204F4B0D0A000000005A
:103800007265626F6F74696E672E2E2E0D0A00004E
:10381000726573657474696E672E2E2E0D0A000032
:1038200052656D6F7665204131206E756D626572EF
:10383000204F4B0D0A000000456E61626C652072DE
:10384000696E67746F6E65204F4B0D0A00000000B3
:1038500044697361626C652072696E67746F6E652E
:10386000204F4B0D0A000000536574207369646596
:1038700020627574746F6E2063616C6C204F4B0D09
:103880000A000000456E61626C65207768696C65AE
:10389000206C6973742035206E756D6265727320BB
:1038A00073656E642074657874206D6573736167E9
:1038B00065204F4B0D0A0000456E61626C6520412A
:1038C0006C6C206E756D626572732073656E64201A
:1038D00074657874206D657373616765204F4B0D57
:1038E0000A000000507265737320534F53206275B5
:1038F00074746F6E20747769636520776974686982
:103900006E2032207365636F6E6473204F4B0D0A17
:1039100000000000507265737320616E6420686F50
:103920006C6420534F5320627574746F6E20666F01
:10393000722033207365636F6E6473204F4B0D0AE2
:10394000000000005365742072696E672074696D11
:1039500065202564207365636F6E6473204F4B2C64
:1039600020534F532074616C6B696E672074696DCE
:1039700065202564207365636F6E6473204F4B0D63
:103980000A000000536574206F76657220737065BD
:103990006564200044697361626C65206F766572AE
:1039A00020737065656420616C61726D204F4B0DF2
:1039B0000A000000456E61626C652074696C7420B9
:1039C000616C61726D204F4B0D0A00004469736198
:1039D000626C652074696C7420616C61726D204F3B
:1039E0004B0D0A005365742074696D65207A6F6E03
:1039F00065202B3038204F4B0000000053657420A9
:103A0000766F6C756D65204F4B0D0A00494D454929
:103A10003A0000000000000000000000000000006C
:103A2000000000000000000047534D207369676EDE
:103A3000616C207175616C6974793A00536F6674BA
:103A4000776172652076657273696F6E204E6F3A8A
:103A500000000000424545500000000046494E4429
:103A60004D450D0A00000000464C5553480D0A0014
:103A700048414E475550000054494C540000000046
:103A8000564F4C554D450000563F0D0A00000000B2
:103A9000002202F08BBDF0B402461068956813183E
:103AA000506803EB5004C00721D54D441FE0F0BC23
:103AB00002F10C00704713F8017B05F8017B491EE9
:103AC000F9D1A0B1B60813F8011B06F00306032EC6
:103AD00008BF13F8016B01EB06214942801C294401
:103AE00005D011F8016B05F8016B401EF9D1A34216
:103AF000DDD013F8016B16F0030104BF13F8011BAE
:103B0000C91C30090F28DAD113F8010B0F30D6E7A2
:103B100081B0A8B10068C0F3403102290DDAC0F3CA
:103B200043210F2901D00B2907DAC0F3860165294B
:103B3000BCBF00F00300042801DB002000E00120EE
:103B400001B0704750B1022907D801686FF38D01A9
:103B500041F4004141F0530101600120704738B544
:103B600004000D4601D00A2D01DB002032BD207873
:103B700065F3030020701321601C02F031FD15B1C4
:103B8000012D0AD016E020780FF2E47100F0EF006A
:103B900040F0E00020700E2208E020780FF2E07183
:103BA00000F03F0040F0300020700522601C01F062
:103BB00071FC03E0207800F07F002070012032BD0E
:103BC000002800D1704780B5017841F08001017074
:103BD000002242701321801C02F002FD012002BD70
:103BE00038B5040001D1002032BD206840F000400B
:103BF000206000212171601D1F2102F0F1FC04F101
:103C00002405002028740F2104F1350002F0E8FC9F
:103C1000002028700F2104F1250002F0E1FC0120B2
:103C200032BD10B5040001D1002010BD207800F095
:103C30007E00207041F2BA316180201D1D2102F00A
:103C4000CFFC15220FF24071201D01F023FC012052
:103C500010BD2DE9F84F01271446012C824605D1ED
:103C6000012100271AF110021CD11FE01AF11000E7
:103C700008BF00271AD0DAF81000020E531E052BD9
:103C80000DD2050212D0042A18BF052A0ED120F049
:103C90007F40A0F56160DFF8AC26904206D3002794
:103CA000012903D14FF00070CAF8100000230D461F
:103CB0000AEBC3001430012C14D0020012D001789A
:103CC00001F07F010429BCBF417819290ADA817803
:103CD0003D29BCBF0179792904DA19B141790A2952
:103CE00000DC69B90027012D0AD148B103F07F013A
:103CF000017047701E210171877001214171C770E9
:103D00005B1C042BD4DB012C0AF134000ED008B963
:103D1000002718E0C1783D29BCBF42793D2A05DA69
:103D200081781929BCBF0279192A0CDB0027012DE3
:103D300007D130B10178C77001F07F010170877041
:103D40004771012C0BD01AF1400108BF00270FD09A
:103D5000C168DFF8F42521F0004191420ADB002719
:103D6000012D05D11AF140011CBFDFF8E025C2602A
:103D7000012C09D01AF1440108BF00270CD090F99A
:103D800010103031692909D30027012D04D11AF10F
:103D900044011CBF20220274012C0AD01AF14801F0
:103DA00004BF0027012C15D01AF14C010FD10027B8
:103DB00018E0012D0ED11AF148010BD0426922F012
:103DC000804242F0004242F00702426102E0017E7E
:103DD000642909DD0027012D04D11AF14C011CBF13
:103DE00064220276012C07D01AF14D0108BF00278A
:103DF0000AD0417E102909DB0027012D04D11AF1D8
:103E00004D011CBF0A224276012C07D01AF14E0147
:103E100008BF00270AD0817E642909DD0027012D13
:103E200004D11AF14E011CBF64228276012C04D009
:103E30000AF15000FFF76CFE48B90027012D04D1AC
:103E400000210AF15000FFF77DFE012C04D00AF199
:103E50005800FFF75DFE48B90027012D04D101216C
:103E60000AF15800FFF76EFE012C04D00AF1600041
:103E7000FFF74EFE38B90027012D04D102210AF1C7
:103E80006000FFF75FFE4FF00009142000FB09F00F
:103E9000504400F16806012C18BF002E1ED0317866
:103EA00001F00F010A2919DA5FFA89F0814215D170
:103EB000701C13D000F074FAC1B214290EDA00207D
:103EC00000E0401C884211DA002804BF72782B2AD7
:103ED000F7D0731C1B5C303B0A2BF2D30027012D5B
:103EE00004D15FFA89F13046FFF739FE09F1010983
:103EF000B9F10A0FC9DB0AF59870012C18BF002828
:103F00000AF5E4780AF5BA760AF5A4794FF4167B37
:103F100003D09AF83111142906DB0027012D08BFC0
:103F2000FFF74EFE012C0ED0B9F1000F08BF00279D
:103F300013D0D9F80000C0F30741491E3C2902D232
:103F4000000E0A280BDD0027012D06D1B9F1000F64
:103F50001CBFDFF8FC03C9F80000012C0AD01AF5D9
:103F6000A67008BF002712D099F8040000F07F0067
:103F70000A280EDD0027012D09D11AF5A67006D0FA
:103F8000D9F80410852060F30B01C9F80410012C46
:103F90000BD01AF5A87008D099F80C102029BFBFD3
:103FA000307C10283178102908DB0027012D04BF50
:103FB0000AF5A870FFF714FE012C02D01AF5CA709A
:103FC00008D10027012D04BF0AF5CA70FFF729FEAA
:103FD000012C19D01AF5DE7008BF002721D0B06C73
:103FE000DFF8701320F000400A3888423FBFF06CC1
:103FF0000A384FF6F671884206D2306DA0F59670F9
:104000004FF6D46188420ED30027012D09D11AF54D
:10401000DE7006D0DFF84013B164B420F064C6F857
:1040200050B0012C12D0B8F1000F08BF002718D0F3
:10403000B8F800000A3840F24F2188423FBFB8F874
:1040400002003C3840F2CD6188420CD30027012D9C
:1040500007D1B8F1000F04D00A20A8F80000A8F892
:1040600002B0012C0BD01AF5E67008BF002713D060
:1040700098F8040000F01F000A3829280CD3002704
:10408000012D09D11AF5E67006D0D8F80410F420F5
:1040900060F30701C8F804104FF00009DFF8BC22F4
:1040A000DFF8BC324FF60F3C4FF0440E4FF61F0BBB
:1040B0000AF5E870012C18BF002814D0D8F8086061
:1040C00006F00F0104290EDAC6F380210029C6F399
:1040D000031105D1491E06D1360C642E29DA02E0FF
:1040E000C91E052925D90027012D22D10EFB09F66D
:1040F00080191ED05FFA89F6042E1ADA5EB90168BB
:10410000984E43600CEA0101314301608260090965
:10411000090101600DE006680BEA060646F0FA7632
:1041200046F01006066047608760066869F303067C
:10413000066009F10109B9F1040FB9DB012C0AF598
:104140003C700AF53B710AF53A720AF539760AF5C0
:10415000387348F6654C11D00BB9002718E0D3F836
:1041600000E0CEF30E48A8F10108B8F13C0F3EBFC5
:104170001FFA8EFEAEF13C0EE64509D30027012D55
:1041800004D11BB1DFF8E0E1C3F800E0012C0AD054
:104190000EB900270EE0D3F804E02EF0004EAEF189
:1041A0003C0EE64508D30027012D03D116B14FF48C
:1041B00096765E60012C0AD00AB9002712E09E684C
:1041C000C6F30E06143E40F2D53C66450CD30027DC
:1041D000012D07D132B1D3F808A0502262F30F0AA3
:1041E000C3F808A0012C0DD009B9002716E0DA6841
:1041F000C2F307465B2E05DA92B20A3A40F607662A
:10420000B2420DD30027012D08D139B1D96801F090
:10421000FE4141F4341141F01E01D960012C08D057
:1042200008B900270FE0197C01F00F01491E092988
:104230000DD30027012D06D128B11869000900010E
:1042400040F0C1001861012C08BF012000D03846A1
:10425000BDE8F28F10B50146394C20464FF43D724F
:1042600001F028F92046BDE8104000220121F0E4C9
:10427000012201213248ECE480B5022002F007FA65
:1042800010B1BDE80240E5E7BDE80140F0E710B538
:104290002B4C4CF2DE00208000224FF6FE70E080B6
:1042A00001214FF43B7060800520A0602046FFF79D
:1042B000D0FC6188002204F1080002F015FAA08009
:1042C0004FF43D712046BDE8104002F0AFB978B51B
:1042D000040085B030D0254D6068194E286002F08A
:1042E00001FA002002F0D3F938B9012002F0CFF929
:1042F00018B9022002F0CBF920B1FFF7ABFFB0688C
:10430000052801D0FFF7B4FF2168049106F11400DD
:10431000009006F11C01019106F12400029006F1C3
:104320002C010391684602F01CFB002429682046FA
:104330008847641CFF2CF9DB06B070BD000000004C
:1043400004590020712C090040420F0040E2010096
:104350005802140177510100C80000800246F6435C
:10436000B84D7F0D1003E80378000300B4780020F7
:104370002B38363133353334393634313734000065
:1043800031303038360000007777772E736D6172E8
:10439000742D6C6F6361746F722E636F6D0000001B
:1043A00000F10103810704D010F8011B89B18107D6
:1043B000FAD10268B2F10131914311F0803F04BF9C
:1043C00050F8042FF6E710F8011B11B110F8011B8B
:1043D000FBE7C01A70470268531C036011707047F6
:1043E000DFF854057047DFF8540570470FF270503E
:1043F0007047DFF84C050069000E7047DFF8400594
:10440000006920F07F407047DFF8340590F83400F1
:10441000C0097047DFF82805C08E7047DFF8200517
:10442000008F7047DFF8180590F944007047DFF8F7
:104430001005016CC90F012901DB01207047002024
:104440007047DFF8FC04006CB5E0DFF8F40490F886
:10445000481001F00101012901DB01207047002013
:104460007047DFF8DC04816CC1F34000012801DBF8
:104470000120704700207047DFF8C404816CC1F34D
:104480008000012801DB0120704700207047DFF821
:10449000B004816CC90F012901DB012070470020A5
:1044A0007047DFF89C04816CC1F38070012801DB48
:1044B0000120704700207047DFF8840490F84C001A
:1044C0007047DFF87C0490F84D007047DFF8700407
:1044D00090F84E00704701460020DFF8642419B1BF
:1044E000022907D003D3704702F15000704702F150
:1044F0005800704702F16000704702460020012A10
:1045000081B0DFF83C3404D01CD3032A10D00CD384
:1045100018E003F15002491E0DD0491E012911D89F
:104520001268C2F3403169B909E003F15802F2E7B9
:1045300003F16002EFE71268C2F3403111B1500A93
:1045400000F00F0001B07047DFF8F403D0F850110D
:10455000C90F012901DB0120704700207047DFF8F7
:10456000E4037047DFF8E0037047DFF8E0037047CB
:10457000DFF8DC13087908B10878C0097047DFF864
:10458000D4037047DFF8B803B0F896017047DFF83E
:10459000B00390F89411012901D101207047002047
:1045A0007047DFF89C03D0F8BC01C00F7047DFF8FC
:1045B0009003D0F8BC0120F000407047DFF8800382
:1045C000D0F8C0017047DFF87803D0F8C401704715
:1045D000DFF86C03B0F8C8017047DFF86403B0F887
:1045E000CA017047F8B504460D46FFF7D9FE20B35F
:1045F00000261421DFF848037143471897F8680034
:10460000C00917D007F16900FFF7CAFEA8B121461B
:1046100007F1690000F0CAFB88B907F1690120467B
:1046200000F0C4FB58B9214607F1690000F0D6FB41
:10463000002804D0761C092EDBD30020F2BD2E709A
:104640000120F2BD1421DFF8F8224843104490F80D
:104650006800C00970471421DFF8E4224843104481
:1046600090F868005DE11421DFF8D422484310443B
:1046700090F86800400955E11421DFF8C42248434E
:10468000104490F8680000094CE11421AC4A4843FA
:1046900010446930704781B0142300E0401CC1B25F
:1046A00009290ADAA64A5943114491F868100A0602
:1046B000F4D58906F2D5C0B200E0092001B07047F8
:1046C000A5487047A5490878C0091EBF487800284A
:1046D000012070479A4890F8310170479848D0F807
:1046E000480180B270479648D0F8480109E19448E3
:1046F000D0F84801000E70479148D0F84C11C1F332
:10470000C010012801DB01207047002070478C4851
:1047100090F84C0100F07F0070478948D0F84C11A8
:10472000C1F30020012801DB012070470020704701
:104730008348D0F84C11C1F34020012801DB01204F
:104740007047002070477E48D0F84C11C1F380209C
:10475000012801DB01207047002070477848D0F81D
:104760004C11C1F3C020012801DB0120704700205B
:1047700070477348D0F8CC11C1F38010012801DBD9
:1047800001207047002070476D48D0F8CC11C1F36C
:10479000C010012801DB01207047002070476848E5
:1047A000D0F8CC11C1F34010012801DB0120704783
:1047B00000207047624890F8CC0100F01F0070475D
:1047C00000F0030044215E4A48431044D0F8D02151
:1047D000C2F30020012801DB012070470020704750
:1047E00000F003004421564A48431044D0F8D02139
:1047F000C2F38020012801DB0120704700207047B0
:1048000000F0030044214E4A48431044D0F8D02120
:10481000C2F30310704700F003004421484A4843A4
:10482000104400F5EA70704700F003004421444A48
:1048300048431044D0F8D021C2F34020012801DBC6
:10484000012070470020704700F0030044213C4ADB
:1048500048431044D0F8D001000C704700F003002A
:104860004421374A48431044D0F8D801704700F03B
:1048700003004421324A48431044D0F8D401704721
:104880002F48D0F8E012C90F012901DB0120704741
:10489000002070472A48D0F8E00280B270472848CC
:1048A000D0F8E0024000400C70472548D0F8E412F0
:1048B000C90F012901DB0120704700207047204803
:1048C000D0F8E40277E61E48D0F8E812C1F3C03011
:1048D000012801DB01207047002070471848D0F8FC
:1048E000E802C0F30E0070471548D0F8EC12C90F6B
:1048F000012901DB01207047002070471048D0F8E3
:10490000EC020002000E70470D48D0F8EC02C0B275
:1049100070470B48D0F8F002C00903E00848D0F80F
:10492000F002800900F001007047054890F8F0029D
:1049300000F00F0070470000040518200C750020DF
:1049400004590020595A0020795A0020895A002021
:10495000985A00209C5A0020365A0020345A0020D1
:1049600076312E30302E30332E313300F8B5524DA3
:1049700004462868401C286028272E6828790128CA
:1049800026D100262E71002005F10C0C07FB00FE3D
:10499000401C4CF80E601428F8DBA819C260038292
:1049A000C1612030142101F01BFE2046FFF7F8FC06
:1049B0001428C8BF14200246A8192146203000F050
:1049C00069FD01F0F8FFA919486100208861F2BD76
:1049D0004FF0000C07FB0CF605F10C008059002885
:1049E000DBD00CF1010CBCF1140FF3DB4FF0FF3006
:1049F000F2BDF8B50D4600218DF8001016461F4691
:104A0000684602F083FA384603F04AF9040005D0FC
:104A10003B46224631462846FFF7A8FF9DF8000096
:104A200002F091FA2046F2BD1CB504001ED0002110
:104A30008DF80010684602F069FA204603F008FD80
:104A40001D480168491E01600021026828234B436C
:104A5000C218D368A34203D0491C1429F6DB01E035
:104A60000020D0609DF8000002F06DFA13BD38B54B
:104A70001429044600DC14B94FF0FF3032BD282061
:104A80000D4A41435518E86880B101F094FF696907
:104A9000884226BF6969401A4FF0FF30A86128227A
:104AA00005F10C01204600F0F5FC012032BD00BFED
:104AB00001480068704700003C3400205FEA000CA9
:104AC00080EA01039B0715D1830706D011F8013B4B
:104AD00000F8013BB3B18307F8D10A68B2F10133A2
:104AE00023EA020313F0803F02BF40F8042B51F881
:104AF000042FF3E711F8013B00F8013B13B111F863
:104B0000013BF9E760467047A0F130020A2A38BF3E
:104B100030380AD3A0F16103062B38BF573804D3CD
:104B2000A0F14101062902D23738C0B27047FF20F8
:104B3000704770B504460025207800262D2805D141
:104B4000012602E00A2101FB0505641C207840B122
:104B50002E28FAD0FFF7D8FF0A28F3DB4FF0FF30FA
:104B600070BD0EB1ED436D1C284670BD2DE9FC41B2
:104B700007460021002500264FF47A780A24387869
:104B80004C43A8B12E2804D108FB01F500210026D2
:104B900005E0FFF7B9FF0A2811DA0119761C7F1C1E
:104BA000ECE76420414300E021464819BDE8F68166
:104BB000F6B2012EF5D002D3032EF6D0F4D34FF087
:104BC000FF30F3E7F8B504460D46002600272078AD
:104BD00060B1202806D0FFF797FF102806DA00EB17
:104BE00007170126641CF2E70020F2BD002EFBD05F
:104BF00035E000E0401C017819B131390829F9D2BB
:104C000070470020704710B50378002200E0521C66
:104C10008A420BDA002A08BF2B2BF8D0845C303C88
:104C20000A2CF4D300218154002010BD012010BDB6
:104C3000F8B504460D4600260027207868B12028E4
:104C400007D0FFF761FF0A2807DA0A2101FB0707EF
:104C50000126641CF1E70020F2BD002EFBD02F607E
:104C6000601CF2BD00000000FEB514460B2C0D4682
:104C700001DB0020FEBD00BF41A292E8C8006946EA
:104C800081E8C80000260A210A23B0FBF3F301FBE8
:104C900013001DF80000A855761C1800F4D1601C04
:104CA000871B864205D230223946A81903F0D2FB71
:104CB000BE190020A855691E05E0371A2B5CCA5D95
:104CC0002A54CB55401CB0EB560FF6D35CB1AA1951
:104CD0000020507002E08B5CAB54401C321AA042A2
:104CE000F9D32E20A8542846FEBD30380A2880412A
:104CF000C00F704718B5044685B0084600226946C3
:104D0000FFF7B2FF6946204600F040F806B010BD3C
:104D100010B500F02DF81CBF0278002A01D1002048
:104D200010BD044600E0641C227832B18A42FAD1F8
:104D300000202070601C186010BD0021196010BD9B
:104D400010B500F015F81CBF0278002A01D1002030
:104D500010BD044600E0641C227832B18A42FAD1C8
:104D600000212170611C196010BD0020186010BD69
:104D7000024B00B91868002870470000B078002086
:104D8000303132333435363738390000034600E0ED
:104D90005B1C1A78002AFBD111F801CB83F800C004
:104DA00013F801CBBCF1000FF6D1704770B50D7848
:104DB0008DB970BD11F8013F1678B34206D0401C82
:104DC000294601F0E3FB40B10146224612F8013FBB
:104DD000002BEFD170BD0C46F2E770BD81EA0003F5
:104DE0009B0717D1820707D010F8012B11F8013B60
:104DF000BAB19A42F6D014E002680B689A42A2F166
:104E0000013301BF934313F0803F50F8042F51F852
:104E1000043FF3D010F8012B11F8013B0AB19A427C
:104E2000F8D0D01A7047FEE70870000A48700220D8
:104E300070470870020A4A70020C000EC8708A702F
:104E40000420704703F09BBC03F0A3BC03F07BBCC1
:104E500003F08BBC80B503F0FBFC012818BF0020D9
:104E600002BD80B503F039FD58B1002000906846BE
:104E700003F04CFD00984FF4616101F0A0FD00B11A
:104E8000012002BD03F029BD03F040BD03F030BD99
:104E900003F047BD03F04EBD03F049BE38B50546EB
:104EA00003F012FD040001D1002032BD60682946E4
:104EB000FFF7BFFFA068291DFFF7BBFFA08905F121
:104EC0000801FFF7B1FFE08905F10A01FFF7ACFF28
:104ED000208A05F10C01FFF7A7FF608A05F10E019A
:104EE000FFF7A2FF606905F11001FFF7A2FF207E26
:104EF0002875152032BD04F0A8B903F0A5BD2E49D0
:104F0000496882B009B102B0084702B0704710B5D5
:104F100002282FD1FFF7F3FF03F0D6FC04466168A7
:104F2000A06804F00FF910B10420FFF7E8FF6069F2
:104F300004F0F6F810B10620FFF7E1FF04F09FF946
:104F400010B904F087F9C0B1A08904F076F90446DD
:104F500004F095F930B1204604F093F910B1052022
:104F6000FFF7CDFF04F076F938B1204604F075F96B
:104F700018B10720BDE81040C1E710BD80B503F0AF
:104F800080FBBDE8014003F053BC1CB50A4C2178FE
:104F900089B9006809496060019101A803F00FFC1C
:104FA00007490091684604F0B7F903F054FD04F096
:104FB0008EF90120207013BD7C78002065880200E6
:104FC0000F4F0200DFF83C0480694008FFE700F063
:104FD00001007047DFF82C0480787047DFF8241454
:104FE000087810B100220A70012070470146DFF8EE
:104FF0001404C28B914204E00146DFF80804C28B1E
:105000008A428041C00F70471E2809D1DFF8F8039B
:105010000068C0F3807018B1DFF8E813012008734E
:10502000704710B5DFF8DC13CA6A01F1240302F0FF
:10503000030423F81400032A0BD90020002301F1F4
:10504000240434F8134020185B1C032BF7D9000408
:10505000800C521CCA62C8830020CA8B41F2040330
:105060009A4288BF642033D80A24B2F57A6F07D9F0
:105070009A1A62436420B2FBF0F0C0F1640027E0AA
:1050800040F674639A420AD9C2F57A6232204243EA
:105090004FF49673B2FBF3F0C0F15A0018E0B2F58A
:1050A000616F08D99A1A1E2042436423B2FBF3F0C1
:1050B000C0F128000CE040F6E5439A4208D3C2F55F
:1050C000616262434FF49670B2FBF0F0C0F10A00E7
:1050D0000A7E930704D40A8CC4B2A24238BF104699
:1050E000887088780884BDE8104004F043B901282E
:1050F00007D002D303280CD007D3B320002100220D
:105100000AE03B200021012206E009203C21022286
:1051100002E001200A210322BA4B19720021D97141
:105120009A71D870704710B5B64C207E810735D57E
:10513000A07B18BBA17863291FDB6069401C012894
:10514000606102D101F037FC20611E21206901F06D
:1051500036FC98B90120A0730020607301F02BFC8D
:105160002061A069410709D440F00400A061152026
:1051700004F050FB04F070F900E06061207EC1078C
:105180001DD5FFF717FBA178401D884217DAA069EB
:1051900040084000A06104F0A0F910E004F063F9B9
:1051A000207EC1070BD4FFF705FBA178814206D210
:1051B0000120A06104F087F9142004F02BFBA07BF0
:1051C00060B1A1785A2905DB60694FF4616101F093
:1051D000F6FB18B90020A073012060730120207035
:1051E000A07804F0C1FCA178BDE8104001220020A5
:1051F00004F0F5BE10B5834C207B70B3A16988071D
:1052000018D4A07B00281DBF41F00401A161152026
:10521000122004F0FFFAA06940F00200A06104F03F
:1052200029F901220221012004F0D9FEBDE8104035
:1052300004F067BE74480068C0F3807068B92073DA
:10524000A06104F028F9132004F0E4FABDE810404E
:1052500000220221012004F0C2BE10BD70B5694CCD
:105260006A4D207F4FF0004618B1022815D00FD3A9
:105270001BE02079411C2171E178814217D204F0B2
:1052800097FFA0B12E60012020770020207170BD13
:1052900004F0A9FF0220207770BDFFF744FF002033
:1052A0002077607B18B16E6070BD0021217770BDE2
:1052B00080B55449087A38B1CA79531CCB719042F1
:1052C0003CBF0020FFF713FFFFF794FFBDE801404C
:1052D000C4E700002DE9F84F4FF0000AD346494CCF
:1052E0004B4DDFF830914C4E484F4FF0004803E0F3
:1052F0004FF0000B05F012F85046142800F1010A97
:105300004FD2C7F8008004F06EFFC7F80480304623
:10531000296800BF00BF00BF00BF00BF00BF00BFC3
:1053200000BF49452FD000BF00BF00BF00BF00BF76
:1053300000BF00BF00BF00BF00BF00BF00BF00BF75
:1053400000BF00BF00BF00BF00BF00BF00BF00BF65
:1053500000BF00BF00BF00BF00BF00BF00BF00BF55
:1053600000BF00BF00BF00BF00BF00BF00BF00BF45
:1053700000BF00BF00BF00BF00BF00BF00BF00BF35
:1053800000BF00BF00BF401EC3D1BFF35F8FA07836
:105390001528ADDB0BF1010BBBF1060FAAD30120E1
:1053A00000E00020BDE8F28F1CB5164C1C21204601
:1053B000FEF76EFB012060731848019001A804F00D
:1053C0005FFF00BF18A0164A016800911E206946C1
:1053D00005F088F808B105F0F5F901211E2005F067
:1053E000CDF81049032008604FF0004107480160E4
:1053F0008068C0F3807008B1012020730320FFF79C
:1054000076FE13BDC82E0020100500500805005080
:10541000A85100200024F400A086010023500200BF
:10542000095002007C0700500300000005F04ABA52
:1054300070B50C461546144E01460622304600F063
:1054400029F8B460F56001F0B2FA30613046BDE889
:10545000704005F0C9B90C4AD368036090680860D1
:105460000120704709490968002918BF084770479B
:1054700080B500680549086068460549009105F057
:1054800051FA01BD0000000038760020D0780020DD
:105490006554020062B38B0708D0521E11F8013B1D
:1054A00000F8013B00F024808B07F6D1830740F021
:1054B000208000BF103A07D330B4B1E83810103A5A
:1054C000A0E83810F9D230BC530724BFB1E8081067
:1054D000A0E8081044BF51F8043B40F8043BD20751
:1054E00024BF31F8022B20F8022B44BF0B78037045
:1054F0007047121F17D35B0009D151F8043B20F805
:10550000023B1B0C121F20F8023BF6D20BE051F8B5
:10551000043B00F8013B1B0A20F8023B1B0C121F46
:1055200000F8013BF3D238BF121D521E24BF11F800
:10553000013B00F8013BF8D87047FEE70CB430B5EA
:1055400083B0044606A802900A46002501940095FF
:1055500002AB01A9084878441E3005F0EDF9019925
:105560000D7000284EBF04460198041B204603B06E
:1055700030BC5DF80CFB00BF5FEEFFFF0146087812
:10558000497840EA01207047014608784A788B78CC
:10559000C97840EA022040EA034040EA01607047CF
:1055A00010B5040012D0FEF7FBFEC0B214280DDACD
:1055B0002278002100E0491C814209DA002908BF55
:1055C0002B2AF8D0635C303B0A2BF4D3002010BDAB
:1055D000012010BD10B50446FEF7E2FE0F2806D1EB
:1055E0002146BDE81040DFF8680BFFF767BA10BD31
:1055F00010B50446FEF7D4FE142806D12146BDE8B6
:105600001040DFF8500BFFF759BA10BD21F07F4171
:1056100041EA00610A0E10B5531E052B15D20C028B
:105620000BD0042A18BF052A07D121F07F40A0F52E
:105630006160DFF8242B904207D2DFF8202B116144
:105640000A2000F04CF8012010BD002010BD80B5EC
:10565000DFF8081BDFF8742BC8600A209BE03EB51A
:105660008DF80310069C9DF803508DF800008DF80E
:1056700002208DF805308DF804403D2DBCBF9DF80B
:1056800005503D2D05DA9DF80250192DB8BF192C93
:1056900001DB00203EBDDFF8385BE97000F08000E0
:1056A000AA7028706B712C710C2000F018F8012082
:1056B0003EBD80B500F1300169298DF8000001D3AD
:1056C000002002BDDFF8941A91F94420824204D0F0
:1056D00081F844000E2000F002F8012002BDDFF83E
:1056E000EC1A0A68104721F00041DFF8E82A9142DD
:1056F00001DB0020704741EAC071DFF8600A0164F5
:1057000001207047DFF8541A0A6C60F3DF720A64F4
:105710000120704780B5DFF8442A936C5B080100D4
:1057200018BF012141EA4303DFF8601B93640F2097
:1057300016E080B500F018F822F0040218BF01232B
:1057400042EA830208E080B500F00EF822F002027F
:1057500018BF012342EA43028A640F20DFF86C1A63
:105760000A689047012002BDDFF8F0198A6C030037
:10577000704780B5DFF8E4190200886C18BF012279
:1057800062F3DF708864E8E780B5DFF8D019DFF8EE
:105790003C2A88640F2011688847012002BD38B573
:1057A0006528044601DB002032BDDFF8B05995F8CA
:1057B0004C00A04203D000F02EF81020904785F84E
:1057C0004C40012032BD38B51028044601DB0020D2
:1057D00032BDDFF8885995F84D00A04203D000F0A3
:1057E0001AF81120904785F84D40012032BD38B598
:1057F0006528044601DB002032BDDFF8605995F8CA
:105800004E00A04203D000F006F81220904785F821
:105810004E40012032BDDFF8741A0A68704780B527
:1058200001001ED00A7802F07F000428BCBF4B782C
:10583000192B16DA88783D28BCBF0879792810DA48
:1058400078B148790B280CDA58B1DFF8100902F06A
:105850007F0200EBC20014300822FFF71BFE01207C
:1058600002BD002002BD1CB5022A04462DD1084607
:10587000FFF78AFEADF800000099C1F3403102291C
:1058800023DA0099C1F343210F2901D00B291CDA37
:105890000099C1F386016529BEBF009901F003019B
:1058A000042912DA202CDFF8E81906D10880FFF766
:1058B000B2FF20469047012016BD212C08BF088169
:1058C000F5D0222C08BF0882F1D0002016BD10B5FB
:1058D000DFF888180A6D0024022808BF42F43E420F
:1058E00005D0012805D122F4005242F41E420A6577
:1058F0000124FFF790FF20209047204610BD002094
:105900007047DFF858180200D1F8500118BF012283
:1059100062F3DF70C1F8500101207047F8B5040050
:10592000DFF8385805F5AA7602D1307070700BE0B8
:10593000FEF736FD0746202F00D31FE0214605F273
:105940005510FFF7BBF837700120F2BDF8B5040021
:10595000DFF8085805F5BA7602D1307070700BE0A8
:10596000FEF71EFD0746102F00D307E0214605F283
:105970007510FFF7A3F837700120F2BD00203070DA
:10598000F2BDF8B50400DFF8D45705F5C27602D1B0
:10599000307070700BE0FEF703FD0746102F00D348
:1059A000ECE7214605F28510FFF788F837700120F3
:1059B000F2BD10B50024002812BF01280124FFF712
:1059C000A0FF204610BD38B50C461546FFF7A6FFD0
:1059D00038B12046FFF7BAFF18B12846FFF7D1FFCC
:1059E00008B9002032BD012032BD38B500F033F8CF
:1059F00003F5AA7502D1002028800FE008B1202C01
:105A000001DB002032BD34B10146224603F25510BD
:105A1000FFF740FD01E0002068702C70012032BDCE
:105A200038B500F018F803F5BA7502D100202880C7
:105A30000FE008B1102C01DB002032BD34B101466B
:105A4000224603F27510FFF725FD01E00020687083
:105A50002C70012032BD0C46DFF800372100704762
:105A600038B5FFF7F8FF03F5C27502D10020288092
:105A70000FE008B1102C01DB002032BD34B101462B
:105A8000224603F28510FFF705FD01E00020687053
:105A90002C70012032BD2DE9F041140080460E46E5
:105AA0001F4604D02046FEF77BFC1E2801D30020B1
:105AB00018E0DFF8A80600F5CA7500F5CC70297863
:105AC00001F07F0141EAC81101F0FE010E432E7082
:105AD0002146FEF7F3FFDFF8B4176F8043200A6812
:105AE00090470120BDE8F081F8B504460D46E81E58
:105AF0001D2800D20CB90020F2BD2778601CFFF7EA
:105B00003DFDDFF8581601F5CA76ED1E377070803E
:105B100001F5CC771D213846FDF7BAFFEDB22DB166
:105B20002A46E11C3846FFF7B5FC01E00020307141
:105B3000002078554320FFF7D2FD0120F2BD21F06F
:105B4000004180B5A1F10A02DFF8103A9A4201D370
:105B5000002002BD41EAC071DFF80006C0F8BC11A8
:105B60004420FBE580B5A0F10A014FF6F6729142A0
:105B700001D3002002BDDFF8E425DFF81017C2F8DA
:105B8000C0014420ECE580B5A0F596714FF6D462D3
:105B9000914201D3002002BDDFF8C025DFF8EC16EA
:105BA000C2F8C4014420DBE5A0F10A0240F24F2311
:105BB00080B59A423EBFA1F13C0240F2CD639A42C9
:105BC00001D3002002BDDFF89829518010804520C4
:105BD000C4E585B00A289DF8001060F303018DF834
:105BE0000010A8BF00200DDA9DF8002002F00F027F
:105BF0001420DFF8681542438818002100F8681F58
:105C00004170012005B070472DE9F0410A28074690
:105C10000C461546984603DA4046FFF7C1FC08B922
:105C2000002027E039461420DFF83025414356187C
:105C3000002086F8680007F00F07802086F86800CB
:105C4000200018BF0120800140F0800086F8680025
:105C5000290000F0D00018BF012140EA411007439D
:105C600086F8687000F049F8414606F16900FEF7D1
:105C700025FF0120BDE8F08178B5040085B00D4610
:105C800025D0280023D0142D21DA20788DF80000AB
:105C900000F00F0613210DF1010000F0A1FC6D1EB4
:105CA0002A46611C0DF10100FFF7F4FB9DF800008E
:105CB00000F00F000A280ADA9DF8000000F00F003B
:105CC000B04204D10DF10100FFF76AFC08B90020D1
:105CD00011E01420DFF8841446430E449DF80000C0
:105CE00086F8680000F009F82A46611C06F1690090
:105CF000FFF7D0FB012006B070BD132106F169004B
:105D000000F06EBCF8B5DFF8545405F598760C46F3
:105D1000377820B907F07F073770707010E024B132
:105D20002046FEF73DFB142801D30020F2BD707021
:105D300047F080073770214605F59970FEF7BEFEE3
:105D40000120F2BD7CB508B1152901DB002076BD2C
:105D50004C1EDFF80864017806F5987506F599730E
:105D60002970E1B2E1B1411C6C70E2B21846FFF754
:105D700091FBE0B2304400F5987001780D2918BF0E
:105D80000A2903D100210170A01E07E041780D29E6
:105D900018BF0A290AD100214170601E687005E011
:105DA000002068701321184600F01AFC012076BD0F
:105DB000DFF8A813D1F8482160F30F020BE00100CF
:105DC00001D03D2801DB00207047DFF89013D1F8A7
:105DD000482160F31742C1F84821012070470B2881
:105DE00001DB00207047DFF87413D1F8482160F31D
:105DF0001F62F0E710B5040001D0042901D0002093
:105E000010BDFFF7BBFBA178E278090401F47F0322
:105E100043EA0263C3F30744641E3C2CEFD21B0E1B
:105E20000B2BECDA0843DFF8341340EA0260C1F8C8
:105E30004801012010BD0B2901DB00207047C74A33
:105E4000D2F84C3160F3C7131846C2F84C3161F3F5
:105E50000600C2F84C0101207047C049D1F84C211E
:105E600060F3082204E0BD49D1F84C2160F34922D7
:105E7000C1F84C2101207047B849D1F84C2160F39A
:105E80008A22F5E7B549D1F84C2160F3CB22EFE740
:105E900080B5042905D1FFF777FB00F07F010B29BE
:105EA00001DB002002BDAD4AC2F84C01012002BD59
:105EB0000128AA4A0BD1332901DA0A2901DA002084
:105EC0007047D2F8CC3161F30403C2F8CC31D2F878
:105ED000CC1160F34511C2F8CC11012070479F49E5
:105EE000D1F8CC2160F3861204E09C49D1F8CC2192
:105EF00060F3C712C1F8CC2101207047012904D1F9
:105F0000007800F01F01332901DB00207047DFF823
:105F10005416086001207047042801DB00207047F8
:105F200044218E4A48431044D0F8D01121F48071A6
:105F3000C0F8D01101207047F0B5032891B032DAD3
:105F4000009F179E169D01954FF6F0442740441C74
:105F500004F00F040902274301F48071520239430F
:105F600002F40072114341EA034121F49E6141F0C1
:105F7000100100910296009901F00F01032912DC33
:105F80000099090C64290EDB4421744A48431044EB
:105F90000099C0F8D011FF22102100F5EA7002F03C
:105FA00059FA012000E0002011B0F0BDF0B5044620
:105FB0000D46281F412891B02BD254B3FF22102147
:105FC00001A800F0EFFA2046FFF7DEFA009000F09B
:105FD0000F0004281DDA0098C0F30310C0002D1F25
:105FE000A84216D10098C0F3802000280098C0F382
:105FF00003100CD101280CD10098000C64384CF22D
:10600000ED21884205D200250426002714E003284C
:10601000F9DA002023E0A019FFF7B6FA01A97F1CE6
:1060200041F825006D1C201D3044FFF7ADFA01A991
:10603000083641F825006D1C0098C0F30310874214
:10604000E9D3009C442204F00F04444B12FB04F4F7
:106050001819694600F5E870FFF71CFA012011B025
:10606000F0BD70B53D4BD3F8E04208B3080005D051
:10607000A0F13C0548F66546B54203D2150003D0B1
:106080003D2A01DB002070BD44F00044C3F8E0422B
:1060900029B1D3F8E01260F30F01C3F8E012100049
:1060A0000AD0D3F8E00262F31E40C3F8E00203E036
:1060B00024F00044C3F8E042012070BD80B50429FB
:1060C0000FD1FFF761FAC10F01290CDB82B23C3A14
:1060D00048F665418A423EBFC0F30E41491E3C2945
:1060E00001D3002002BDDFF8801408605220FFF7C2
:1060F00035BB1A4A60B1A1F13C0048F665439842AD
:1061000001D30020704741F00041C2F8E41205E0DD
:10611000D2F8E40220F00040C2F8E4020120704707
:1061200080B504290BD1FFF72FFAC10F012908DB35
:1061300020F000423C3A48F665418A4201D30020F3
:1061400002BDDFF8281408605320FFF707BB0000EA
:106150000C7500201B750020712C090004590020CB
:10616000DFF80C2490B1A1F1140040F2D53398422D
:1061700001D300207047D2F8E80261F30E00C2F8A4
:10618000E802D2F8E80240F4004003E0D2F8E80266
:1061900020F40040C2F8E8020120704780B50229CF
:1061A0000CD1FFF7EBF9C0F3C031012908DBC0F3D4
:1061B0000E01143940F2D532914201D3002002BDC4
:1061C000DFF8B0130860012002BD0000B4780020A1
:1061D0003859002040420F0070B5DFF89433D3F8EF
:1061E000EC4208B3080001D05B2907DA100007D0A1
:1061F000A2F10A0540F60766B54201D3002070BD42
:1062000044F00044C3F8EC420C0005D0D3F8EC4253
:1062100061F31744C3F8EC4252B1D3F8EC1262F3C5
:106220000F01C3F8EC1203E024F00044C3F8EC4281
:10623000012070BD80B504290ED1FFF7A5F9C10F6B
:1062400001290BDBC0F307415B2905DA81B20A396A
:1062500040F60762914201D3002002BDDFF8181317
:1062600008605520FFF77ABA0020704780B50129F1
:1062700005D1007800F00F01491E092901D3002043
:1062800002BDBE4908605620FFF768BAB478002006
:10629000545900202DE9F04F85B000250124DFF886
:1062A000E08204908946C1E0052F08D100F06AF928
:1062B00020F07F41000EFFF7A9F900280DD100243E
:1062C000FDF7E5FF204605B0BDE8F08F052FF6D1BC
:1062D00000F058F9FFF7BBF9002840F0A180EEE785
:1062E000062FECD1B0788DF80400F1788DF8071006
:1062F00032798DF8062073798DF80930B0798DF8F0
:10630000080000909DF80400FFF7A9F9E4E7052FC5
:10631000D5D100F037F920F00041C00FFFF7E3F9C5
:10632000DAE7022FCBD196F90200FFF7C2F9D3E7E3
:10633000052FC4D100F026F9FFF726FACCE7022F8B
:10634000BDD1B078FFF72BFAC6E7022FB7D1B078EE
:10635000FFF739FAC0E7022FB1D1B078FFF747FA5B
:10636000BAE7072FABD1B0788DF80000F1788DF83F
:10637000011030798DF8020070798DF80300B07942
:106380008DF80400F0798DF805006846FFF747FAAC
:10639000A2E7CAB2B11CFFF766FA40E0C9B2B01C6E
:1063A000FFF723FB3BE0C9B2B01CFFF739FB36E037
:1063B000C9B2B01CFFF754FB31E0C9B2B01CFFF703
:1063C00093FB2CE00D2F25D100F0DCF8044644456A
:1063D0006AEB0A0A6FEA0A004FEAD07AB01DFFF7AB
:1063E000D3F8834606F10A00FFF7CEF8064624F0FC
:1063F00000415046FFF7A3FB00280BD05846FFF79B
:10640000B1FB002806D03046FFF7BDFB002818BFBF
:10641000012408D153E7C9B2B01CFFF727FF044697
:10642000002C3FF44DAF7D196D1CADB24D45BFF64C
:1064300047AF0498461937787078EA19521C91458D
:10644000FFF63EAF791E09283FF440AF0A283FF41B
:106450002BAF0B2885D00C283FF442AF0D283FF41A
:1064600056AF0E283FF45DAF0F283FF461AF102800
:106470003FF465AF11283FF468AF12283FF46BAFCB
:1064800020281CBF212822283FF483AF302832D097
:10649000312835D0322838D033283BD040283FF43B
:1064A0007DAF41283FF47FAF42283FF481AF4328BE
:1064B0003FF483AF442885D045280ED050282ED0F5
:1064C000512831D0522834D0532837D054283AD0CC
:1064D00055283DD056289ED0F1E6052FFCD1B01CA2
:1064E000FFF74CF80446301DFFF748F801462046F8
:1064F000FFF75AFB93E7C9B2B01CFFF7BDFB8EE76D
:10650000C9B2B01CFFF71EFC89E7C9B2B01CFFF787
:1065100071FC84E7C9B2B01CFFF7BAFC7FE7C9B2CF
:10652000B01CFFF7EBFC7AE7C9B2B01CFFF73EFDE9
:1065300075E7C9B2B01CFFF7C1FD70E7C9B2B01C66
:10654000FFF7EEFD6BE7C9B2B01CFFF727FE66E769
:10655000C9B2B01CFFF76EFE61E700007751010081
:10656000CC5A0020D05A0020E45B0020E85B0020D9
:1065700004590020EC5B0020F05B0020F45B00205D
:1065800001000080B01CFEF7FFBFFEE70278C9B231
:106590008A421AB11CBF10F8012FF9E718BF00207A
:1065A0007047FEE762F30F2262F31F4200B500BF9F
:1065B000130096469446103928BFA0E80C50FAD82C
:1065C0005FEA417C28BF0CC048BF40F8042BC907D4
:1065D00028BF20F8022B48BF00F8012B00BDFEE7C2
:1065E000002201F03BBFFEE70078002800D0704792
:1065F0007CB5D1B9394C2178B9B12070012000F0B7
:1066000046F890B1364D2E6806F5805600230122DB
:106610003146284605F0DDF90020009031466368D8
:106620002A689BB2284605F095F973BDF8B52C4E43
:10663000376805460C4638882988884202BFB888E2
:10664000A98888420FD179886888814202BFF8887A
:10665000EA88904207D1002207F1200000F044F8B8
:10666000B988814212D0002301223946304605F014
:10667000B0F900200090A40823462A463946304647
:1066800005F068F91548012144600170F1BD10B5AD
:10669000022820DC10B91248006807E0012803BF77
:1066A0000F49086800F580504FF4FE2004466188C9
:1066B00000291CBF4FF6FF7399420CD040F20143F2
:1066C000994208DA0022083000F00EF8A1888142D1
:1066D00001D1204610BD002010BD0000247800200C
:1066E000B451002005F0DDB870B592B25FF0000340
:1066F00007A408E0C65C95B286EA252634F8165051
:1067000085EA02225B1C8B42F4D390B270BD00007C
:1067100000002110422063308440A550C660E7701D
:10672000088129914AA16BB18CC1ADD1CEE1EFF1C5
:106730003112100273325222B5529442F772D6626D
:10674000399318837BB35AA3BDD39CC3FFF3DEE315
