:020000040001F9
:1090000078620020EDDC0200BBC20100C3C2010097
:10901000FBCD01003FD00100F3D9010000000000AA
:1090200000000000000000000000000027F1010027
:1090300043F3010000000000931E020073280200A9
:109040001BA70200FF4C0200557C020007510200E2
:10905000EB550200BF660200ADFC01002970020062
:10906000A36B0200C76B0200DB7C020055D102003B
:10907000DBD30200E7D30200BBE00200BDE0020048
:10908000BFE0020095050200C1E00200C3E002005B
:10909000C105020025CE020015320200C5E0020023
:1090A000C7E00200C9E00200CBE00200CDE0020010
:1090B000CFE00200D1E0020000000000000000004C
:1090C000D3E00200D5E00200D7E00200D9E00200C0
:1090D000DBE00200DDE00200DFE002000000000053
:1090E0000000000000000000000000000000000080
:1090F0000000000000000000000000000000000070
:10910000000000000000000000000000000000005F
:10911000000000000000000000000000000000004F
:10912000000000000000000000000000000000003F
:10913000000000000000000000000000000000002F
:10914000000000000000000000000000000000001F
:10915000000000000000000000000000000000000F
:1091600000000000000000000000000000000000FF
:1091700000000000000000000000000000000000EF
:1091800000000000000000000000000000000000DF
:1091900000000000000000000000000000000000CF
:1091A00000000000000000000000000000000000BF
:1091B00000000000000000000000000000000000AF
:1091C000000000000000000000000000000000009F
:1091D000000000000000000000000000000000008F
:1091E000000000000000000000000000000000007F
:1091F000000000000000000000000000000000006F
:1092000000F5E0700268914203D343681A4491422A
:1092100002D380680028F5D17047DFF86C17086822
:1092200090B94FF4805048604FF480324FF0FF30D7
:10923000C86008610420DFF854378A604861C3F8C9
:10924000BC01DFF84C0708600120704701F10803FA
:1092500013F0070F0EBF0023C3F1080303F0070349
:109260001944D21A8161C26042F001034B60091DAA
:109270004FF0280C41F802C0DFF80C271369C361D6
:1092800070472DE9FC4B074601F1080010F0070F6D
:109290000FBF8946C0F1080000F0070001EB00098C
:1092A00002F1080111F0070F06D002F10800C0F129
:1092B000080000F0070002441546A5EB090009EB81
:1092C0000306A0EB030B43F00303C9F80430AE42DE
:1092D00028BF01F005FA2879C10758BF01F000FA4C
:1092E000BBF1100F38BF01F0FBF9B869854208D116
:1092F000F9688B44C7F80CB0BE614BF00100706098
:1093000051E1786985420AD1B9688B44C7F808B041
:109310007E614BF00100706046F80BB043E1686875
:1093200000F00301012940F0AC80C008C0000190AA
:10933000C0081F2839D8AC68D5F80C800090454586
:1093400008BF01F0CDF9A54208BF01F0C9F968686E
:109350000099C008C000B0EBC10F18BF01F0C0F900
:10936000009907F1280000EBC100844206D039695A
:109370008C42C0F08180E268AA427DD1A04506D12E
:1093800000983968012383409943396076E080452D
:1093900006D0396988456FD3D8F80800A8426BD148
:1093A000C4F80C80C8F8084068E0EC68D5F818806C
:1093B000AC420CD0A8683969884223D3C268AA425B
:1093C00004BFA168A9421DD1C460A0601CE005F1E2
:1093D00014010C6834B905F110010C68A4B101E066
:1093E00011460C6804F114021068002802BF04F151
:1093F000100210680028F3D13869814202D300229C
:109400000A6001E001F06CF9B8F1000F36D0E969AB
:1094100007F5987000EB81000268954208D104605E
:10942000A4B9E8697968012282409143796025E016
:109430003869804508D3D8F81010A94214BFC8F87D
:109440001440C8F8104001E001F04AF9B4B139699C
:109450008C4211D3C4F81880286928B1884226BFED
:109460002061846101F03CF9686938B1396988424A
:1094700002D36061846101E001F032F901996D1855
:109480008B4469684908490069604BF001007060CD
:109490004FEADB0446F80BB01F2C23D807F1280055
:1094A00000EBC4084546BBF1100F38BF01F018F9B6
:1094B000386820FA04F1CA0705D4012101FA04F43E
:1094C00004433C6007E0D8F80800396988422CBFA3
:1094D000054601F005F9C8F80860EE60B560C6F809
:1094E0000C8060E05FEA1B2008BF002123D0B0F5AC
:1094F000803F28BF1F211ED2A0F58072120C02F0FF
:1095000008029040A0F58051090C01F00401884048
:10951000A0F580431B0CC2F10E0203F00203521AA5
:10952000D21A984002EBD032D01D2BFA00F101F094
:10953000010101EB4201F161002307F598727361AB
:1095400002EB810033617A6822FA01F3DC0707D469
:10955000012303FA01F1114379600660B0611DE057
:1095600002681F291DBF4908C1F119010BFA01F159
:10957000594600E002465068C008C000584516D061
:1095800002F11003C80F03EB80034900186800289C
:10959000F0D13869834204D31E60B261F660B660D0
:1095A00001E001F09DF809F10800BDE8F68B39698A
:1095B00090688A4228BF8842F3D3C6609660B06044
:1095C000F2600020B061EEE72DE9FE4F04468B46C5
:1095D000A5692E46904699463146FFF711FE02686E
:1095E000416802EB010AAAF1270111F007000EBF42
:1095F0000021C1F1080101F007010AEB0100A0F10F
:109600002F0706F110018F4238BF374607F11802C5
:10961000002101920091A8F1280259462046FFF747
:1096200015FE07F1080010F0070F18BF01F058F8F9
:109630001B20786007F1080104F5E07090E80C50F9
:1096400081E80C50C0F800B0C0F80480C0F80C905D
:10965000816007220198009900E0001D491C00F17B
:10966000080353454260F8D30129D8BF01F038F808
:10967000B74200F09580BF1B301D321DC15949080B
:109680004900D15147F0010070604FEAD70BF75104
:10969000BBF11F0F21D804EBCB0000F12805A84631
:1096A000102F38BF01F01CF8206820FA0BF1CA0710
:1096B00005D4012101FA0BF10843206006E0A868F7
:1096C000216988422CBF804601F00AF8AE60C8F8D4
:1096D0000C60C6F80880F5606FE0380A08BF00210A
:1096E00023D0B0F5803F28BF1F211ED2A0F5807285
:1096F000120C02F008029040A0F58051090C01F014
:1097000004018840A0F580431B0CC2F10E0203F057
:109710000203521AD21A984002EBD032D01D27FA17
:1097200000F101F0010101EB420104EB8102002391
:1097300002F59870F16173613361626822FA01F396
:10974000DB0707D4012303FA01F1114361600660CE
:10975000B0611DE002681F291DBF4908C1F1190150
:1097600007FA01F1394600E002465068C008C0001F
:10977000B84216D002F11003C80F03EB8003490072
:1097800018680028F0D12069834204D31E60B261BA
:10979000F660B56011E003B0BDE8F04F00F0A0BF87
:1097A0000BE0216990688A4228BF8842F3D3C660E3
:1097B0009560B060F2600020B06103B0BDE8F08F4A
:1097C0002DE9F041704F05463868884608B9FFF723
:1097D00024FDB96801EB08002F30491E20EA010181
:1097E00088457DD205F5D876B06828B132688918E9
:1097F0008A4275D2884273D300F0B2FF01001CBFC9
:109800000C6811F1010F6BD03068201805F5D87283
:1098100030605368984238BF18467060A86960BBD2
:10982000286908B1814200D2296131617461002048
:10983000F0614FF0FF303A686A62286205F1280251
:109840000020D260926002F1080757611761801C06
:1098500010322028F5D34D48854208BFA4F12802D4
:1098600028D055F8040CC00805EBC002A2F108008E
:109870000A19121A283A01461CE005F5E070024662
:1098800000E092687AB3136857681F44B942F8D170
:10989000137B1F0727D4AB691768BB4223D3D2F8C9
:1098A00004C06744BB421ED2A444C2F804C0E868A6
:1098B000A96922182846FFF7C9FC1FE08068C0B1DB
:1098C00003689342FAD1027B130712D40268016045
:1098D0004368E418446043462846BDE8F041D0E4BC
:1098E0000020BDE8F0812A69914238BF29610A1938
:1098F000E5E7002322462846FFF766FEE868804534
:10990000EED2A0EB0800A969E86001EB0802AA61A9
:1099100040F00100506048F00300486001F1080089
:10992000BDE8F08130B4184B1A6882B94FF4805208
:109930005A604FF480344FF0FF32DA601A6104222B
:10994000124D9C605A61C5F8BC21114A1A6011F190
:10995000400F17D28269AAB1C368283199420BD24D
:1099600000F5E0710C68A24203D34D682C44A2427A
:1099700002D389680029F5D1C16999423CBF4FF0F3
:10998000FF32C26100F0A8BEF03F0020703200201C
:109990006859883C2DE9F84F00258946090AC9F124
:1099A000000B08BF002323D0B1F5803F28BF1F2341
:1099B0001ED2A1F58072120C02F008029140A1F5AE
:1099C00080531B0C03F004039940A1F58044240C40
:1099D000C2F10E0204F00204D21A121BA14002EBE3
:1099E000D132D11D29FA01F303F0010303EB420345
:1099F000074607F5987858F8230030B31F2B0FBFA0
:109A00004C465C08C4F1190409FA04F4AC46594602
:109A100000E064004268D208D200A2EB09028A4248
:109A200003D21100054600F06981426910304FEA07
:109A3000D47B50F82B00002A1CBF82429446002899
:109A4000E7D18B466046B0BBBDBB012202FA03F3EF
:109A50005B005842796803430B4000F04E81584246
:109A600003405B1E180B00F01000C340590901F0C1
:109A70000801CB409A0802F00402D3405C0804F0CD
:109A800002040818E3401018C3F3400620183044BD
:109A9000F3401B1858F823000DE008464168C90838
:109AA000C900A1EB090159453CBF8B460546016938
:109AB0000029F2D140690028F0D1002D00F01D816D
:109AC000B868A0EB0900834580F0178139698D42A1
:109AD000C0F011816868C008C00009EB0B01884222
:109AE00018BF00F0FDFD05EB0906B54280F00381CB
:109AF000EC68D5F818A0AC420CD0A8683969884247
:109B000023D3C268AA4204BFA168A9421DD1C46080
:109B1000A0601CE005F114010C6834B905F11001D6
:109B20000C68A4B101E011460C6804F1140210683D
:109B3000002802BF04F1100210680028F3D1386930
:109B4000814202D300220A6001E000F0C9FDBAF1AF
:109B5000000F36D0E86908EB800001688D4209D11A
:109B60000460200014D1E8697968012282409143A1
:109B7000796026E03869824508D3DAF81010A942E6
:109B800014BFCAF81440CAF8104001E000F0A8FD64
:109B9000BCB13869844212D3C4F818A0286930B126
:109BA0003969884226BF2061846100F099FD6869A7
:109BB00038B13969884202D36061846101E000F004
:109BC0008FFDBBF1100F0CD2D94449F00300291DC1
:109BD0006860281D51F8092042F0010240F8092070
:109BE00088E049F0030068604BF0010070604FEAC4
:109BF000DB0046F80BB01F281DD807EBC00101F1B0
:109C00002804396821FA00F2D307A34605D40122BB
:109C100002FA00F00843386006E0A068396988421B
:109C20002CBF834600F05CFDA660CBF80C60C6F844
:109C300008B0F4605EE05FEA1B2008BF002123D07B
:109C4000B0F5803F28BF1F211ED2A0F58072120CF4
:109C500002F008029040A0F58051090C01F00401C7
:109C60008840A0F580431B0CC2F10E0203F00203F2
:109C7000521AD21A984002EBD032D01D2BFA00F1C2
:109C800001F0010101EB4201F161002272613261D8
:109C900008EB81007A6822FA01F4E30707D4012473
:109CA00004FA01F1114379600660B0611DE00268B9
:109CB0001F291DBF4908C1F119010BFA01F15946CD
:109CC00000E002465068C008C000584518D002F1B4
:109CD0001003C80F03EB8003490018680028F0D177
:109CE0003869834204D31E60B261F660B66001E059
:109CF00000F0F6FC14E100F0F3FC0EE18B46A2E666
:109D0000396990688A4228BF8842F1D3C66096605C
:109D1000B060F2600020B061ECE72DE9F84F064634
:109D20008846716848420140491E080B00F0100047
:109D3000C1404A0902F00802D1408B0803F0040335
:109D4000D9404D0805F002051018E9401818C1F374
:109D50004004281806F5987A2044E14009185AF87A
:109D600021104868C008C0000D46A0EB080909E0B2
:109D700001464868C008C000A0EB080048453CBF49
:109D800081460D4608690028F2D149690029F0D1C1
:109D900030698542C0F0BF806968C90808EB090BCB
:109DA000C900594518BF00F09BFC05EB080085422F
:109DB000009080F0B080EF68AC69AF420CD0A8682A
:109DC0003169884223D3C268AA4204BFB968A94254
:109DD0001DD1C760B8601CE005F114010F6837B9E8
:109DE00005F110010F68A7B101E011460F6807F1F6
:109DF00014021068002802BF07F110021068002842
:109E0000F3D13069814202D300220A6001E000F000
:109E100067FC002C31D0E8690AEB800001688D42B4
:109E200008D107608FB9E8697168012282409143C7
:109E3000716022E03069844205D32169A94214BFD0
:109E40006761276101E000F04BFCB7B130698742E0
:109E500011D3BC61286930B13169884226BF3861AD
:109E6000876100F03DFC686938B13169884202D3EE
:109E70007861876101E000F033FCB9F1100F0BD27B
:109E80004BF00300291D6860281D51F80B2042F09B
:109E9000010240F80B203DE048F003012A1D6960F3
:109EA00049F0010042F80800009941F80990D6F8FD
:109EB00008804FEAD80BBBF1200F28BF00F010FC40
:109EC000B8F1000F22D006EBCB00776900F128042F
:109ED000A246B8F1100F38BF00F002FC306820FA3B
:109EE0000BF1CA0705D4012101FA0BF108433060D8
:109EF00006E0A068316988422CBF824600F0F0FB82
:109F0000A760CAF80C70C7F808A0FC60C6F80890F3
:109F10000098706104E000F0E3FB0020BDE8F28FE0
:109F200005F10800BDE8F28F2DE9FE4F0546AFF3BD
:109F30000080F52DDFF89C6780F004810B2D31BF88
:109F400010250B35ED08ED003068EC08E04010F00E
:109F5000030F46D0C04300F00100041906F12800A9
:109F600000EBC408E700D8F808506868C008C000D3
:109F7000B84218BF00F0B4FBD5F80890454508BFBB
:109F800000F0AEFB4D4508BF00F0AAFB6868C008B2
:109F9000C000B84218BF00F0A3FBC84507D1306825
:109FA000012101FA04F420EA040434600DE0306970
:109FB000814508D3D9F80C10A94204D1C8F80890FB
:109FC000C9F80C8001E000F08BFB47F00300291D6D
:109FD0006860281DCA5942F00102C25105F1080407
:109FE000F8E0B168A94280F0BE80002800F0A180AE
:109FF0004FF0010808FA04F1490000FA04F448425D
:10A0000001430C4060420440641E200B00F010002D
:10A01000C440610901F00801CC40A20802F004022A
:10A02000D440630803F002030818DC401018C4F39E
:10A03000400718183818FC40241806F1280000EBD7
:10A04000C40AE700DAF80890D9F80400C008C00094
:10A05000B84218BF00F044FBD9F808B0D14508BF9A
:10A0600000F03EFBD94508BF00F03AFBD9F80400E8
:10A07000C008C000B84218BF00F032FBDA4506D174
:10A08000306808FA04F420EA040434600DE0316911
:10A090008B4508D3DBF80C00484504D1CAF808B05A
:10A0A000CBF80CA001E000F01BFB7F1B45F0030088
:10A0B00009F10402C9F8040047F00101515109EB0C
:10A0C00005020192D751B4684FEAD40ABAF1200FC1
:10A0D00028BF00F005FB34B3CDF800A006F128003E
:10A0E000756900EBCA0AD346102C38BF00F0F8FAA5
:10A0F0003168009821FA00F2D30704D408FA00F07E
:10A100000843306007E0DAF80800316988422CBF64
:10A11000834600F0E5FACAF80850CBF80C50C5F8B1
:10A1200008B0C5F80CA0B76009F108040198706187
:10A1300050E07068C0B329463046FFF7EEFD0400DA
:10A1400011D047E015F1400F28BF4FF0FF350AD27C
:10A150000B35ED087068ED0028B129463046FFF751
:10A1600019FC040036D1B068A8421DD3411B7269A6
:10A1700010290AD350197061B16041F001034360A6
:10A18000415045F0030555600BE00021B16071615D
:10A19000131D40F003015160111D1C5844F00104CF
:10A1A0000C5002F1080415E0F06885420DD2401B06
:10A1B000B169F0604A19B26140F00100506045F0A9
:10A1C00003054D6001F1080404E029463046FFF71D
:10A1D000F7FA0446AFF300802046FFF7EEBA0028F6
:10A1E00000D170472DE9F047A0F10805AFF30080DA
:10A1F000DFF8E06431698D42C0F05982686800F090
:10A200000302012A00F05382C2084FEAC209C207C2
:10A2100005EB090839D42C6810F0030F00F04982CF
:10A22000604205448D42A144C0F04182706985427C
:10A2300000F0C680E408202C5ED2D5F80CA0AF68F0
:10A24000554508BF00F04CFABD4208BF00F048FA7F
:10A250006868C008C000B0EBC40F18BF00F040FA37
:10A2600006F1280000EBC400874205D031698F4217
:10A270003FD3FA68AA423CD1BA452CD130680121BB
:10A2800001FA04F420EA04043460454580F00F82AA
:10A29000D8F80440E00740F10A82A10700F1688184
:10A2A000B069804540F09F80F168B5618944C6F887
:10A2B0000C9049F00100686071698D4202D1002064
:10A2C0007061B060F069484580F0F381002130464C
:10A2D000FFF728FBEDE1824506D03069824508D3BF
:10A2E000DAF80810A94204D1C7F80CA0CAF808701F
:10A2F000CBE700F0F5F9C8E7EC68AF69AC420BD0EA
:10A30000A868884222D3C168A94204BFA268AA42B1
:10A310001CD1C460A0601BE005F11402146834B9BC
:10A3200005F1100214689CB101E01A46146804F1AA
:10A3300014031868002802BF04F1100318680028ED
:10A34000F3D18A4202D30021116001E000F0C8F984
:10A35000002F9AD0E96906F5987000EB8100026839
:10A36000954209D10460200011D1E8697168012289
:10A3700082409143716088E73069874205D339692B
:10A38000A94214BF7C613C6101E000F0A9F9002CF6
:10A390003FF47BAF31698C42ABD3A761286928B108
:10A3A000884226BF2061846100F09AF9686900281C
:10A3B0003FF46BAF316988429BD36061846164E78D
:10A3C00098F8040000F0030003287FF45EAFC6F89D
:10A3D000089049F00101D8F8040040084000C8F88E
:10A3E000040069600AE0706980450AD1B16875614E
:10A3F0008944C6F8089049F00100686045F8099062
:10A4000057E1E408E400A144E408202C3AD2D8F84B
:10A410000CA0D8F80870D04508BF00F061F9B84525
:10A4200008BF00F05DF9D8F80400C008C000B0EB28
:10A43000C40F18BF00F054F906F1280000EBC40067
:10A44000874207D031698F42C0F08580FA68424563
:10A4500040F08180BA4507D13068012101FA04F447
:10A4600020EA0404346078E0824506D030698245F1
:10A4700071D3DAF8081041456DD1C7F80CA0CAF8BD
:10A4800008706AE0D8F80C40D8F8187044450DD030
:10A49000D8F808003169884223D3C268424504BF16
:10A4A000A16841451DD1C460A0601CE008F1140101
:10A4B0000C6834B908F110010C68A4B101E0114630
:10A4C0000C6804F114021068002802BF04F11002A5
:10A4D00010680028F3D13069814202D300220A605B
:10A4E00001E000F0FDF8002F37D0D8F81C1006F579
:10A4F000987000EB8100026890450AD1046020004A
:10A5000012D1D8F81C007168012282409143716019
:10A5100023E03069874205D33969414514BF7C6126
:10A520003C6101E000F0DCF8BCB131698C4212D32F
:10A53000A761D8F8100028B1884226BF2061846145
:10A5400000F0CEF8D8F8140038B13169884202D34F
:10A550006061846101E000F0C3F849F001006860C7
:10A5600045F8099071698D420BD1C6F80890A0E0BA
:10A5700064086400C8F8044049F00100686045F8C8
:10A5800009904FEAD907202F22D206F1280000EBCC
:10A59000C704A046B9F1100F38BF00F0A1F8306829
:10A5A00020FA07F1CA0705D4012101FA07F707438A
:10A5B000376006E0A068316988422CBF804600F011
:10A5C0008FF8A560C8F80C50C5F80880EC6070E002
:10A5D0005FEA192008BF002123D0B0F5803F28BFD3
:10A5E0001F211ED2A0F58072120C02F008029040CA
:10A5F000A0F58051090C01F004018840A0F58043CA
:10A600001B0CC2F10E0203F00203521AD21A984038
:10A6100002EBD032D01D29FA00F101F0010101EB6B
:10A62000420106F59872002302EB8100E9616B613B
:10A630002B61726822FA01F3DC0707D4012303FAC5
:10A6400001F1114371600560A8611DE002681F29D6
:10A650001DBF4908C1F1190109FA01F1494600E09D
:10A6600002465068C008C000484526D002F11003D9
:10A67000C80F03EB8003490018680028F0D1306947
:10A68000834204D31D60AA61ED60AD6001E000F07B
:10A6900027F8306A401E30620BD1D6F8C80100E0BE
:10A6A00080680028FCD14FF0FF30306201E000F0FC
:10A6B00017F8AFF30080BDE8F087316990688A42EF
:10A6C00028BF8842E3D3C5609560A860EA60002097
:10A6D000A861DEE77032002030BC00207047000027
:10A6E000012000F053B8F0B40246106895681318C2
:10A6F000506803EB5004C0071DD54D441BE013F810
:10A70000017B05F8017B491EF9D1A0B1B60813F809
:10A71000011B06F00306032E08BF13F8016B01EBC3
:10A7200006214942801C294405D011F8016B05F827
:10A73000016B401EF9D1A3420ED013F8016B16F045
:10A74000030104BF13F8011BC91C30090F28DAD11B
:10A7500013F8010B0F30D6E7F0BC02F10C00704784
:10A760000749086808B1002070470648C008C000C3
:10A7700008600549C908C900091A0160704700BF8F
:10A780003C4200207F62002078A2002020210903A3
:10A7900026311820ABBEF9E710F0030F01D10120DC
:10A7A00000E00020C0B2704738B504000025042D39
:10A7B0000BD2DFF8B41A51F82500002803D020008E
:10A7C00051F8251088476D1CF1E731BD0278012A48
:10A7D00009D03BD3032A14D008D3052A2AD020D38A
:10A7E000062A30D032E000220A702FE001220A70DF
:10A7F00002898A818288CA81C2688A6000220A74BA
:10A8000024E002220A7002898A818288CA81C26891
:10A810008A60827D062A01D1012200E000220A74AA
:10A8200014E003220A70C2888A810289CA81C26840
:10A830008A600BE004220A70C2888A810022CA81E1
:10A8400000228A6002E005220A70FFE770470200DA
:10A850008A4205D2106810F1010F01D0012000E0FA
:10A860000020C0B27047418800EB81000C30704777
:10A8700038B504000D002000FFF7F5FF854201D236
:10A8800002200AE0A0884FF6FF71884202D020889B
:10A89000002801D1012000E0002032BD10B50400E5
:10A8A000002C0ED0DFF8BC0BC1688C4209D30069C4
:10A8B000A04206D32000FFF76FFF002801D001203F
:10A8C00000E00020C0B210BD0100002904D00868DB
:10A8D000DFF8C82A904201D003200BE04868DFF877
:10A8E000882B801A03D0401E03D1012002E00020F3
:10A8F00000E00320704701000022B2F5806F08D20B
:10A9000051F8220010F1010F01D0002002E0521C8A
:10A91000F3E70120704710B41423DFF8504B020016
:10A9200092B25A43224412895118020092B203FB98
:10A9300002F304EB03025289511889B2B1F5806F1A
:10A9400001DA012000E00020C0B210BC704770B4F2
:10A9500002000A2000231C00A4B2022C19DA1424DD
:10A96000DFF8085B1E00B6B266432E4476688E425E
:10A970000DD21E00B6B204FB06F42C44646814F534
:10A980008054A14203D200242000138001E05B1C0C
:10A99000E1E770BC70472DE9F8430D00140010F595
:10A9A000805610F1080702202880B8463100404642
:10A9B000FFF74DFF00282AD031004046FFF758FF2F
:10A9C00081464846C0B200280AD1DFF84C0B016826
:10A9D000D8F8082091420FD2D8F8081001600BE097
:10A9E000002C01D0012020704846C0B2022803D1BB
:10A9F0004FF4806028800AE02888B8F80210C91C4B
:10AA0000081828804046FFF72EFF8046CEE7BDE8B5
:10AA1000F1838A7D032A04DB0289CB88DB1C9A1828
:10AA200002814389CA889B1ADB1E4381704780B527
:10AA3000002000900823DFF8E42ADFF8E40A016828
:10AA4000DFF8200A01F0E2F802BD1CB50400002086
:10AA500000900823DFF8CC2A2100DFF8080A01F073
:10AA6000D5F816BD2DE9F04705000E000024EF1CB7
:10AA7000380080B240F2FE31884201DB092035E027
:10AA80005FF00008404680B2022829DA5FF014091E
:10AA9000DFF8D8A9404680B209FB00F01AF80000A0
:10AAA00000281AD1390089B2404680B2FFF733FF3F
:10AAB000002812D001200400A6F80080404680B291
:10AAC00009FB00F05044414689B209FB01F90AEB49
:10AAD000090149897918418102E018F10108D1E79B
:10AAE000E4B2002C01D0002000E00720BDE8F08790
:10AAF00030B41422DFF874390C00A4B254431C445F
:10AB00000D00ADB202FB05F21A445289121AD21E90
:10AB1000628130BC704780B50121DFF8FC0901F08B
:10AB20008BFA02BD2DE9F04105000E001420DFF87C
:10AB30003C192A0092B242430A44526812F58057E7
:10AB40003468002C04D02000FFF78DFE804607E01B
:10AB50002A0092B200FB02F00844406810F1080895
:10AB600039004046FFF773FE002814D039004046F4
:10AB7000FFF77EFE002803D002280AD004D3EFE7B7
:10AB8000C6F80080012007E04046FFF76CFE8046D3
:10AB9000E6E7002000E00020BDE8F08138B50400C1
:10ABA0000D006068FFF77AFE002815D02089DFF8D5
:10ABB000A81B098988420FD120686168896888428A
:10ABC0000AD161682800FFF7C2FE002801D10120E8
:10ABD00000E00020C0B21EE0002028802888022863
:10ABE00018DA0020009069462888FFF79BFF0028AC
:10ABF0000CD00099886822689042F4D10098606077
:10AC0000DFF8540B00892081012004E02888401CD3
:10AC10002880E3E7002032BDF8B504000D001600DF
:10AC20001F00DFF8500B0078002801D1022034E02B
:10AC3000002E01D0002F01D105202EE0B888022877
:10AC40002ADADFF82818BA8814204243885C0028E2
:10AC50001ED13900B888FFF765FF002816D0396883
:10AC6000002C03D0888822889042F2D1002D03D096
:10AC700008882A889042ECD1886830603868706013
:10AC8000DFF8D40A00893081002006E00020386017
:10AC9000B888401CB880D1E70A20F2BD2DE9F04108
:10ACA00004002100DFF8000C006801F098FA0500AC
:10ACB0001C260027A8463A003100404601F0CAFA97
:10ACC0002800BDE8F08110B504002100DFF8D80BA2
:10ACD000006801F093FA10BD10B504002100DFF800
:10ACE000C80B006801F098FA10BD10B504002100EF
:10ACF000DFF8B40B006801F09EFA10BD80B50121A9
:10AD0000DFF8040C01F0A6F9002801D0012000E0D2
:10AD10000020C0B202BD2DE9F84F00240025032613
:10AD200000275FF00008404680B2032880F2A98027
:10AD3000DFF83007C168424692B24FF48050424378
:10AD400001EB02094846FFF7BFFD82465046C0B2FC
:10AD5000002843D0012862D0032840F08F80484665
:10AD6000FFF7C9FD002827D0DFF8B41708680028CE
:10AD700019D01420DFF8141A02222B009BB243438F
:10AD8000CA542A0092B242430A44C2F804902A00EC
:10AD900092B200FB02F0084402210181DFF8B809F9
:10ADA00045806D1C05E0C1F80090022088800120DC
:10ADB000070054F0010410E0761E1420DFF8CC19CF
:10ADC0002A0092B242430A44C2F8049003222B00A4
:10ADD0009BB200FB03F00A546D1C4FE01420DFF817
:10ADE000AC1900222B009BB24343CA542A0092B2F2
:10ADF00042430A44C2F804902A0092B242430A44F1
:10AE000010322B009BB200FB03F0084410F1080144
:10AE10004846FFF7C0FD54F002046D1C2EE03800D8
:10AE2000C0B2002817D01420DFF8601902222B00CE
:10AE30009BB24343CA542A0092B242430A44DFF809
:10AE4000E0361B6853602A0092B200FB02F008440F
:10AE5000022101816D1CDFF8C8B6CBF800900022FA
:10AE60001BF104014846FFF796FDBBF804000228D9
:10AE700001D1042000E008200443FFE718F1010895
:10AE800051E7300080B2022801DA002004002000DF
:10AE9000C0B2BDE8F28F38B504000D000220A075E5
:10AEA000002000900423221D2900DFF8140B00F07D
:10AEB000ADFE002801D1002000E00E2032BD38B5E3
:10AEC00004000D002069002801D0032000E00120CB
:10AED000A07500200090042314F10C0215F1080164
:10AEE000DFF8DC0A00F092FE002801D1002000E02B
:10AEF0000E2032BD38B504000D002078032801D1A2
:10AF0000052000E00620A07500200090042314F125
:10AF10000802291DDFF8A80A00F078FE002801D1F8
:10AF2000002000E00E2032BD7CB504000D000020A2
:10AF300000900423DFF88C2A2100DFF8280500F0B8
:10AF400065FE0100002901D00E200AE00122DFF891
:10AF50003C382E00B6B21420464303EB06000274C0
:10AF6000002076BD38B584B0040001A8002100227D
:10AF7000002380E80E00E0680190694601A8FFF711
:10AF80000DFE00280AD0029DA888E0802888208134
:10AF9000BDF800100298FFF7C7FF00E00A2005B0D7
:10AFA00030BD2DE9FF410500DFF81C6A33006A4619
:10AFB0000021A81DFFF730FE0400002C05D1B18848
:10AFC0000198FFF7B1FF040007E008275FF00008D1
:10AFD00042463900300001F03DF9200004B0BDE8E0
:10AFE000F08138B504000D000120A075002000900C
:10AFF000E0888300226915F10C01DFF8C40900F034
:10B0000005FE002801D1002000E00E2032BD10B462
:10B01000DFF844170889401C088100204880002080
:10B0200008730022100080B2022811DADFF85C37C2
:10B030001400A4B214204443185D002801D101205B
:10B0400000E0002013009BB20B449872521CE9E709
:10B0500010BC704730B4020000210023180080B2F9
:10B06000022825DADFF8F046180080B22044807A02
:10B0700000281BD000201D00ADB22C44A072142467
:10B08000DFF80857180080B260432844C0680028E1
:10B090000CD1180080B204FB00F405EB0400007C26
:10B0A000012803D113800120010001E05B1CD5E7DA
:10B0B0000800C0B230BC704780B50520DFF8981694
:10B0C0000870DFF85C0402218180002301220168FE
:10B0D000DFF8EC0800F052FE02BD70B5DFF878161C
:10B0E0004C881425DFF88463200080B26843304424
:10B0F000C06800280FD1042008700023012220001E
:10B1000080B205FB00F506EB05004168DFF8B008EA
:10B1100000F034FE01E0FFF7CFFF70BD7CB5DFF833
:10B1200038064468DFF8F8130A68898802EB81055D
:10B130006688F61C0321017000210091310089B25C
:10B140008B0042682900DFF8780800F05FFD76BDCB
:10B1500080B5DFF8CC08011D4088FFF7E3FC00282C
:10B1600002D0FFF7DBFF01E0FFF7B7FF02BD80B5BC
:10B17000DFF8E40506210170DFF81016428814207C
:10B18000424301EB02004068FFF75FFC02BD80B55F
:10B19000DFF8C4050721017000214160FFF747FC7B
:10B1A00002BD10B5DFF8B045A01CFFF753FF002823
:10B1B00008D100202070002060800020606041F6EF
:10B1C0001D5001E0FFF7C4FF10BDDFF88C0540689B
:10B1D0004188C91CDFF848239388CB1893807047B7
:10B1E00030B4DFF83C1308681422DFF86C35DFF860
:10B1F0009C455D88554325446D680D605D885543C9
:10B20000254468605B8802FB03F222448B8813812B
:10B2100002228A8030BC704710B5DFF83C452078A8
:10B2200000280AD003280DD0042810D0052813D0F8
:10B23000062811D0072812D014E0FFF7E8FE0120FD
:10B2400020700FE0FFF7C1FF022020700AE0FFF737
:10B25000C7FF0620207005E00720207002E00120D3
:10B260002070FFE710BD0000544000202DE9F041A0
:10B2700004000E000F25002C05D00020DFF8A417D5
:10B280004860012088E03079002805D002283AD0B3
:10B2900008D3032844D076E001203071FFF7C7FBC4
:10B2A000050070E000275FF00008404680B20228E9
:10B2B0001BDA14206D49424692B242438A5C022A4C
:10B2C00010D1002243469BB24343CA5401221700C7
:10B2D000424692B200FB02F008444068FFF7B5FB1B
:10B2E000050002E018F10108DFE73800C0B20028CD
:10B2F00008D1DFF83007012101700021416041F6DB
:10B300001D5049E03FE000203071854802218180D6
:10B31000002301220168534800F030FD050032E0AF
:10B32000002030717E4F3868FFF78FFB0500DFF893
:10B3300028044088396814224C4B84461FFA8CFC40
:10B3400002FB0CFC9C44DCF804C0C7F800C0844637
:10B350001FFA8CFC02FB0CFC9C44CCF804108446C5
:10B360001FFA8CFC02FB0CFC9C44B7F804E0ACF820
:10B3700008E05FF0020CA7F804C0002780B202FBCF
:10B3800000F29F54FFE7002D05D00020DFF894164F
:10B3900048600E2000E00020BDE8F081DEC0ADDE98
:10B3A0002DE9F04104000E003049B28A14204243D6
:10B3B00001EB0207002C05D031003800FFF729FB14
:10B3C00001204DE07868398900EB8108B07D0028C4
:10B3D00017D002281BD026D3042804D01DD306285A
:10B3E00033D026D334E0DFF8400600214160B16954
:10B3F0000160DFF83816FFF7D1FB002801D10A20E1
:10B400002EE041463000FFF746FD050021E04146B1
:10B410003000FFF754FD05001BE041463000FFF708
:10B42000E0FD050015E041463000FFF763FD050033
:10B430000FE00620B075DFF8F4050188DFF8E805B5
:10B440004068FFF771FD050003E041F61D5500E07F
:10B450000F25002D03D031003800FFF7DAFA28005D
:10B46000BDE8F081CC290020FE011EF1903E0020B5
:10B4700038B504000D00002C01D0012019E0287916
:10B48000002803D0022810D006D311E00220287132
:10B490002800FFF767FD0CE02800FFF782FD0A286F
:10B4A00002D141F61D51080003E041F61D5000E0B5
:10B4B0000F2032BD38B50400002C01D0012029E056
:10B4C000A54D287B002802D00020287301E0FFF75B
:10B4D000A3FE287801280AD002280BD003280CD01C
:10B4E00004280DD006280ED007280FD011E0FFF752
:10B4F00058FE0FE0FFF72CFE0CE0FFF70FFE09E00F
:10B50000FFF7EBFD06E0FFF732FE03E0FFF73FFE3B
:10B5100000E00F2032BD0000FC410020A8DE020048
:10B5200068410020B0DE020030B585B00400DFF8CD
:10B5300000552868002804D1DFF8F804FFF7CCFB99
:10B54000286028680078012809D01FD303280CD070
:10B550000BD305280FD00ED3062812D016E0296889
:10B560002000FFF783FE040012E029682000FFF7A7
:10B5700017FF04000CE029682000FFF779FF0400A2
:10B5800006E02000FFF796FF040001E00F20040012
:10B59000002C1ED06846142100F090FE41F61D508C
:10B5A000844201D1002000E0200001906946286813
:10B5B000FFF70CF96846FFF7F7F800202860002035
:10B5C0000400DFF87004FFF790FBFFF797FB0028FB
:10B5D000ADD105B030BD80B50121DFF82C0300F0FE
:10B5E0001DFD002802D10020FFF79EFF01BD10B510
:10B5F00004006068FFF798FF10BD2DE9FE4F0400BE
:10B600000D00160099465FF0000A5FF000085948E7
:10B610000078002801D102206DE0002D01D1052025
:10B6200069E028884FF6FF71884202D068880028B8
:10B6300001D104205FE06868FFF7AEF8002801D16F
:10B64000032058E0002E0BD1D5F808B069465846C3
:10B6500080B2FFF707FA0700002F06D038004AE053
:10B660003088ADF80000B6F802B001A8FFF716FB6D
:10B670008046B8F1000F07D1BDF80010584680B2DF
:10B68000FFF736FA082036E088F80090002088F8A6
:10B690001600BDF80000A8F814006868C8F810008B
:10B6A000FFF739FAC8F80C002888A8F8080068885D
:10B6B000A8F80400A8F806B04846C0B2032805D18F
:10B6C000042088F816002068C8F81800A8F80AA016
:10B6D00001A8FFF7F8FA002C0AD000206060D8F823
:10B6E0000C0020600020A072DFF834030089208164
:10B6F000FFF771FF0020BDE8FE8F10B50400DFF8F2
:10B7000038030168042901D10C2008E0DFF82C136C
:10B71000026841F82240012100F08EFC002010BD9B
:10B72000DFF81C030068DFF81C130968DFF8182332
:10B73000126810F1010F01D110004843704738B56D
:10B740004FF44054DFF87852FFF7EAFF2861286988
:10B75000001BE86031BD00007440002080B5FFF799
:10B76000EEFF0022DFF8E412DFF8540200F074F973
:10B7700002BD00006041002080B51C238C22DFF850
:10B78000D0124948006800F002FD01BD903E002043
:10B7900070B586B001A8142100F090FDDFF8845246
:10B7A0002878002804D001A8FEF7FEFF002053E00F
:10B7B000281D00F05CFC002801D000204CE0FFF7C1
:10B7C000CDFF0400002C01D0200045E0FFF7D4FF9E
:10B7D000FFF7A1FA06003000C0B2002804D002280A
:10B7E00002D0062802D00AE00B2035E001202870A4
:10B7F0000020686001A8FEF7D7FF00202CE0684613
:10B80000FFF74CFA0500002D01D1082024E00120AB
:10B8100028703000C0B201280CD003280AD00528B7
:10B8200011D007280FD0092807D00A2808D00B28E4
:10B8300003D00BE00020287108E00320287105E008
:10B840000220287102E001202871FFE76846FFF717
:10B850003AFAFFF7C0FE002006B070BD7CB50400C8
:10B860000D00002C01D0002D01D105201BE0694600
:10B870002000FFF793F9002814D066680121DFF853
:10B88000D421BDF800301420434302EB03000C30F8
:10B8900000F0D2FB2E6060680C3068600120A0725E
:10B8A000002000E00A2076BD64E002001CB5040020
:10B8B000002C01D1052025E069462000FFF76EF934
:10B8C00000281ED01421DFF88C21BDF80000484369
:10B8D0001044C068002812D0A07A00280FD0BDF80C
:10B8E000000048431044BDF8003001FB03F111444F
:10B8F000C968491EC1600020A072002002E0062035
:10B9000000E00A2016BD0000F441002038B5040014
:10B910000D000223002229002000FFF76EFE32BD39
:10B9200038B504000D00002C01D1052005E00323EB
:10B93000002229002000FFF760FE32BD38B5050067
:10B9400038480078002801D102201AE028004FF67C
:10B95000FF7180B2884201D1042012E06846FFF7EF
:10B960009DF90400002C01D108200AE00520207078
:10B9700001202071E5806846FFF7A5F9FFF72BFE4F
:10B98000002032BD1CB527480078002801D10220D4
:10B9900015E06846FFF782F90400002C01D1082069
:10B9A0000DE0062020706846FFF78DF91C490878E5
:10B9B000002801D001200873FFF70DFE002016BDFE
:10B9C000CC29002068E002007041002033B581B02E
:10B9D00014001D002B00220002A901A8FFF71CF98A
:10B9E0003EBD31B50C0015002B0022006946002039
:10B9F000FFF712F932BD31B50C0015002B00220003
:10BA000000216846FFF708F932BD0200002A01D084
:10BA1000002901D1052002E010680860002070476D
:10BA20007440002060410020EC4000204242002091
:10BA30000042002004420020F84100205440002031
:10BA4000141000101000001014000010F8D10200B3
:10BA5000B0390020903E0020F8B504000D0017001A
:10BA6000002C14D10E200090DFF85434DFF8542459
:10BA7000DFF85414DFF85404DFF85464801BC00866
:10BA8000000450F0010000F043FE0E201CE0002DE9
:10BA900014D10E200090DFF82834DFF83824DFF8C6
:10BAA0002814DFF82804DFF82864801BC00800048D
:10BAB00050F0010000F02CFE0E2005E0256039005A
:10BAC0002000226812689047F2BD2DE9FC41040075
:10BAD000884615001E00002C14D10E200090DFF8BF
:10BAE000FC33DFF8E023DFF8E013DFF8E003DFF8F2
:10BAF000E073C01BC008000450F0010000F008FE15
:10BB00000E2081E0002D14D10E200090DFF8CC3300
:10BB1000DFF8CC23DFF8B013DFF8B003DFF8B07341
:10BB2000C01BC008000450F0010000F0F1FD0E2021
:10BB30006AE02068002814D108200090DFF89C33C8
:10BB4000DFF89423DFF88013DFF88003DFF88073D9
:10BB5000C01BC008000450F0010000F0D9FD08200F
:10BB600052E0002E13D109200090DFF8703382A23A
:10BB7000DFF85413DFF85403DFF85473C01BC00818
:10BB8000000450F0010000F0C3FD09203CE04046F5
:10BB900000F0D1F9002814D110200090DFF83C33D8
:10BBA000DFF84023DFF82013DFF82003DFF82073ED
:10BBB000C01BC008000450F0010000F0A9FD1020D7
:10BBC00022E032004146200000F0A8F9002814D1FC
:10BBD00010200090DFF80433DFF80C23DFF8E812C0
:10BBE000DFF8E802DFF8E872C01BC008000450F07C
:10BBF000010000F08DFD102006E033002A004146D0
:10BC000020002768BF68B847BDE8F6812DE9F843F2
:10BC10000400884615001E00DDF82090002C10D18D
:10BC20000E200090DFF8C432A64AA749A748A84FC3
:10BC3000C01BC008000450F0010000F069FD0E2098
:10BC400098E0002D0FD10E200090A84BA84A9E49E5
:10BC50009E489F4FC01BC008000450F0010000F038
:10BC600057FD0E2086E0206800280FD108200090A4
:10BC70009E4B994A94499548954FC01BC0080004B3
:10BC800050F0010000F044FD082073E0002E0FD1B9
:10BC900009200090954B38A28B498C488C4FC01BD3
:10BCA000C008000450F0010000F032FD092061E0FE
:10BCB00060684068B6FBF0F100FB116000280FD00F
:10BCC00009200090894B8B4A7F498048804FC01BD8
:10BCD000C008000450F0010000F01AFD092049E0FE
:10BCE000404600F028F900280FD1102000907F4B2B
:10BCF000814A75497548764FC01BC008000450F052
:10BD0000010000F005FD102034E0280000F013F9D8
:10BD100000280FD110200090744B784A6A496B4874
:10BD20006B4FC01BC008000450F0010000F0F0FC95
:10BD300010201FE032004146200000F0EFF80028FC
:10BD40000FD110200090694B6D4A5F495F48604FEA
:10BD5000C01BC008000450F0010000F0D9FC102006
:10BD600008E0CDF8009033002A0041462000276803
:10BD7000FF68B847BDE8F2836C656E002DE9FC41B1
:10BD800004000F0015009846002C0FD10E200090E3
:10BD90005C4B4C4A4C494D484D4E801BC00800043A
:10BDA00050F0010000F0B4FC0E205BE02068002899
:10BDB0000FD108200090534B474A43494348444E13
:10BDC000801BC008000450F0010000F0A1FC082016
:10BDD00048E0002D0FD1092000904A4B37A23A4984
:10BDE0003A483B4E801BC008000450F0010000F0B0
:10BDF0008FFC092036E03900200000F0A4F800286C
:10BE00000FD1102000903F4B3F4A2F492F48304E12
:10BE1000801BC008000450F0010000F079FC1020E5
:10BE200020E06068026802FB05F23900200000F0A3
:10BE300075F800280FD110200090324B334A224968
:10BE40002248234E801BC008000450F0010000F07F
:10BE50005FFC102006E043462A00390020002668D7
:10BE60003669B047BDE8F68138B50400002C02D031
:10BE7000206800281DD1002525492648091A1420CC
:10BE8000B1FBF0F0854212D22348142101FB05F1E9
:10BE9000084404002068002807D020002168C969F0
:10BEA0008847002801D0012007E06D1CE4E700204E
:10BEB00003E020002168C969884732BD6C656E00C7
:10BEC00030D90200F0DE0200E8CB020068B00200C8
:10BED00038B00200F8DE020068DD020044D902003A
:10BEE00000DF0200A8D6020078CE020058D9020076
:10BEF00008DF020014CC0200C0D6020004D0020009
:10BF0000A0CE02006CD90200C8CE0200E8BF020039
:10BF1000F4290020B8290020B8290020C3689942DC
:10BF200006D300695118491E884201D3012000E060
:10BF30000020C0B2704710F0030F01D1012000E0D3
:10BF40000020C0B2704740680068401E014201D125
:10BF5000012000E00020C0B2704730B4002513E09B
:10BF600050F8042BD30744BFA9F101039A18091F05
:10BF7000042942F8045BFAD213468C0744BF1580AB
:10BF80009B1CC90748BF1D7050F8041B0029E7D14E
:10BF900030BC704710B4020052E8000F0B4642E874
:10BFA000003494F0000FF7D110BC704710B40200B9
:10BFB00052E8000F40EA010342E8003494F0000F19
:10BFC000F6D110BC7047000010B4020052E8003FE8
:10BFD00043EA010042E8000494F0000FF6D110BCDF
:10BFE0007047000010B4020052E8000F00EA01039D
:10BFF00042E8003494F0000FF6D110BC7047000006
:10C0000010B4020052E8003F03EA010042E80004D5
:10C0100094F0000FF6D110BC7047000010B402007D
:10C0200052E8000F00EB010342E8003494F0000FE7
:10C03000F6D110BC7047000010B4020052E8003F77
:10C0400003EB010042E8000494F0000FF6D110BCAD
:10C050007047000010B4020052E8003FA3EB01005B
:10C0600042E8000494F0000FF6D110BC704710B500
:10C07000040001212000FFF799FF10BD10B5040056
:10C0800001212000FFF7A0FF10BD10B50400002122
:10C090002000FFF7A7FF10BD3CB4020052E8015F8B
:10C0A000ABB2D48923449489A34228BF1B1B1489B3
:10C0B000A34202BFBFF32F8F002007E0C3EA0503AE
:10C0C00042E80134002CE9D14FF0010001958DF8D0
:10C0D0000000019808609DF8000036BC7047000021
:10C0E00050E8012FC2EA024240E801210029F7D1BD
:10C0F000704700003CB4020052E8025F1FFAA5F34B
:10C10000D488A34202BFBFF32F8F00200DE0D48953
:10C1100023449489A34228BF1B1BC5EA034342E87A
:10C120000234002CE8D14FF0010001958DF8000099
:10C13000019808609DF8000036BC704750E8022F57
:10C14000C2EA224240E802210029F7D170470000EC
:10C1500081B0010051E8022FCB88B2EB324F4FF093
:10C16000000017BF92B243EA034342EA034304E0EC
:10C170004A68B2EB324F08BF012041E80232002A80
:10C18000E8D18DF800009DF8000001B0704770B450
:10C190000400002901D10E2013E0100080B21D0020
:10C1A000ADB290FBF5F605FB1600002801D0092082
:10C1B00007E02160002060600020A060A281E38190
:10C1C000002070BC704710B504002000FFF7C0FFCE
:10C1D000C0B2002801D0002000E0112010BD38B509
:10C1E00004000D0029002000FFF756FF002803D0AF
:10C1F00020682988084400E0002032BD38B50400DA
:10C200000D0028886988884204D12000FFF768FF64
:10C21000012000E0002032BD38B504000D002900E7
:10C220002000FFF767FF002803D0206869880844D2
:10C2300000E0002032BD38B504000D002888698870
:10C24000884204D12000FFF779FF012000E00020A0
:10C2500032BD000062F30F2262F31F42401810F05B
:10C26000030308D0C91A1FD3DB0748BF00F8012D0C
:10C2700028BF20F8022D130030B41446154610399B
:10C2800028BF20E93C00FAD8490728BF20E90C0064
:10C2900048BF40F8042D890028BF20F8022D48BF70
:10C2A00000F8012D30BC7047C91818BF00F8012DE7
:10C2B000CB0728BF00F8012D7047FEE7002200F0F1
:10C2C0005DBCFEE738B504000D002900200022689F
:10C2D0001268904731BD10B50400200021684968FC
:10C2E000884710BD10B50400200021688968884780
:10C2F00010BDC26811717047C06800797047012194
:10C30000C26851717047C0684079704770B50500C8
:10C310000E00DFF84008FF2181600021016000214C
:10C3200041600021C0F818140021C0F81414002145
:10C3300080F82014DFF8200800F039FC0400002CFD
:10C3400001D020000AE0DFF8140800F043FDDFF818
:10C350001008DFF81018411AC908002070BDDFF876
:10C360000008DFF80018401AC008704770B50400D4
:10C370000D002800C0B2002814D0FFF7F0FF010024
:10C3800000228A420CD2DFF8E00700EB8203188813
:10C390002668B04202D12260002004E0521CF0E77F
:10C3A000052000E0002070BD11B581B00C00210017
:10C3B000C9B201A8FFF7DAFF002806D1DFF8AC0701
:10C3C000019900EBC100006800E0002016BD0200EA
:10C3D000DFF8980700EBC2030800C0B2012806D0BE
:10C3E0000DD3032807D004D3042806D007E0022089
:10C3F00006E0042004E0187902E0587900E000200B
:10C40000C0B2704710B4030000201A68C2F3800263
:10C41000002A18D01A7812F00302012A02D0022A48
:10C4200008D00EE00A681C68C4F38314A41CA21888
:10C430000A6006E00A681C68A40DA41CA2180A6021
:10C44000FFE701221000C0B210BC70472DE9F8438D
:10C4500084B00024DFF8FC5615F58360FFF70EFE6C
:10C4600005F214494846FFF709FE68680090AE6877
:10C470000098304005EB800010F10C076946380049
:10C48000FFF7C0FF002806D00098304005EB800081
:10C490000C300700F2E75FF00008B8F1020F0DD290
:10C4A0000098304005EB8000C06801A941F82800E1
:10C4B0000098401C009018F10108EEE7019810F078
:10C4C000030001280CD0022814D1BDF80A00040092
:10C4D00000980199890DC91C10EB9100009009E0AA
:10C4E000BDF80A00040000990198C0F383104118B8
:10C4F0000091FFE74846FFF7C8FD0100002901D081
:10C5000000986860A4B2200005B0BDE8F08380B553
:10C510000021DFF85C06FFF73DFD010081F310000C
:10C5200002BD2DE9F84304000D0016001F00DDF8E0
:10C530002080A1465FEA1949FFF7E9FFDFF81416EA
:10C540007A1C18EA020201EB820259EA0043D36026
:10C5500018EA070201EB82010C310A6864F3C50294
:10C560000A600A6866F389120A600A6865F39F2206
:10C570000A6001220B6862F301030B600A6832F063
:10C5800004020A60BDE8F1832DE9FE4F04000D00AE
:10C590001600A01C0190012700208DF800006846BD
:10C5A00000F07CFCDFF8AC85D8F800002860D8F8F3
:10C5B0000800401CD8F80090B0EB0909D8F8040036
:10C5C00010EB09090198814517D208F21C4B012193
:10C5D0005846FFF731FDFFF739FF8246514658466E
:10C5E000FFF72AFDD8F80810491CD8F80000091AEE
:10C5F000D8F8040041188946E4E73800C0B20028A2
:10C6000023D000213000C0B2002807D0012060F301
:10C61000010151F0040164F3891106E0022060F386
:10C62000010151F0040164F39F51D8F80020D8F8BB
:10C630000800024008EB820010F10C021160D8F8EB
:10C6400000300198C318C8F800309DF8000000F0D1
:10C650002BFC3800C0B2BDE8FE8F2DE9FE4F040070
:10C660000D0016001F00DFF8EC94D9F808800122B5
:10C6700001A93800FFF788FF00281BD0DDF804A0CF
:10C680001AF1020A5FF0000BBB450BD218EA0A0050
:10C6900009EB800056F82B10C1601AF1010A1BF15A
:10C6A000010BF1E7CDF80080019B3A002900200042
:10C6B000FFF737FF99F82004002803D000F07FF837
:10C6C0000028FBD1BDE8F78F38B504000D0000232A
:10C6D000002229002000FFF7C0FF31BD7CB5040017
:10C6E0000D001600009601236A4629002000FFF77E
:10C6F000B4FF73BDFEB504000D0016001F000096C8
:10C70000019702236A4629002000FFF7A6FFF7BD24
:10C710002DE9FF4104000D0016001F00DDF8288000
:10C7200000960197CDF8088003236A46290020006F
:10C73000FFF793FFBDE8FF812DE9F84384B00400C3
:10C740000D0016001F00DDF83080DDF834900096F3
:10C750000197CDF80880CDF80C9004236A46290093
:10C760002000FFF77AFF05B0BDE8F0832DE9F84718
:10C7700085B004000D0016001F00DDF83880DDF8DC
:10C780003C90DDF840A000960197CDF80880CDF8E8
:10C790000C90CDF810A005236A4629002000FFF771
:10C7A0005CFF06B0BDE8F087DFF8A80341680068C9
:10C7B000814201D1012000E00020C0B270472DE984
:10C7C000F04F8BB0FFF7F0FF002801D000205FE1B1
:10C7D000DFF880730020C7F81804BFF34F8F786824
:10C7E0000090B868029000990298014007EB810020
:10C7F0000C30099000250026002008906946099811
:10C80000FFF700FE002813D0D7F8180400280FD136
:10C8100000983968884203D338687860002037E18F
:10C8200000990298014007EB81000C300990E5E780
:10C830005FF00008B8F1020F0ED200990298014093
:10C8400007EB8100C06803A941F828000098401C4C
:10C85000009018F10108EDE7039810F0030002289A
:10C8600040F07F80DDF80C905FEA99590398800DC5
:10C87000502804DADDF80CA05FEA9A5A01E05FF074
:10C88000500A03986AF39F5003901AF108000A9027
:10C890000398C0F3C20008900A99AF4800F08DF9E0
:10C8A0000500002D00F0A280280000F0ECF9330014
:10C8B000082203A9280000F06FFA08360299491CE3
:10C8C000009A02980240891A8C00544535D2002CF7
:10C8D00007D000990298014007EB81000C300790C7
:10C8E00002E017F10C000790002C01D0A34600E0F5
:10C8F000D346002C03D017F10C00069001E0002075
:10C900000690002C02D0BAEB040000E000208DF865
:10C91000040033005A46D2B20799280000F03CFACE
:10C9200056FA8BF60698002814D033009DF80420A0
:10C930000699280000F030FA0CE0009902980140B6
:10C9400007EB810010F10C0B3300524659462800CA
:10C9500000F022FA009819F1030910EB99000090F9
:10C9600044E0039810F0030001283FD10398C0F37E
:10C970008310062803DA0398C0F3831000E0062032
:10C98000039960F3891103910398C0F38314A41CE5
:10C990000398C0F3C2000890A1006F4800F00DF9A1
:10C9A0000500002D22D0280000F06DF93300082288
:10C9B00003A9280000F0F0F908360020804603980B
:10C9C000C0F38310804511D20099481C00903300B9
:10C9D00004220298014007EB810010F10C012800AD
:10C9E00000F0DAF9361D18F10108E8E7002D33D020
:10C9F000D7F81044D7F81804002803D0280000F016
:10CA00004AF93DE0002C13D05FF000092000FFF749
:10CA10007AFC012801D1012081464846C0B2002895
:10CA200003D029002000FFF74DFCE0680468E9E727
:10CA3000280000F030F900208DF8040001A800F073
:10CA40002DFAD7F81804002801D1009878609DF8D5
:10CA5000040000F029FA13E0D7F81044002C05D0A8
:10CA60002000FFF73FFCE0680468F7E741494248CF
:10CA70003C4A801AC008000450F00200FFF724FE70
:10CA8000FFF792FE002801D1012000E00020C0B293
:10CA90000BB0BDE8F08F70B500260A2E1ADA2D48CB
:10CAA000D0F81004040001200500002C0AD020005A
:10CAB000FFF722FCB04202D10020050002E0E0684E
:10CAC0000468F2E72800C0B2002801D0300003E07B
:10CAD000761CE2E75FF0FF3070BD70B504000D001A
:10CAE000FFF7D9FF060016F1010F01D130001BE05E
:10CAF00030000100C9B22000FFF7FBFB1549D1F857
:10CB00001004002805D1C1F810440020E168086035
:10CB100009E0D1F81004C0680068E2681060D1F83C
:10CB20001004C0680460300070BD10B50948D0F82A
:10CB30001044012180F82014002C08D02000FFF7B9
:10CB4000DEFB2000FFF7C7FBE0680468F4E710BDD8
:10CB500000000000F4290020E8DA020098DD02005D
:10CB6000F8B0020038B002000000000038B0020047
:10CB7000102E002094D9020070B0020000B500BF52
:10CB8000130096469446103928BFA0E80C50FAD8F6
:10CB90005FEA417C28BF0CC048BF40F8042BC9079E
:10CBA00028BF20F8022B48BF00F8012B00BD10B5AC
:10CBB0000400200000F08DF910BD2DE9F84F0600AB
:10CBC0000F00B6F81080B8F1040818EB0700C01C7D
:10CBD000B0FBF8F9300000F09AF90500002D01D102
:10CBE000002027E00020287101206871A5F8068048
:10CBF0000095CA465FFA8AFABAF1010A00980660FF
:10CC00005FF0000BD34514D2300000F080F904002F
:10CC1000002C09D06879401C687100980460266077
:10CC200000941BF1010BEDE7280000F005F800204F
:10CC300000E02800BDE8F28F2DE9F84F05002E0036
:10CC400077792900B8465FFA88F8B8F10108002022
:10CC5000404502D20968401CFAE7D1F80090AA4684
:10CC60005FF0000B3800C0B283450AD2DAF800004A
:10CC700004005146484600F076F9A2461BF1010B2C
:10CC8000F0E7BDE8F18F38B5040025000121281D2B
:10CC9000FFF7D2F931BD7CB5040025000121281D24
:10CCA000FFF7D8F900906E463078002802D12000B6
:10CCB000FFF7C2FF73BD2DE9FF4F87B007980190C2
:10CCC000DDF81C800198C688019840794643361FDC
:10CCD0000198C08800900A98001D0099B0FBF1F5FA
:10CCE0000A99091D0098B1FBF0F7009800FB17178F
:10CCF000099801680A9841188E4202D20A9C341B96
:10CD000001E00998046809980460002D03D0D8F860
:10CD100000806D1EF9E75FF00009DDF800A0BAEBB6
:10CD2000070A544501D2A246FFE7002C31D00898EB
:10CD30004844039008EB0700001D02909DF8500046
:10CD400000280BD0CDF814A002980490DDF80CB0A8
:10CD5000059A0499584600F01FF90AE0CDF814A08E
:10CD600003980490DDF808B0059A0499584600F03D
:10CD700013F900200700D8F80080B4EB0A041AEB7E
:10CD800009090098844201D2A246CEE7DDF800A04E
:10CD9000CBE70BB0BDE8F08FFEB504000D00160028
:10CDA0001F000196002000903B0001AA29002000EE
:10CDB000FFF781FFF7BDFEB504000D0016001F0050
:10CDC0000196012000903B0001AA29002000FFF7F6
:10CDD00072FFF7BD002182689160002182681161B5
:10CDE00000218268516100218268D160002182683F
:10CDF00051600021826811607047FEE7EFF31080F8
:10CE000072B6704762B6704738B50500FFF7F6FF97
:10CE100004001C498868002810D1012088601A4845
:10CE20001A4A136803400B601060194802684A6090
:10CE30005FF0FF3101600020287001E001202870C0
:10CE4000002C01D1FFF7DEFF002032BD70B50500D8
:10CE50000C4EB068002812D02800C0B200280ED1B5
:10CE6000FFF7CCFF040030680A49086070680A497F
:10CE700008600020B060002C01D1FFF7C3FF002044
:10CE800070BD0000E0400020FC06FFBD80E100E036
:10CE900084E100E000E100E004E100E010B50400FE
:10CEA0002000FFF7B1FF10BD10B504002000C0B294
:10CEB000FFF7CCFF10BDC268C9B2008A414302EB44
:10CEC00001007047C268891A008AB1FBF0F0C0B255
:10CED000704710B40100002901D10E2015E08868C8
:10CEE0004A68821A48680B6818601000421EC0B277
:10CEF000002806D008680068431C0C682360027094
:10CF0000F3E700200B681871002010BC704738B59B
:10CF10000400002500208DF800006846FFF7BEFFE2
:10CF2000606821680968884217D220680068401E3E
:10CF3000216808602068006801782000FFF7BBFFC7
:10CF40000500A16820680068081A216809790200B4
:10CF5000D2B2914201D2216808719DF80000FFF71A
:10CF6000A3FF280032BDF8B504000D002E000020FC
:10CF70008DF800006846FFF791FF20680768781C6D
:10CF80002168086031002000FFF79CFF38709DF891
:10CF90000000FFF789FFF1BD62B38B0708D0521E76
:10CFA00011F8013B00F8013B00F024808B07F6D11B
:10CFB000830740F0208000BF103A07D330B4B1E8B7
:10CFC0003810103AA0E83810F9D230BC530724BF0B
:10CFD000B1E80810A0E8081044BF51F8043B40F83D
:10CFE000043BD20724BF31F8022B20F8022B44BFA8
:10CFF0000B7803707047121F17D35B0009D151F8EB
:10D00000043B20F8023B1B0C121F20F8023BF6D217
:10D010000BE051F8043B00F8013B1B0A20F8023BEF
:10D020001B0C121F00F8013BF3D238BF121D521E19
:10D0300024BF11F8013B00F8013BF8D87047FEE728
:10D0400010B50400DFF8AC080178200080B200F0D1
:10D0500022FE10BD10B50400DFF89C080178200006
:10D0600080B200F018FE10BD10B50400DFF88C0887
:10D070000178200080B200F00EFE10BD10B5040053
:10D08000DFF87C080178200080B200F004FE10BDBB
:10D0900038B50500688800F0AEFFA8800024002C99
:10D0A00007D12800DFF85C1851F824108847641C69
:10D0B000F5E731BD38B586B004000D006846DFF8ED
:10D0C00048181822FFF778FFADF802408DF8085095
:10D0D0006846FFF7DDFF07B030BD38B586B0040005
:10D0E0000D006846DFF824181822FFF765FFADF839
:10D0F000024002956846FFF7CBFF07B030BD10B580
:10D1000086B004006846DFF808181822FFF754FFBD
:10D11000ADF802406846FFF7BBFF06B010BDF8B59A
:10D1200086B004000D0016001F006846DFF8E41703
:10D130001822FFF741FFADF802408DF80850ADF816
:10D140000A608DF80C700022DFF8A8070178200033
:10D1500080B200F0BCFD6846FFF79AFF07B0F0BD53
:10D160002DE9F84306000F0090460025300080B2FC
:10D17000FFF77AFF002802D05FF0010901E05FF0BD
:10D180000209072116F5807080B201F0B7FB040098
:10D19000002C19D0052C17D0200001F0E9FB33003A
:10D1A0009BB20200DFF87017DFF87007DFF87057E6
:10D1B000401BC008000450F00100FFF79BFA21005B
:10D1C000300080B2FFF789FF4346DBB23A0092B2EB
:10D1D0004946C9B2300080B2FFF7A1FFBDE8F18334
:10D1E00070B504000D0016003300DBB22A0092B2C5
:10D1F0000021200080B2FFF792FF70BD70B50400DF
:10D200000D001600200080B2FFF71AFF002816D08C
:10D21000200080B2FFF71EFF002808D03200D2B2F3
:10D22000290089B2200080B2FFF79AFF07E03200A0
:10D23000D2B2290089B2200080B2FFF7D1FF70BDC1
:10D2400070B504000D0016002A00D2B2DFF8A40663
:10D250000178200080B200F03AFD2800C0B200281A
:10D2600023D03000C0B2002801D0012200E000220B
:10D27000D2B2DFF884060178200080B200F027FDEA
:10D280003000C0B2012801D1012200E00022D2B258
:10D29000DFF868060178200080B200F018FD310048
:10D2A000C9B2200080B2FFF705FF70BD2DE9FF4134
:10D2B0000700002417F10C0000F000FF80464FF635
:10D2C000FF764046310080B2884204D1388800F0B1
:10D2D00092FE804604E0414689B2388800F052FF51
:10D2E000002201213888FFF7ABFF404680B2B042F0
:10D2F00019D001AA0721404680B201F04CFA05007E
:10D30000002D10D1029810F13406307C10F001008D
:10D31000002807D117F10C0116F1120000F0A6FE4B
:10D32000002800D03400002300222100388886DF46
:10D330000600002E19D0300001F01AFB0200404612
:10D3400080B200903B88DFF8DC15DFF8D005DFF80D
:10D35000D055401BC008000450F00100FFF7D8F979
:10D3600031003888FFF7B9FE07E0002C05D1002214
:10D3700041F206013888FFF733FFBDE8FF81F8B5B9
:10D3800086B00400182500266F46320029003800B8
:10D39000FEF760FF04208DF80000ADF802406846FB
:10D3A000FFF776FE07B0F0BD38B5040020793D28C0
:10D3B00002D141F23D0501E04FF4885500222900D9
:10D3C00089B22088FFF71AFF31BD38B586B0040056
:10D3D0000D006846DFF850151822FFF7EDFDADF897
:10D3E000024002956846FFF753FE07B030BD10B506
:10D3F0000400208800F0F0FB01280CD1207910F007
:10D400000100002801D0012200E00222D2B2012155
:10D410002088FFF715FF211D2088FFF7D6FF10BDDC
:10D4200038B586B004000D0002208DF80000208879
:10D43000ADF802006079C0F38000C0B2002801D0CE
:10D44000012000E002208DF808008DF809506846A0
:10D45000FFF71EFE07B030BD2DE9FE4306003788FA
:10D460005FF000080022DFF88C040178380080B2F9
:10D4700000F02DFC7079C0F38000C0B2002804D108
:10D4800000213000FFF7CCFFC3E001AB01220721F0
:10D4900017F5807080B201F091F90500002D1CD0C5
:10D4A000280001F065FA02003B009BB2DFF87C1413
:10D4B000DFF86804DFF86844001BC008000450F07F
:10D4C0000100FFF717F92900380080B2FFF705FEC9
:10D4D00000213000FFF7A4FF9BE0380080B200F08D
:10D4E0008AFD81464FF6FF744846210080B288428B
:10D4F00024D120000100029800F059FD81464846E1
:10D5000080B2A0421AD0494689B2380080B200F0F9
:10D5100039FE380080B2FFF7B1FD00280ED1380087
:10D5200080B2FFF72CFF380080B2FFF7A7FD00287C
:10D5300004D100213000FFF773FF6AE04846210064
:10D5400080B2884225D101F059FD8146484680B21B
:10D55000A04216D1DFF8D813DFF8C003DFF8C023EC
:10D56000801AC008000450F00100FFF7ADF8042154
:10D57000380080B2FFF7B1FD00213000FFF750FF07
:10D5800047E0494689B2380080B200F0FBFD012037
:10D5900080464A4692B2072117F5807080B201F0AA
:10D5A000C0F90400002C04D101213000FFF738FF3E
:10D5B0002FE0862C08D1380080B2FFF7A0FD0121B2
:10D5C0003000FFF72DFF24E0200001F0D1F949469B
:10D5D00089B200913B009BB20200DFF85813CF489C
:10D5E000CF4D401BC008000450F00100FFF790F839
:10D5F0002100380080B2FFF770FD00213000FFF7F6
:10D600000FFF4046C0B2002803D0484680B200F069
:10D61000C7FDBDE8F78310B50400627912F003027C
:10D62000217989B22088FFF7E9FD10BD10B504000B
:10D630002079002803D12000FFF70EFF02E0200030
:10D64000FFF7E9FF10BD10B586B004002088FFF792
:10D6500001FD002820D1208800F0E3FA002806D13F
:10D66000012241F206012088FFF7BAFD14E00022F2
:10D67000A0480178208800F02AFB02208DF80000E5
:10D680002088ADF8020000208DF8080000208DF8F9
:10D6900009006846FFF7FCFC06B010BD10B5040099
:10D6A0002078182802D100F0E9FA207010BD2DE989
:10D6B000F041A14C207890F00100C0B2DFF8348234
:10D6C0004046FFF7EBFF8C4D2800FFF7E7FF8B4E3E
:10D6D0003000FFF7E3FF8A4F3800FFF7DFFF98F8CD
:10D6E0000000182808D02878182805D03078182885
:10D6F00002D0387818280BD190498848884A801A77
:10D70000C008000450F00100FEF7DEFF032002E035
:10D71000012020700020BDE8F0812DE9FE4F0700B8
:10D72000884691461D00002D0CD1854A85497B48CD
:10D730007B4BC01AC008000450F00100FEF7CEFF7A
:10D74000032056E06B460122072117F5807080B256
:10D7500001F034F80400112C4AD0002C12D0200023
:10D7600001F006F93B009BB2020077496B486C4E12
:10D77000801BC008000450F00100FEF7BBFF03202F
:10D78000040035E050265FF0000ADDF804B0524690
:10D7900031005846FEF75EFD019880F80080019840
:10D7A00034302860C5F80C90019818302861019831
:10D7B000401C68616548E861019810F1110138006A
:10D7C00080B200F02EFC0400002C11D0200001F0EB
:10D7D000CFF83B009BB202005D495048504E801B81
:10D7E000C008000450F00200FEF784FF082000E0AB
:10D7F0002000BDE8FE8F2DE9F04F89B006000C0037
:10D800001700300080B200F0E7F9804600255FF095
:10D810000009202000905FF0000A0DF1040B524631
:10D8200000995846FEF716FD4046C0B2012806D1C1
:10D83000002233480178300080B200F048FA4046B8
:10D84000C0B2002802D143F2020050E0002C02D105
:10D850008520814633E0300080B200F0CCFB4FF6EB
:10D86000FF71884215D04046C0B2012811D1300066
:10D8700080B2FFF703FC00280BD1300080B2FFF725
:10D880007EFD300080B2FFF7F9FB002801D1852032
:10D890008146207810F00100002803D104972B481E
:10D8A00008900CE04846C0B2852808D001AB3A0089
:10D8B0004146C9B2300080B2FFF72FFF0500002DAE
:10D8C00014D14046C0B2012808D101AB220049461C
:10D8D000C9B2300080B27FDF050007E001AB002253
:10D8E0004946C9B2300080B27FDF0500280009B088
:10D8F000BDE8F08FAD290020AE290020AF2900201F
:10D90000B0290020B0E0020040D8020058D8020040
:10D9100070D8020088D8020018B80200E8B00200EF
:10D9200038B00200C8B60200A0D80200D4BA020083
:10D9300090CA020044BD02007442002038B70200C1
:10D94000CCDC0200C4CA0200F0B80200C43D0020D2
:10D95000D8C002000200100080B27EDF042801D18E
:10D9600011231800704770B505000C000026002C2C
:10D9700005D02100280080B2FFF7ECFF0600300040
:10D9800070BDF8B504000D001600200080B200F054
:10D9900023F907003800C0B2012805D12900200072
:10D9A00080B2FFF7E0FF01E043F20200F2BD10B5E4
:10D9B00004002088112808D013280AD014280CD07D
:10D9C00019280ED01A2810D012E0201DFFF7ECFC09
:10D9D0000EE0201DFFF70BFD0AE0201DFFF766FC9F
:10D9E00006E0201DFFF722FE02E0201DFFF72BFEC0
:10D9F00010BDFEE733B58BB00400002000900C98FA
:10DA0000002812D00025142D0FD229000CA801F0F7
:10DA100051FB002807D06846009900EB4100858043
:10DA20000098401C00906D1CEDE7200069462C22F8
:10DA3000FFF7C2FA0DB030BD38B50400200080B247
:10DA4000142801DB00200DE0DFF84453210089B2E7
:10DA500015F1080001F0FEFA210089B2281D01F03D
:10DA6000F9FA012032BD38B5040000251D2D0AD277
:10DA7000210089B2DFF8180300EB8500001D01F0DA
:10DA80000AFB6D1CF2E731BD10B50400210089B21C
:10DA9000DFF8000301F0FFFA10BD10B58CB0DFF81D
:10DAA000F0028168C943009141686846FEF7A8FA10
:10DAB000009901A8FFF79EFF00240198844207D235
:10DAC00001A800EB44008088FFF7CDFF641CF4E759
:10DAD0000CB010BD10B504002100C9B2DFF8B002CF
:10DAE00001F0E8FA10BD2DE9F84304000D00A68806
:10DAF0002088102804D0112819D01A281CD05BE0E7
:10DB0000FFF7CBFF300080B2FFF796FF002805D16A
:10DB1000A14AE321042001F007FB07E0E07B012894
:10DB200004D0310089B29D4801F094FA44E03000FD
:10DB300080B2FFF7A9FF3FE0207AC0B20009C0B26F
:10DB4000022801DB012700E00027207AC0B200098B
:10DB5000C0B2032802DB5FF0010801E05FF00008BB
:10DB60003800C0B2002819D0DFF82492310089B201
:10DB700019F1100001F06EFA4046C0B2002806D03C
:10DB8000310089B219F1140001F064FA14E0310097
:10DB900089B219F1140001F07EFA0DE0DFF8F0917E
:10DBA000310089B219F1100001F075FA310089B223
:10DBB00019F1140001F06FFABDE8F18310B504000B
:10DBC000200080B2142801DB002004E0210089B28B
:10DBD000734801F06FFA10BD38B50400002520002D
:10DBE00080B2FFF7EBFF002801D0012005002800DC
:10DBF000C0B232BD38B504000025200080B2FFF766
:10DC0000DDFF00280AD0210089B2624801F052FAF3
:10DC1000C0B2002801D0022500E001252800C0B2D2
:10DC200032BD10B50400200080B2FFF7C7FF002806
:10DC300005D0210089B25B4801F03CFA00E00020E9
:10DC400010BD10B50400200080B2FFF7B7FF002818
:10DC500005D0210089B2544801F02CFA00E00020E0
:10DC600010BD10B50400200080B2FFF7A7FF002808
:10DC700002D0200080B200E0142010BD80B5182131
:10DC8000434801F021FA0100182901D1182001E0D0
:10DC90000800C0B202BD38B504000D002800C0B2B3
:10DCA000FFF718FF002810D0200080B2FFF786FF92
:10DCB00000280AD0210089B235482A00D2B200EBF0
:10DCC0008200183001F0F6F900E0002032BD70B596
:10DCD00004000E0015003000C0B2FFF7FBFE002864
:10DCE0001ED0200080B2FFF769FF002818D028005E
:10DCF000C0B200280AD0210089B225483200D2B231
:10DD000000EB8200183001F0A5F909E0210089B28A
:10DD10001F483200D2B200EB8200183001F0BBF98C
:10DD200070BDF1B50C0015002000002801D10020C5
:10DD300014E00026009800280FD00027142F0CD2E2
:10DD40003900684601F0B6F9002804D029003800EF
:10DD500080B2A047761C7F1CF0E73000F2BD70B5A2
:10DD600004000D0016002000C0B2FFF7B3FE00282B
:10DD700001D1002009E03200290005482300DBB270
:10DD800000EB83008069FFF7CCFF70BD000000004E
:10DD9000483B0020503B0020E4C40200543B0020DC
:10DDA0004C3B0020583B00205C3B002038B5040071
:10DDB0000025022D07D22000DFF81C1451F8251091
:10DDC00088476D1CF5E731BD0100002901D0012015
:10DDD00000E00020C0B20022102A06D2885C002891
:10DDE00001D0012002E0521CF6E70020704738B550
:10DDF00005000C00002D01D0002C01D1002014E002
:10DE00002878C0B240082178C9B2B0EB510F01D0D8
:10DE100000200AE00622611C681C01F099F9002824
:10DE200001D1012000E00020C0B232BD70B594B035
:10DE30000400208810285FD109A8211D2C22FFF79B
:10DE4000BBF84FF6FF7635009DF82800C0B24008B9
:10DE5000C0B203282FD001F006F89DF82800C0B208
:10DE60004008002802D0022813D024D201AA694613
:10DE7000072001F002F800280AD0029810F11101E1
:10DE80000AA8FFF7B4FF0028F0D0BDF80000050095
:10DE900011E001AA6946072000F0EFFF002809D031
:10DEA0000298411C0AA800F0CFF90028F1D0BDF873
:10DEB00000000500FFE70A20DFF82013BDF824204A
:10DEC00042438D52BDF8242000FB02F00844801C20
:10DED0000AA90722FFF760F8280080B2B0420BD0F1
:10DEE000BDF82400ADF80E00ADF8105000208DF8FC
:10DEF0000C0003A8FFF75AFF14B070BD2DE9F041E4
:10DF000004000D00002C01D0012000E00020C0B270
:10DF1000002D01D0012000E00020C0B214F1110753
:10DF200015F111081022691C601C01F011F900287C
:10DF30000BD1601CFFF748FF002806D0681CFFF7D4
:10DF400043FF002801D0012600E0002641463800AA
:10DF5000FFF74DFF3978C9B24908C9B2022915D077
:10DF60003978C9B24908C9B203290FD098F800100E
:10DF7000C9B24908C9B2022908D098F80010C9B23C
:10DF80004908C9B2032901D0012100E00021C0B233
:10DF9000002803D00800C0B2002803D191F001018D
:10DFA0000E4000E001263000C0B2BDE8F0813EB571
:10DFB00004000D00002C01D0012000E00020C0B2C0
:10DFC00000F051FF01AA6946072000F056FF002823
:10DFD0000ED0BDF80000290089B28842F2D0029923
:10DFE0002000FFF78BFF0028ECD0BDF8000001E017
:10DFF0004FF6FF703EBD10B50400200080B214281B
:10E0000005DA200080B2FFF7D9FD002802D14FF6D3
:10E01000FF7005E0DFF8C411A4B20A204443085B96
:10E0200010BD38B505000C00002C01D0012000E027
:10E030000020C0B2280080B2142805DA280080B27F
:10E04000FFF7BCFD002802D143F202000DE02000E2
:10E05000DFF888212B009BB20A214B4302EB03011E
:10E06000891C0722FEF798FF002032BD38B5050055
:10E070000C00002D01D0012000E00020C0B2002CD7
:10E0800001D0012000E00020C0B2280000F066F8B6
:10E09000002801D1002010E028882188884201D082
:10E0A00000200AE00822A11CA81C01F051F8002859
:10E0B00001D1012000E00020C0B232BD1FB5040034
:10E0C000002C01D0012000E00020C0B200F0CBFE07
:10E0D00001AA6946072000F0D0FE002812D002985D
:10E0E00010F146012000FFF7C1FF002807D1029878
:10E0F00010F12A012000FFF7B9FF0028E8D0BDF891
:10E10000000001E04FF6FF7004B010BD70B50400D0
:10E110004FF6FF752000290080B2884201D1280007
:10E120001BE00026300080B2142815DADFF8AC10AE
:10E13000320092B20A204243885A210089B28842B2
:10E1400008D1300080B2FFF739FD002802D030003E
:10E1500080B202E0761CE5E7280070BD0100088867
:10E16000002801D001200CE00022082A08D201EB8F
:10E1700002008078002801D0012002E0521CF4E760
:10E180000020704710B4020092B2142A06DADFF8B9
:10E190004C300400A4B20A225443195310BC7047F7
:10E1A00070B50400200080B2FFF7B0FF050020002A
:10E1B00080B200F09FFA00280CD1290089B21429FE
:10E1C00008DA4FF6FF72DFF814302E00B6B20A21DB
:10E1D0004E439A5370BD0000D0DE02002838002064
:10E1E0002DE9F8438CB004000D0016000020102823
:10E1F00006D241422144C97B6A461154401CF6E7CD
:10E200000D275FF000080DF110094246390048461D
:10E21000FEF720F80020032806D2295C6A46434214
:10E220001A44D177401CF6E7684646DF00200328F1
:10E2300007D269464242114491F82F103154401CD4
:10E24000F5E70DB0BDE8F0832DE9FF4704000D00B0
:10E250002078C0B24008C0B2022801D0002022E0DD
:10E260000326671C0DF10808320039004046FEF70E
:10E2700093FE5FF0030814F10409EA46424649465A
:10E280005046FEF789FE01AA69462800FFF7A8FF5D
:10E29000032201A902A800F05BFF002801D10120A0
:10E2A00000E00020C0B204B0BDE8F0874FF6FF7177
:10E2B0000180FF2181704172817A11F0FD0181722C
:10E2C000817A11F0FE01817200210172002141600A
:10E2D000704770B40200086804280FD20C23DFF8DE
:10E2E000D84503FB00F5655B1600B6B2B54203D115
:10E2F00008605843204402E0401CEDE7002070BC59
:10E3000070477CB505000E0000200090694628008B
:10E3100080B2FFF7DEFF0400002C15D0A07831009A
:10E32000C9B2884206D1A07A10F0030F02D160680A
:10E33000002809D00098401C00906946280080B24F
:10E34000FFF7C7FF0400E7E7200076BD10B4010027
:10E35000002004280DDA0C22DFF85C3502FB00F403
:10E360001C4464688C4202D15043184402E0401CB3
:10E37000EFE7002010BC704780B5FF214FF6FF701B
:10E38000FFF7BFFF02BD38B504000025207A8542A3
:10E3900008D2617A6918C9B2DFF8200500F0B5FF2C
:10E3A0006D1CF3E72000FFF781FF31BD70B504005D
:10E3B0000D001600002C09D0FFF7DEFF206020685A
:10E3C000002803D0206805802068867070BD38B5AD
:10E3D00004000025042D07D22000DFF8E41451F8D2
:10E3E000251088476D1CF5E731BD10B50024042CBD
:10E3F00009D2DFF8C4040C2101FB04F10844FFF743
:10E4000055FF641CF3E710BD30B4502413FB04F433
:10E41000817042602500ADB2ED1CAD10058030BCAE
:10E420007047F8B504000D0016001F003B009BB2BA
:10E4300032002900C9B22000FFF7E6FFF1BD817864
:10E44000012909D006290AD0072902D0082909D0B4
:10E450000EE0142101800BE00121018008E0012180
:10E46000018005E041688988093189080180FFE75A
:10E470007047FEB506000025DFF84804D0E9002308
:10E48000CDE90023B0788DF80200717ADFF82C0412
:10E4900000F01AFF0400002C0FD1727ADFF8281464
:10E4A000DFF82804DFF82834C01AC008000450F050
:10E4B0000100FEF713F9032053E0337A2200B1780C
:10E4C0006846FFF7AEFF6846FFF7B9FF321D6946A1
:10E4D000308800F016FD07003800002806D0072815
:10E4E00029D011280BD0862818D025E0B07A10F05A
:10E4F000FD00B072B07A10F0FE00B07230E0B07A79
:10E5000050F00200B072B07A10F0FE00B07201203C
:10E51000DFF8C01308700020070021E0B07A10F087
:10E52000FD00B072B07A50F00100B0720120DFF847
:10E53000A413087014E013E0380000F019FA020088
:10E540003388DFF89413DFF88403DFF88453401B2B
:10E55000C008000450F00100FEF7CCF803200700CB
:10E560003800FEBD70B586B005002800FFF781FFBA
:10E570000400002C2AD04FF6FF70ADF80200288866
:10E58000ADF80400862C03D106208DF8000018E0B9
:10E5900007208DF80000029400208DF80C00200068
:10E5A00000F0E6F902002B88DFF83013DFF81C03D7
:10E5B000DFF81C63801BC008000450F00100FEF768
:10E5C00099F86846FFF703FF002000E0012006B03D
:10E5D00070BD70B50400BF4D2878002826D00020FB
:10E5E00028700026042E21D20C21B34A01FB06F02C
:10E5F0001044807A10F0030F16D00120287001FB20
:10E6000006F01044807AC0F34000C0B2002803D165
:10E610002000C0B2002807D001FB06F102EB010088
:10E62000FFF7A0FF002801D0761CDBE770BDF8B52E
:10E63000050001260027E868FFF788FE0400287817
:10E64000082804D009280BD013281AD01CE0687AB7
:10E65000002804D1002C02D02000FFF794FE13E024
:10E66000687A00280CD1002C0AD000206060A07AC3
:10E6700050F00200A07201209649087000200600A8
:10E6800002E001200700FFE73000C0B2002802D0FE
:10E690002800FFF79CFE3800C0B2FFF79AFFF1BDDB
:10E6A0003EB58F4D287890F00100C0B2FFF79DFE77
:10E6B00050200190042000908A4B4FF4A0728A49A8
:10E6C0007E4800F09DFD0400002C0FD0200000F0DB
:10E6D0004FF9020085497D487D4BC01AC0080004EF
:10E6E00050F00100FDF7FAFF032002E0012028703E
:10E6F00000203EBDFEB507000020019001A93800B2
:10E7000080B2FFF7E6FD0500002D27D0A97838007C
:10E7100080B200F0F3F80400002C15D0052C13D0C3
:10E72000200000F025F90200A87800903B009BB281
:10E730006F496648664E801BC008000450F0010017
:10E74000FDF7E6FF032025E00198401C019001A998
:10E75000380080B2FFF7BDFD0500D5E7380080B274
:10E7600000F052FC0600002E01D0072E01D130002F
:10E7700010E0300000F0FCF803003A0092B25D496E
:10E780005248534C001BC008000450F00100FDF734
:10E79000B1FF0320FEBD70B505000E001400002C73
:10E7A00001D0012000E00020C0B20023220031008F
:10E7B000C9B2280080B200F0F9FA70BD2DE9F84323
:10E7C0000700884614001D00002D01D10E2070E0C6
:10E7D0004046C0B2072805D04046C0B2082801D044
:10E7E000072066E0002C01D0052C01D3072060E053
:10E7F0005FF000094146C9B2380080B2FFF781FDE1
:10E800000090009800280BD14246D2B2390089B25C
:10E810006846FFF7CBFD0098002807D1112048E09B
:10E820000098007AA04201D00F2042E00098407A80
:10E83000FF2810D12100214800F0FDFC009948720A
:10E840000098407AFF2804D10098FFF72FFD11208F
:10E850002FE001208146009804720098417A174801
:10E8600000F032FD0600002E0DD10098427A2249B8
:10E870001648174BC01AC008000450F00100FDF7FD
:10E880002DFF032015E023009BB232004146C9B2A0
:10E890002800FFF7B9FD4846C0B2002808D040461E
:10E8A000C0B2082804D128888000801F6968888049
:10E8B0000020BDE8F2830000343E00209440002098
:10E8C0001CDC0200C8DF0200B4C60200D0B00200A7
:10E8D00038B002006C42002058CB020014BA02008B
:10E8E0006B42002024420020DC35002018D30200B7
:10E8F000ECBC0200F0BE0200FCB4020070B50500E2
:10E900000E003100C9B2280080B2FFF7FAFC040003
:10E91000002C01D1052003E02000FFF734FD00208A
:10E9200070BDF8B505000E0017003000C0B2072812
:10E9300005D03000C0B2082801D0072017E0380009
:10E9400080B200F072FB002801D107200FE03100F7
:10E95000C9B2280080B2FFF7D4FC0400002C01D11A
:10E96000052004E02780A6702000FFF782FDF2BD9D
:10E9700010B50400200000F005F8002801D110486F
:10E98000FFE710BD10B401000E48020010F59473AB
:10E990009A4212D2981AC010022490FBF4F002EBB3
:10E9A000C0000468A14201D20300F1E78C4202D208
:10E9B00008300200ECE7406800E0002010BC70471F
:10E9C00034DA02008CAD020038B505004FF6FF7056
:10E9D00068800024002C07D12800DFF8F01551F8DA
:10E9E00024108847641CF5E731BDB0F5804080B243
:10E9F000704710F5804080B27047C0B2B0F58040DB
:10EA000080B27047C0B27047010089B2B1F5404F83
:10EA100006DB80B24FF6FF71884201D0012000E092
:10EA20000020C0B27047010089B2B1F5404F06DB4B
:10EA300080B24FF6FF71884201D0012000E0002033
:10EA4000C0B270470100C9B2072916D00100C9B28F
:10EA5000012912D00100C9B208290ED00100C9B2A3
:10EA600005290AD00100C9B2062906D00100C9B2A1
:10EA7000092902D0C0B2042801D1012000E0002001
:10EA8000C0B2704770B586B004000D00160068462D
:10EA9000DFF83C151822FEF78FFAADF80440029516
:10EAA0008DF80C606846FFF78FFF06B070BD2DE94A
:10EAB000F84785B0DFF81C550020287008275FF064
:10EAC0000008E946424639004846FDF7C3FB4FF6C9
:10EAD000FF79484600F013FD8246504680B2484513
