:020000040007F3
:1020000018720020552207005D2207005F2207009A
:10201000612207006322070065220700000000001C
:102020000000000000000000000000006722070020
:1020300069220700000000006B2207006D220700E4
:102040006F2207006F2207000D3E07006F22070076
:102050006F2207006F2207006F2207006F22070020
:102060006F2207006F2207006F2207006F22070010
:102070006F220700ED3C07006F2207006F22070068
:102080006F220700513D07006F2207006F220700F3
:10209000E53D07006F220700E93D07006F220700BA
:1020A0006F2207006F2207006F2207006F220700D0
:1020B0006F2207006F2207000000000000000000F0
:1020C0006F2207006F2207006F2207006F220700B0
:1020D0006F2207006F2207006F2207000000000038
:1020E00000000000000000000000000000000000F0
:1020F00000000000000000000000000000000000E0
:1021000000000000000000000000000000000000CF
:1021100000000000000000000000000000000000BF
:1021200000000000000000000000000000000000AF
:10213000000000000000000000000000000000009F
:10214000000000000000000000000000000000008F
:10215000000000000000000000000000000000007F
:10216000000000000000000000000000000000006F
:10217000000000000000000000000000000000005F
:10218000000000000000000000000000000000004F
:10219000000000000000000000000000000000003F
:1021A000000000000000000000000000000000002F
:1021B000000000000000000000000000000000001F
:1021C000000000000000000000000000000000000F
:1021D00000000000000000000000000000000000FF
:1021E00000000000000000000000000000000000EF
:1021F00000000000000000000000000000000000DF
:10220000DFF80CD000F0AEF8004800476582070008
:1022100018720020056885F308884068FF2464B2BE
:10222000EFF30585002D07D1EFF3148102229143CE
:1022300081F31488A64600472546064621273FBA63
:10224000F0B40024002500260027F0B4F92040B2A5
:10225000004700000648804706480047FEE7FEE7C3
:10226000FEE7FEE7FEE7FEE7FEE7FEE7FEE7FEE746
:102270002D400700012207000048704704A3070013
:1022800040EA01039B0703D009E008C9121F08C0F8
:10229000042AFAD203E011F8013B00F8013B521E78
:1022A000F9D27047D2B201E000F8012B491EFBD2EF
:1022B00070470022F6E710B513460A460446194651
:1022C000FFF7F0FF204610BD421C10F8011B00294B
:1022D000FBD1801A704730B504460020034600E069
:1022E0005B1C934203D2E05CCD5C401BF8D030BD58
:1022F000034611F8012B00F8012B002AF9D11846EA
:1023000070472DE9F05F0546002092469B468846BF
:102310000646814640241BE0284641464746224661
:1023200000F041F853465A46C01A914110D3114665
:102330001846224600F028F82D1A67EB01084F4690
:1023400022460120002100F01FF817EB00094E4142
:10235000201EA4F10104DFDC484631462A464346EC
:10236000BDE8F09F064C074D06E0E06840F0010331
:1023700094E8070098471034AC42F6D3FFF744FFC7
:1023800090A70700B0A70700202A04DB203A00FA34
:1023900002F1002070479140C2F1200320FA03F3BC
:1023A000194390407047202A04DB203A21FA02F0BA
:1023B0000021704721FA02F3D040C2F1200291407F
:1023C0000843194670472DE9F0438BB01446129D1F
:1023D00015F9046B00961F46804689462B46024637
:1023E000214602A800F0BAFC02A9129A084600F0A1
:1023F000A5FC129B02AA4146404600F08FFC129BAE
:1024000002AA2146204600F089FC2B464A4639465E
:102410003846009600F0A2FC129A394602A800F055
:102420008DFC02A92B4642460846009600F096FC19
:1024300002A92B4622460846009600F08FFC2B4648
:10244000424621462046009600F088FC129B224618
:102450004946484600F062FC2B4602AA4146204607
:10246000009600F07BFC129B22463946384600F06D
:1024700055FC2B464A4639463846009600F06EFC1D
:10248000324602A9204600F02FFE0BB0BDE8F083D3
:10249000F0B5154689B01C4607460E461A46294631
:1024A000684600F04BFC23466A463946384600F041
:1024B00035FC23462A466946684600F02FFC234631
:1024C0006A463146304600F029FC09B0F0BD8B1851
:1024D00002448B4204D013F8010D02F8010DF8E715
:1024E00070472DE9F047B3F9025089460824E91DE9
:1024F0001F3591FBF4F42021944295FBF1F54FFA3E
:1025000085F828BF14461F464146064600F06EFA7D
:1025100022464946FFF7DBFFB7F90230E4009C4250
:1025200020D9E41A06EB85010023C4F120008E4275
:1025300008D251F8042D22FA04F52B430B6002FA5D
:1025400000F3F4E7243742463146384600F05AFAA1
:10255000012807D043463A4631463046BDE8F047A9
:1025600000F016BFBDE8F0872DE9F04793F9006051
:1025700092B004468946104631461546984600F00A
:1025800069FA002840F098804246494602A800F0C7
:10259000D5FB434602AA21460AA800F0BFFB02A9C8
:1025A0000846424600F0CAFB43462A46494648468A
:1025B00000F0B4FB08F1040742462946284600F023
:1025C000BDFB3B462A4621462046009600F0F4FA21
:1025D0003B462A4629462846009600F0EDFA3B463F
:1025E0002A4621462846009600F0B8FB43462A4674
:1025F0002146204600F092FB3B46224621462846D3
:10260000009600F0D9FA3B4600962A46214620461D
:1026100000F0D2FA2368DB0714D533463A46214648
:10262000204600F0B5F931468246204600F04FFDC5
:1026300006F18043013B54F8230040EACA7044F895
:10264000230003E03146204600F041FD424621468A
:10265000284600F073FB3B460AAA29462846009606
:1026600000F07CFB3B460AAA29462846009600F06B
:1026700075FB0AA908463B462A46009600F06EFB09
:1026800043460AAA2146204600F048FB02AA3B46E0
:1026900010462146009600F061FB3246294620464E
:1026A00000F022FD32464946284600F01DFD324624
:1026B00002A9484600F018FD12B0BDE8F0870000FE
:1026C00000487047E0A607002DE9F04FEDB01F4627
:1026D000DDF8D8810590B8F9026098F90050202300
:1026E0001F3696FBF3F676B206F1FF3924AB0024D1
:1026F00043F829406CAB03EB89034CA88A46934608
:10270000394698F9012043F8804C43F8604CFFF7B4
:10271000DEFE98F9012054A8B918FFF7D8FE294623
:102720004CA800F097F90746002840F02781294679
:1027300054A800F08FF90390002840F0218108F19F
:10274000240332464CA91846029300F05BF9012895
:1027500040F01881324654A9029800F053F901283C
:10276000069040F00F811CAC0CAF3346029A54A97E
:10277000204600F03AFA039B47F829305A46514662
:1027800038464346FFF7ADFE39463846029B009671
:10279000224600F0B1FA0DF5B879029B0096224668
:1027A0004CA914A800F0A8FA48462A46059900F05A
:1027B0009BFCAB0009EB030A0793059BA900591882
:1027C00008F1440B50462A4600F08EFC59462A4632
:1027D00034A800F089FCAB000BEB03012A463CA8AF
:1027E00000F082FC08F10403494634AA2046009513
:1027F000049300F0B3FA53464A463CA934A8CDF8F6
:102800000080FFF7E0FD2B46049A2146204600F0A9
:10281000ECF92246514648464346FFF739FE039BF2
:1028200008933146059B0A933846CDF824B0CDF87D
:102830002C9000F02EFC3146814614A800F029FCB3
:102840004845B8BF48461FFA80F909F1FF3B0FFA27
:102850008BFB5946384600F0CBFD5946071C14A89F
:1028600018BF012700F0C4FD002814BF0223002375
:102870001F430DF1200A2A465AF8277024A839462A
:1028800000F032FC0DF1B00BAB00F9182A465846A7
:1028900000F02AFC2946204600F0A8F8A9F1020918
:1028A000069B23600FFA89F90DF1900AB9F1000F28
:1028B00045DB43462246D8F8A47059465046B847EF
:1028C00049460CA800F094FD4946071C14A818BFFF
:1028D000012700F08DFD002814BF022300231F43B1
:1028E00008AB53F827702FB32A46394634A800F0B6
:1028F000FBFB079B2A46F9183CA800F0F5FB434672
:1029000022463CA934A8FFF7C3FD049B009534AAD6
:10291000514644A800F022FA5B4652463CA934A82E
:10292000CDF80080FFF74FFD434644AA21462046DC
:1029300000F0F4F909F1FF390FFA89F9B6E72B46EF
:10294000049A2146204600F050F943462246594653
:102950005046FFF79DFD32465146029800F052F86E
:10296000012805D03346029A5146504600F010FD2A
:102970002A464CA9504600F059F804E0204602E0EF
:10298000384600E003986DB0BDE8F08F000000000D
:10299000C3F10803DB0070B50133002403A500BFB9
:1029A0005B1920C940CAAD1920C0184720C940CAC8
:1029B000754120C020C940CA754120C020C940CA05
:1029C000754120C020C940CA754120C020C940CAF5
:1029D000754120C020C940CA754120C020C940CAE5
:1029E000754120C06441204670BD00BF002210B573
:1029F000144653B28B4204DA1BB2013240F8234032
:102A0000F7E710BD10B5013A52B2002A0ADB13B243
:102A100050F8234051F823309C4205D8F3D24FF0B0
:102A2000FF3010BD002010BD012010BD70B5013A6F
:102A300052B20023002A09DB15B2013A50F8256092
:102A400051F825407440234352B2F3E7B3FA83F0C0
:102A5000400970BD10B500231A465CB28C4204DAFE
:102A600050F8244001332243F7E7B2FA82F04009DC
:102A700010BD00002DE9F04FA5B01C46039114AB2A
:102A80002146804610461746029300F002FB494B50
:102A9000C0EB841005B22B40002BBEBF03F1FF3307
:102AA00063F01F030133202695FBF6F676B20FFA8A
:102AB00083F904A83146FFF799FFB9F1000F30B24E
:102AC00014DD04AB002203EB8000C9F1200613469D
:102AD000A34212D257F8231001FA09FE4EEA02026D
:102AE00040F8232021FA06F20133F1E704AB224635
:102AF000394603EB800000F0F7FA27B27B00019320
:102B000004AB03EB870704F1FF3924AB012603EB89
:102B10008909002D42DB24AB0022C6F10100964654
:102B200003EB860A03EB8000019B51B299421BDA4A
:102B30000FFA81FC5AF8883C53F82CB024AB03EB15
:102B4000810151F8803CC3EB0B03CEEB03039B45A3
:102B500004D034BF4FF0010E4FF0000E50F8881C27
:102B6000013241F82C30DFE7CEEB06035E4221460E
:102B700004A85E4100F0ABFA24AB03EB84032146CA
:102B800053F8802C59F8803C384643EAC273013D23
:102B900049F8803C2DB200F09AFABAE724AB03EB77
:102BA0008606224656F8881C404600F09DFA25B05D
:102BB000BDE8F08F1F00008070B59DF910401E46E3
:102BC00023460546FFF7E4FE30B922462946304643
:102BD000FFF718FF012807D023463246294628462A
:102BE000BDE8704000F0D4BB70BDF0B50F46A1B099
:102BF00006461946384615461C46FFF72BFF20B1FE
:102C000021463046FFF7F2FE74E022463946684618
:102C100000F06AFA2246294608A800F065FA214623
:102C200010A8FFF7E3FE0123214618A81093FFF731
:102C3000DDFE224608A96846FFF7E4FE002854D0CE
:102C4000009BDA0704D42146684600F040FA26E0EB
:102C5000089BDB0704D4214608A800F038FA3EE0C0
:102C6000002823461FDD08AA6946684600F090FB4D
:102C70002146684600F02BFA224618A910A8FFF753
:102C8000C1FE002805DA10A923462A460846FFF7A8
:102C90007FFE10A9234618AA084600F079FB2246B9
:102CA000294610A81EE008A96A46084600F070FBF5
:102CB000214608A800F00BFA224610A918A8FFF731
:102CC000A1FE002805DA18A923462A460846FFF780
:102CD0005FFE18A9234610AA084600F059FB2246B9
:102CE000294618A800F066FCA3E7224610A9304642
:102CF00000F0FAF921B0F0BD70B590B005469DF92D
:102D000050401E466846234600F03AF823463246B5
:102D100069462846FFF7AEFE10B070BD30B51C46C0
:102D200091B0054693F90030684600F029F8D4F8D0
:102D3000AC3069462846984711B030BD30B51446CE
:102D400091B0054692F90020684600F0DAF9D4F80F
:102D5000AC3069462846984711B030BD70B59DF932
:102D600010401E462346054600F012FB38B12346AC
:102D7000324629462846BDE87040FFF709BE70BDBF
:102D80002DE9F04F08B4F8CA04B451F8042BA3FBA2
:102D9000028940F8048B4FF0000AE4FB629A4FF07E
:102DA000000BE5FB62AB4FF0000CE6FB62BC4FF0A2
:102DB000000EE7FB62CE51F8042B4FF00008E3FB56
:102DC000628940F8048BE4FB629AE5FB62ABE6FBA8
:102DD00062BCE7FB62CE51F8042B4FF00008E3FB26
:102DE000628940F8048BE4FB629AE5FB62ABE6FB88
:102DF00062BCE7FB62CE51F8042B4FF00008E3FB06
:102E0000628940F8048BE4FB629AE5FB62ABE6FB67
:102E100062BCE7FB62CE51F8042B4FF00008E3FBE5
:102E2000628940F8048BE4FB629AE5FB62ABE6FB47
:102E300062BCE7FB62CE40F8049B40F804AB40F86C
:102E400004BB40F804CB40F804EB0CBC052B00F0AD
:102E50001E810C68A0F11400A1F11401A2F114026A
:102E600052F804EB4FF0000550F8046BE4FB6E568B
:102E700052F804EB50F8047BE4FB6E6752F804EB65
:102E800050F8048BE4FB6E7852F804EB50F8049B86
:102E9000E4FB6E8952F804EB50F804ABE4FB6E9A45
:102EA000A0F1140052F8044B51F804EB4FF0000C61
:102EB000E4FB6EC540F804CB51F804EBE4FB6E561E
:102EC00040F8045B51F804EBE4FB6E6740F8046BD8
:102ED00051F804EBE4FB6E7840F8047B51F804EB06
:102EE000E4FB6E8940F8048B51F804EBE4FB6E9A26
:102EF000A0E80006062B00F0CA800C68A0F11800BC
:102F0000A1F11801A2F1180252F804EB4FF00005EC
:102F100050F8046BE4FB6E5652F804EB50F8047B57
:102F2000E4FB6E6752F804EB50F8048BE4FB6E7818
:102F300052F804EB50F8049BE4FB6E8952F804EB62
:102F400050F804ABE4FB6E9A52F804EB50F804BB63
:102F5000E4FB6EABA0F1180052F8044B51F804EBFF
:102F60004FF0000CE4FB6EC540F804CB51F804EBC5
:102F7000E4FB6E5640F8045B51F804EBE4FB6E672B
:102F800040F8046B51F804EBE4FB6E7840F8047BE6
:102F900051F804EBE4FB6E8940F8048B51F804EB24
:102FA000E4FB6E9A40F8049B51F804EBE4FB6EAB33
:102FB000A0E8000C072B6AD008B40C68A0F11C0034
:102FC000A1F11C01A2F11C0252F804EB4FF0000524
:102FD00050F8046BE4FB6E5652F804EB50F8047B97
:102FE000E4FB6E6752F804EB50F8048BE4FB6E7858
:102FF00052F804EB50F8049BE4FB6E8952F804EBA2
:1030000050F804ABE4FB6E9A52F804EB50F804BBA2
:10301000E4FB6EAB52F804EB50F804CBE4FB6EBC5F
:10302000A0F11C0052F8044B51F804EB4FF00003E0
:10303000E4FB6E3540F8043B51F804EBE4FB6E56BC
:1030400040F8045B51F804EBE4FB6E6740F8046B56
:1030500051F804EBE4FB6E7840F8047B51F804EB84
:10306000E4FB6E8940F8048B51F804EBE4FB6E9AA4
:1030700040F8049B51F804EBE4FB6EAB40F804AB62
:1030800051F804EBE4FB6EBCA0E8001808BCBDE8F6
:10309000F08F013949B2002909DA013149B2A1B1F1
:1030A00001F18043013B50F82330002004E050F848
:1030B0002130002BEDD0F0E713B15B080130FBE7C6
:1030C000013900EB411108B270470846704700EB28
:1030D00081010023884206D251F8042D43EA5203AD
:1030E0000B60D307F6E7704730B5002463B2934214
:1030F00006DA1BB2013451F8235040F82350F5E7AB
:1031000030BD2DE9F04FB1E8005E06B4AAFB09120C
:103110004FF00003EBFB69234FF00004ECFB693434
:103120004FF00005EEFB69454FF00006EBFB6A63CC
:10313000ECFB6A344918524176415B41A9FB09789E
:103140004FF0000949F1000918EB0108A0E88001DF
:10315000AAFB0A78574158EB0608A0E88001EEFB6D
:103160006A454FF0000A4AF1000A4FF00001ECFBFB
:103170006B14EEFB6B454FF00002EEFB6C255FEA33
:1031800059094941644152416D4149F10009EBFB44
:103190006B3A1AEB010AA0E80804ACFB0C6A664122
:1031A0005AEB020AA0E84004AEFB0E6A6E415AEBED
:1031B000090AA0E8400406BC052A00F0E680A0F158
:1031C0001400A1F11401B1E8E043A5FB0E344FF067
:1031D0000005E6FB6E454FF00006E7FB6E564FF02C
:1031E0000007E8FB6E674FF00008E9FB6E784FF0D0
:1031F0000009DB1864416D4176417F4158EB0808B6
:1032000059F1000950F804CB13EB0C0350F804CB30
:1032100054EB0C0450F804CB55EB0C0550F804CBE0
:1032200056EB0C0650F804CB57EB0C0758F100088E
:1032300059F10009A0F11400EEFB0E89A0E8F80393
:10324000062A00F0A280A0F11800A1F11801B1E84F
:10325000E047A5FB0E344FF00005E6FB6E454FF04E
:103260000006E7FB6E564FF00007E8FB6E674FF075
:103270000008E9FB6E784FF00009EAFB6E894FF019
:10328000000ADB1864416D4176417F4158EB080824
:1032900059EB09095AF1000A50F804CB13EB0C035F
:1032A00050F804CB54EB0C0450F804CB55EB0C0550
:1032B00050F804CB56EB0C0650F804CB57EB0C0738
:1032C00050F804CB58EB0C0859F100095AF1000AE8
:1032D000A0F11800EEFB0E9AA0E8F807072A54D0D8
:1032E000A0F11C00A1F11C01B1E8E04FA5FB0E34D8
:1032F0004FF00005E6FB6E454FF00006E7FB6E560B
:103300004FF00007E8FB6E674FF00008E9FB6E78AE
:103310004FF00009EAFB6E894FF0000AEBFB6E9A52
:103320004FF0000BDB1864416D4176417F4158EB53
:10333000080859EB09095AEB0A0A5BF1000B50F82F
:1033400004CB13EB0C0350F804CB54EB0C0450F8F3
:1033500004CB55EB0C0550F804CB56EB0C0650F89B
:1033600004CB57EB0C0750F804CB58EB0C0850F883
:1033700004CB59EB0C095AF1000A5BF1000BA0F1E8
:103380001C00EEFB0EABA0E8F80FBDE8F08F0000CC
:10339000C3F10803DB0070B50133002403A500BFAF
:1033A0005B1920C940CAAD1B20C0184720C940CABC
:1033B000B54120C020C940CAB54120C020C940CA7B
:1033C000B54120C020C940CAB54120C020C940CA6B
:1033D000B54120C020C940CAB54120C020C940CA5B
:1033E000B54120C06441B4FA84F0400970BD00BF0B
:1033F0004A11012350F8220001F01F0103FA01F1E4
:1034000008407047F0B5082289B00C460646FFF721
:103410006BFECB6A03930B6B04934B6B05938B6B27
:103420000693CB6B0793002708236A4669466846D4
:10343000029701970097FFF7ABFA082305466A4603
:1034400031463046FFF7A4FA236B0393636B049372
:10345000A36B0593E36B0693054408236A4669460C
:1034600068460797FFF794FA082305446A463146F1
:103470003046FFF78DFA236A0093636A0193A36ACB
:103480000293A36B0693E36B0793054408236A46F4
:1034900031463046059704970397FFF779FA636A38
:1034A0000093A36A0193E36AA26B0293636B039395
:1034B00004920693E26B236A0592054407936A46D9
:1034C000082331463046FFF763FAE36A0093236B23
:1034D0000193636B0293236A0693A36A07930544DF
:1034E00008236A4631463046059704970397FFF74D
:1034F0004FFF236B0093636B0193A36B0293E36B0A
:103500000393636A0693E36A07932D1A08236A46B6
:103510003146304605970497FFF73AFF636B0093F7
:10352000A36B0193E36B0293236A0393636A04938F
:10353000A36A0593236B07932D1A08236A46314625
:1035400030460697FFF724FFA36B0093E36B0193CC
:10355000636A0393A36A0493E36A0593636B079317
:103560002D1A08236A463146304602970697FFF720
:103570000FFF2D1A16D508230D4A31463046FFF7A6
:1035800007FA2D18F7D410E0082231460848FFF753
:1035900039FA012809D00823054A31463046FFF799
:1035A000F7FE2D1A002DEFD0F5E709B0F0BD00BFF2
:1035B000E4A6070070B5036813F00105064614463B
:1035C00005D013460A460146FFF7E2F905462146B3
:1035D0003046FFF77CFD45B104F18042013A56F8D0
:1035E000223043F0004346F8223070BD2DE9F0410F
:1035F00015468AB0044688462022002102A8FEF71C
:103600005AFE2E1D95F9007003232A464146204696
:103610000293FFF793FB334602AA21462046009708
:10362000FFF79CFB2B46424621462046FFF776FBE0
:103630000097334605F1840221462046FFF7BCFA85
:103640000AB0BDE8F08100002DE9F0471D46914623
:103650008846044602F00F07089E00F05BF8DFF88A
:1036600070A0CAF800401DB1CAF8045000F094FAE6
:103670000EB1CAF80860002510E04146204600F06F
:1036800049F8CAF8004000F04DF8204600F01CFC54
:10369000CAF80880103408F1100810354D45ECD3F5
:1036A00067B14146204600F035F8C7F11001E01936
:1036B000FEF7FFFDCAF8004000F034F8DAF8081011
:1036C00000200A5C3254401C1028FAD3BDE8F08771
:1036D000A0200020F0B50D490D4E00220C680021FD
:1036E00002EB800504EB820301EB850C5F5C16F8AE
:1036F0000CC087EA0C075F54491CC9B20429F3D3F4
:10370000521CD2B2042AEAD3F0BD0000A02000204F
:10371000FC29002000228B5C8354521CD2B2102A58
:10372000F9D3704710B50A20FFF7D4FF5FF0090402
:1037300000F0FCF900F018FA2046FFF7CBFF00F08C
:103740000DF8641E14F0FF04F2D100F0EFF900F060
:103750000BFABDE810400020FFF7BCBF2DE9F05F79
:10376000DFF8C4B3002400BFDBF8000010F82460C9
:1037700000EB840090F8019090F802A090F803808C
:10378000304606F0FBFA06F0F9FA06F0F7FA06F012
:10379000F5FA404606F0F2FA504606F0EFFA4846CF
:1037A00006F0ECFA06F0EAFA484606F0E7FA06F008
:1037B000E5FA06F0E3FA06F0E1FA404606F0DEFA32
:1037C00006F0DCFA06F0DAFA06F0D8FA404606F01F
:1037D000D5FA06F0D3FA504606F0D0FA06F0CEFA43
:1037E00006F0CCFA06F0CAFA304606F0C7FA0546EB
:1037F000304606F0C3FA06F0C1FA4540304606F0FE
:10380000BDFA06F0BBFA06F0B9FA4540484606F0A4
:10381000B5FA80EA0907484606F0B0FA06F0AEFAB3
:1038200006F0ACFA47407D40504606F0A7FA06F095
:10383000A5FA80EA0A07504606F0A0FA06F09EFABA
:1038400006F09CFA47407D40404606F097FA06F0A5
:1038500095FA06F093FA80EA0801DBF800004D4083
:1038600000F82450304606F089FA404606F086FA01
:10387000504606F083FA06F081FA484606F07EFAD2
:1038800006F07CFA06F07AFA06F078FA304606F08E
:1038900075FA06F073FA06F071FA06F06FFA304620
:1038A00006F06CFA06F06AFA404606F067FA06F08F
:1038B00065FA06F063FA06F061FA504606F05EFA21
:1038C00006F05CFA06F05AFA06F058FA304606F0AE
:1038D00055FA06F053FA06F051FA80EA0605484612
:1038E00006F04CFA0746484606F048FA06F046FA53
:1038F0004740484606F042FA06F040FA06F03EFA23
:1039000047407D40504606F039FA80EA0A075046A3
:1039100006F034FA06F032FA06F030FA47406F400B
:10392000404606F02BFA06F029FA0546404685EA9D
:10393000080506F023FA06F021FA06F01FFA4540C2
:10394000DBF800006F4000EB84004770304606F063
:1039500015FA404606F012FA06F010FA504606F044
:103960000DFA06F00BFA06F009FA06F007FA4846D7
:1039700006F004FA304606F001FA06F0FFF906F008
:10398000FDF906F0FBF9404606F0F8F906F0F6F905
:1039900006F0F4F906F0F2F9484606F0EFF906F001
:1039A000EDF906F0EBF906F0E9F9484606F0E6F91C
:1039B00006F0E4F9304606F0E1F906F0DFF980EAB6
:1039C0000605304606F0DAF906F0D8F906F0D6F921
:1039D0004540484606F0D2F906F0D0F906F0CEF997
:1039E00080EA09004540504606F0C8F907465046AF
:1039F00006F0C4F906F0C2F94740504606F0BEF999
:103A000006F0BCF906F0BAF947407D40404606F0A2
:103A1000B5F90746404687EA080706F0AFF906F011
:103A2000ADF906F0ABF94740DBF800007D4000EB54
:103A300084008570304606F0A1F906F09FF94046F3
:103A400006F09CF906F09AF906F098F906F096F956
:103A5000504606F093F9484606F090F9304606F0D5
:103A60008DF906F08BF906F089F906F087F95046D2
:103A700006F084F906F082F906F080F906F07EF986
:103A8000504606F07BF906F079F9484606F076F9DB
:103A900006F074F906F072F906F070F9304606F097
:103AA0006DF980EA0605304606F068F906F066F919
:103AB00006F064F94540484606F060F906F05EF904
:103AC00080EA0906484606F059F906F057F906F06B
:103AD00055F946407540504606F050F906F04EF94B
:103AE00006F04CF980EA0A004540404606F046F9E7
:103AF0000646404606F042F906F040F94640404688
:103B000006F03CF906F03AF906F038F94640DBF8E1
:103B10000000754000EB8400641CC570042CFFF6A7
:103B200023AEBDE8F09F0000A02000200D480068F3
:103B3000417B427A427342794272427842714170CB
:103B40008178827A827081728179827B82718173BD
:103B5000C178C279C270C27AC271C27BC272C173AB
:103B600070470000A020002030B50949094C002012
:103B70000B68002103EB8102491C155CC9B20429C2
:103B8000655D1554F6D3401CC0B20428F1D330BD96
:103B9000A0200020109F070078B52D492D4A002055
:103BA000496800BF11F8203002F8203001EB800393
:103BB00002EB80045D7865709D78A570DB78401C11
:103BC000E3700428EED33FE0002183006D461B1F05
:103BD0005C18145D6C54491C0429F9D381071AD16F
:103BE0001D4E9DF801309DF802509DF803409DF850
:103BF0000010F35C755D8DF80150345D8DF8024066
:103C0000715C8DF8031006F5007101EB90010978E5
:103C10004B408DF8003002EB80019DF8004011F818
:103C2000103D634002F820304B789DF8014063401E
:103C30004B748B789DF8024063408B74CB789DF871
:103C400003406340CB74401C2C28BDD378BD0000DA
:103C5000A0200020FC290020109E070000F01F0279
:103C6000012191404009800000F1E020C0F880125D
:103C7000704700F01F02012191404009800000F1CF
:103C8000E020C0F88011704700F01F020121914030
:103C90004009800000F1E020C0F80011704700F0FA
:103CA0001F02012191404009800000F1E020C0F88E
:103CB0000011704700F01F0201219140400980006F
:103CC00000F1E020C0F8001270474907090E0028F3
:103CD00006DA00F00F0000F1E02080F8141D7047B4
:103CE00000F1E02080F80014704700003EB5002489
:103CF0008DF80040684600F0C9FF05F071FEC8B9B4
:103D000010480F490268AAB1D1F8081311F0010F49
:103D100010D00460006802900B4800688DF8040021
:103D200001A90A4804F0E4FD084804F0CBFD08B1FD
:103D300004F0C4FB9DF8000000F0CCFF3EBD000085
:103D400000D0004000D1004008D500406CA1070021
:103D500007480021C0F84011C0F84411C0F84811CC
:103D6000C0F84C11C0F80011C0F8041105F0F0BE05
:103D70000010014003480078002801D100F0B4B8D9
:103D8000704700009C31002070B50E46144900EBCE
:103D9000400001EBC0051446E86A183520B101283F
:103DA0000FD0022805D113E0284600F0D1F8A04238
:103DB00001D2002411E022463146284600F000F9E5
:103DC0000BE0284600F0C4F8A042F4D20446F2E723
:103DD0003146284600F0C7F80446204670BD000072
:103DE0009C31002005F002BE074810B5406830B194
:103DF0008047002807D0BDE8104000F04FBDBDE867
:103E0000104004F051B910BDF82000202DE9F04118
:103E1000294CD4F82001294F002638B1C4F820617C
:103E20002748067000F008FF38688047D4F808017A
:103E300018B1C4F80861B8688047D4F8100168B3B5
:103E4000C4F810611F4800681C4D80B26C35E96DE4
:103E500004290ED295F85820114401F0030101EB1A
:103E6000410202EBC10105EB41018882E86D401C73
:103E7000E86500F0C3FEE86D80B1A96D401E01F059
:103E80000302491CC5E9161002EB420000EBC20018
:103E900015EB400002D07A68818A9047D4F844013B
:103EA00008B1C4F84461D4F82401002801D0C4F852
:103EB0002461BDE8F08100000020004010290020AE
:103EC0009C2000203C250040064A10B59268002145
:103ED000435C545C63404354491CC9B21029F7D376
:103EE00010BD0000A020002010B5124C022020615F
:103EF000606111A0A061A4F50470E0614FF400704E
:103F000020620020A06260620BA1A164E062A4F1C3
:103F10001001E16410212165A0656065E06509A1DB
:103F2000E01DFEF7E5F908A12046FEF7E1F92020A3
:103F3000A07110BD9C3100205465726D696E616C7A
:103F400000000000525454005345474745520000BA
:103F50000269C1688A4203D88068401A104400E0B0
:103F6000501A401E70472DE9F047C468174689462D
:103F700006464FF000083069A04201D9051B02E057
:103F8000B168201A0D1AB0686D1E001BA84200D837
:103F90000546BD4200D33D4670682A462044494646
:103FA000FEF76EF9B0687F1B2C44A844A944A042D8
:103FB00000D10024F460002FDDD14046BDE8F08739
:103FC0002DE9F041C6680446174688468068851B7F
:103FD0006068BD4206D93044FEF752F9F019E0603E
:103FE000BDE8F0812A463044FEF74AF97E1B08EB13
:103FF000050132466068FEF743F9E660F0E7704776
:10400000DEC01FB10000010100C00000340000004C
:1040100068915B00D000000053657020313720327A
:104020003031390031353A31343A3030F0B5A048CA
:104030000023021D01780124101D4FF08055062930
:104040000BD11678360708D10678C6F30316032E6F
:1040500006D0042E04D0052E02D0062907D00EE08B
:10406000B5F82463934FC6F304263E6002E0167849
:10407000360704D10678C6F30316032E02D00629AC
:1040800004D00FE08D4F8C4E7E670EE01678360719
:1040900008D10678C6F30316032E06D0042E04D0EA
:1040A000052E02D0062907D00EE0D5F84462844FD1
:1040B000C6F342363E6002E01678360704D1067831
:1040C000C6F30316032E02D0062906D011E07D4E5A
:1040D000376827F0807737600EE01678360708D10A
:1040E0000678C6F30316032E06D0042E04D0052E40
:1040F00002D006290AD011E04FF08046C6F80C31F4
:10410000C6F810316E4E361F336002E0167836075F
:1041100004D10678C6F30316032E02D0062905D073
:104120000CE0674F032664373E600AE016783607D6
:1041300004D10678C6F30316032E02D006290DD04B
:1041400014E0614F05263E605F4E783634605E4E67
:10415000083633603F263F1D3E6002E01678360782
:1041600004D10678C6F30316052E02D0062957D0CF
:1041700068E056490968564A11605449091D0968A2
:10418000121D1160514908310968121D11604F4913
:104190000C310968121D11604C4910310968121D5B
:1041A00011604A4914310968121D116047491831DC
:1041B0000968474A2032116044491C310968121DC0
:1041C0001160424920310968121D11603F492431B4
:1041D0000968121D11603D4928310968121D1160DE
:1041E0003A492C310968121D11603849303109688B
:1041F000374A40321160354934310968121D116067
:10420000324938310968121D116030493C31096862
:10421000121D11602D4940310968121D116002E024
:10422000117809070ED10078C0F30310032803D0DA
:10423000042801D0052805D1D5F85802254900F0F9
:104240004F0008601F487438016841F47001016034
:10425000BFF34F8FBFF36F8F4FF01021D1F80C02D7
:10426000C00720D01C4A14601C480468002CFCD0F5
:10427000D1F80C4224F00104C1F80C420168002975
:10428000FCD0136001680029FCD0BFF34F8F0D48AC
:10429000F0380168124A01F4E06111430160BFF394
:1042A0004F8F00BFFDE710490E480860F0BD0000C9
:1042B000E00F00F0403501400DF0ADBA00C00740FE
:1042C0003C050040FCED00E01056004004040010E6
:1042D00020C50040E40E004004E5014000E4014038
:1042E0000400FA050090D003102100200FB41CB583
:1042F0000246002007AC00290BD0491ECDE9002161
:10430000054B6A462146069800F028F8009A0021DD
:1043100011701CBC5DF814FBBF47070002E008C821
:10432000121F08C1002AFAD17047002001E001C124
:10433000121F002AFBD170470121202803DA814097
:104340000548014003E0402802DA2038814009B1E5
:104350000120704700207047FC06FFBD2DE9FF4F8C
:104360008DB00F460546002606E025280BD0DDE976
:104370000F1290476D1C761C28780028F5D111B0DB
:104380003046BDE8F08F0024A246A1460122EC4948
:1043900000E0044315F8013F203B02FA03F0084215
:1043A000F7D128782A2810D06FF02F022878A0F1B2
:1043B0003001092914D80AEB8A0102EB410144F0CB
:1043C000020400EB010A6D1CF0E701CF5FEA000A6E
:1043D00003D544F40054CAF1000A44F002046D1CF1
:1043E00028782E2817D115F8010F44F004042A2844
:1043F0000ED06FF02F022878A0F1300109290AD8D9
:1044000009EB890102EB410100EB01096D1CF2E7A8
:1044100057F8049B6D1C28786C280FD006DC4C28BC
:1044200017D068280DD06A2814D104E0742810D061
:104430007A280FD10DE044F400140AE044F480140B
:1044400001E044F440146978814202D104F58014FB
:104450006D1C6D1C2A786E2A1FD00CDC632A31D0AB
:1044600004DC002A8BD0582A11D1A3E0642A68D03A
:10447000692A0CD165E0732A2ED004DC6F2A73D030
:10448000702A04D19BE0752A6FD0782A6ED010462E
:10449000DDE90F129047761C50E1C4F30250022868
:1044A00006D0032809D0042801CF09D0066045E1D1
:1044B00001CFF117C0E9006140E101CF06803DE185
:1044C00006703BE117F8040B8DF8000000208DF812
:1044D0000100EB46012003E057F804BB4FF0FF302A
:1044E00061074FF0000102D40DE008F10101884698
:1044F00049450FDA8045F8DB1BF808100029F4D194
:1045000008E008F1010188468142FADB1BF8081037
:104510000029F6D1DDE90F23AAEB080081462146E8
:1045200000F036F9304400EB080604E0DDE90F1234
:104530001BF8010B9047B8F10108F7D22146484615
:10454000F7E00A21C4F302534FF0000B0891022B4D
:1045500004D001CFC117032B09D00AE0FF1D27F0BB
:104560000707F7E8020108E032E01FE020E000B2B0
:10457000C117042B01D140B2C117031E71F1000312
:1045800007DA4FF0000CD0EB0C006CEB01012D238F
:1045900002E0230504D52B238DF82430012303E00A
:1045A000E30701D02023F7E7984658E00A2110E0FE
:1045B00010210EE010204FF0000B08900CE01021AD
:1045C0004FF0000B44F004044FF00809089103E099
:1045D00008214FF0000B0891C4F30253022B04D0C2
:1045E00001CF0021032B06D006E0FF1D27F00707AF
:1045F000F7E8020103E080B2042B00D1C0B24FF013
:10460000000823072BD5702A07D0DDF820C08CF0D6
:10461000100C5CEA0B0C05D00EE040238DF8243022
:10462000012308E050EA010306D030238DF824303E
:104630008DF8252002239846DDF820C08CF0080C68
:104640005CEA0B0C0BD150EA010301D1630706D5DC
:1046500030238DF824304FF00108A9F10109582AC0
:1046600004D038A20B9208AA0A920BE03AA2F9E70A
:104670005B46089AFDF745FE0B9B9B5C0A9A521E0F
:104680000A92137050EA0102F2D10A98ADEB0000D1
:1046900000F1200B600702D524F4803401E04FF0D4
:1046A0000109D94502DDA9EB0B0000E0002000EB79
:1046B0000B0141440890AAEB010AE00306D4DDE9AE
:1046C0000F232146504600F063F806444FF00009DE
:1046D00008E009A911F80900DDE90F12904709F176
:1046E0000109761CC145F4DBE0030CD5DDE90F239D
:1046F0002146504600F04CF8064404E0DDE90F1274
:1047000030209047761C0899481E08900029F5DC57
:1047100008E00A980A990078491C0A91DDE90F120D
:104720009047761CBBF10001ABF1010BF1DC214697
:104730005046DDE90F2300F019F806446D1C1BE616
:104740000928010030313233343536373839616267
:10475000636465660000000030313233343536372B
:104760003839414243444546000000002DE9F041FC
:10477000044600251E461746880404D405E0394641
:104780002020B0476D1C641EF9D52846BDE8F08195
:104790002DE9F041044600251E469046C80301D588
:1047A000302700E02027880404D505E0414638463C
:1047B000B0476D1C641EF9D52846BDE8F0814A68F3
:1047C000002A06D00A68531C0B6010704868401E0F
:1047D0004860704786B00B21ADF8141002218DF8A7
:1047E000001001228DF801208DF8020003208DF8C1
:1047F00003008DF8041059208DF80500FE208DF877
:10480000060005A90DF109007DDF002818D1BDF8CB
:1048100014000B2808D8411C8DF807100921093015
:104820008DF8081080B206E00C208DF807000820F3
:104830008DF808001420C1B200231A46684672DFC2
:1048400006B070477FB5134D287B800702D5002046
:1048500004B070BD002400940194029406200394D7
:10486000FFF7B8FF0028F3D18DF808402820ADF8F5
:104870000A00B420ADF80C008DF80040019401212D
:10488000684673DF0028E3D1E86840F00200E86082
:10489000DDE700006C20002000BF70470EB500214E
:1048A0000091CDE901106A4644F20100FFF7F4FFE0
:1048B0000EBD00002DE9F84F254C814692466088D8
:1048C0000E46814241D800274FF6FF788DF80070E0
:1048D000684600F0DBF922786078A188884201DA26
:1048E000401C00E00020C0B2904204D19DF80000BE
:1048F00000F0F0F927E065786078884201DA401C22
:1049000000E0002060709DF8000000F0E3F94545EC
:1049100019D0A068B9F1000F40F835A00DD066B1EC
:104920006188E068324605FB01004946FDF7A8FCB6
:10493000A06800EBC500868002E000EBC500878020
:104940000020BDE8F88F0420FBE70920F9E700000C
:10495000D020002010B50E4C03E0401C00E00020E9
:10496000207020786178814210D022786188E068D8
:10497000A36802FB010003EBC20153F832208988CF
:1049800090472078A1888842E9DAE6E710BD000068
:10499000D0200020074B9B7823B12AB120B10068BA
:1049A000037C1BB1082070470720704741744261A7
:1049B00000207047F02D002070B504F091FC1048E5
:1049C00000240B21047044700E4D817014206C6023
:1049D0002C706C70FFF742F907211420FFF775F96E
:1049E0001420FFF751F90848046007211120FFF750
:1049F0006CF90548001F0068A860002070BD000029
:104A0000F02D0020E0200020081501402DE9FC4792
:104A1000DFF8789099F8023073B368B3052902D2B1
:104A20000720BDE8FC87436933B3437C012B25D0C5
:104A3000002704460025884616468DF80050684633
:104A400000F024F901A805F057F9C8B1012101705F
:104A50000F4944600968C0E90218C0E904769DF86E
:104A6000040089F801009DF8000000F033F91420DB
:104A7000FFF720F92846D4E70820D2E70F46D8E709
:104A800004259DF8000000F025F9F3E7F02D002043
:104A9000041501400649897839B130B1416921B125
:104AA00000210174022105F02FB808207047000092
:104AB000F02D002006484178002907D0054A012141
:104AC0005160D160044A00211160417070470000BC
:104AD0009C20002000200040002500407CB50028DC
:104AE00040D02149426800240A6082684A60006818
:104AF00088601E490120012248701D200094234631
:104B00001146019403F0E4FC00221C20009423468B
:104B10001146019403F0DCFC154D2C6014494FF054
:104B2000EB702431086012486C3004601049400773
:104B3000103108600E49083108601D20091D086009
:104B40000B491C20143108600B480A49C0F80413B3
:104B50000220072103F096FC08202860BDE87C4075
:104B600000F04CB87CBD0000102900209C200020E3
:104B70000025004014030200002000402DE9F0470A
:104B80000C4681460027184E22E0142C03D9142528
:104B9000143CA4B201E025460024F06D09EB0701A6
:104BA000042813D296F85820104400F0030000EBBC
:104BB000400202EBC00006EB400080462A46FDF7AB
:104BC0005FFBA8F81450F06D401CF065781987B2AF
:104BD000002CDAD105480078002803D1BDE8F04761
:104BE00000F02AB8BDE8F0871C2900209C20002096
:104BF0000149012048607047002000400B4890F8B0
:104C0000581090F85C20114401F0030101EB4102BF
:104C100002EBC10100EB4100054908601420091DA9
:104C20000860044901200860704700007C290020CA
:104C30003425004000200040104B10B518780028A3
:104C40001AD10F48C16D002916D0826D491E02F09D
:104C50000304521CC0E9162104EB440101EBC4011A
:104C600010EB410008D0074A012119701060121D95
:104C7000808A10600448816010BD00009C200020E4
:104C80001C290020442500400020004030B5EFF3EF
:104C9000108172B60D4A9468012324B10370002973
:104CA00000D162B630BD93604FF0E023D3F880515D
:104CB000074C25401560C3F88041D3F88441546007
:104CC0005A17C3F8842100220270E8E7FC2E002066
:104CD000FC06FFBD0B498A68002A11D000280FD1BD
:104CE000EFF3108072B60B684FF0E022C2F800318B
:104CF0004B68C2F8043100228A60002800D162B6F5
:104D000070470000FC2E00200448034901604FF466
:104D100080310160704700003546526E0006014048
:104D200070B5054601461C220F48FDF7A9FA0F4C45
:104D300000262670286830B1016861604068A06074
:104D4000201D7ADF02E00948001D7BDF00280AD120
:104D50004FF6FF7060806670BDE87040044A002125
:104D60000448FFF717BE70BDA42D0020BC20002012
:104D7000999C070064A1070070B51E4C06880023AB
:104D80001B49E289102E15D01B4D112E1CD0122E5E
:104D900029D0502E17D130F8061F914213D14189E6
:104DA000022910D10C3000F0EAF888B1BDE870405B
:104DB00000F064BB84884C800469CC604069086161
:104DC0004B70002AF2D070BD4FF6FF7048804B70D8
:104DD0002868FFF75FFE0028F5D0A1690029F2D00E
:104DE000BDE8704008478268CA60C0680861DDE7B6
:104DF000BC200020A42D002064A107000148006809
:104E0000FFF748BE64A1070030B585B004002AD082
:104E1000164D4FF6FF702246A88001208DF8120033
:104E20004FF65960ADF8100004A90120A0DF00285A
:104E300017D10F4B0FCB8DE80F00A11C684662DF26
:104E400000280ED1204604F0D7FE002809D12046C4
:104E500004F064FA002804D1E86840F00100E8603A
:104E6000002005B030BD0E20FBE700006C200020C4
:104E7000A09D070001490020887070476C20002029
:104E800070B5114C207808B1002070BD00250FA12D
:104E9000042003F09FFCA088A0F57F41FF3904D0D7
:104EA000132176DF0500F0D109E0207B800706D5CD
:104EB00074DF0028E9D1E06840F00200E060FFF70D
:104EC0009DFF284670BD00006C2000203A444542FA
:104ED00055473A446973636F6E6E656374696E67B4
:104EE0000D0A000000B587B01C4A00211C48FFF7DE
:104EF00051FD00282FD1012000F046F800282AD1CA
:104F0000184804F093FC002825D103F097F80028F6
:104F100021D11548FFF778FF00281CD11C216846D5
:104F2000FDF7C7F940F6CD4001904FF48040029064
:104F300003208DF80C000020ADF80E008DF8100055
:104F400006906846FFF7ECFE002804D107B05DF834
:104F500004EBFFF777BC07B000BD0000754E0700FB
:104F6000989D07006D4F07001023002010B50446E0
:104F7000FFF702FF2046BDE8104003F035BE007881
:104F800000F001007047000070B5434988B04968DF
:104F9000069118B101F0A6FE00285AD13F4A40A15F
:104FA000042003F01BFC3D4813DF040051D13B4AB1
:104FB0003BA1042003F012FC22464149042003F0E7
:104FC0000DFC40A1042003F005FC4A4B4FF4B272E3
:104FD000494906A804F0D4FC08B1FFF75FFC47A1DB
:104FE000042003F0F7FB00246846009404F014FC4E
:104FF00008B1FFF753FC012601948DF804608DF889
:105000000540029403948DF8064001A94020009ABF
:1050100069DF051E01D0FFF741FC2A4643A10320AA
:1050200003F0DCFBA5B90194029418208DF804600C
:10503000ADF8080003948DF8066001A92020009ABD
:1050400069DF0546024639A1032003F0C7FB15B10D
:10505000284608B070BD40A1042003F0BBFB6846A1
:1050600004F0EEFB020004D043A1012003F0B6FBE4
:1050700003E04CA1042003F0ADFB049405948DF8EB
:10508000106004A9022067DF044602464CA10320F9
:1050900003F0A4FB2046DCE7989D070000200700F2
:1050A0003A44454255473A766563746F722074619D
:1050B000626C653A203078253038780D0A0000009F
:1050C00008A307003A44454255473A4265666F7265
:1050D0006520534F46544445564943455F48414E29
:1050E000444C45525F41505053485F494E49540D1E
:1050F0000A0000006D990700AC2100203A444542A7
:1051000055473A416674657220534F46544445569C
:105110004943455F48414E444C45525F41505053CE
:10512000485F494E49540D0A000000003A494E4676
:105130004F3A4572726F7220636F6465202D207341
:10514000645F626C655F6366675F7365743A2030A5
:1051500078253038780D0A003A44454255473A459B
:105160006E61626C696E6720736F667464657669E0
:1051700063652E0D0A0000003A4552524F523A46DE
:1051800061696C656420736F6674646576696365D4
:105190005F656E61626C653A203078253038780D35
:1051A0000A0000003A44454255473A536F6674641A
:1051B000657669636520656E61626C65640D0A00E1
:1051C0003A494E464F3A4572726F7220636F64657A
:1051D000202D2073645F626C655F6F70745F736510
:1051E000743A203078253038780D0A0010B504461E
:1051F000024613A1042003F0F1FA01F073FD08B197
:105200001FA112E029A1042003F0E4FA4FF0E021ED
:105210004FF0FF30C1F8800122462CA1042003F09A
:10522000DDFA204613DF28B134A1BDE8104001208B
:1052300003F0D0BA2046BDE81040FCF7EBBF0000F9
:105240003A44454255473A52756E6E696E67206E14
:1052500072665F626F6F746C6F616465725F6170BC
:10526000705F73746172742077697468206164641C
:10527000726573733A203078253038780D0A000053
:105280003A4552524F523A4661696C6564207275D4
:105290006E6E696E67206E72665F6466755F6D62C2
:1052A000725F696E69745F73640D0A003A44454227
:1052B00055473A44697361626C696E6720696E7420
:1052C000657272757074730D0A0000003A444542AD
:1052D00055473A53657474696E6720534420766568
:1052E00063746F72207461626C6520626173653AE9
:1052F000203078253038780D0A0000003A455252A7
:105300004F523A4661696C65642072756E6E696EC3
:10531000672073645F736F66746465766963655F45
:10532000766563746F725F7461626C655F626173EE
:10533000655F7365740D0A0010B507A1042003F0C2
:1053400049FA01F0E1FB040004D10BA1042003F0B1
:1053500041FA204610BD00003A44454255473A49BB
:105360006E206E72665F626F6F746C6F61646572DF
:105370005F696E69740D0A003A44454255473A41E7
:1053800066746572206E72665F626F6F746C6F61B7
:105390006465725F696E69740D0A0000002901DAA4
:1053A000002070470268114401600120704700002E
:1053B00038B10549814204D80449814201D901200C
:1053C00070470020704700001C2100202C21002085
:1053D0002DE9F05F26484168F1B3DFF898B00E6818
:1053E0008146DBF8004087688078E11B21F07F452B
:1053F000ED1CB0B9DFF880804FF48030C8F844036A
:10540000C8F804031120FEF729FC1120FEF73CFC2C
:105410004FF0010AC8F800A02F2002F0EDFF89F834
:1054200002A0B54200D23546124BE8193C3320F0B9
:105430007F401860DBF800105A46091B21F07F41BD
:10544000001B20F07F40C91C81420FD910681860F2
:105450002F2002F0D1FF00E004E0BDE8F05F112052
:10546000FEF728BCBDE8F05F03F03ABFBDE8F09F4F
:10547000E02000200415014000100140F8B5134859
:1054800002F050FE114D0026114C0C3D30B1616907
:10549000B9B101208DF80000684611E0287820B1EC
:1054A000616971B18DF80060F6E7687858B1A1685C
:1054B000084800220068FFF7A9FA10B1A16901B1FC
:1054C00088472E70F8BD6168F2E70000C820002010
:1054D000A42D002064A1070010B5044612B1108865
:1054E000002210E00020FBE7030A43EA0023A05C4F
:1054F0005840C0F30313584080EA003080B2C3B272
:1055000080EA4310521C8A42EED310BDF0B54FF032
:10551000FF3622B11268D24300230A4D0DE0324615
:10552000FAE7C45C62400824D70700D037462F4012
:1055300087EA5202641EF7D15B1C8B42F1D3D04341
:10554000F0BD00002083B8ED10B5034802F00EFF57
:10555000BDE81040FFF7FEB9A08601002DE9F14F2C
:10556000DFF8EC804FF4405A4FF48054D8F8300004
:10557000DAF80810D8F8246001EB000B351A35A1D1
:10558000042003F027F9A146FFF7BEFB4C46A542D5
:1055900000D82C4600220121584600F089FD002841
:1055A00022D1002322465846009900F021FE00280F
:1055B0001AD122465846009901F068FB070006D030
:1055C0005A462C490120009B03F00FF90BE0002202
:1055D0000121009800F06CFD070007D026A10120F2
:1055E000009A03F0FBF83846BDE8F88FD8F8301081
:1055F00000202144C8F8301002F0B6F90098A34406
:10560000204400902D1BBFD100223146DAF808005B
:10561000FFF77CFFD8F8282005464446AA4208D167
:1056200024A1042003F0D6F80120A661C4E90750A4
:1056300004E003462749012003F0D7F8044824304A
:1056400001F018FBBDE8F84F002002F08DB9000012
:10565000082C00203A44454255473A456E7465721D
:10566000206466755F6170705F636F6E74696E75DC
:10567000650D0A0038A507003A4552524F523A418B
:105680007070207570646174653A204661696C754C
:1056900072652065726173696E672070616765204D
:1056A000617420616464723A203078253038780D56
:1056B0000A0000003A44454255473A5365747469FC
:1056C0006E67206170702061732076616C69640D73
:1056D0000A000000E4A4070070B516A1042003F03E
:1056E00079F81C4C206A012804D01BA1042003F087
:1056F00071F816E0E069B0B14FF44055A36921A1FB
:105700000420AA6803F071F8A1690022A868FFF7D5
:10571000FDFEE26903469A4205D02349042003F0C6
:1057200064F8002070BD21A1042003F053F801208B
:1057300070BD00003A44454255473A456E74657263
:10574000206466755F6170705F69735F76616C6914
:10575000640D0A00082C00203A44454255473A524D
:10576000657475726E2066616C736520696E207653
:10577000616C69642061707020636865636B0D0AF9
:10578000000000003A44454255473A4170702053AA
:1057900074617274307825582C2073697A652030D2
:1057A0007825580D0A00000098A407003A444542A5
:1057B00055473A52657475726E20747275652E2065
:1057C000417070207761732076616C69640D0A0006
:1057D000F8B50E460A681A49496B0D18541A4FF469
:1057E0004050009482682B4616A1042003F005F86F
:1057F00022462946234801F049FA88B123462A4621
:105800002149042002F0F1FF2146284601F04CFA1C
:10581000040003D01DA1012002F0DCFF2046F8BDEA
:1058200023A1042002F0D6FF304601F023FA29A17B
:10583000042002F0CFFF334802F096F80446EDE76B
:10584000082C00203A44454255473A56657269662D
:1058500079696E6720424C3A20416464723A203084
:1058600078253038782C205372633A2030782530F0
:1058700038782C204C656E3A203078253038780DF9
:105880000A000000002007007CA507003A4552529C
:105890004F523A5265717565737420746F20636F4F
:1058A000707920424C206661696C65640D0A0000C5
:1058B0003A44454255473A426F6F746C6F61646574
:1058C00072207761732076657269666965640D0A76
:1058D000000000003A44454255473A5772697469DE
:1058E0006E672073657474696E677320616E6420DF
:1058F0007265736574696E67206465766963652E89
:105900000D0A00009D92070070B506464FF4405006
:105910000FA18568042002F05DFF144800F118040F
:105920000169012908D0416931B180690C3400F660
:10593000FF706FF30B0005442A460DA1042002F00E
:105940004DFF324629462046BDE8704000F01CB8A5
:105950003A44454255473A456E746572206466750F
:105960005F636F6E74696E75650D0A00082C002008
:105970003A44454255473A7372635F6164647220EA
:10598000307825780D0A00002DE9F0410646806840
:1059900000241546884601280DD00127A5281CD0D3
:1059A000AA2823D0AC282AD01AA1012002F012FF85
:1059B0002046BDE8F0811FA1042002F00BFF224D1C
:1059C00022A104206A6902F009FF68690128EFD169
:1059D0004046FFF7C3FD0446EAE723A1042002F096
:1059E000F9FE3146404601F06DFD10E023A1042090
:1059F00002F0F0FE31464046FFF7EAFEEBE724A155
:105A0000042002F0E7FE3146404601F00DFD044659
:105A10002F60CDE73A4552524F523A53696E676C48
:105A2000653A20496E76616C69642062616E6B0D27
:105A30000A0000003A44454255473A56616C696491
:105A4000204170700D0A0000082C00203A444542A5
:105A500055473A62616E6B5F63757272656E742052
:105A60002025640D0A0000003A44454255473A5645
:105A7000616C69642053440D0A0000003A444542B9
:105A800055473A56616C696420424C0D0A0000008B
:105A90003A44454255473A56616C69642053442064
:105AA0002B20424C0D0A000038B5094B1446094A18
:105AB0001D7825B100251D70074B009201E00023E1
:105AC00000920A4601462046FDF7BEFD38BD0000A3
:105AD0009E200020DC290020B09D070010B5102278
:105AE00003490448FCF7CCFB03490120087010BDB2
:105AF000C09D0700DC2900209E200020F8B5144638
:105B00000D460646FCF7DCFD009023462A4631464A
:105B10000448FCF7D9FD002801DD0120F8BD002074
:105B2000F8BD0000D09D070070B59CB015460E462C
:105B3000040010D07DB1684603F084FD3246214652
:105B4000684603F03FFE00222946684603F0F2FC57
:105B500001201CB070BD0020FBE700002DE9F041E2
:105B600080460C46002003F0DFFC98F80000002778
:105B70000126022501280AD0022811D0254A2649EB
:105B8000032818D0102832D02770BDE8F0812146B4
:105B9000404601F0B3F826706570A67028B308E09F
:105BA0002146404601F0CAF90028EED02570657004
:105BB000A570E070E9E70B784FF0030808205BB1AF
:105BC000126B89688A4207D114A1032002F002FEF9
:105BD000194800F095FB20B12570657084F80280AB
:105BE000E7E72670657084F80280E770CDE70978F2
:105BF0001020267049B106216170A070E570211D4A
:105C0000106BBDE8F04104F03DB86570A070E6701F
:105C1000BBE70000082C00207C2000203A494E46BB
:105C20004F3A446F696E6720706F737476616C6968
:105C3000646174650D0A00004828002010B5094C05
:105C400009A101206269521E626102F0C7FD60690C
:105C5000002805D12069002802D0BDE81040004787
:105C600010BD00007C2000203A4552524F523A6449
:105C7000667520666C6173682070656E64696E6716
:105C800020636F756E74203D2025640D0A000000AE
:105C90002DE9F05FADF5015D15460C460646FFF7B0
:105CA0001DFF41F224094FF48058B246E9440DF13A
:105CB000140B00BFFFF728F84646B44200D826462A
:105CC000324651464F464846FCF7DAFA0022012197
:105CD000284600F0EDF9002829D1032002F012FC3B
:105CE0005A4631463846FFF7DFFEB5F5003F00D192
:105CF00000BF032002F006FC002332465F465946EF
:105D0000284600F075FA002811D1032002F0FAFBB2
:105D100032463946284600F0B9FF070007D1032074
:105D200002F0F0FB3544B244A41BC3D138460DF554
:105D3000015DBDE8F09F00002DE9F0474FF0102510
:105D40004FF440598A4607466869D9F80810164644
:105D5000401AA0F540584C4641A1042002F03AFDFB
:105D60006869A168421A46A1032002F037FD224665
:105D70004DA1032002F032FD424655A1032002F05E
:105D80002DFD26B1B84505D258A1042048E00720D2
:105D9000BDE8F08762A1042002F01CFD664C67A1FB
:105DA0000420226902F01AFD6AA10420A369226A74
:105DB00002F01BFD71A10420636AE26A02F015FD86
:105DC000D9F80810316004F1180576A10320D9F83C
:105DD000082002F003FD206A4FF00009012805D0D9
:105DE000C4F810907BA1C4F8149020E0424682A130
:105DF000042002F0F3FC28683B4600F6FF70010B1C
:105E00000903A8EB010188460A4686A1042002F096
:105E1000ECFC0120474514D9BAF1000F04D08BA146
:105E200002F0D8FC0420B3E7C4E9040991A10420DE
:105E300002F0D0FCC5F80490C5F8089000202F604F
:105E4000A6E7C4E90490A069316800F6FF706FF31B
:105E50000B00394D0844243530608EA10420E7E75B
:105E60003A44454255473A456E74657220646675FA
:105E70005F66696E645F63616368650D0A000000B8
:105E80003A494E464F3A4446555F524547494F4E70
:105E90005F544F54414C5F53495A4520746F203032
:105EA00078253038780D0A003A494E464F3A444634
:105EB000555F4150505F444154415F5245534552F4
:105EC00056454420746F203078253038780D0A000C
:105ED0003A494E464F3A667265655F73697A652046
:105EE000746F203078253038780D0A003A444542E6
:105EF00055473A4E6F2077617920746F2066697438
:105F000020746865206E6577206669726D776172AE
:105F100065206F6E206465766963650D0A00000078
:105F20003A44454255473A42616E6B20636F6E7446
:105F3000656E740D0A000000082C00203A444542AA
:105F400055473A42616E6B20747970653A2025643A
:105F50000D0A00003A44454255473A42616E6B20B3
:105F60003020636F64653A203078253032783A20EB
:105F700053697A653A2025640D0A00003A44454287
:105F800055473A42616E6B203120636F64653A2059
:105F90003078253032783A2053697A653A20256482
:105FA0000D0A00003A494E464F3A4D41494E5F4175
:105FB00050504C49434154494F4E5F535441525401
:105FC0005F4144445220746F203078253038780D7A
:105FD0000A0000003A44454255473A4E6F2070721D
:105FE0006576696F75732C207573696E67206261C1
:105FF0006E6B20300D0A00003A44454255473A6620
:106000007265655F73697A65206265666F72652087
:1060100062616E6B2073656C6563743A2025640D54
:106020000A0000003A44454255473A667265655F8A
:1060300073697A653A2025642C2073697A655F72EA
:1060400065713A2025640D0A000000003A4552525D
:106050004F523A4661696C7572653A206475616C9D
:106060002062616E6B207265737472696374696F0C
:106070006E0D0A003A44454255473A456E666F72C6
:1060800063696E672073696E676C652062616E6B11
:106090000D0A00003A44454255473A5573696E6708
:1060A000207365636F6E642062616E6B0D0A000081
:1060B0002DE9FF41054617460E460B464FF00008F6
:1060C0002A4628A1042002F090FB2F4C20684107AB
:1060D00023D5810707D52DA1012002F07BFB0A20E3
:1060E00004B0BDE8F08140F001002060B2B23B4650
:1060F00029462F4801F0F0FE5FEA000808D002466A
:106100002CA1012002F06AFB206820F0010002E0CF
:10611000206840F00100206021E0280505D02CA176
:10612000012002F057FB0620DAE7C5F30F342846BA
:1061300002F092FB05F58055761EF8D17FB12B4811
:106140000168D0E90220CDE90220CDE90017280B33
:10615000ADF80840ADF80A0000216846B84740464F
:10616000BEE700003A44454255473A4572617369BB
:106170006E673A203078253038782C206E756D3A6D
:106180002025640D0A000000AC2000203A45525240
:106190004F523A45726173653A204661696C757277
:1061A000652073696E6365206C6173740D0A00006D
:1061B0001C2100203A4552524F523A457261736594
:1061C000206661696C65643A2025640D0A00000050
:1061D0003A4552524F523A496E76616C6964206179
:1061E0006464726573730D0A0000000010A107005B
:1061F0002DE9FF411746264A06461D461068002431
:10620000430723D5830707D522A1012002F0E2FA34
:106210000A2004B0BDE8F08140F001001060904613
:106220000A46BBB231462448009501F0C7FE04007F
:1062300005D0024621A1012002F0D0FA20E0D8F8D2
:10624000001041F00101C8F8001019E031B12EB181
:1062500041EA0600800703D00620DAE70320D8E7EA
:1062600087B13A46304602F00FFB4DB10020CDE930
:106270000260CDE900050146ADF80C706846A847FC
:106280002046C6E714A1012002F0A4FA0420C0E7CA
:10629000AC2000203A4552524F523A466C61736826
:1062A0003A204661696C7572652073696E6365207A
:1062B0006C6173740D0A00001C2100203A45525293
:1062C0004F523A466C6173683A206661696C656446
:1062D0002025640D0A0000003A4552524F523A46BA
:1062E0006C6173683A20496E76616C6964206C65F4
:1062F0006E67746820284E564D43290D0A00000031
:106300002DE9F047064690F83D000027764C01281D
:1063100005D076A1012002F05DFA092013E0D4E94E
:106320000210794AFFF700FC00B90A2796F83E20D0
:10633000754906F13F00FBF7CEFF40B173A1012084
:1063400002F048FA0C2001F007F8074603E075A1B7
:10635000012002F03FFAD4E902100022A046FFF724
:10636000D5F87A4CA064316E884207D078A101201C
:1063700002F030FA0E2000F0EFFF0746606940B1EE
:1063800001280DD07AA1012002F024FA0A20BDE8EC
:10639000F08783A1032002F01DFA6C4D183505E04B
:1063A00087A1032002F016FA684D24358CA1032042
:1063B00002F010FA96F825204FF0010A4FF000097C
:1063C000BAB394484FF44051012A05D0022A3FD075
:1063D000032A1DD00A273CE00A78142A01D949690A
:1063E00000E00021B1FBF0F2D8F80C1001F50051EB
:1063F0000B78142B01D9496900E00021B1FBF0F3BF
:106400009A4225D08449032002F0EFF9052720E0C5
:106410000A78142A01D9496900E00021B1FBF0F2A1
:10642000D8F80C1001F500510B78142B02D94969EA
:1064300001E00DE00021B1FBF0F39A4208D077496A
:10644000032002F0D2F96069012801D1C4F820903C
:106450002FB1C5F808904846C5F804902DE070A10A
:10646000032002F0B7F996F8250030B1012812D0C8
:10647000022815D003281CD115E0C5F808A06069D2
:10648000012805D173A1032002F0A4F9C4F82090DB
:106490007068A0600DE0A520A860B06A606308E0A5
:1064A000AA20A86003E0AC20A860B06A60637068AE
:1064B000E060A06C6860D8F80800286023482021BC
:1064C0003830FBF7F6FE2148FF22511D5C30FBF708
:1064D000E9FEC4F8309088F804A06A4801F044FA54
:1064E00000B10A27384652E77C2000203A45525234
:1064F0004F523A57726F6E67204861736820547923
:1065000070650D0A00000000F02800203A45525244
:106510004F523A48617368206661696C7572650D07
:106520000A0000003A4552524F523A534841323520
:106530003620636865636B207375636365737321CD
:106540002121212121210D0A00000000082C00201A
:106550003A4552524F523A57726F6E672043524338
:10656000333220436F6D706172650D0A00000000C8
:106570003A4552524F523A496E7465726E616C20C0
:106580006572726F722C20696E76616C696420632B
:10659000757272656E742062616E6B0D0A00000088
:1065A0003A494E464F3A43757272656E7420626185
:1065B0006E6B2069732062616E6B20300D0A0000E3
:1065C0003A494E464F3A43757272656E7420626165
:1065D0006E6B2069732062616E6B20310D0A0000C2
:1065E0003A494E464F3A52756E6E696E6720534473
:1065F0002076657273696F6E20636865636B203DFA
:106600003D3D3D3D3D3D3D3D3D3D3D3D3D200D0A3A
:106610000000000040420F00B4A307004CA3070095
:106620003A494E464F3A5375636365737366756CAA
:106630006C792072616E2074686520706F73747657
:10664000616C69646174696F6E20636865636B2156
:106650000D0A00003A494E464F3A496E76616C6920
:10666000646174696E67206F6C64206170706C691E
:10667000636174696F6E20696E2062616E6B203099
:106680002E0D0A00118D07002DE9F0410546041D6D
:10669000007B20B1E068902803D065A122E06BA1C7
:1066A00020E000204FF44053227C18E004EB8006E9
:1066B0009F897669BE4211D16A4894F82520806886
:1066C00002B3012A16D0022A1CD0032A1AD066A1CE
:1066D000032002F07FF80720BDE8F081401C8242D1
:1066E000E4DC69A1012002F075F80320F4E76CA155
:1066F000F8E7014652B1012A15D0022A0ED0032A2A
:1067000011D10BE021780029F3D1F0E760688842CD
:1067100009D2481C07D031B169A1E3E7606888421B
:1067200001D86EA1DEE795F8690008B173A1D9E739
:106730007AA1032002F04EF88248834A03C8FFF78B
:10674000F3F9F0B181A1032002F044F805F16B02E6
:1067500020217D48FFF7D2F998B183A1032002F0F0
:1067600039F8784D94F82510183D61B101291ED0F3
:1067700083480229C0F5FA200CD0032921D081A139
:10678000B0E70A20A8E794F8340008B1A06B12E043
:1067900084A1A7E794F82C1039B1216BAA68814233
:1067A0000A44AA6023D986A12FE08BA19AE794F826
:1067B000260020B1A06AA9680844A86017E08DA14E
:1067C00090E794F82C1071B194F8261059B1A26A90
:1067D000216BAC6853182344AB6032B129B18142BC
:1067E00005D98BA111E092A17CE797A17AE7AA686D
:1067F00082B19BA1032001F0F1FF524A01210C3A22
:10680000A868FFF799FA38B19FA1012001F0E2FFD3
:10681000042061E7A5A165E7A9A10320EA6801F0CA
:10682000DDFFB0A1032001F0D5FF002054E70000F8
:106830003A4552524F523A4661756C747920485726
:106840002076657273696F6E0D0A00003A455252E8
:106850004F523A4E6F2048572076657273696F6EBB
:106860000D0A0000082C00203A494E464F3A556E5A
:106870006B6E6F776E20465720757064617465206B
:10688000747970650D0A00003A4552524F523A53DE
:106890004420726571206E6F74206D65740D0A005E
:1068A0003A4552524F523A206677207665727369A4
:1068B0006F6E206E6F74206D65740D0A000000000D
:1068C0003A4552524F523A46572076657273696F75
:1068D0006E20746F6F206C6F770D0A003A4552522C
:1068E0004F523A424C2046572076657273696F6E5C
:1068F00020746F6F206C6F770D0A00003A4552527A
:106900004F523A496E76616C6964207369676E61B3
:106910007475726520747970650D0A003A494E46A7
:106920004F3A43616C63756C6174696E6720696E80
:106930006974207061636B657420686173680D0A07
:106940000000000094200020F02800203A494E4624
:106950004F3A566572696679207369676E6174751E
:1069600072650D0A000000003A494E464F3A496DE3
:106970006167652076657269666965640D0A000065
:10698000002007003A4552524F523A556E6B6E6FD7
:10699000776E204657207570646174652074797035
:1069A000650D0A003A4552524F523A4E6F206170BF
:1069B0007020696D6167652073697A650D0A000052
:1069C0003A4552524F523A424C20746F6F206C61DC
:1069D0007267650D0A0000003A4552524F523A4E16
:1069E0006F20626C20696D6167652073697A650D3F
:1069F0000A0000003A4552524F523A4E6F2053441B
:106A000020696D6167652073697A650D0A00000071
:106A10003A4552524F523A424C20746F6F206C618B
:106A2000726765202853442B424C290D0A00000050
:106A30003A4552524F523A4E4F20424C2F53442027
:106A400073697A650D0A00003A4552524F523A4234
:106A50004C2B53442073697A6520300D0A000000E6
:106A60003A494E464F3A6D5F6669726D776172655D
:106A70005F73697A655F72657120746F2030782565
:106A80003038780D0A0000003A4552524F523A43CE
:106A9000616E27742066696E6420726F6F6D206668
:106AA0006F72207570646174650D0A003A45525228
:106AB0004F523A4E6F2046572073697A650D0A008F
:106AC0003A494E464F3A5772697465206164647260
:106AD0006573732073657420746F203078253038A7
:106AE000780D0A003A494E464F3A44465520707296
:106AF0006576616C69646174652053554343455301
:106B00005346554C210D0A0038B50020009023A1B2
:106B1000042001F05FFE00F03BFE28A1042001F0FC
:106B200059FEFDF749FF08B1FDF7B8FE294A0121DA
:106B30002948FDF72FFF08B1FDF7B0FE26480022D7
:106B40004FF400410068FDF761FF08B1FDF7A6FEB4
:106B50006846FEF7D9FE044620A10420009A01F001
:106B60003DFE34B1224627A1042001F037FE01206A
:106B7000009000F00DFCFEF7AFFD48B14FF440541B
:106B80002DA10420A26801F029FEA068FEF72EFBCB
:106B900030A1032001F01EFE0A2038BD3A444542D0
:106BA00055473A496E207265616C206E72665F646B
:106BB00066755F696E69740D0A0000003A444542CB
:106BC00055473A74696D6572735F696E69740D0A31
:106BD000000000000992070060A107003A44454206
:106BE00055473A656E7465725F626F6F746C6F6162
:106BF0006465725F6D6F64653A20307825780D0AA0
:106C0000000000003A44454255473A436F756C64B2
:106C1000206E6F7420636F6E74696E7565204446D4
:106C200055206F7065726174696F6E3A20307825F7
:106C30003038780D0A0000003A44454255473A4A38
:106C4000756D70696E6720746F3A20307825303822
:106C5000780D0A003A494E464F3A416674657220F3
:106C60007265616C206E72665F6466755F696E69DD
:106C7000740D0A00002101604160816002480163D7
:106C80004163016141617047082C00201FB5054B2D
:106C900001AC92081B6A009384E80700684618DF7D
:106CA00004B010BD20A107001FB58908002201AB68
:106CB000009283E80700684618DF04B010BD0000AA
:106CC0001FB59208930502D0092004B010BD044BF3
:106CD0001B6800930392CDE90110684618DFF4E7C2
:106CE00020A107001FB5044B0FCB8DE80F006846AD
:106CF00018DF04B010BD000030A1070070B5174DBB
:106D00000446287808B1002070BDAC211448FBF778
:106D1000D0FA124B21891833114A606800F038F814
:106D200008B1032070BD0E4890F8680028B10C48E7
:106D3000FFF7AAFC040002D00DE0052070BD09A1F8
:106D4000032001F047FD20211048FBF7B2FAFEF7BF
:106D5000C5FE01202870204670BD00007C20002068
:106D6000442800203A494E464F3A53657474696E80
:106D7000672044465520666C616720746F20696EF9
:106D8000697469616C697A65640D0A00402C0020A1
:106D90002DE9F05F9B4692460E460746B1F5807F8F
:106DA00002D90C20BDE8F09F00254FF00109BFE09B
:106DB0007C5D07EB0508611998F80100B14272D8B3
:106DC0000B2824D2DFE800F0B106243B485562715D
:106DD0007E8B9800442C67D28AF8689098F802104D
:106DE0008AF8691098F803108AF86A1008F104010B
:106DF000A21E0AF16B00FBF743FA08EB0400401CEB
:106E0000CBF800002819301A401ECBF804008CE0A3
:106E1000A01F222872D28AF800908AF8409098F831
:106E200002108AF8411098F803108AF8421008F10D
:106E30000401E21E0AF14300FBF722FA75E0052C7B
:106E40005CD18AF800908AF8639008F1020002F0A1
:106E500014FFCAF8640068E0052C4FD18AF800904E
:106E60008AF8289008F1020002F007FF8AF829004A
:106E70005BE0052C42D18AF800908AF8389008F13E
:106E8000020002F0FAFECAF83C004EE0052C35D1B3
:106E90008AF800908AF82A9008F1020002F0EDFECC
:106EA000CAF82C0041E046E028E0052C26D18AF8FB
:106EB00000908AF8309008F1020002F0DEFECAF875
:106EC000340032E0052C19D18AF800908AF8049039
:106ED00008F1020002F0D1FECAF8080025E0052CF6
:106EE0000CD18AF800908AF80C9008F1020002F0A8
:106EF000C4FECAF8100018E0052C01D0092051E7A3
:106F00008AF800909AF81400032801D3072049E773
:106F100008F1020002F0B1FE01469AF814000AEBF3
:106F20008002401C8AF8140091612819401C85B227
:106F3000B542FFF43DAF002034E700002DE9F04FEB
:106F400085B00646A24F0020009038780C4658B114
:106F5000318901AA706800F0DFF9020008D09DA114
:106F6000032001F03BFC22E0082005B0BDE8F08FD3
:106F7000BDF80830B3F5807F05D99FA1032001F04B
:106F800029FC0420F1E7A74A0198116D884204D03A
:106F9000A549032001F01EFC09E0C518B868854228
:106FA00007D90090A1A10320019A01F026FC03203B
:106FB000DBE719441165012121700521617002256B
:106FC000A5709246E11C106D02F05CFEDFF894B2F1
:106FD0004FF00009B846CCE0B8F806004746111853
:106FE000FF295BD8A04B03991844FBF749F9BDF87A
:106FF0000810F888084480B2F880ADF80890DAF8F4
:1070000030100144B86881427ED398A1012001F07C
:10701000E1FB7078B97830B10BEB0122F988924826
:10702000FEF742FD05E00BEB0120FA888E49FBF7E5
:1070300027F9DAF83000F968964B0844049078692B
:10704000401C7861F888B978C01C82080BEB0121DC
:107050000498FFF7CDF880B178698FA1401E786160
:10706000FA880120049B01F0C0FBA7F80690E11C00
:10707000DAF8300002F006FE7BE0FA8893A10320E4
:10708000049B01F0B2FBFA88DAF830101144CAF818
:1070900030106570A57084F803906AE0C0F58071C7
:1070A000714A8FB210443A460399FBF7E9F8B8F8F1
:1070B0000600384481B2A8F80610BDF80800C01BCD
:1070C000ADF808000398384403907078002898F8C9
:1070D000020005D00BEB00226348FEF7E5FC05E05B
:1070E0000A460BEB00206049FBF7CAF8DAF83010CB
:1070F000D8F80C00474608440490000511D178697F
:10710000644A401C012100E038E078610498FEF7F1
:10711000CFFF30B1786975A1401E7861012001F080
:1071200059FB78695B4B401C7861B97840220BEBC6
:1071300001210498FFF75CF860B30A200090786999
:1071400055A1401E7861FA880120049B01F04DFB97
:10715000DAF83000CAF85000A7F80690ADF80890A9
:10716000E11C02F08FFDDAF83000810A8902CAF8CA
:107170003010BDF80820002A7FF42EAFDAF8301066
:10718000D8F80800814203D36570A57084F8039095
:107190000098EAE6FA884DA10320049B01F025FB44
:1071A000B9784FF480730BEB012258A1032001F052
:1071B000F7FAFA88DAF830101144CAF83010B878C3
:1071C000401C00F00300B870A7F80690D1E700005B
:1071D0007C2000203A494E464F3A5B57524954456D
:1071E0005D3A206465636F646520726574203D209C
:1071F000307825580D0A00003A494E464F3A5B5701
:10720000524954455D3A2070625F77726974655FD8
:1072100073697A6520746F6F206C617267650D0AFF
:1072200000000000082C00200CA407003A494E463C
:107230004F3A5B57524954455D3A206F6666736515
:1072400074283078255829202B2073697A652830D6
:1072500078255829203E20726571282558290D0A65
:107260000000000044230020442700203A455252E9
:107270004F523A212121206C61737420706167653F
:1072800020666C61736820746F2077726974652062
:10729000200D0A003D5C07003A4552524F523A21F8
:1072A0002121204661696C65642073746F72696E78
:1072B00067202564204220617420616464726573D4
:1072C000733A203078253038780D0A003A494E4616
:1072D0004F3A53746F72696E6720256420422061B3
:1072E000743A203078253038780D0A003A455252E9
:1072F0004F523A4572617365206F706572617469AF
:107300006F6E206661696C65640D0A003A494E46ED
:107310004F3A0D0A0000000070B515460C460600F5
:1073200003D0A00703D00C2070BD0E2070BDA4F1C7
:107330000800FD2801D3092070BD304602F09DFCF5
:107340002860800701D0102070BD361D241FAE605C
:10735000AC80002070BD0000044910B548700246A2
:1073600003A1032001F03AFA0B2010BD7C2000207D
:107370003A494E464F3A444655204C4F43414C20E3
:107380004552524F52203D2030782532580D0A0088
:10739000094810B5816B00290CD0C26A022A01D0BD
:1073A000032A07D105A1042001F018FABDE8104016
:1073B00000F016BC10BD0000082C00203A444542E5
:1073C00055473A735F6466755F73657474696E6779
:1073D000732E62616E6B5F312E62616E6B5F636FE5
:1073E00064652025640D0A00054810B5017901295E
:1073F00003D0022903D101F03FFF0121C17010BD6C
:107400007C2000200348406908B10020704701201B
:10741000704700007C200020002801D0014908614D
:10742000704700007C20002070B50D4606460CA178
:10743000042001F0CFF92946304600F089F8040015
:1074400001D010A106E029463046FEF7C1F904003C
:1074500004D014A1012001F0BDF9204670BD000048
:107460003A44454255473A456E74657220646675E4
:107470005F73645F626C5F636F6E74696E75650DD8
:107480000A0000003A4552524F523A53442B424CA4
:107490003A20534420636F7079206661696C65649B
:1074A0000D0A00003A4552524F523A53442B424C77
:1074B0003A20424C20636F7079206661696C656484
:1074C0000D0A000070B50D4600F042F8040005D02A
:1074D00008A1012001F07EF9204670BD2846FFF783
:1074E000C9FB0EA1042001F075F9BDE870401748F2
:1074F00000F03ABA3A4552524F523A53442075700E
:107500006461746520636F6E74696E756174696F10
:107510006E206661696C65640D0A00003A4445425C
:1075200055473A57726974696E6720736574746958
:107530006E677320616E64207265736574696E672F
:10754000206465766963652E0D0A00009D92070030
:107550002DE9FE4F4A4F8046386B796B00F5805518
:10756000081A00F6FF70060B360340F6FF7000EBBA
:107570009600040B240343A1042001F02BF9386B7F
:10758000796B804441B1884206D14AA1042001F0C0
:1075900021F90020BDE8FE8FBB46C0B908F50050B8
:1075A0000178142901D9416900E000214848B1FB64
:1075B000F0F34FF440510A78142A01D9496900E0E8
:1075C0000021B1FBF0F243A1042001F00EF9FDF718
:1075D0009BFBB44203D906F6FF70040B240305EBB2
:1075E000040A0095CDE901A408EB0403994642463C
:1075F0004549042001F00AF9224641462846FFF792
:107600005FFB070004D043462A464049009413E03C
:107610000095CDE901A44B4642463D49042001F0C6
:10762000F5F8224641462846FFF730FB070008D010
:10763000384943462A460094012001F0DEF83846D6
:10764000A8E70095CDE901A44B46424632A10420AB
:1076500001F0DCF85546C846B44201D9002600E0E6
:10766000361B3DA1042001F0B5F8DBF834100020F2
:10767000891BCBF8301000F077F9002EA7D189E7ED
:10768000082C00203A44454255473A456E746572CD
:10769000206E72665F626F6F746C6F616465725F9B
:1076A0006466755F73645F636F6E74696E75650D94
:1076B0000A0000003A44454255473A534420616C61
:1076C000726561647920636F706965640D0A0000FA
:1076D000A08601003A44454255473A5570646174AA
:1076E000696E672053442E204F6C642053442076EB
:1076F00065723A2025642C204E6577207665723AB3
:107700002025640D0A000000C0A5070098A6070008
:1077100004A6070050A607003A44454255473A568A
:10772000616C696461746564203078253038782D27
:1077300030782530387820746F20307825303878CC
:107740002D3078253038783A2053697A653A2030E0
:1077500078253038780D0A003A44454255473A4674
:10776000696E6973686564207769746820746865F8
:10777000205344207570646174652E0D0A0000006A
:10778000002258210148FDF7C1BE00000C2C00204A
:1077900070B52BA1042001F01DF8324900204FF4F0
:1077A000AE7508702A4630493048FAF769FD2F4C0B
:1077B0002FA10420A26801F011F834A10420A269CD
:1077C00001F00CF839A10420626A01F007F83FA12A
:1077D0000420226801F002F82069012813D06069B2
:1077E00098B140A1042000F0F5FF2068401C12D0A1
:1077F000FFF7C6FF2168814209D1BDE8704040A172
:10780000042000F0E7BF44A1ECE749A1EAE74FA15B
:10781000042000F0DFFF5349042000F0DBFF29467D
:107820001248FAF746FD01206060002000F09CF845
:10783000002803D0BDE87040FDF730B870BD0000EF
:107840003A44454255473A72756E6E696E672064D8
:1078500066755F73657474696E67735F696E69746A
:107860000D0A0000B020002000E00700082C0020D6
:107870003A44454255473A617070207665727369A3
:107880006F6E20307825780D0A0000003A4445429A
:1078900055473A6170702062616E646B20302073CE
:1078A000697A652025640D0A000000003A444542CB
:1078B00055473A6170702062616E646B20312073AD
:1078C000697A652025640D0A000000003A444542AB
:1078D00055473A6372632073697A6520307825785A
:1078E0000D0A00003A44454255473A4475616C2000
:1078F000426C616E6B20426C616E6B310D0A000050
:107900003A44454255473A63726320697320747262
:1079100075650D0A000000003A44454255473A5348
:10792000696E676C6520426C616E6B0D0A00000029
:107930003A44454255473A4475616C20426C616E49
:107940006B20426C616E6B300D0A00003A44454278
:1079500055473A6372632069732066616C73650DE5
:107960000A00000054A4070070B50546244A25A16A
:10797000042000F033FF2E4C05E02EA1042000F07F
:1079800029FFFDF7E1FD20780028F6D101202070C5
:10799000C4F8045002F0C8F9002201211848FEF78B
:1079A00087FB0728F6D0002508B130A11CE0FFF7BF
:1079B000E7FE39495722086038A1042000F00EFF85
:1079C00035494FF4AE72A1F5AE70FAF759FC00BF1D
:1079D00002F0AAF9394B572239490948FEF708FC49
:1079E0000728F5D030B137A1012000F0F3FE257053
:1079F000032070BD3EA1042000F0ECFE002070BD0D
:107A000000E007003A44454255473A4572617369C0
:107A10006E67206F6C642073657474696E67732081
:107A200061743A203078253038780D0A0000000063
:107A3000B02000203A44454255473A57616974697D
:107A40006E6720666F72206F7468657220666C6165
:107A50007368206F7065726174696F6E20746F2037
:107A600066696E6973682E0D0A0000003A4552522D
:107A70004F523A45726173696E672066726F6D206E
:107A8000666C617368206D656D6F727920666169DF
:107A90006C65642E0D0A0000082C00203A44454213
:107AA00055473A57726974696E67203078253038C7
:107AB0007820776F7264730D0A000000117B070055
:107AC000AC2A00203A4552524F523A53746F7269B1
:107AD0006E6720746F20666C617368206D656D6FD2
