:020000040002F8
:106000003054002021130300DF7502003F760200A8
:10601000EB7E0200AFA20200CFA20200000000004F
:1060200000000000000000000000000067DE020029
:1060300057E202000000000027FB02002BFB0200D9
:10604000D90E03004FFB020005CC0200E30203005F
:10605000A5110300EB11030049D40200F71103005E
:10606000E3130300E5130300E7130300E913030040
:10607000EB130300ED130300EF130300F113030010
:10608000F313030069C50200F5130300F7130300BF
:10609000D5C50200F91303009BEE0200FB130300B9
:1060A000FD130300FF130300011403000314030096
:1060B00005140300071403000000000000000000A6
:1060C000091403000B1403000D1403000F14030044
:1060D0001114030013140300151403000000000042
:1060E00000000000000000000000000000000000B0
:1060F00000000000000000000000000000000000A0
:10610000000000000000000000000000000000008F
:10611000000000000000000000000000000000007F
:10612000000000000000000000000000000000006F
:10613000000000000000000000000000000000005F
:10614000000000000000000000000000000000004F
:10615000000000000000000000000000000000003F
:10616000000000000000000000000000000000002F
:10617000000000000000000000000000000000001F
:10618000000000000000000000000000000000000F
:1061900000000000000000000000000000000000FF
:1061A00000000000000000000000000000000000EF
:1061B00000000000000000000000000000000000DF
:1061C00000000000000000000000000000000000CF
:1061D00000000000000000000000000000000000BF
:1061E00000000000000000000000000000000000AF
:1061F000000000000000000000000000000000009F
:1062000070B504460025DFF88C6B301D50F8251062
:1062100009B1204688476D1C042DF6D370BD884215
:1062200005D2006810F1010F01D001207047002055
:106230007047418800EB81000C30704738B5044648
:106240000D46FFF7F6FF854201D2022032BDA1883C
:106250004FF6FF7291421CBF2088002801D1012017
:1062600032BD002032BD68B10168DFF82C2B9142AD
:1062700008D14068DFF8241B401A04D0401E01D129
:1062800001207047032070472DE9F04203460E4677
:1062900002201446308003F10805DFF81C7B03F56B
:1062A00080590DE0A868B96A814238BFB8626A882F
:1062B0003188D21C511831802846FFF7BAFF0546B5
:1062C00049462846FFF7ABFF68B149462846FFF725
:1062D000B5FF0028E6D00CB1012121700228E6D1DB
:1062E0004FF480603080BDE8F0828A7D032A04DBB1
:1062F000CB880289DB1C9A1802814289C988521A0C
:10630000D31E43817047000080B50020DFF8A81A33
:1063100002A28969009008230BE00000DEC0ADDE18
:10632000FF011EF180B50146002000905FF00803D8
:1063300001A200F0B1F902BDDEC0ADDEFE011EF12A
:1063400030B5C01C80B240F2FE32904201DB092021
:1063500030BD00231425DFF8D04A5D432C44227859
:106360003AB9228965891218AA1892B2B2F5806FDB
:1063700004DB5B1C022BEDDB072030BD0B80618949
:1063800040186081002030BD142210B5DFF8983A23
:10639000514319444C89201AC01E488110BD70B564
:1063A0000C4600F0A4F84168206801F5805518B942
:1063B00001F1080603E03046FFF73BFF0646294699
:1063C0003046FFF72CFF58B129463046FFF736FF1D
:1063D00018B1022804D0F2D2EDE72660012070BD8A
:1063E000002070BDF8B506460C467268DFF8C85943
:1063F000100024D0DFF8343ADF681146B94224BFD8
:106400001B698B421BD312F0030F02BF30892B890B
:10641000984202BF30689368984210D10020DFF89C
:10642000542A1425131D45435B598B423CBF03F589
:106430008053994215D3401C0228F2DB1AE0002059
:1064400020800022009220886946FFF7A8FF58B1FB
:106450000098326881689142F5D170602989318154
:1064600000E020800120F2BD2088401C208080B206
:106470000228E6DB0020F2BD2DE9F04100F0C8FB68
:1064800017461E4608B902202FE0002F18BF002E25
:1064900005D1052029E03060B188491CB180B08861
:1064A000022821DA1421DFF8CC294843105C0028A7
:1064B000F2D1B0883146FFF772FF0028EBD0306888
:1064C000002C1EBF828823889A42F2D1002D1EBF65
:1064D00002882B889A42ECD1816839607860B8F8DC
:1064E00008003881002000E00A20BDE8F081142176
:1064F000DFF8802948431044704710B50146DFF8A3
:10650000780900F00BFD04461C2100F075FD2046C3
:1065100010BD0146DFF8600900F022BD2DE9F84FFB
:106520004FF0000900254FF0030ACB46C846DFF8BC
:106530008848DFF8F808C1684FEA084201EB1217F3
:106540006B1C14209BB2DFF82C19009368430E18C3
:106550003846FFF788FEF0B1012828D003283DD146
:10656000002057F8201011F1010F47D1401CB0F561
:10657000806FF6D3A06930B102213170776031812C
:106580006580009D04E0A7610220A0834FF0010B0D
:1065900049F0010922E03070776006F1100206F13F
:1065A00008013846FFF770FE49F002092BE05FEA68
:1065B0000B0005D002203070A16971603081009D10
:1065C000A761002204F11C013846FFF75DFEA08B95
:1065D00002280CBF0420082040EA090908F101083C
:1065E0001FFA88F00228A4DD1FFA8AF00228B8BF3B
:1065F0004FF000095FFA89F0BDE8F28F7760032061
:10660000AAF1010A3070009DE8E738B50C46002574
:106610000146009504230FF6740200F03DF808B11E
:106620000E2032BD1420DFF84C28444310190121FC
:106630000174002032BD70B5DFF87C47DFF8E82731
:106640006188142041435518DFF8E007E96821B953
:10665000042626700023696805E002210522A18333
:1066600022700023A1690122BDE8704000F0ACBD9A
:106670001CB5DFF84407416842684B88032101706C
:10668000DB1C8169808B00241B0401EB80010094DA
:106690009B0B00F001F816BDDFF8900700F018BD65
:1066A00080B5DFF81407011D4088FFF778FE10B1B0
:1066B000BDE80140DCE7BDE80140BCE7DFF8F806D3
:1066C000DFF8B02703781421072B00D9704730B5C5
:1066D000DFE803F0043131171F2C2C2F0489641CD0
:1066E000002304814380037301FB03F4145D641EE3
:1066F000A441C5185B1CE40F022BAC72F4DB012132
:1067000015E041684B88828BDB1C9A18828302213A
:106710000DE044888369614311444A6882614B609B
:10672000828B0A8102218183062203E00721017006
:1067300030BD0122027030BDF8B502460F20DFF8EF
:1067400078461AB1002060610120F2BD0A79DFF8B5
:1067500024571426032A3DD8DFE802F002071C283C
:1067600001200871FFF7D0FD34E0297800200229CC
:1067700008D116FB00F60020A855291D8859FFF7FF
:10678000D1FD27E0297D01200229F2D020740021CB
:106790006161EFE0002008710221A1830023A1695B
:1067A000DFF88806012200F00FFD13E000200871D9
:1067B0002F1DA069FFF7B6FD6188A2694E43291D10
:1067C0008B59A361BA51A919A28B0A810223A38311
:1067D00000220A7010B1002060610E20F2BD00009E
:1067E000F8B50D461421AB8ADFF888264B43D6183E
:1067F00028B129463046FFF778FD0120F2BD7068C8
:106800003189DFF8287600EB8104A87D06285BD863
:10681000DFE800F011411E31044E570000211163E2
:1068200002F12801A869D06202F12C00FFF7DAFD1D
:1068300008B90A20F2BD0220A875002100910423A6
:106840002A1D2146384600F043FC10B30E243CE0DC
:106850002869002814BF03200120A8750423002004
:10686000009005F10C0204F10801384600F030FCFC
:106870000028EBD10DE00120A8750021009104F162
:106880000C01EB882A699B00384600F021FC0028A7
:10689000DCD100241DE0287803280CBF0520062049
:1068A000A87504230020009005F10802211DDCE7F3
:1068B0000620A875118D106BFFF7A7FE040004D108
:1068C00007E041F61D5400E00F2429463046FFF74B
:1068D0000CFD2046F2BD0000F8B508B10120F2BD64
:1068E000DFF8D444207B00281ABF00212173FFF772
:1068F000E5FE20781421401E0628DFF8782533D8DD
:10690000DFE800F004351C1F32222B000023002694
:1069100002F10C07E518A87A48B1AE7201FB03F545
:106920007859002802BF5019007C01281ED05B1C3A
:10693000022BEFDB2670668066601BE0BDE8F1404D
:1069400096E6BDE8F14076E6638806202070121DC9
:1069500059435058BDE8F240E4E40720207000217C
:106960006160BDE8F140CFE40F20F2BD6380BDE877
:10697000F14095E641F61D50F2BD00002DE9F04FC3
:10698000DFF834540FF208580FF2105A85B004465D
:1069900005F1C00605F1D00741F61D59E86A20B996
:1069A0003946304600F0ECFAE862E96A0878401EA1
:1069B00005285ED8DFE800F00310101414592046B3
:1069C000FFF7BAFE0446002C00F0A48000F0A5F802
:1069D0004C4551D100244FE02046FFF701FFF1E77D
:1069E0008B460CB1012445E09BF80400E8B1022875
:1069F00001D002D337E04C46E5E705F120036A46B3
:106A000000210BF10600FFF737FD040005D1A98C2A
:106A10000198FFF7FAFD044604E005F1200000218B
:106A2000C0E900110A2CCED1E5E702208BF8040062
:106A300001A998E81C0081E81C00DBF80C0001901B
:106A4000694601A8FFF7CEFC58B102988188ABF8DF
:106A500006100288ABF80820BDF80010FFF7D5FD3E
:106A6000B0E70A24AFE70F24ADE72046FFF734FF75
:106A7000A8E70F2400F051F8E86A01940178491E54
:106A8000052935D8DFE801F031281D11070305225B
:106A90008DF800202CE004218DF800100021C28820
:106AA000ADF80C20ADF80E1009E003218DF80010B0
:106AB000C288ADF80C200189ADF80E10C1680291B2
:106AC00016E0022100F02EF8C1680291807D0628B0
:106AD00014BF0021012105E0012100F023F800216D
:106AE000C06802908DF8101002E000218DF80010AF
:106AF0006846FFF785FB0020E8623946304600F023
:106B00006BFA012105F1300000F0E4FC00240028BC
:106B10007FF444AF05B0BDE8F08F684651461422BB
:106B200000F0FABC8DF800100289ADF80C208188C5
:106B3000ADF80E10704780B50121DFF8400300F07A
:106B4000B1FC10B9BDE8024018E701BD406815E787
:106B50002DE9FE4300F05CF8994608B9022055E0A3
:106B60000DB9052052E028884FF6FF7188421ABF00
:106B700068880028042049D0287910F0030F07D135
:106B800042B9AF686946B8B2FFF7DAFB30B13DE011
:106B900003203BE01088ADF80000578801A8FFF7FC
:106BA000ACFC060006D1BDF80010B8B2FFF7ECFB54
:106BB00008202BE086F800900020B075BDF800108A
:106BC000B18201216868306108F1280000F076FC8C
:106BD000F060B9F1030F288830816988B180F780AF
:106BE00003D10420B0752168B1610020708101A833
:106BF000FFF78FFC3CB100206060F1682160A0725B
:106C0000B8F808102181FFF796FF0020BDE8FE8349
:106C1000DFF8A481044698F810000D46704710B5BF
:106C20005C4A1168042901D10C2010BD136802EBE5
:106C3000830401216060104600F040FC002010BD7C
:106C400038B586B001A8142100F0C6FC5A4C207C4F
:106C5000A0BB04F1140000F049FC002855D1DFF876
:106C60002002DFF8202201681068526811F1010F3C
:106C700004BF114641436D480161A1F54051C16017
:106C80000022DFF8041200F0F7F900283ED11C239F
:106C90008C2204F1340104F1C00000F009F9FFF77F
:106CA0003DFC050018BF022802D0062802D009E0EA
:106CB0000B202BE0012020740021616101A8FFF767
:106CC0009FFA22E000F097F808B908201EE00121A1
:106CD000012D18BF032D01700AD0052D18BF072DF7
:106CE0000DD0092D06D00A2D06D00B2D02D007E0BD
:106CF000002202E0032102E00222027100E00171A1
:106D00006846FFF706FCFFF716FF002007B030BD0E
:106D10007CB504000D4618BF002D01D1052076BDBD
:106D20006946FFF75FFB98B1BDF80030514A6668CD
:106D300014204343D01801210C3000F0BFFB2E601B
:106D40000122606800F10C016960A272002076BD2A
:106D50000A2076BD1CB5040001D1052016BD694688
:106D6000FFF740FBA0B1BDF80020424814214A4380
:106D70008118C86800281CBFA07A002806D0C868FF
:106D8000401EC8600021A172002016BD062016BD5D
:106D90000A2016BD90330020DEC0ADDEFE011EF1DC
:106DA000022303E008B90520704703230022CFE641
:106DB0001F490446087C7047C02C00201CB5FFF713
:106DC000F7FF08B9022016BD4FF6FF718C4201D1C2
:106DD000042016BD00F00FF808B9082016BD0521E3
:106DE000017001220271C4806846FFF792FBFFF731
:106DF000A2FE002016BD6846FFF77FBB1CB50C4CF9
:106E0000207C08B9022016BDFFF7F5FF08B908205D
:106E100016BD062101706846FFF77BFB207808B19C
:106E200001212173E3E70000A4320020F8250020AF
:106E3000C02C002003B581B002A901A8FFF71CFBFC
:106E40000EBD01B513460A466946002004E001B5AF
:106E500013460A4600216846FFF70EFB02BD0028D4
:106E600018BF002901D10520704700680860002084
:106E700070470000A4320020802D0020F02C00205C
:106E80001410001010000010A81103000000FFFFF4
:106E900000000000000000000000000000000000F2
:106EA00000000000000000000000000000000000E2
:106EB00050B509B90E2050BD144694FBF3F603FB00
:106EC00016440CB1092050BD01608460002141606E
:106ED0008281C381002050BD81B050E8022FC1885B
:106EE000B2EB324F4FF0000317BF92B241EA0141BB
:106EF00042EA014104E04268B2EB324F08BF01238D
:106F000040E80212002AE8D18DF800309DF8000018
:106F1000002814BF0020112001B070473CB550E894
:106F2000015FAAB2C3891A4483899A4228BFD21A40
:106F300003899A4202BFBFF32F8F002407E0C2EA01
:106F4000050240E80123002BE9D14FF0010400F0D5
:106F50003AF81AB100680988084436BD002036BDE9
:106F60000A8849888A4209D150E8011FC1EA0141D3
:106F700040E80112002AF7D1012070470020704735
:106F80003CB550E8025F1FFAA5F2C3889A4202BFDF
:106F9000BFF32F8F00240DE0C3891A4483899A42DE
:106FA00028BFD21AC5EA024240E80223002BE8D1EA
:106FB0004FF0010400F007F81AB10068498808444E
:106FC00036BD002036BD01958DF80040019B0B6059
:106FD0009DF80020704700000A8849888A4209D13C
:106FE00050E8021FC1EA214140E80212002AF7D10D
:106FF0000120704700207047002200F0F1BAF0B481
:107000000246106895681318506803EB5004C007D7
:107010001DD54D441BE013F8017B05F8017B491E8B
:10702000F9D1A0B1B60813F8011B06F00306032E30
:1070300008BF13F8016B01EB06214942801C29446B
:1070400005D011F8016B05F8016B401EF9D1A34280
:107050000ED013F8016B16F0030104BF13F8011BE7
:10706000C91C30090F28DAD113F8010B0F30D6E70D
:10707000F0BC02F10C0070477CB5DFF8F831DFF8A6
:10708000F8510FF228245D1BED082D0445F0010591
:107090000FF2042328B90E26009621460FF238225B
:1070A00005E049B90E20009021460FF2342228460F
:1070B00000F030FC0E2076BD0160114602681368B6
:1070C00002B0BDE8704018475146384600F022BC77
:1070D0002DE9FC4700F069F80FF2182900F05EF87E
:1070E00016461D4647F0010714B900F051F804E0B8
:1070F0003EB90E2000904B4683A2FFF7E5FF0E201D
:1071000040E0206818B900F055F808203AE025B9A9
:10711000092000904B4656A20BE060684068B5FB22
:10712000F0F100FB115040B1092000904FEA090333
:1071300077A2FFF7C9FF092024E018F0030F0DD153
:1071400016F003000ED12A4641464FEA040000F033
:1071500095F870B900F018F887A206E000F014F86E
:1071600076A202E000F010F87AA2FFF7ADFF10203F
:1071700008E00A9800902B4620462468E5683246CD
:107180004146A847BDE8F687102000904B4670475F
:107190000E2300934FEA09034FA270470FF20C1A17
:1071A000C71BFF083F048846704704463148324FEA
:1071B00070470000082100914FEA09034AA2514696
:1071C000384600F0A7BB00002DE9FC47FFF7EDFFB4
:1071D0000FF2CC180FF2D409C71BFF083F040E466C
:1071E00015469A4647F001074CB90E2300934946CD
:1071F0004FEA080338A2FFF768FF0E2035E0206849
:1072000040B908210091434637A24946FFF75DFF88
:1072100008202AE045B909200090434614A24946B7
:10722000FFF753FF092020E060680268511E0E42FC
:107230000AD16A433146204600F020F870B9102088
:107240000090434665A204E0102000904FEA080336
:1072500058A24946FFF739FF102006E0204624686F
:107260002A46256953463146A847BDE8F6870000FF
:107270006C656E00640F03003C0F0300C368994205
:1072800007D300695118491E88428041C043C00F8E
:1072900070470020704700006E72665F6673746FFF
:1072A000726167655F696E69740000002573206311
:1072B0006865636B206661696C656420696E202572
:1072C00073282920776974682076616C7565203091
:1072D0007825782E00000000705F667300000000C3
:1072E000705F617069000000705F66732D3E705FB3
:1072F000617069006E72665F6673746F7261676554
:107300005F77726974650000705F737263000000DC
:1073100021286C656E202520705F66732D3E705F9E
:10732000666C6173685F696E666F2D3E70726F6721
:1073300072616D5F756E697429000000616464722A
:107340005F69735F616C69676E6564333228646579
:1073500073742900616464725F69735F616C69674B
:107360006E65643332282875696E7433325F742910
:10737000705F737263290000616464725F69735F98
:1073800077697468696E5F626F756E647328705F89
:1073900066732C20646573742C206C656E29000064
:1073A0006E72665F6673746F726167655F65726146
:1073B00073650000616464725F69735F7061676523
:1073C0005F616C69676E656428705F66732C2070FE
:1073D0006167655F616464722900000061646472C2
:1073E0005F69735F77697468696E5F626F756E64F9
:1073F0007328705F66732C20706167655F616464D9
:10740000722C20286C656E202A20705F66732D3EDA
:10741000705F666C6173685F696E666F2D3E657242
:107420006173655F756E69742929000010B50246A5
:1074300052E8000F0C4642E8004393F0000FF7D1EA
:1074400010BD000010B5024652E8000F40EA0104EA
:1074500042E8004393F0000FF6D110BD10B502468C
:1074600052E8004F44EA010042E8000393F0000FA5
:10747000F6D110BD10B5024652E8000F00EA010433
:1074800042E8004393F0000FF6D110BD10B502465C
:1074900052E8004F04EA010042E8000393F0000FB5
:1074A000F6D110BD10B5024652E8000F00EB010402
:1074B00042E8004393F0000FF6D110BD10B502462C
:1074C00052E8004F04EB010042E8000393F0000F84
:1074D000F6D110BD10B5024652E8004FA4EB0100F2
:1074E00042E8000393F0000FF6D110BD0121A9E797
:1074F0000121B3E70021BDE762B38B0708D0521E1C
:1075000011F8013B00F8013B00F024808B07F6D115
:10751000830740F0208000BF103A07D330B4B1E8B1
:107520003810103AA0E83810F9D230BC530724BF05
:10753000B1E80810A0E8081044BF51F8043B40F837
:10754000043BD20724BF31F8022B20F8022B44BFA2
:107550000B7803707047121F17D35B0009D151F8E5
:10756000043B20F8023B1B0C121F20F8023BF6D212
:107570000BE051F8043B00F8013B1B0A20F8023BEA
:107580001B0C121F00F8013BF3D238BF121D521E14
:1075900024BF11F8013B00F8013BF8D8704730B424
:1075A000002513E050F8042BD30744BFA9F10103D1
:1075B0009A18091F042942F8045BFAD213468C0773
:1075C00044BF15809B1CC90748BF1D7050F8041BA1
:1075D0000029E7D130BC7047002200F02BBBFEE74A
:1075E000401810F0030308D0C91A1FD3DB0748BFA7
:1075F00000F8012D28BF20F8022D130030B41446E6
:107600001546103928BF20E93C00FAD8490728BFA1
:1076100020E90C0048BF40F8042D890028BF20F85D
:10762000022D48BF00F8012D30BC7047C91818BFA3
:1076300000F8012DCB0728BF00F8012D7047FEE7A9
:1076400080B5DFF8A405FF2100228160026042605E
:1076500000F21440426002600273DFF8900500F00F
:1076600002FB20B90FF2B85000F0A7FB002002BDCA
:1076700030B591B1DFF87825DFF878150568DFF8C7
:107680007835511A002200E0521CB2EBD10F06D21D
:1076900033F82240AC42F7D10260002030BD052013
:1076A00030BD01B56846FFF7E3FF28B9DFF84C05A8
:1076B000009950F8310002BD002002BD000000001A
:1076C000491EDFF83825032902EBC0000BD8DFE89C
:1076D00001F0020406080220704704207047007978
:1076E00070474079704700207047024600201368B9
:1076F000C3F380029AB103F00300012802D00228EC
:1077000007D00BE00A68C3F38310801C82180A605C
:1077100004E008689B0D9B1C1B180B600120704740
:10772000F8B5DFF8C44484B004F58360FFF7E0FEE9
:1077300004F214452846FFF7DBFE6068A768009056
:107740000026009904F10C00394000EB81006946E5
:10775000FFF7CBFF0028F4D101AB009A04F10C0134
:107760003A4000F0FBF9F8D90199BDF80A0001F0A0
:10777000030101290AD002290FD101990646009878
:10778000890DC91C00EB9100009006E006460198A7
:107790000099C0F38310411800912846FFF7AAFE14
:1077A00008B100986060304605B0F0BD80B500219A
:1077B000DFF84C04FFF73AFE80F3100002BD2DE91C
:1077C000F84F0446884693461F460A9DDFF81894F2
:1077D000FFF7ECFF09F10C0A7E1C00042E4040EA82
:1077E0001440E4004AF8260004F0380444EA8B14FC
:1077F000C4F3090409F10C0044EA88242F4044F042
:10780000010440F82740BDE8F18F2DE9FC4188468E
:1078100000218DF800101646DFF8CC730446684648
:1078200000F0DAFA3868C8F80000A51CBA683968B0
:107830007868521C511A411807F21C480FE00121C8
:107840004046FFF73BFEFFF76BFF01464046FFF760
:1078500035FEB8683968401C411A78684118A94259
:10786000EDD32EB1A40104F4707444F0050402E0D9
:10787000A40544F006043968B868014007EB8102AA
:10788000D46039689DF800006D183D6000F0C1FAC1
:107890000120BDE8F6812DE9FE43DFF84C63044684
:1078A0000D4690469946B768012201A94846FFF760
:1078B000ACFFA8B10198801C002108E007EA000293
:1078C00006EB820258F82130D360401C491C494520
:1078D000F4D300974A46019B29462046FFF76FFFE5
:1078E00096F8200418B100F02DF80028FBD1BDE86F
:1078F000F78300230022CEE780B50092012300F039
:1079000012F801BDE0B5009201936A460223FFF729
:10791000C2FF07BD1FB5069C00920193029403238A
:1079200000F001F81FBD6A46B5E77FB5089D099EC6
:1079300000920193029503960423FFF7F4FF05B02C
:1079400060BD00002DE9F847A74E70683168884295
:1079500085B024D006F582670020B860BFF34F8F52
:107960007068B468009006F10C000099214000EBAB
:10797000810005E006F10C0004EA010200EB820040
:107980006946FFF7B2FE002800F0CB80B8680028F7
:1079900040F0C780306800998142EBD370600020CE
:1079A000BCE0029965F39F51029105F1080100F0D6
:1079B0005CF95FEA000A4ED000F09EF900F0C8F8CA
:1079C00000982040641C241AA40006F10C01AC426B
:1079D00001EB800119D234B9284606F10C014FF0B1
:1079E0000008002503E0204606F10C082D1BC4B258
:1079F00008232246504600F0D4F9B8F1000F09D010
:107A000004F10803EAB2414601E008232A46504641
:107A100000F0C7F9009809F1030100EB9100009014
:107A200039E0029901F0030101295AD10299029A21
:107A3000C1F383110529C8BF062122F4707242EAFE
:107A4000811202920299C1F38311891C890000F00E
:107A50000CF95FEA000A44D000F04EF900F078F823
:107A60004FF008094FF0000810E00098411C009109
:107A700006F10C05204005EB80014B4604225046E0
:107A800000F08FF909F1040908F101080298C0F328
:107A900083108045E9D33C68B86870B1504600F067
:107AA0002FF933E0E0684179012904D12268136895
:107AB000514620469847E0680468002CF2D15046B1
:107AC00000F01EF900208DF8040001A800F084F9F0
:107AD000B86808B9009870609DF8040000F099F942
:107AE00014E03C6805E021688A6820469047E06819
:107AF0000468002CF7D14348DFF8F82043A1801A2E
:107B0000C008000440F00200FFF7F3FE706831681F
:107B100088420CBF0120002080F0010006B0BDE8C3
:107B2000F087002002AB009A06F10C01224000F021
:107B300015F8F8D902992D4801F0030102297FF4C4
:107B400070AF029DAD0DA946502DA8BF502528E766
:107B50000023082202A9504600F023B951F8221050
:107B600043F82010401C0099491C012800917047DF
:107B700030B5024600201C4BD3F8101400E0096811
:107B800089B1C9680C798442F9D1401C0A28F3DB19
:107B90004FF0FF3030BDC9680D682560D3F8103450
:107BA000D9680A6030BD10F1010FFBD0D1680871AF
:107BB000D3F81014D4680029EDD1C3F81024216043
:107BC00030BD10B5104804680121017408E0E16877
:107BD00001224A712046226851688847E06804689B
:107BE000002CF4D110BD00000C260020BC120300B4
:107BF000EC0F03003C0F0300000000003C0F0300EB
:107C0000282A00206C0F03001C2A00204261636BAD
:107C1000656E647320666C757368656400000000AF
:107C2000D42F00207F0000006433002062F30F2275
:107C300062F31F4200B500BF130096469446103908
:107C400028BFA0E80C50FAD85FEA417C28BF0CC0DE
:107C500048BF40F8042BC90728BF20F8022B48BFB3
:107C600000F8012B00BD00F0EFB82DE9F04105460A
:107C70000F462E8A00F0FFF8361F040021D0F719B6
:107C800000200121FF1C20716171A046B7FBF6F7AF
:107C9000E680FFB27F1EC8F80050002607E0617939
:107CA000491C6171C8F8000005608046761CBE4220
:107CB00009D2284600F0DFF80028F0D1204600F075
:107CC00005F8002000E02046BDE8F081F8B5014647
:107CD0000D464C79601E002200E0521C2D68824245
:107CE000FBD3002605E00F68284600F0E6F8394689
:107CF000761CA642F7D3F1BD0121001DFFF7DEBBC4
:107D00001CB504460121201DFFF7E4FB00909DF8FF
:107D1000000018B92046BDE81640D7E713BD2DE98D
:107D2000F0471446B0F80680427925684646564327
:107D3000361F5F1903F1040CBE42BCFBF8F234BFDE
:107D4000F31A2B4608FB12CC2360002A01E00068DE
:107D5000521EFCD1A8EB0C029A469342089F4FF0AA
:107D6000000988BF92460E4605461C46BCB105EB8D
:107D70000C00001D06EB0903390052460EBF1946E0
:107D800001461846FFF7B8FB2D68A4EB0A04D1445E
:107D900044454FF0000CA246E8D9C246E6E7BDE8EC
:107DA000F0871CB50192002402E01CB50192012469
:107DB000009401AAFFF7B3FF13BD80680021816022
:107DC00001614161C160416001607047EFF3108063
:107DD00072B6704762B6704738B50446FFF7F6FFD3
:107DE000154A916871B9012393601449144B1D68B9
:107DF0000D4015601960596851604FF0FF325A60AC
:107E0000002100E00121217010B9BDE83140E1E717
:107E100031BD10B5084CA16869B160B9FFF7D6FF54
:107E2000084922680A6063684B600021A16010B9AC
:107E3000BDE81040CEE710BDCC330020FC06FFBDEE
:107E400080E100E000E100E010B508B90E2010BDAF
:107E50000368426881681A60891A03E013685C1C31
:107E6000146019700B46591EDBB20268002BF5D165
:107E70000020107110BD38B5044600258DF8005063
:107E80006846FFF7A9FF21686268086882420ED23F
:107E9000421E0A601578208AE36845431D44A368A2
:107EA00020689A1A03799A4238BF1A460A719DF8D7
:107EB0000000FFF7AEFF284632BD38B50C46002162
:107EC00005468DF800106846FFF786FF28680168B0
:107ED0004A1C0260E8682A8A241AB4FBF2F20A708B
:107EE0009DF80000FFF795FF31BDFEE7DFF828168B
:107EF000497800F0BEBDDFF82016C97800F0B9BDA2
:107F000010B50446608800F0E4FEA0802046BDE87D
:107F1000104001F0D2B838B586B004460D46684628
:107F20000FF6481100F097F8ADF80240029500F006
:107F300095F807B030BDF8B586B004460D46164634
:107F40001F4668460FF6541100F085F8DFF8C805A3
:107F50000178ADF802408DF80850ADF80A608DF850
:107F60000C700022204600F09BFD00F077F807B06F
:107F7000F0BD13460A460021DDE72DE9F843DFF89E
:107F80009845894621780646904600F072FDC0B3B8
:107F90003046FFF7ABFF70B3A178304600F069FDC3
:107FA000002814BF0127022706F58070072180B240
:107FB00001F08BFC040018BF052C14D0DFF85C55D1
:107FC00001F0BCFD0246DFF858050FF25C51401B82
:107FD000C0080004334640F00100FFF793FC21463F
:107FE0003046FFF798FF43464A463946304601B0CF
:107FF000BDE8F0439FE7424649463046BDE8F843B6
:10800000B7E7BDE8F183F8B5DFF80C750E46144606
:10801000397886B00546324600F042FDCEB12200E6
:10802000797818BF0122284600F03AFD012CB97872
:108030000CBF01220022284600F032FD68460FF6F0
:10804000140100F008F8ADF802508DF8084000F077
:1080500005F807B0F0BD1822FFF75EBA68464FE793
:10806000FEB5064606F10C0000F06FFE0024074640
:108070004FF6FF7539463088A94203D100F029FE3A
:10808000074601E000F0A5FE308800220121FFF73D
:10809000BAFF3846A84212D001AA072101F0A4FB7A
:1080A00068B9029800F13405297CC80706D406F1A6
:1080B0000C0105F1120000F033FE00B12C463088AF
:1080C00000230022214686DF050016D001F036FD90
:1080D0000246DFF84C04DFF844440FF2B841009741
:1080E000001BC0083388000440F00100FFF712FCB9
:1080F00030882946FFF70FFFF7BD24B9308841F2D9
:108100000601FFF736FFF7BD10B586B0044618210B
:108110006846FFF761FA04228DF80020ADF80240AE
:1081200010E010B586B002238DF800300488ADF859
:1081300002404079C0F3800000B902208DF80800A9
:108140008DF80910FFF78AFF06B010BD2DE9F84D34
:10815000804689B0DFF8C033B8F800B01978002243
:10816000584600F09DFC98F805000024C0F38000FC
:1081700000283CD00BF5807701AB01220721B8B273
:1081800001F036FB0546DFF89803DFF89063861BA5
:10819000F608360446F001065DB1284601F0CEFC33
:1081A00002465B460FF25C413046FFF7ABFB2946C7
:1081B0002AE058464FF6FF7500F08BFD29468842AD
:1081C00082462AD1029800F067FDA842824610D06C
:1081D0005146584600F0FDFD5846FFF78CFEE0B9C9
:1081E0005846FFF791FF5846FFF785FEA8B90021D2
:1081F00027E001F051FFA842824609D10FF2604109
:108200003046FFF776FB04215846FFF784FEEEE781
:108210005146584600F0DDFD012452460721B8B210
:1082200001F05DFB05000BD0862D0ED103A80FF2E7
:108230005461FFF710FFADF80EB003A8FFF760FE22
:1082400001214046FFF76DFF16E001F077FC024682
:10825000CDF800A05B460FF23C413046FFF75AFBD9
:1082600029465846FFF757FE00214046FFF759FFC1
:1082700014B1504600F0B4FD0AB0BDE8F08D10B561
:1082800004462078182802D100F0EAFB207010BDC7
:1082900010B5A14C2046FFF7F2FF601CFFF7EFFF7F
:1082A000A01CFFF7ECFFE01CFFF7E9FF207818287F
:1082B0001CBF6078182805D0A07818281CBFE0786B
:1082C00018280CD19648954A0FF22041801AC00810
:1082D000000440F00100FFF70CFB032010BD00205C
:1082E00010BD2DE9FE450E468D498C4D4D1BED0808
:1082F0002D0417461C4645F001083CB90FF25C42BC
:108300000FF268414046FFF7F7FA14E082460AF59B
:1083100080706B460122072180B201F069FA1128B2
:108320000AD058B101F00AFC024653460FF27041E0
:108330004046FFF7E7FA0320BDE8FE85019850218B
:10834000FEF75AFE01980670019901F13400206091
:10835000E760019800F1180121610198411C714802
:10836000E0616161019800F11101504600F0C1FC2B
:108370000028E1D001F0E2FB024653460FF28441AF
:1083800045F00200FFF7BEFA0820D5E72DE9F843D3
:1083900088B080460C46914600F02CFB0546202113
:1083A0006846FFF719F90027012D5B4E04D1F178DB
:1083B0000022404600F074FB15B943F2020030E0A1
:1083C0000CB9852725E0404600F083FC4FF6FF718D
:1083D00088420DD0012D0BD14046FFF78CFD38B9F6
:1083E0004046FFF791FE4046FFF785FD00B985271F
:1083F0002078C10704D4311DCDF80C90079108E016
:10840000852F06D06B464A4629464046FFF769FF4E
:1084100038B9012D6B460CBF224600223946404632
:108420007FDF09B0BDE8F08338B505460C4600F0A3
:10843000E1FA012808D1002044B1214628467EDF18
:10844000042803D1112032BD43F2020032BD38B5F9
:10845000044686B02088112808D013280FD014288D
:1084600027D0192829D01A2834D053E0217A3D2961
:108470000CBF41F23D014FF48851002226E0A08854
:1084800000F0B8FA012808D1207AC1074CBF0122B8
:108490000222A0880121FFF7B6FDA5880FF2144142
:1084A0006846FFF7D8FD04F10801ADF802500291CB
:1084B0002EE0201DFFF7D4FD2CE0217A19B9201DF4
:1084C000FFF744FE26E0627A02F00302A088FFF77D
:1084D00054FD1FE0A088FFF709FDD8B9A08800F07F
:1084E000A7FA30B9A088012241F20601FFF741FD49
:1084F00010E009480178A088002200F0D1FA02209B
:108500008DF800000022A188ADF80210ADF8082017
:10851000FFF7A4FD07B030BD502500203C0F03003D
:10852000DC0F030054250020436F756C64206E6FD0
:108530007420636C65616E2075702061667465726D
:10854000206661696C656420626F6E64696E672085
:1085500070726F6365647572652E207064625F77F8
:10856000726974655F6275665F72656C656173657B
:1085700028292072657475726E65642025732E201B
:10858000636F6E6E5F68616E646C653A2025642E61
:1085900000000000436F756C64206E6F7420636F81
:1085A0006D706C65746520656E6372797074696F47
:1085B0006E2070726F6365647572652E2073645FE0
:1085C000626C655F6761705F7365635F696E666F3C
:1085D0005F7265706C7928292072657475726E659A
:1085E000642025732E20636F6E6E5F68616E646C0D
:1085F000653A2025642C20706565725F69643A20B5
:1086000025642E0052414D206275666665722066B3
:108610006F72206E657720626F6E642077617320C1
:10862000756E617661696C61626C652E2070646242
:108630005F77726974655F6275665F676574282924
:108640002072657475726E65642025732E20636FC9
:108650006E6E5F68616E646C653A2025642E000062
:10866000436F756C64206E6F7420616C6C6F636116
:108670007465206E657720706565725F6964206639
:108680006F7220696E636F6D696E6720626F6E64D2
:108690002E000000436F756C64206E6F742073743D
:1086A0006F726520626F6E642E207064625F7772F5
:1086B0006974655F6275665F73746F7265282920DF
:1086C00072657475726E65642025732E20636F6EFB
:1086D0006E5F68616E646C653A2025642C2070655D
:1086E00065725F69643A202564000000436F756C11
:1086F00064206E6F74206163717569726520636FA9
:108700006E6E5F7374617465207573657220666C3C
:108710006167732E20496E63726561736520424CF8
:10872000455F434F4E4E5F53544154455F5553454B
:10873000525F464C41475F434F554E5420696E206F
:1087400074686520626C655F636F6E6E5F737461E1
:108750007465206D6F64756C652E00007365635FD2
:108760006B65797365745F66696C6C00496E7465DE
:10877000726E616C206572726F723A20257320727E
:1087800065636569766564204E554C4C20666F7252
:1087900020705F7365635F6B65797365742E00008D
:1087A000436F756C64206E6F7420726574726965B6
:1087B00076652052414D2062756666657220666F4F
:1087C0007220696E636F6D696E6720626F6E642ED2
:1087D000207064625F77726974655F6275665F6757
:1087E000657428292072657475726E65642025731E
:1087F0002E20636F6E6E5F68616E646C653A202533
:1088000064000000696D5F626C655F616464725F43
:1088100067657428292072657475726E65642025F9
:10882000732E20636F6E6E5F68616E646C653A20B4
:1088300025642E204C696E6B20776173206C696B08
:10884000656C7920646973636F6E6E6563746564CB
:108850002E000000010000000000000000000000E9
:108860000000000000000000000000000700000001
:1088700000000000000000000000000000000000F8
:1088800000000000060000000000000000000000E2
:1088900000000000000000000000000003000000D5
:1088A00000000000000000000000000000000000C8
:1088B00000000000050000000000000000000000B3
:1088C00000000000000000000000000033B58BB085
:1088D0000021044600910C9880B1002529460CA87F
:1088E00001F0B5FC38B10099684600EB4102958073
:1088F0000098401C00906D1C142DEFD32046694653
:108900002C22FEF709FE0DB030BD0146884801F06B
:108910009EBC2DE9F84306468CB03088B488844D5F
:10892000102804D0112838D01A283AD057E0AA6865
:10893000D243009268466968FEF7A8FD009901A835
:10894000FFF7C4FF4FF000090EE002A8002730F83F
:108950001980281D414600EB870001F069FC7F1C4F
:108960001D2FF6D309F1010901988145EDD3142C8F
:1089700003DB042001F09CFC31E0214605F10800F6
:1089800001F040FC2146281D01F03CFCF07B012851
:1089900025D0214605F10C0014E0214605F1080020
:1089A0001BE0307A000902280FDBCCBF012600262D
:1089B000214605F1100001F025FC002E214605F1AD
:1089C00014000AD001F01EFC09E0214605F1100058
:1089D00001F02EFC214605F1140001F029FC0DB038
:1089E000BDE8F08301461429BCBF524801F02FBCFA
:1089F0000020704738B500F026F8002538B1214630
:108A00004D4801F024FC002814BF0225012528460A
:108A100032BD38B500F017F8002538B12146474877
:108A200001F015FC002814BF02250125284632BD9F
:108A300010B500F008F828B12146BDE810404048C4
:108A400001F005BC10BD0446CCE710B5FFF7FBFFF5
:108A500028B12146BDE810403A4801F0F8BB10BDEE
:108A600080B51821324801F0FBFB182818BFC0B2AE
:108A700002BD38B504460D462846FFF746FF68B1EB
:108A80002046FFF7AFFF48B1294800EB8502214699
:108A900002F11800BDE8344001F0D9BB002032BD1E
:108AA00070B504460D4616462846FFF72EFF98B1CE
:108AB0002046FFF797FF78B11D48002E00EB850098
:108AC000214604D0BDE87040183001F09BBBBDE8E2
:108AD0007040183001F0ACBB70BDF1B50C46200001
:108AE000154601D10020F2BD0098002660B1002794
:108AF0003946684601F0ABFB18B12946B8B2A04729
:108B0000761C7F1C142FF3D33046F2BD70B504469B
:108B10000D461646FFF7F9FE40B1054800EB840309
:108B2000324698692946BDE87040D6E770BD00001E
:108B3000D0300020D4300020DC300020D83000209D
:108B4000E0300020E43000200022815C21B9521C7A
:108B5000102AFAD3002070470120704780B5002802
:108B600018BF002905D002780B785208B2EB530FDA
:108B700001D0002002BD0622491C401C01F0A8FBC8
:108B8000401E8041C00F02BD01460A88102A00D055
:108B9000704738B594B003A8091D2C22FEF7BCFC21
:108BA0009DF8100040084FF6FF7503282C4615D09D
:108BB00001F0EFF99DF81000400802D0022834D0EF
:108BC0000CD200F081F848B1029800F1110104A81C
:108BD000FFF7C4FF0028F4D0BDF80040BDF80C102A
:108BE0000A204143DFF81C0244520144881C04A9B6
:108BF0000722FEF781FCAC420ED0BDF80C10ADF898
:108C00003A10ADF83C4000218DF838100EA801F064
:108C100036FC0EA802F08BF815B030BD0298411C4E
:108C200004A800F019F90028D6D100F04DF800286A
:108C3000F4D1D3E770B504460D461022691C601CC0
:108C400001F046FB50B9601CFFF77EFF30B1681C95
:108C5000FFF77AFF060002D0012600E0002605F1AA
:108C6000110104F11100FFF779FF617C4908022925
:108C700018BF03290CD0697C4908022918BF0329B1
:108C800006D0012130B981F001010E40304670BD9F
:108C90000021F8E70126F9E73EB504460D4601F04C
:108CA00078F900F011F860B1BDF80000A842F8D0E2
:108CB00002992046FFF7BEFF0028F2D0BDF8000061
:108CC0003EBD4FF6FF703EBD01AA6946072001F088
:108CD00065B910B50446142C02DAFFF783FE10B90B
:108CE0004FF6FF7010BD0A20DFF818114443085BEF
:108CF00010BD38B50546142D0C4602DAFFF772FE9A
:108D000010B943F2020032BD0A21DFF8F8204D43CA
:108D100051192046891C0722FEF7EEFB002032BDC8
:108D200038B504460D4600F047F818B12088298868
:108D3000884201D0002032BD0822A91CA01C01F0ED
:108D4000C7FA401E8041C00F32BD1FB5044601F076
:108D500020F9FFF7B9FF88B1029800F146012046DB
:108D6000FFF7DEFF38B9029800F12A012046FFF72D
:108D7000D7FF0028EDD0BDF8000001E04FF6FF70EE
:108D800004B010BDF8B54FF6FF74A04205460FD0F1
:108D900000271C4EB8B20A214843305AA84203D1DA
:108DA000B8B2FFF71FFE28B97F1CB8B21428F1DB58
:108DB0002046F2BDB8B2F2BD018841B90022811847
:108DC000897821B9521C082AF9D300207047012064
:108DD0007047142803DA0A220A4B5043195270478D
:108DE00038B50446FFF7CEFF0546204600F0B8FC34
:108DF00038B9142D05DA0A21024B4D434FF6FF72A4
:108E00005A5332BD942D002038B50D468CB014460F
:108E100000214A420244D27B0DF80120491C10294E
:108E2000F7D30D2104A8FEF7D7FB00204342295CAD
:108E30000DEB0302401C0328D177F7D3684646DFC9
:108E4000002042420DEB020191F82F302354401CC8
:108E50000328F6D30DB030BD3EB504460D4620784C
:108E60004008022801D000203EBD0322611C02A858
:108E7000FEF742FB0322211D6846FEF73DFB01AAD7
:108E800069462846FFF7C0FF032201A902A801F0A6
:108E90001FFA401E8041C00F3EBD000001F0E9BA3C
:108EA00038B5044610460022112908BF0122DFF818
:108EB000C05320B1297B2046FFF7F2FD0022697ADA
:108EC0002046BDE83840FFF7EBBDF8B50C001CBFED
:108ED000112C082C86B00746154643D06846182149
:108EE000FEF77AFBADF802703846FFF7F2FEADF8F8
:108EF0000400DFF88063DFF88003861BF608360481
:108F00000D2C1AD13A460FF2843146F00200FEF7DA
:108F1000F3FC03208DF8000025B12878C10748BF75
:108F2000012000D40220002141F201128DF8080036
:108F30008DF80C10ADF80A2011E0204600F0FEFD7F
:108F400002463B460FF2FC3146F00100FEF7DAFC28
:108F500007218DF80010029400218DF80C1068464E
:108F6000FFF79CFF07B0F0BD38B586B01446052268
:108F70008DF80020ADF802000D46FFF7AAFEADF80F
:108F80000400029503946846FFF788FF07B030BDE0
:108F90002DE9F04781460F46380086B090461D46C1
:108FA000B34C27D00026424631464846FFF73CFAEC
:108FB0008246002251464846FFF772FF5FEA0A00E8
:108FC00018BF082833D00B2818BF0D282FD0112820
:108FD00004D043F20201884229D02AE0E17A3A46DD
:108FE0004846FFF75DFDA17A42464846FFF758FD27
:108FF00000272EE0684600210022002380E80E00B2
:1090000026690096694691E80C4003A8002180E893
:109010000C4003AA4846FFF7A7FF207A039E0028CA
:1090200004BF9DF815000028BDD1052018E0574663
:109030000FE0904F00F082FD02468F480FF2703132
:10904000C01BC00800044B4640F00100FEF75AFC6C
:10905000032725B1324651464846FFF736FF3846CA
:1090600006B0BDE8F0872DE9F04186B0044603A8BC
:1090700000220023002580E82C007D4D2869039004
:1090800003AE96E880416B466A4683E880412046FD
:10909000FFF76AFF6A6900992046FFF777F90546EE
:1090A000012229462046FFF7FBFE009A294620466A
:1090B000FFF70BFF06B0BDE8F08110B5044620783D
:1090C000052802D0122805D01EE0A1686088BDE8FE
:1090D0001040C8E7664A1069002178B11078237AF9
:1090E00003B1012300F001029A4207D3627A4008DB
:1090F00002B1012200F00100904200D201216088FB
:1091000001230022FFF744FF2046BDE81040C5E6DA
:109110000021A8E770B5564DA97A0446FFF7A9FCCF
:109120000646E97A2046FFF7A4FC0146324620466F
:10913000BDE8704001232BE710B5007808380328FC
:1091400001D90B3803D14A4C4C49207B34E010BD87
:1091500010B504462078182802D1FFF781FC207052
:1091600010BD000010B5424C04F10900FFF7F0FFFC
:1091700004F10A00FFF7ECFF04F10B00FFF7E8FF32
:1091800004F10C00FFF7E4FF207B18280CD13A48CB
:10919000DFF8E0209CA1801AC008000440F0010024
:1091A000FEF7A7FB032010BD002010BD10B5304C0A
:1091B000FFF74DF9207B31490022FFF7A7FC607AC9
:1091C0002F49BDE810400022FFF7A0BCB0B30278E1
:1091D000910701D4130631D4C2F3021104292DDC06
:1091E00002F0F201322929D0417883788B4225D3CD
:1091F000072923DB112B21DAC178C1F38003002B6F
:1092000002BF0079C0F38003002B17D1C1F3C00364
:10921000002B04BFC0F3C003002B0FD1D20701F015
:10922000030106D4002908BF10F0030F06D1012066
:109230007047002908BF10F0030FF8D100207047D5
:1092400038B504000A4D04D101210020297228619B
:1092500032BDFFF7BBFF48B1284621460522FEF785
:109260004BF9012028722D61002032BD072032BD4C
:10927000942500203C0F0300E40F0300119102002D
:10928000159102000A460023002181E643616E6EBB
:109290006F7420736563757265206C696E6B2062F4
:1092A00065636175736520612070726576696F759D
:1092B000732073656375726974792070726F63656A
:1092C0006475726520656E64656420696E207469DA
:1092D0006D656F75742E20446973636F6E6E656380
:1092E0007420616E642072657472792E20736D64CF
:1092F0005F706172616D735F7265706C792829208F
:109300006F7220736D645F6C696E6B5F73656375FC
:10931000726528292072657475726E6564204E52DC
:10932000465F4552524F525F54494D454F55542E5A
:1093300020636F6E6E5F68616E646C653A202564B1
:1093400000000000436F756C64206E6F74207065C0
:1093500072666F726D2073656375726974792070BF
:10936000726F6365647572652E20736D645F7061E2
:1093700072616D735F7265706C792829206F72203D
:10938000736D645F6C696E6B5F736563757265287E
:10939000292072657475726E65642025732E2063B2
:1093A0006F6E6E5F68616E646C653A2025640000C4
:1093B000436F756C64206E6F7420706572666F7297
:1093C0006D2073656375726974792070726F63655F
:1093D000647572652E20736D645F6C696E6B5F736C
:1093E000656375726528292072657475726E65648F
:1093F0002025732E20636F6E6E5F68616E646C65EE
:109400003A20256400000000436F756C64206E6F85
:1094100074206163717569726520636F6E6E5F732E
:1094200074617465207573657220666C6167732E54
:1094300020496E63726561736520424C455F434FFE
:109440004E4E5F53544154455F555345525F464C11
:1094500041475F434F554E5420696E207468652024
:10946000626C655F636F6E6E5F7374617465206DAF
:109470006F64756C652E00004FF6FF71018000224D
:10948000FF218170417202724260817A01F0FC0119
:109490008172704730B50A68DFF80C3400E0521C66
:1094A000042A07D20C2454431D5B8542F7D10A607D
:1094B000181930BD002030BD38B50D4600220446D5
:1094C00000926946FFF7E6FF01000ED08878A842B7
:1094D00004BF8B7A13F0030F01D1486828B10098BC
:1094E000401C009069462046ECE7084632BD70B546
:1094F00004460025DFF8B06307E0617A6918C9B255
:1095000006F1300001F06EFF6D1C207A8542F4D325
:109510002046BDE87040AFE770B5044600250FF265
:10952000046656F82510204688476D1C042DF8D394
:1095300070BD8170426050214B439BB2DB1C9B107D
:10954000038070473EB504460FF2E850DFF85C53E5
:10955000D0E90023CDE90023A0788DF80200617ADC
:10956000DFF84C0301F028FFDFF848134D1BED082E
:109570002D04024645F0010532B9627A0FF29431AA
:109580002846FEF7B9F94AE0237AA1786846FFF742
:10959000D0FF9DF80200012818BF062808D0072830
:1095A0000AD008280BD1019881880931890800E088
:1095B0000121ADF8001002E01422ADF80020221DB8
:1095C0002088694600F012FD0200BB4906D007283A
:1095D00026D0112807D086280FD017E0A17A01F0F5
:1095E000FC01A1723EBDA07A00F0FE0040F0020036
:1095F000A0720120087000203EBDA27A02F0FD0298
:1096000042F00102A27201220A703EBD00F096FAF9
:1096100023880FF2403102462846FEF773F90320F3
:109620003EBD2DE9F041A44E8046307886B0C8B1E9
:109630000021317000279C4D0C247C432819817A2D
:1096400011F0030F0BD0C1F340010122002908BF24
:109650005FEA0801327002D0FFF774FF28B97F1C5F
:10966000042FE9D306B0BDE8F0814FF6FF72ADF8E4
:10967000022086282B5BADF8043003D106218DF83B
:10968000001011E007228DF80020029000228DF8D2
:109690000C2000F053FA2B5B844C0FF2E8210246B9
:1096A00000F09BF8FEF72EF96846FFF735FFD9E783
:1096B00070B504460025E16800220C237A48534324
:1096C000184446688E4203D0521C042AF5DB002061
:1096D0002278082A05D0092A09D0132A08BF0125B3
:1096E00011E0617A79B970B1FFF701FF0BE0617A9F
:1096F00049B940B1827A416042F00202827201208F
:109700006D49087002E02046FFF706FF2846BDE8D5
:10971000704086E73EB50024634D0C20604328442A
:10972000FFF7AAFE641C032CF7D9502004210190F6
:10973000009105F5C0734FF4A07205F1400105F1E9
:10974000300001F0EDFD48B100F0F8F9024659484B
:10975000DFF85831A3A100F0B1F803203EBD0000AE
:109760003EB500220546019201A904E00198401C83
:10977000019001A92846FFF78DFE040025D0A178AD
:10978000284600F0A2F8002818BF0528EED000F007
:10979000D5F90246A078454C9AA100902B4600F0DE
:1097A0001CF8FEF7B7F80EE000F0C8F90346414890
:1097B000DFF8F840A9A1001BC00800042A4640F0C9
:1097C0000100FEF79FF803203EBD284600F068FC2C
:1097D0000028F9D00728E7D13EBD3648001BC00855
:1097E000000440F001007047002300F09ABB000025
:1097F0002DE9F84381465FEA03080D46164608BF87
:109800000E204FD0072D18BF082D02D10EB1052E06
:1098100001D3072046E0FFF74FFE002704001BD1CD
:10982000FF214FF6FF70FFF747FE040012D0A4F8A7
:109830000090A570607ADFF87090FF2812D1314651
:1098400009F1300001F084FDFF28607209D1204643
:10985000FFF712FE112025E0207AB042EAD00F2057
:1098600020E00127617A267209F1300001F0A4FDA1
:1098700038B910480D4B627A8DA100F01FF8032013
:1098800010E00246B3B229464046FFF752FE47B108
:10989000082D06D1B8F800008000811FD8F8040018
:1098A00081800020BDE8F283302A00203C0F0300B5
:1098B000602A0020C40F030029340020C01AC00809
:1098C000000440F00100FEF717B880B5FFF7F4FD83
:1098D00008B9052002BDFFF70AFE002002BD70B5E1
:1098E0000D46072D18BF082D0446164603D13046F5
:1098F00000F0E2FB08B9072070BD29462046FFF7BB
:10990000DBFD08B9052070BD06808570BDE870409C
:1099100018E60000706D5F6275666665725F707450
:10992000725F676574282920636F756C64206E6FA1
:10993000742072657472696576652052414D2062AB
:1099400075666665722E20626C6F636B5F69643A40
:10995000202564007064735F706565725F64617474
:10996000615F73746F726528292072657475726EF9
:1099700065642025732E20706565725F69643A20E6
:1099800025640000536F6D65207065657220646109
:10999000746120776173206E6F742070726F7065D0
:1099A000726C79207772697474656E20746F2066AA
:1099B0006C6173682E2077726974655F6275665F8B
:1099C00073746F726528292072657475726E656490
:1099D00020257320666F7220706565725F69643A36
:1099E00020256400504D5F4255464645525F494E22
:1099F000495428292072657475726E656420257338
:109A00002E0000007064625F77726974655F627532
:109A1000665F72656C65617365282920726574756F
:109A2000726E6564202573207768696368207368A7
:109A30006F756C64206E6F742068617070656E2E37
:109A400020706565725F69643A2025642C2064612A
:109A500074615F69643A2025640000005065657296
:109A600020494420256420776173206E6F74207034
:109A7000726F7065726C792072656C656173656474
:109A80002E207064735F706565725F69645F6672D3
:109A9000656528292072657475726E65642025736A
:109AA0002E20706565725F69643A202564000000AD
:109AB00043616E6E6F742073746F7265206461749D
:109AC0006120746F20666C617368206265636175E4
:109AD000736520706D5F6275666665725F70747223
:109AE0005F676574282920636F756C64206E6F74DE
:109AF0002072657472696576652052414D206275E9
:109B0000666665722E20497320626C6F636B5F69B5
:109B100064202564206E6F7420616C6C6F636174C7
:109B200065643F007DA3020039910200D1B50200B7
:109B300061AD0200000000000000000080B500F0F0
:109B400004F808B90FF23C0002BD10B50FF248014D
:109B500001F5947200E01A4691420FD2531ADB10BD
:109B600003EBD3735B1001EBC3031C68A042F2D379
:109B7000844238BF03F10801EED301E0002010BD9C
:109B8000586810BD556E6B6E6F776E206572726F80
:109B90007220636F6465000000000000E4020300AF
:109BA00001000000F00203000200000010030300A7
:109BB0000300000034030300040000004803030016
:109BC000050000005C0303000600000070030300B2
:109BD000070000008803030008000000A003030042
:109BE00009000000B80303000A000000D4030300CA
:109BF0000B000000EC0303000C0000000404030051
:109C00000D000000180403000E0000002C040300E7
:109C10000F0000003C04030010000000500403008B
:109C20001100000068040300120000007804030023
:109C3000130000009004030080000000A40403004F
:109C400081000000C804030082000000E404030057
:109C500083000000000503008400000020050300CD
:109C60008500000044050300860000006C05030029
:109C7000900000008405030091000000A40503008B
:109C800092000000C405030000820000DC05030010
:109C900001820000FC050300028200001806030098
:109CA000008400003406030001840000580603000D
:109CB000028400008406030003840000AC06030055
:109CC0004FF6FF714180FFF7F3BCB0F5404F05DB65
:109CD0004FF6FF71884201D0012070470020704785
:109CE000072818BF012808D0082818BF052804D065
:109CF00006281CBF0928042801D101207047002034
:109D00007047F0B5DFF87C538BB000202870CDE9A8
:109D100000004FF6FF74204603E0304601F0B5FB2B
:109D2000304601F0FBFB0646A64230D0A6F5804740
:109D30006A4602A9B8B2FDF78AF80A28EDD0B8B28F
:109D4000FDF73CF80446082C02D1012028701EE0E3
:109D5000ECB1DFF83403DFF834530FF26831401B05
:109D6000C00800043346224640F00100FDF7CAFD5A
:109D700005A80FF278411822FDF7CEFB01218DF8DE
:109D80002010ADF81860079405A8FFF799FF0BB0F5
:109D9000F0BD7CB504460D4616462846FFF7A0FFE9
:109DA0000021CDE90011A4F58040A5F580416B4666
:109DB000324689B280B2FDF73DF800B1052076BD8C
:109DC000F8B586B0064668461821FDF705FCB78948
:109DD000DFF8B04207F58047ADF804704FF6FF7525
:109DE0003078401E022804D9C01E2CD0401E3FD01F
:109DF0004CE0B089FFF769FF28B9F089B0F5404F12
:109E000044DBA84242D0F0898DF80800317803295C
:109E10000CBF012000208DF80900B0680390706825
:109E200048B908208DF800009DF8100040F00100AE
:109E30008DF8100027E009228DF8002004900122FF
:109E40008DF814201FE0B089FFF73FFFF0B1F089D3
:109E5000E0B9706830B90A208DF80000B8B201F09E
:109E600014FB02E00B2200F017F8012121700AE038
:109E7000706818B913208DF8000002E0142200F079
:109E80000BF8ADF804506846FFF71AFF207808B1C8
:109E9000FFF737FF07B0F0BD8DF8002002900122D8
:109EA0008DF80C207047000018B5784C784887B0C2
:109EB000FCF7B5FE74490C1BE4082404024644F088
:109EC00001042AB192A12046FDF716FD032026E0E9
:109ED000FCF7B6FE30B102469EA12046FDF70CFD10
:109EE00086201CE001F096FA0021CDE900110DE07A
:109EF00002A904A8FCF70CFF0298848804A8FCF7C8
:109F000029FF04F58044A0B201F0AEFA6A4604A924
:109F10004CF20700FCF795FF0028E9D0002008B0BC
:109F200010BDF0B5B0F5807F85B006460F461546EA
:109F30001C4603DA3846FFF7D3FE08B9072017E0BE
:109F400002AA39463046FFF724FF20B9694602A825
:109F5000FCF7DEFE08B105200AE0AF7000984688E5
:109F60002E803CB90198686002A8FCF7F3FE00203F
:109F700005B0F0BD20880199B6003746B04238BF21
:109F8000064668683246FDF7B7FABE42ECD20C20AE
:109F9000EEE740480021C0E90011704778B585B070
:109FA00005460C461646FFF79BFEE0B1A5F580403E
:109FB000384A02A980B2FCF744FF20B9694602A8DA
:109FC000FCF7A6FE08B100200EE0B57000984188AD
:109FD0003180019870600099888800F58040208069
:109FE00002A8FCF7B7FE012006B070BD70B5B0F551
:109FF000807F86B005460E46144603DAB078FFF738
:10A000006FFE08B907203BE0A5F58040ADF80000E1
:10A01000B178A1F58040ADF8020028467168019141
:10A020003288029203AAB178FFF7B3FE0528694689
:10A0300003A802D1FCF7B4FE01E0FCF7B3FE010077
:10A0400006D007280DD0082818BF0E2807D00AE030
:10A050001CB1214603A8FCF702FF002010E01120EC
:10A060000EE086200CE002460748084C49A1001B80
:10A07000C00800042B4640F00100FDF743FC03201C
:10A0800006B070BD28340020BC0F03003C0F030055
:10A09000C19D0200183400204FF6FF7001F0E4B9B2
:10A0A00080B5B0F5807F01DB072002BD01F0DEF94D
:10A0B000FFF727FE002002BD01F0F3B901F01BBA43
:10A0C00001F02CBA436F756C64206E6F7420646568
:10A0D0006C657465207065657220646174612E2002
:10A0E0006664735F66696C655F64656C657465283A
:10A0F000292072657475726E656420307825782029
:10A10000666F7220706565725F69643A202564002D
:10A11000436F756C64206E6F7420696E6974696139
:10A120006C697A6520666C6173682073746F726104
:10A1300067652E206664735F726567697374657204
:10A1400028292072657475726E65642030782578D0
:10A150002E000000436F756C64206E6F7420696E72
:10A16000697469616C697A6520666C6173682073D3
:10A17000746F726167652E206664735F696E6974BF
:10A1800028292072657475726E6564203078257890
:10A190002E000000436F756C64206E6F7420777220
:10A1A000697465206461746120746F20666C6173EA
:10A1B000682E206664735F7265636F72645F7B777D
:10A1C000726974657C7570646174657D282920727C
:10A1D000657475726E656420307825782E20706500
:10A1E00065725F69643A2025640000000700000082
:10A1F000000000000000000000000000000000005F
:10A20000000000000B46012103F01F025B09914092
:10A2100000EB8300FDF722B910B50A4602F01F04D7
:10A2200001215209A14000EB8200FDF70BF90AE081
:10A230000B46012103F01F0291405B09C94300EB6B
:10A240008300FDF723B9E04000F0010010BD4A098A
:10A2500050F8220001F01F01C84000F001007047D3
:10A26000F8B504460D46002614E054F82600C04315
:10A2700000F016F83CBF07EB4617AF4209D239464B
:10A280002046FFF7C9FF0028EFD13846F2BD284627
:10A29000F2BD761C681E4009401C8642F7D2E4E7F6
:10A2A00090FAA0F0B0FA80F7FFB2202F7047FEE7D7
:10A2B0001FB5694600220023002481E81C0002909B
:10A2C0006A46002144F2010001F02EF91FBDFEE7AD
:10A2D0000300002013F0030F09D0521E22BF13F811
:10A2E000010B11F801CBB0EB0C00F3D0704711F06B
:10A2F000030F14D1121F22BF53F8040B51F804CBE3
:10A300006045F7D0121D0AD200BA9CFA8CFCB0EB63
:10A310000C0038BF6FF0000088BF01207047521E4C
:10A3200022BF13F8010B11F801CBB0EB0C00F6D0F3
:10A33000521C08BF1046704770B504460025DFF870
:10A340002C6506E006F11001204651F825209047C3
:10A350006D1CF0788542F5DB70BD10B5DFF80C455B
:10A360000023002204F10C01201D00F0B1F90028A7
:10A3700016BF052801200020607010BDF8B5044606
:10A3800086B0A088DFF8E454FEF7FCFC012760806B
:10A390004FF6FF762278A968A878083A032A49D8A8
:10A3A000DFE802F0021D2A4EAB886878627A4AB96B
:10A3B00051B1E268914207D10020A860A188A9802C
:10A3C000E06038E0012A36D1002834D0A0889842D5
:10A3D00004BF217A06292ED1FFF7BFFF2BE0607A58
:10A3E00048BB41B3E068814225D1E8680021401EA6
:10A3F000A960E860E1601EE0A0B13046FFF75EFEB4
:10A40000B0420FD13046FFF75BFEB0420AD100F0F8
:10A4100058F90C2100F026F82046FFF78DFF00F0D8
:10A420004EF90027687828B1A088A988884208BF1B
:10A43000FFF793FF17B12046FFF77EFF07B0F0BD8F
:10A440000028F8D000F03DF90D2100F00BF8A068CD
:10A450000290207B8DF80C002046FFF76DFF00F086
:10A460002EF9EBE78DF80010ADF80460ADF802604E
:10A470007047002818BFFFF75FBF70475CE75BE7D6
:10A4800010B500F0CDF850B12046FEF77DFB204618
:10A49000FEF78CFE2046BDE8104000F0F3BC10BD76
:10A4A00038B5FFF701FDDFF8C813DFF8C8430FF236
:10A4B000C8350C1BE408240444F0010430B1FFF754
:10A4C0003DFB03462A460FF2B83130E0FFF722F990
:10A4D00030B1FFF733FB03462A460FF2D03126E0B6
:10A4E000FEF740FE30B1FFF729FB03462A460FF284
:10A4F000E8311CE0FDF7CCFE30B1FFF71FFB03464F
:10A500002A460FF2004112E000F068FC30B1FFF77C
:10A5100015FB03462A460FF2184108E001F061F8E6
:10A5200050B1FFF70BFB03462A460FF2304120469D
:10A53000FDF7E8F9032032BDDFF830034FF6FF7175
:10A54000002281808260002101224170027000207F
:10A5500032BDDFF81823117809B908207047D17887
:10A56000032901DB0420704702EB8103491C1861B9
:10A57000D17000207047DFF8F4221178002918BF4D
:10A58000FEF75EBE0820704780B5DFF8E0321A782B
:10A590000AB9082002BDFEF775FE082808BF112081
:10A5A00002BD38B50C46DFF8C4120546087808B974
:10A5B000082032BD0CB90E2032BD2846FEF729FA1C
:10A5C00010B943F2020032BD217802280CBF0120ED
:10A5D000002001F0FE01084320702846FEF779FBB9
:10A5E0004FF6FF718842217814BF0120002001F04E
:10A5F000F70141EAC00121702846FEF719FA2178D7
:10A6000001F0FD0141EA400121702846FEF71DFAE4
:10A61000217801F0FB0141EA80012170002032BD68
:10A62000DFF84812044608787047904A11780029EC
:10A6300018BFFEF7D5BB0820704770B58B4D287842
:10A6400086B008B9082015E00120A8704FF6FF7405
:10A650002046FFF733FDA042064615D100F031F841
:10A660000C218DF80010ADF80440ADF8024000F068
:10A6700026F8002006B070BD3046FEF7B1FB48B9A1
:10A680003046FFF71BFD0646A642F2D02878002888
:10A69000F2D10820FFF752FA03467548754C0FF2C5
:10A6A000E8220FF2F421009600F002F80320E1E71F
:10A6B000001BC008000440F00100FDF72BB96846FC
:10A6C0003AE60020A87018216846FCF785BF000014
:10A6D0002DE9F34F6549087885B014461D4608B941
:10A6E000082053E04FF6FF7804274046FFF7E6FCCA
:10A6F00000210191ADF8007001AF0FF26C3183467B
:10A70000D1E90023CDE90223039700F042F80027A6
:10A7100007284FF0FF394646C24610D1052035E0E4
:10A720000198B84224BF07465E4648453CBF814673
:10A73000DA465846FFF7C2FC834600F02AF80028A4
:10A74000EED00528F5D0C34511D14645059916BF71
:10A75000C2450520002001B10E80069901B10F60AD
:10A760000CB1A4F800A08DB1C5F800900EE0414CEA
:10A77000FFF7E4F902463E4899A1001BC008000417
:10A780005B4640F00100FDF7BDF8032007B0BDE8CF
:10A79000F08F6B4602AA0621FFF7C3BB70B5334E9C
:10A7A0000546307888B008B908205CE00FF2C02078
:10A7B000D0E90023CDE90623707808B9FFF7CDFD75
:10A7C000707808B1B06808B111244BE0B288F06825
:10A7D00095421ED110B318216846FCF7FDFE0820F3
:10A7E0008DF8000000242846FEF7CCFAADF80200F0
:10A7F00006219DF810008DF8081000F0FE008DF87D
:10A800001000ADF804508DF809400394FFF757FF8E
:10A8100028E010F1010F08BF132423D0401CF06082
:10A8200006F1080206A92846FFF7E0FB040019D04C
:10A83000F1680020491E112C1CBF862C072CB0602B
:10A84000F1600FD02046FFF779F902460848094C1D
:10A8500075A1001BC00800042B4640F00100FDF765
:10A8600051F80324204608B070BD00004833002092
:10A87000CC0F03003C0F0300706D5F696E697400BC
:10A880002573206661696C65642062656361757318
:10A8900065207064735F696E69742829207265741D
:10A8A00075726E65642025732E0000002573206686
:10A8B00061696C65642062656361757365207064AD
:10A8C000625F696E697428292072657475726E659D
:10A8D000642025732E0000002573206661696C6575
:10A8E00064206265636175736520736D5F696E696D
:10A8F0007428292072657475726E65642025732E24
:10A90000000000002573206661696C656420626543
:10A91000636175736520736D645F696E697428295E
:10A920002072657475726E65642025732E000000B8
:10A930002573206661696C65642062656361757367
:10A94000652067636D5F696E69742829207265747C
:10A9500075726E65642025732E00000025732066D5
:10A9600061696C65642062656361757365206773F6
:10A97000636D5F696E697428292072657475726EE3
:10A9800065642025732E0000706D5F7065657273BD
:10A990005F64656C657465002573282920666169AC
:10A9A0006C65642062656361757365206120636115
:10A9B0006C6C20746F20706D5F706565725F64658C
:10A9C0006C65746528292072657475726E656420E3
:10A9D00025732E20706565725F69643A20256400D6
:10A9E000436F756C64206E6F742072657472656954
:10A9F00076652072616E6B732E207064625F706585
:10AA000065725F646174615F6C6F61642829207294
:10AA1000657475726E65642025732E20706565728D
:10AA20005F69643A20256400436F756C64206E6F23
:10AA300074207570646174652072616E6B2E207075
:10AA400064625F7261775F73746F72652829207228
:10AA5000657475726E65642025732E20706565724D
:10AA60005F69643A202564000000000000000000D7
:10AA70000100060054330020BFF35F8F0021016006
:10AA8000704710B504466088FEF723F9A080204681
:10AA9000BDE81040FFF7F2BC38B586B004460D465D
:10AAA00068460FF6040100F006F9ADF80240029581
:10AAB00000F0A9F807B030BDF8B586B00446684686
:10AAC00018210025FCF788FD4FF6FF708442ADF891
:10AAD00002403DD0204600F0D9FD0746DFF898043B
:10AAE000DFF89864861BF608360447B10B2F0CD0AC
:10AAF000112F08D043F20202974222D012E00E201A
:10AB00008DF800000BE001251BE00F208DF8000000
:10AB100022460FF2804146F00200FCF7EDFE00F005
:10AB200072F80EE03846FFF709F8024623460FF2A6
:10AB3000E44146F00100FCF7E5FE39462046FFF708
:10AB4000ABFFDFF83C0441782A462046FDF7A8FF1A
:10AB500007B0F0BD0A46DFF828140978FDF7A0BF5A
:10AB6000AAE72DE9F8458246DFF8148486B0012172
:10AB700008F10800FCF75AFCBFF35F8F00283FD1B3
:10AB8000504600F034FD054600F0F0F9002600279D
:10AB90002404DDB1112D17D0862D04D043F202021A
:10ABA000954224D014E068460FF2147100F083F847
:10ABB000ADF802A052460FF2B04144F00200FCF79B
:10ABC0009BFE00F020F812E0012610E001270EE0C5
:10ABD0002846FEF7B3FF024653460FF2C44144F045
:10ABE0000100FCF78FFE29465046FFF755FF31461E
:10ABF0005046FFF7AFFF1FB908F10800FFF73CFF11
:10AC000007B0BDE8F08568463BE72DE9F843DFF87B
:10AC10007063F17886B08046FDF72BFF002847D19E
:10AC2000404600F085FD012700258146C0B1062879
:10AC300018BF08280DD011281CBF43F2020188421A
:10AC40002ED043F20141884215D14046FFF734FF30
:10AC500026E04046FEF73DF800F096FD00271FE095
:10AC600068460FF2746100F026F8ADF80280FFF735
:10AC7000CAFF012514E0FEF761FF0246DFF8F80283
:10AC8000DFF8F8420FF25841001BC00800044346A9
:10AC900040F00100FCF736FE49464046FFF7FCFE57
:10ACA000B1783A4600F05FF9F1782A4600F05BF996
:10ACB00007B0BDE8F0831822FCF72EBCB048B149BC
:10ACC00080780022FDF722BF82B0694600220A6028
:10ACD000012342F6A622ADF800208DF802300FF2D3
:10ACE00040421368019301AAA0DF02B070471CB56F
:10ACF0000446FDF7EEFF00236A460921FFF711F92C
:10AD0000052805D19E48017901222046FDF7C8FE9D
:10AD100013BD10B59A4C9C4920780022FDF7F6FE31
:10AD200020B920799949BDE81040CAE710BD38B56F
:10AD30000446207898B96088FFF7BEFE65882846EB
:10AD400000F0E6FC28B18E48817801222846FDF704
:10AD5000A7FE6088FFF7CBFFBDE83140D9E731BDE2
:10AD60007CB506463078082804BF707A002832D1B6
:10AD7000317A834D01294FF6FF7411D0072902D093
:10AD8000082921D027E0B088FDF7FCFFA042054646
:10AD900021D00121FFF7DEFE2846FFF7A8FF1AE0C9
:10ADA000B0886A46FEF720FDA8B90199087890B1ED
:10ADB000B088FDF7E7FFA0420DD0A9780122FDF78A
:10ADC0006FFEFFF77BFF06E0A868012804BF05F1CE
:10ADD0000800FFF751FEFFF79CFF73BD10B5684CEC
:10ADE000FDF73EFE2070FDF73BFE6070FDF738FE7C
:10ADF000A070FDF735FEE070FDF732FE217820717E
:10AE000018291CBF6178182906D0A17818291EBFFF
:10AE1000E178182918280CD15748584A0FF2043104
:10AE2000801AC008000440F00100FCF762FD032016
:10AE300010BD0020A060BFF35F8F10BD3EB50FF2C4
:10AE4000B8420029D2E90045CDE9004514BF0FF210
:10AE5000A0410FF2A0410191FDF73BFF002269469E
:10AE6000FFF7C4F868B1FEF769FE02464248434B5B
:10AE70000FF22031C01AC008000440F00200FCF7B5
:10AE80003BFD37BD2DE9F041064686B03088B6F867
:10AE900004803B4D352833D050281FD0522802D093
:10AEA000542804D054E04046FFF706FE50E06846C0
:10AEB0000FF24C41FFF7FFFEADF802804046FDF770
:10AEC00008FFADF8040000F05FFCE97800F04AF8F4
:10AED000A97800F047F8FFF796FE39E0307B0128AB
:10AEE00004BFB07A012802BF308942F602118842BD
:10AEF0002ED101214046FFF72DFEFFF70AFF27E084
:10AF0000297900F02FF8F2880027B2F5857F1BD051
:10AF100000F02CF8240444F002040AB1B5A10CE0BE
:10AF20007289012A04D000BFC1A12046FCF7E4FCCD
:10AF3000B289012A05D00FF234312046FCF7DCFC3F
:10AF400002E0B07B00B1012739464046FFF776FFAB
:10AF500068780F490022FDF7D9FDFFF7AFFE06B074
:10AF6000BDE8F08100224046FDF79ABD0248034C3F
:10AF7000041BE408704700003C0F03003C0F030073
:10AF8000D83300200BAC020063AB0200C9AC020056
:10AF900061AB0200546865206C6F63616C20646172
:10AFA00074616261736520686173206368616E67B4
:10AFB00065642C20736F20736F6D652073756273E9
:10AFC0006372697074696F6E7320746F206E6F7432
:10AFD000696669636174696F6E7320616E6420696C
:10AFE0006E6469636174696F6E7320636F756C64FE
:10AFF000206E6F7420626520726573746F72656471
:10B0000020666F7220636F6E6E5F68616E646C6540
:10B01000202564006773636D5F6C6F63616C5F64B0
:10B02000625F63616368655F6170706C7928292075
:10B0300072657475726E6564202573207768696324
:10B04000682073686F756C64206E6F74206861701F
:10B0500070656E2E20636F6E6E5F68616E646C65E6
:10B060003A20256400000000466C61736820667514
:10B070006C6C2E20436F756C64206E6F742073743B
:10B080006F7265206461746120666F7220636F6EF9
:10B090006E5F68616E646C653A2025640000000094
:10B0A0006773636D5F6C6F63616C5F64625F636144
:10B0B0006368655F757064617465282920726574C2
:10B0C00075726E656420257320666F7220636F6EE3
:10B0D0006E5F68616E646C653A2025640000000054
:10B0E0006773636D5F736572766963655F636861DB
:10B0F0006E6765645F696E645F73656E642829209E
:10B1000072657475726E656420257320666F722097
:10B11000636F6E6E5F68616E646C653A20256400D3
:10B120000100FFFF436F756C64206E6F74206163D4
:10B13000717569726520636F6E6E5F73746174659B
:10B14000207573657220666C6167732E20496E638B
:10B15000726561736520424C455F434F4E4E5F53AD
:10B16000544154455F555345525F464C41475F43F8
:10B170004F554E5420696E2074686520626C655F7F
:10B18000636F6E6E5F7374617465206D6F64756C50
:10B19000652E000043415220636861722076616C25
:10B1A000756520636F756C646E277420626520730B
:10B1B000746F72656420286572726F723A2025730D
:10B1C000292E205265617474656D70742077696CE6
:10B1D0006C2068617070656E206F6E2074686520E9
:10B1E0006E65787420636F6E6E656374696F6E2E22
:10B1F00000000000556E65787065637465642047D3
:10B2000041545420737461747573207768696C6558
:10B210002067657474696E672043415220636861DA
:10B22000722076616C75653A2030782578000000D0
:10B230004D756C7469706C65202825642920434124
:10B2400052206368617261637465726973746963C3
:10B250007320666F756E642C207573696E67207439
:10B2600068652066697273742E000000556E6578FB
:10B270007065637465642043415220636861726144
:10B280006374657269737469632076616C75652097
:10B290006C656E67746820282564292C2073746F90
:10B2A000726520302E000000070000000000000042
:10B2B000000000000000000000000000000000008E
:10B2C0000600000000000000000000000000000078
:10B2D000000000000000000010000000000000005E
:10B2E000000000000000000000000000000000005E
:10B2F0000100000000000000010009000000000043
:10B30000110000000000000000000000000000002C
:10B310000000000000000000BFF35F8FFEF797BF42
:10B3200070B5002818BF002910D07BB1059C049D82
:10B3300004FB05F6B24209D3002D18BF002C05D03E
:10B34000016043608560C460002070BD072070BD4F
:10B350002DE9B84104001CBF20680028884628D089
:10B36000606830B3FF2500270AE0E9B2204600F00C
:10B3700039F86D1CE8B2B842F7DBFF257F1CFFB23D
:10B38000A068874215D260683946FEF745FF401E27
:10B390008041C00FBFF35F8F08D0FF2D08BF3D462F
:10B3A000781B401C4045E9D1284603E0FF2DE5D03D
:10B3B000E0E7FF20BDE8B28138B504001CBF20687B
:10B3C00000280D460CD06068002818BFFF2907D060
:10B3D000FFF7A2FF20B1E06821684543481932BD5C
:10B3E000002032BD38B504001CBF206800280D467F
:10B3F0000FD06068002818BFFF290AD0FFF78CFF24
:10B4000038B16068BFF35F8F2946BDE83440FEF76E
:10B410000FBF31BD40214248FCF7DEB870B504468D
:10B420004FF6FF75AC4208462E460AD14FF48071A4
:10B43000FEF716FF064680B2B0F5807F09D12E4692
:10B4400007E02146B1F5807F03DAFEF7E5FE00B99B
:10B450002646B0B270BD0A460146B1F5807FBCBF3A
:10B460001046FEF7E5BE70472D49D7E710B54FF6F9
:10B47000FF718842044606D02A49FFF7CFFFA04259
:10B4800001D1012010BD002010BD38B5244D044667
:10B490002946FFF7E0FF05F120012046BDE83440D2
:10B4A000D9E70146B0F5807FBCBF1D48FEF7CFBE8F
:10B4B000002070470146B0F5807FBCBF1948FEF7F9
:10B4C000C6BE0020704770B54FF6FF76B0420D46FD
:10B4D00008BF002404D0441CA0B2B0F5807F08DA75
:10B4E000A1B22846FEF7B3FE08B1A0B270BD641C3D
:10B4F000F2E7304670BD38B5094D2946FFF7E3FF46
:10B500004FF6FF729042044606D0FFF7D3FF0028A3
:10B510001CBF29462046F1D1204632BD0149D2E761
:10B52000283200204832002010B572B6FCF749FBE3
:10B53000FCF708FA0028FBD11048114C1149041BF4
:10B54000E408240444F00100FCF7D3F90E48016834
:10B55000CA0700D500BE0D4944F00200FCF7C9F946
:10B56000BFF34F8F0A490B480A6802F4E0620243B6
:10B570000A60BFF34F8F00BFFDE700BF6C0F0300F1
:10B580003C0F030004120300F0ED00E01012030072
:10B590000CED00E00400FA053EB50FF24830002241
:10B5A000D0E90045CDE900456946734C2088FEF797
:10B5B0001DFD014620884FF6FF72904218BF1129E9
:10B5C00005D0FEF77BFD208000226946EFE737BDFE
:10B5D000694801884FF6FF72914218BFFFF7DCBF40
:10B5E000704765494FF6FF700880002070472DE9CD
:10B5F000FE430546FDF76DFB4FF6FF71804688421E
:10B6000008BF43F2020030D001270FF294196B46B5
:10B61000BAB208214046FEF7EBF8002604467F1C2C
:10B6200084BB019803210160021D811D032328466C
:10B63000B2DF04001BD00C2C20D10126082140468B
:10B64000FEF743F970B1FEF779FA03464B484C4CCC
:10B65000001BC00800044246494640F00100FCF7C8
:10B6600051F90324002ED2D12046BDE8FE83424684
:10B6700008214046FEF733F90446F5E7052CDDD1F5
:10B680000024DBE7072CEFD10C24EDE72DE9FC418A
:10B690008046FDF71EFB00260027032401254FF6F8
:10B6A000FF72904208D06A460821FEF79DF818B94B
:10B6B000019887880468861D31463A46234602E091
:10B6C0000021002203234046B1DF042803D00828CC
:10B6D00006D1002000E0112005B90B20BDE8F6815D
:10B6E0000B28F9D10025980748BF0123EBD4002986
:10B6F00008BF002AE4D12148DFF8843048A1C01AED
:10B70000C0080004424640F00100FCF7F5F8E4E709
:10B71000E0B5CDF808D0FDF7DCFA01AA0121FEF76B
:10B7200063F808B100200EBD029800780EBD00003D
:10B7300010B50346134C2046B3DF00284FF6FF72C6
:10B7400011D0FEF7FBF902460C480D4B52A1C01A6E
:10B75000C008000440F00100FCF7CEF8032010BD43
:10B760002088401C208018462188AFDF43F2030167
:10B770008842F5D010BD000024340020440F03009F
:10B780003C0F030026340020E0B500BF57A1D1E9EB
:10B790000023CDE9002369460022FEF727FC07BD00
:10B7A00044696420616E6F746865722074687265A4
:10B7B0006164206D616E6970756C61746520504DB7
:10B7C0005F504545525F444154415F49445F4741A2
:10B7D00054545F4C4F43414C20666F722070656536
:10B7E000725F696420256420617420746865207329
:10B7F000616D652074696D653F207064625F77726A
:10B800006974655F6275665F72656C6561736528F2
:10B81000292072657475726E65642025732E000090
:10B8200073645F626C655F67617474735F7379736F
:10B830005F617474725F7365742829207265747512
:10B84000726E6564204E52465F4552524F525F49B8
:10B850004E56414C49445F4441544120666F72202A
:10B860004E554C4C20706F696E7465722077686914
:10B8700063682073686F756C64206E6576657220EE
:10B8800068617070656E2E20636F6E6E5F68616EAA
:10B89000646C653A2025640073645F626C655F6761
:10B8A000617474735F696E697469616C5F757365E7
:10B8B000725F68616E646C655F67657428292072C9
:10B8C000657475726E656420257320776869636896
:10B8D0002073686F756C64206E6F7420686170707F
:10B8E000656E2E000100010034120300010001000A
:10B8F000381203002DE9FC41054643F2020669B9FE
:10B900006946FEF74EFEB0421CBF0028FEF7D0FC91
:10B910009DF80000C0F34000002843D100212846D4
:10B92000FEF732FE040018BF112C3BD0DFF8840371
:10B93000DFF88473C71BFF083F040D2C47F0020893
:10B9400013D12A460FF27C314046FBF7D5FF132175
:10B95000284676DF30B3FEF7F1F802462B460FF2A9
:10B96000D8314046FBF7CEFF1CE00B2C03D12A4612
:10B970000FF2FC3104E0B44206D12A460FF25041E6
:10B980004046FBF7B9FF0DE02046FEF7D7F8024628
:10B990002B460FF2884147F00100FBF7B3FF20462A
:10B9A000FEF786FCBDE8F381A4E710B5044600F07D
:10B9B000E1F8207818B96088BDE8104077E10728E1
:10B9C0000FD1DFF8F002DFF8F0220FF28C41801A7D
:10B9D000C008000440F00100FBF78BFFA06800B135
:10B9E00061E110BD80B586B068460FF26071182223
:10B9F000FBF792FD684600F010F807B000BD10B5E7
:10BA000086B0044668461821FBF7E6FDADF8044011
:10BA1000684600F002F806B010BDF8B50446A74D20
:10BA2000217869B1022927D006292ED0082918BF0C
:10BA30000A2974D0132975D0142900F08F80F1BD24
:10BA4000A088FEF7ABFE862818BF11280DD16869C3
:10BA5000A1882A1D22F81010401C811000EB5172A1
:10BA6000D210A0EBC200686181E006281CBF072845
:10BA7000132809D000284EE0207A012818BF00289A
:10BA800077D1A088FFF7BBFFF1BD2878002870D1DF
:10BA90008849894E8E1BF608360446F003070FF2DC
:10BAA000C4313846FBF725FF6878A8B900236A46F9
:10BAB0000021FEF70DFE040018D1BDF800200FF2A2
:10BAC000C0313846FBF718FFBDF80000FEF7ADFDAA
:10BAD000040007D101206870FBF790F9D0B901206C
